{"contracts/IdeaNFT.sol":{"IdeaNFT":{"abi":[{"inputs":[],"stateMutability":"nonpayable","type":"constructor"},{"anonymous":false,"inputs":[{"indexed":true,"internalType":"address","name":"owner","type":"address"},{"indexed":true,"internalType":"address","name":"approved","type":"address"},{"indexed":true,"internalType":"uint256","name":"tokenId","type":"uint256"}],"name":"Approval","type":"event"},{"anonymous":false,"inputs":[{"indexed":true,"internalType":"address","name":"owner","type":"address"},{"indexed":true,"internalType":"address","name":"operator","type":"address"},{"indexed":false,"internalType":"bool","name":"approved","type":"bool"}],"name":"ApprovalForAll","type":"event"},{"anonymous":false,"inputs":[{"indexed":false,"internalType":"uint256","name":"_fromTokenId","type":"uint256"},{"indexed":false,"internalType":"uint256","name":"_toTokenId","type":"uint256"}],"name":"BatchMetadataUpdate","type":"event"},{"anonymous":false,"inputs":[{"indexed":true,"internalType":"uint256","name":"tokenId","type":"uint256"},{"indexed":true,"internalType":"address","name":"innovator","type":"address"},{"indexed":false,"internalType":"string","name":"title","type":"string"},{"indexed":false,"internalType":"string","name":"category","type":"string"},{"indexed":false,"internalType":"uint256","name":"timestamp","type":"uint256"}],"name":"IdeaCreated","type":"event"},{"anonymous":false,"inputs":[{"indexed":true,"internalType":"uint256","name":"tokenId","type":"uint256"},{"indexed":true,"internalType":"address","name":"innovator","type":"address"},{"indexed":false,"internalType":"uint256","name":"timestamp","type":"uint256"}],"name":"IdeaUpdated","type":"event"},{"anonymous":false,"inputs":[{"indexed":false,"internalType":"uint256","name":"_tokenId","type":"uint256"}],"name":"MetadataUpdate","type":"event"},{"anonymous":false,"inputs":[{"indexed":true,"internalType":"address","name":"previousOwner","type":"address"},{"indexed":true,"internalType":"address","name":"newOwner","type":"address"}],"name":"OwnershipTransferred","type":"event"},{"anonymous":false,"inputs":[{"indexed":false,"internalType":"address","name":"account","type":"address"}],"name":"Paused","type":"event"},{"anonymous":false,"inputs":[{"indexed":true,"internalType":"uint256","name":"tokenId","type":"uint256"},{"indexed":true,"internalType":"address","name":"innovator","type":"address"},{"indexed":false,"internalType":"uint256","name":"amount","type":"uint256"},{"indexed":false,"internalType":"uint256","name":"timestamp","type":"uint256"}],"name":"RoyaltyPaid","type":"event"},{"anonymous":false,"inputs":[{"indexed":true,"internalType":"address","name":"from","type":"address"},{"indexed":true,"internalType":"address","name":"to","type":"address"},{"indexed":true,"internalType":"uint256","name":"tokenId","type":"uint256"}],"name":"Transfer","type":"event"},{"anonymous":false,"inputs":[{"indexed":false,"internalType":"address","name":"account","type":"address"}],"name":"Unpaused","type":"event"},{"inputs":[],"name":"ROYALTY_PERCENTAGE","outputs":[{"internalType":"uint256","name":"","type":"uint256"}],"stateMutability":"view","type":"function"},{"inputs":[{"internalType":"address","name":"to","type":"address"},{"internalType":"uint256","name":"tokenId","type":"uint256"}],"name":"approve","outputs":[],"stateMutability":"nonpayable","type":"function"},{"inputs":[{"internalType":"address","name":"owner","type":"address"}],"name":"balanceOf","outputs":[{"internalType":"uint256","name":"","type":"uint256"}],"stateMutability":"view","type":"function"},{"inputs":[{"internalType":"string","name":"","type":"string"},{"internalType":"uint256","name":"","type":"uint256"}],"name":"categoryIdeas","outputs":[{"internalType":"uint256","name":"","type":"uint256"}],"stateMutability":"view","type":"function"},{"inputs":[{"internalType":"string","name":"title","type":"string"},{"internalType":"string","name":"description","type":"string"},{"internalType":"string","name":"category","type":"string"},{"internalType":"string[]","name":"tags","type":"string[]"},{"internalType":"string","name":"imageUri","type":"string"},{"internalType":"string","name":"metadataUri","type":"string"}],"name":"createIdea","outputs":[{"internalType":"uint256","name":"","type":"uint256"}],"stateMutability":"nonpayable","type":"function"},{"inputs":[{"internalType":"uint256","name":"tokenId","type":"uint256"}],"name":"deactivateIdea","outputs":[],"stateMutability":"nonpayable","type":"function"},{"inputs":[],"name":"feesEnabled","outputs":[{"internalType":"bool","name":"","type":"bool"}],"stateMutability":"view","type":"function"},{"inputs":[{"internalType":"uint256","name":"tokenId","type":"uint256"}],"name":"getApproved","outputs":[{"internalType":"address","name":"","type":"address"}],"stateMutability":"view","type":"function"},{"inputs":[{"internalType":"uint256","name":"tokenId","type":"uint256"}],"name":"getIdea","outputs":[{"components":[{"internalType":"uint256","name":"tokenId","type":"uint256"},{"internalType":"address","name":"innovator","type":"address"},{"internalType":"string","name":"title","type":"string"},{"internalType":"string","name":"description","type":"string"},{"internalType":"string","name":"category","type":"string"},{"internalType":"string[]","name":"tags","type":"string[]"},{"internalType":"string","name":"imageUri","type":"string"},{"internalType":"string","name":"metadataUri","type":"string"},{"internalType":"uint256","name":"createdAt","type":"uint256"},{"internalType":"uint256","name":"updatedAt","type":"uint256"},{"internalType":"bool","name":"isActive","type":"bool"}],"internalType":"struct IdeaNFT.Idea","name":"","type":"tuple"}],"stateMutability":"view","type":"function"},{"inputs":[{"internalType":"string","name":"category","type":"string"}],"name":"getIdeasByCategory","outputs":[{"internalType":"uint256[]","name":"","type":"uint256[]"}],"stateMutability":"view","type":"function"},{"inputs":[{"internalType":"address","name":"innovator","type":"address"}],"name":"getIdeasByInnovator","outputs":[{"internalType":"uint256[]","name":"","type":"uint256[]"}],"stateMutability":"view","type":"function"},{"inputs":[],"name":"getTotalIdeas","outputs":[{"internalType":"uint256","name":"","type":"uint256"}],"stateMutability":"view","type":"function"},{"inputs":[{"internalType":"uint256","name":"","type":"uint256"}],"name":"ideas","outputs":[{"internalType":"uint256","name":"tokenId","type":"uint256"},{"internalType":"address","name":"innovator","type":"address"},{"internalType":"string","name":"title","type":"string"},{"internalType":"string","name":"description","type":"string"},{"internalType":"string","name":"category","type":"string"},{"internalType":"string","name":"imageUri","type":"string"},{"internalType":"string","name":"metadataUri","type":"string"},{"internalType":"uint256","name":"createdAt","type":"uint256"},{"internalType":"uint256","name":"updatedAt","type":"uint256"},{"internalType":"bool","name":"isActive","type":"bool"}],"stateMutability":"view","type":"function"},{"inputs":[{"internalType":"address","name":"","type":"address"},{"internalType":"uint256","name":"","type":"uint256"}],"name":"innovatorIdeas","outputs":[{"internalType":"uint256","name":"","type":"uint256"}],"stateMutability":"view","type":"function"},{"inputs":[{"internalType":"address","name":"owner","type":"address"},{"internalType":"address","name":"operator","type":"address"}],"name":"isApprovedForAll","outputs":[{"internalType":"bool","name":"","type":"bool"}],"stateMutability":"view","type":"function"},{"inputs":[],"name":"mintFee","outputs":[{"internalType":"uint256","name":"","type":"uint256"}],"stateMutability":"view","type":"function"},{"inputs":[],"name":"name","outputs":[{"internalType":"string","name":"","type":"string"}],"stateMutability":"view","type":"function"},{"inputs":[],"name":"owner","outputs":[{"internalType":"address","name":"","type":"address"}],"stateMutability":"view","type":"function"},{"inputs":[{"internalType":"uint256","name":"tokenId","type":"uint256"}],"name":"ownerOf","outputs":[{"internalType":"address","name":"","type":"address"}],"stateMutability":"view","type":"function"},{"inputs":[],"name":"pause","outputs":[],"stateMutability":"nonpayable","type":"function"},{"inputs":[],"name":"paused","outputs":[{"internalType":"bool","name":"","type":"bool"}],"stateMutability":"view","type":"function"},{"inputs":[{"internalType":"uint256","name":"tokenId","type":"uint256"}],"name":"reactivateIdea","outputs":[],"stateMutability":"nonpayable","type":"function"},{"inputs":[],"name":"renounceOwnership","outputs":[],"stateMutability":"nonpayable","type":"function"},{"inputs":[{"internalType":"uint256","name":"tokenId","type":"uint256"},{"internalType":"uint256","name":"salePrice","type":"uint256"}],"name":"royaltyInfo","outputs":[{"internalType":"address","name":"receiver","type":"address"},{"internalType":"uint256","name":"royaltyAmount","type":"uint256"}],"stateMutability":"view","type":"function"},{"inputs":[{"internalType":"uint256","name":"tokenId","type":"uint256"}],"name":"royaltyReceiver","outputs":[{"internalType":"address","name":"","type":"address"}],"stateMutability":"view","type":"function"},{"inputs":[{"internalType":"address","name":"from","type":"address"},{"internalType":"address","name":"to","type":"address"},{"internalType":"uint256","name":"tokenId","type":"uint256"}],"name":"safeTransferFrom","outputs":[],"stateMutability":"nonpayable","type":"function"},{"inputs":[{"internalType":"address","name":"from","type":"address"},{"internalType":"address","name":"to","type":"address"},{"internalType":"uint256","name":"tokenId","type":"uint256"},{"internalType":"bytes","name":"data","type":"bytes"}],"name":"safeTransferFrom","outputs":[],"stateMutability":"nonpayable","type":"function"},{"inputs":[{"internalType":"address","name":"operator","type":"address"},{"internalType":"bool","name":"approved","type":"bool"}],"name":"setApprovalForAll","outputs":[],"stateMutability":"nonpayable","type":"function"},{"inputs":[{"internalType":"uint256","name":"_mintFee","type":"uint256"}],"name":"setMintFee","outputs":[],"stateMutability":"nonpayable","type":"function"},{"inputs":[{"internalType":"address","name":"_usdcToken","type":"address"}],"name":"setUsdcToken","outputs":[],"stateMutability":"nonpayable","type":"function"},{"inputs":[{"internalType":"bytes4","name":"interfaceId","type":"bytes4"}],"name":"supportsInterface","outputs":[{"internalType":"bool","name":"","type":"bool"}],"stateMutability":"view","type":"function"},{"inputs":[],"name":"symbol","outputs":[{"internalType":"string","name":"","type":"string"}],"stateMutability":"view","type":"function"},{"inputs":[],"name":"toggleFees","outputs":[],"stateMutability":"nonpayable","type":"function"},{"inputs":[{"internalType":"uint256","name":"tokenId","type":"uint256"}],"name":"tokenURI","outputs":[{"internalType":"string","name":"","type":"string"}],"stateMutability":"view","type":"function"},{"inputs":[{"internalType":"address","name":"from","type":"address"},{"internalType":"address","name":"to","type":"address"},{"internalType":"uint256","name":"tokenId","type":"uint256"}],"name":"transferFrom","outputs":[],"stateMutability":"nonpayable","type":"function"},{"inputs":[{"internalType":"address","name":"newOwner","type":"address"}],"name":"transferOwnership","outputs":[],"stateMutability":"nonpayable","type":"function"},{"inputs":[],"name":"unpause","outputs":[],"stateMutability":"nonpayable","type":"function"},{"inputs":[{"internalType":"uint256","name":"tokenId","type":"uint256"},{"internalType":"string","name":"title","type":"string"},{"internalType":"string","name":"description","type":"string"},{"internalType":"string","name":"category","type":"string"},{"internalType":"string[]","name":"tags","type":"string[]"},{"internalType":"string","name":"imageUri","type":"string"},{"internalType":"string","name":"metadataUri","type":"string"}],"name":"updateIdea","outputs":[],"stateMutability":"nonpayable","type":"function"},{"inputs":[],"name":"usdcToken","outputs":[{"internalType":"address","name":"","type":"address"}],"stateMutability":"view","type":"function"},{"inputs":[],"name":"withdrawFees","outputs":[],"stateMutability":"nonpayable","type":"function"}],"evm":{"bytecode":{"linkReferences":{},"object":"60803462000387576001600160401b03906040908082018381118282101762000371578252600f81526020916e13dc9c1a185b881259195848139195608a1b83830152805193818501858110828211176200037157825260048552634944454160e01b84860152825181811162000371576000948554916001958684811c9416801562000366575b8385101462000352578190601f94858111620002ff575b5083908583116001146200029b5789926200028f575b5050600019600383901b1c191690861b1786555b86519283116200027b5784548581811c9116801562000270575b828210146200025c5782811162000214575b5080918311600114620001ab5750849582939495926200019f575b5050600019600383901b1c191690831b1782555b60078054336001600160a01b03198216811790925591519390916001600160a01b0316907f8be0079c531659141344cd1fd0a4f28419497f9722a3daafe3b4186f6b6457e09080a36008556009805460ff19169055624c4b40600b55600c805460ff60a01b1916600160a01b17905561390190816200038d8239f35b0151905038806200010f565b90601f198316968587528287209287905b898210620001fc5750508386979896959610620001e2575b505050811b01825562000123565b015160001960f88460031b161c19169055388080620001d4565b808885968294968601518155019501930190620001bc565b8587528187208380860160051c82019284871062000252575b0160051c019086905b82811062000246575050620000f4565b88815501869062000236565b925081926200022d565b634e487b7160e01b87526022600452602487fd5b90607f1690620000e2565b634e487b7160e01b86526041600452602486fd5b015190503880620000b4565b898052848a208994509190601f1984168b5b87828210620002e85750508411620002ce575b505050811b018655620000c8565b015160001960f88460031b161c19169055388080620002c0565b8385015186558c97909501949384019301620002ad565b9091508880528389208580850160051c82019286861062000348575b918a91869594930160051c01915b828110620003395750506200009e565b8b81558594508a910162000329565b925081926200031b565b634e487b7160e01b88526022600452602488fd5b93607f169362000087565b634e487b7160e01b600052604160045260246000fd5b600080fdfe608080604052600436101561001357600080fd5b60003560e01c90816301ffc9a714612c395750806306fdde0314612b96578063081812fc14612b78578063095ea7b3146129fe578063115a4bac146129e057806311eac855146129b757806313966db514612999578063228ee43e1461291157806323b872dd146128ed5780632a55205a146128605780633f4ba83a146127cc578063424a2bf11461271f57806342842e0e146126ec57806344de6b2f14612433578063463b08db14612416578063467a792714612392578063476343ee146122675780635c975abb146122445780635cd2dd5e146121ea5780635d886f22146121665780636352211e1461213657806370a082311461209f578063715018a6146120425780638456cb5914611faf5780638da5cb5b14611f8657806395b5383714611e8457806395d89b4114611da5578063a22cb46514611cca578063a64e4f8a14611ca4578063a9472016146112c1578063abaa44f5146105c2578063b88d4fde1461053b578063c0ed4154146104d0578063c87b56dd1461045a578063c93b66f914610402578063dc6dd05214610353578063ddf5451214610317578063e985e9c5146102c1578063eddd0d9c146102a05763f2fde38b146101d757600080fd5b3461029b57602036600319011261029b576101f0612d20565b6101f8613029565b6001600160a01b0390811690811561024757600754826001600160601b0360a01b821617600755167f8be0079c531659141344cd1fd0a4f28419497f9722a3daafe3b4186f6b6457e0600080a3005b60405162461bcd60e51b815260206004820152602660248201527f4f776e61626c653a206e6577206f776e657220697320746865207a65726f206160448201526564647265737360d01b6064820152608490fd5b600080fd5b3461029b57602036600319011261029b576102b9613029565b600435600b55005b3461029b57604036600319011261029b576102da612d20565b6102e2612d36565b9060018060a01b03809116600052600560205260406000209116600052602052602060ff604060002054166040519015158152f35b3461029b57600036600319011261029b57610330613029565b600c805460ff60a01b19811660a091821c60ff161590911b60ff60a01b16179055005b3461029b57602036600319011261029b5760043560008181526002602052604090205461038f906001600160a01b0316151561383d565b61383d565b80600052600d6020526103b360018060a01b0360016040600020015416331461387f565b80600052600d6020526040600020600a810160ff198154169055600942910155604051904282527f3d16ea86111872645a6b9be237c624253a379483a0fec7f94765752dca698dcf60203393a3005b3461029b57604036600319011261029b5761041b612d20565b6001600160a01b03166000908152600e602052604090208054602435919082101561029b5760209161044c91612ffb565b90546040519160031b1c8152f35b3461029b57602036600319011261029b57600435600081815260026020526040902054610491906001600160a01b03161515613081565b60005260066020526104cc6104a96040600020612ebe565b60006040516104b781612d68565b52604051918291602083526020830190612cfb565b0390f35b3461029b57604036600319011261029b576004356001600160401b03811161029b57610500903690600401612df6565b61051c6020602435928160405193828580945193849201612cd8565b8101600f815203019020805482101561029b5760209161044c91612ffb565b3461029b57608036600319011261029b57610554612d20565b61055c612d36565b90606435906044356001600160401b03831161029b573660238401121561029b576105c0936105986105bb943690602481600401359101612dbf565b926105ab6105a68433613207565b61312e565b6105b68383836132cf565b6134fe565b6131e3565b005b3461029b5760c036600319011261029b576004356001600160401b03811161029b576105f2903690600401612df6565b6024356001600160401b03811161029b57610611903690600401612df6565b906044356001600160401b03811161029b57610631903690600401612df6565b906064356001600160401b03811161029b57610651903690600401612f7b565b916084356001600160401b03811161029b57610671903690600401612df6565b9360a4356001600160401b03811161029b57610691903690600401612df6565b9460026008541461127c576002600855600c5460ff8160a01c1615611237576106c4906001600160a01b03161515613585565b8351156111fa578151156111b5578251156111705784511561112b576001600a54019485600a55604051926106f884612d4c565b868452336020850152856040850152606084015283608084015260a083015260c08201528460e08201524261010082015242610120820152600161014082015283600052600d6020526040600020908051825560018060a01b036020820151166001600160601b0360a01b60018401541617600183015560408101518051906001600160401b038211610cc05781906107946002860154612e84565b601f81116110f6575b50602090601f831160011461108457600092611079575b50508160011b916000199060031b1c19161760028301555b60608101518051906001600160401b038211610cc05781906107f16003860154612e84565b601f8111611044575b50602090601f8311600114610fd257600092610fc7575b50508160011b916000199060031b1c19161760038301555b60808101518051906001600160401b038211610cc057819061084e6004860154612e84565b601f8111610f92575b50602090601f8311600114610f2057600092610f15575b50508160011b916000199060031b1c19161760048301555b60a0810151805190600160401b8211610cc0576005840154826005860155808310610e9d575b5060200190600584016000526020600020916000905b828210610d88575050505060c08101518051906001600160401b038211610cc05781906108f26006860154612e84565b601f8111610d53575b50602090601f8311600114610ce157600092610cd6575b50508160011b916000199060031b1c19161760068301555b60e08101518051906001600160401b038211610cc05761094d6007850154612e84565b601f8111610c80575b50602090601f8311600114610c06579282600a93610140936109c09796600092610bfb575b50508160011b916000199060031b1c19161760078501555b610100810151600885015561012081015160098501550151151591019060ff801983541691151516179055565b33600052600e6020526109d78360406000206135dd565b6109ff8360405160208185516109f08183858a01612cd8565b8101600f8152030190206135dd565b6000602060018060a01b03600c54166064600b5460405194859384926323b872dd60e01b845233600485015230602485015260448401525af18015610bef57610bc0575b50604051610a5081612d68565b600081523315610b7c57610b628492610b40602097610b3a6105bb7ff312782d31f7dcd1ba423329a047e0942e88f349ce14c25a3855369b97756a8996610ab5610aaf8a600052600260205260018060a01b0360406000205416151590565b15613618565b600089815260026020526040902054610ad8906001600160a01b03161515610aaf565b3360005260038c526040600020600181540190558860005260028c526040600020336001600160601b0360a01b825416179055883360007fddf252ad1be2c89b69c2b068fc378daa952ba7f163c4a11628f55a4df523b3ef8180a488336133e0565b85613664565b610b5560405195606087526060870190612cfb565b9085820388870152612cfb565b924260408201528033940390a36001600855604051908152f35b606460405162461bcd60e51b815260206004820152602060248201527f4552433732313a206d696e7420746f20746865207a65726f20616464726573736044820152fd5b610be19060203d602011610be8575b610bd98183612d83565b810190613600565b5084610a43565b503d610bcf565b6040513d6000823e3d90fd5b015190508b8061097b565b906007850160005260206000209160005b601f1985168110610c68575083610140936109c0979693600193600a97601f19811610610c4f575b505050811b016007850155610993565b015160001960f88460031b161c191690558b8080610c3f565b91926020600181928685015181550194019201610c17565b610cb090600786016000526020600020601f850160051c81019160208610610cb6575b601f0160051c01906135c6565b88610956565b9091508190610ca3565b634e487b7160e01b600052604160045260246000fd5b015190508880610912565b9250600685016000526020600020906000935b601f1984168510610d38576001945083601f19811610610d1f575b505050811b01600683015561092a565b015160001960f88460031b161c19169055888080610d0f565b81810151835560209485019460019093019290910190610cf4565b610d8290600687016000526020600020601f850160051c81019160208610610cb657601f0160051c01906135c6565b896108fb565b80518051906001600160401b038211610cc057610da58654612e84565b601f8111610e6b575b50602090601f8311600114610dfb579282600194936020938695600092610df0575b5050600019600383901b1c191690841b1787555b019401910190926108c2565b015190508f80610dd0565b908660005260206000209160005b601f1985168110610e53575083602093600196938796938794601f19811610610e3a575b505050811b018755610de4565b015160001960f88460031b161c191690558f8080610e2d565b91926020600181928685015181550194019201610e09565b610e9790876000526020600020601f850160051c81019160208610610cb657601f0160051c01906135c6565b8c610dae565b600585016000526020600020908382015b8183018110610ebe5750506108ac565b80610ecb60019254612e84565b80610ed8575b5001610eae565b601f81118314610eee5750600081555b8c610ed1565b600090828252610f0c601f60208420920160051c82018583016135c6565b81835555610ee8565b01519050888061086e565b9250600485016000526020600020906000935b601f1984168510610f77576001945083601f19811610610f5e575b505050811b016004830155610886565b015160001960f88460031b161c19169055888080610f4e565b81810151835560209485019460019093019290910190610f33565b610fc190600487016000526020600020601f850160051c81019160208610610cb657601f0160051c01906135c6565b89610857565b015190508880610811565b9250600385016000526020600020906000935b601f1984168510611029576001945083601f19811610611010575b505050811b016003830155610829565b015160001960f88460031b161c19169055888080611000565b81810151835560209485019460019093019290910190610fe5565b61107390600387016000526020600020601f850160051c81019160208610610cb657601f0160051c01906135c6565b896107fa565b0151905088806107b4565b9250600285016000526020600020906000935b601f19841685106110db576001945083601f198116106110c2575b505050811b0160028301556107cc565b015160001960f88460031b161c191690558880806110b2565b81810151835560209485019460019093019290910190611097565b61112590600287016000526020600020601f850160051c81019160208610610cb657601f0160051c01906135c6565b8961079d565b60405162461bcd60e51b815260206004820152601c60248201527f4174206c65617374206f6e6520746167206973207265717569726564000000006044820152606490fd5b60405162461bcd60e51b815260206004820152601860248201527f43617465676f72792063616e6e6f7420626520656d70747900000000000000006044820152606490fd5b60405162461bcd60e51b815260206004820152601b60248201527f4465736372697074696f6e2063616e6e6f7420626520656d70747900000000006044820152606490fd5b60405162461bcd60e51b81526020600482015260156024820152745469746c652063616e6e6f7420626520656d70747960581b6044820152606490fd5b60405162461bcd60e51b815260206004820152601b60248201527f46656573206172652063757272656e746c792064697361626c656400000000006044820152606490fd5b60405162461bcd60e51b815260206004820152601f60248201527f5265656e7472616e637947756172643a207265656e7472616e742063616c6c006044820152606490fd5b3461029b5760e036600319011261029b576024356001600160401b03811161029b576112f1903690600401612df6565b6044356001600160401b03811161029b57611310903690600401612df6565b6064356001600160401b03811161029b5761132f903690600401612df6565b916084356001600160401b03811161029b5761134f903690600401612f7b565b60a4356001600160401b03811161029b5761136e903690600401612df6565b9360c4356001600160401b03811161029b5761138e903690600401612df6565b936113b361038a600435600052600260205260018060a01b0360406000205416151590565b600435600052600d6020526113d960018060a01b0360016040600020015416331461387f565b600435600052600d602052604060002093805180611ba6575b505080519081611a98575b50508051611845575b508051908161166c575b5050825180611569575b5081519250908261145f575b5060094291015560405142815233907f3d16ea86111872645a6b9be237c624253a379483a0fec7f94765752dca698dcf602060043592a3005b600782016001600160401b038411610cc05761147b8154612e84565b601f8111611537575b50602093601f81116001146114cf57806114bd94956000916114c4575b508160011b916000199060031b1c19161790555b600435613664565b8082611426565b9050830151866114a1565b601f1981168260005260206000209060005b81811061151f5750906114bd9596836001949310611506575b5050811b0190556114b5565b85015160001960f88460031b161c1916905586806114fa565b858801518355602097880197600190930192016114e1565b61156390826000526020600020601f870160051c81019160208810610cb657601f0160051c01906135c6565b84611484565b60068201906001600160401b038111610cc0576115868254612e84565b601f811161163a575b50602094601f82116001146115d4579481929394956000926115c9575b50508160011b916000199060031b1c19161790555b81908361141a565b0151905085806115ac565b601f198216958360005260206000209160005b88811061162257508360019596979810611609575b505050811b0190556115c1565b015160001960f88460031b161c191690558580806115fc565b919260206001819286850151815501940192016115e7565b61166690836000526020600020601f840160051c81019160208510610cb657601f0160051c01906135c6565b8561158f565b600160401b8211610cc05760058301548260058501558083106117cc575b5060200190600583016000526020600020916000905b8282106116ae575050611410565b80518051906001600160401b038211610cc0576116cb8654612e84565b90601f91828111611792575b506020918311600114611722579282600194936020938695600092611717575b5050600019600383901b1c191690841b1787555b019401910190926116a0565b015190508c806116f7565b908660005260206000209160005b601f198516811061177a575083602093600196938796938794601f19811610611761575b505050811b01875561170b565b015160001960f88460031b161c191690558c8080611754565b91926020600181928685015181550194019201611730565b6117bd908860005260206000208480870160051c820192602088106117c3575b0160051c01906135c6565b8a6116d7565b925081926117b2565b600584016000526020600020908382015b81830181106117ed57505061168a565b806117fa60019254612e84565b80611807575b50016117dd565b601f908181118414611820575050600081555b89611800565b61183c60009284845260208420920160051c82018583016135c6565b8183555561181a565b9392919061186d602061185a60048501612ebe565b8160405193828580945193849201612cd8565b8101600f8152030190209460005b865480821015611a8b5761188f8289612ffb565b905460039291831b1c600435146118c957505060001981146118b35760010161187b565b634e487b7160e01b600052601160045260246000fd5b600098929193949596979819918282019182116118b3576118fd6118f06119169386612ffb565b905490871b1c9185612ffb565b90919082549060031b91821b91600019901b1916179055565b81548015611a755781019261192b8484612ffb565b81939154921b1b19169055555b80516001600160401b038111610cc0576119556004850154612e84565b601f8111611a40575b506020601f82116001146119cf5790806119be93926000916119c4575b508160011b916000199060031b1c19161760048501555b60206119a76040519283815193849201612cd8565b810190600f825260208160043593030190206135dd565b84611406565b90508201518861197b565b6004850160005260206000209060005b601f1984168110611a285750916001916119be949382601f19811610611a0f575b5050811b016004850155611992565b84015160001960f88460031b161c191690558880611a00565b909160206001819285880151815501930191016119df565b611a6f90600486016000526020600020601f840160051c81019160208510610cb657601f0160051c01906135c6565b8661195e565b634e487b7160e01b600052603160045260246000fd5b5050909192939450611938565b6001600160401b038211610cc0578190611ab56003870154612e84565b601f8111611b71575b50602090601f8311600114611aff57600092611af4575b50508160011b916000199060031b1c19161760038401555b85806113fd565b015190508780611ad5565b9250600386016000526020600020906000935b601f1984168510611b56576001945083601f19811610611b3d575b505050811b016003840155611aed565b015160001960f88460031b161c19169055878080611b2d565b81810151835560209485019460019093019290910190611b12565b611ba090600388016000526020600020601f850160051c81019160208610610cb657601f0160051c01906135c6565b88611abe565b60028601916001600160401b038211610cc0578190611bc58454612e84565b601f8111611c72575b50602090601f8311600114611c0c57600092611c01575b50508160011b916000199060031b1c19161790555b86806113f2565b015190508980611be5565b6000858152602081209350601f198516905b818110611c5a5750908460019594939210611c41575b505050811b019055611bfa565b015160001960f88460031b161c19169055898080611c34565b92936020600181928786015181550195019301611c1e565b611c9e90856000526020600020601f850160051c81019160208610610cb657601f0160051c01906135c6565b8a611bce565b3461029b57600036600319011261029b57602060ff600c5460a01c166040519015158152f35b3461029b57604036600319011261029b57611ce3612d20565b602435908115159081830361029b576001600160a01b031691338314611d6057611d329033600052600560205260406000208460005260205260406000209060ff801983541691151516179055565b6040519081527f17307eab39ab6107e8899845ad3d59bd9653f200f220920489ca2b5937696c3160203392a3005b60405162461bcd60e51b815260206004820152601960248201527f4552433732313a20617070726f766520746f2063616c6c6572000000000000006044820152606490fd5b3461029b57600036600319011261029b5760405160006001805490611dc982612e84565b80855291818116908115611e5d5750600114611e04575b6104cc84611df081860382612d83565b604051918291602083526020830190612cfb565b600081815292507fb10e2d527612073b26eecdfd717e6a320cf44b4afac2b0732d9fcbe2b7fa0cf65b828410611e45575050508101602001611df082611de0565b80546020858701810191909152909301928101611e2d565b60ff191660208087019190915292151560051b85019092019250611df09150839050611de0565b3461029b57602036600319011261029b576004356000908152600d60205260409020805460018201546001600160a01b031691611ec360028201612ebe565b611ecf60038301612ebe565b91611edc60048201612ebe565b611ee860068301612ebe565b611ef460078401612ebe565b91600884015495600985015494600a015460ff1695604051998a998a5260208a01526101408060408b01528901611f2a91612cfb565b88810360608a0152611f3b91612cfb565b8781036080890152611f4c91612cfb565b86810360a0880152611f5d91612cfb565b85810360c0870152611f6e91612cfb565b9260e085015261010084015215156101208301520390f35b3461029b57600036600319011261029b576007546040516001600160a01b039091168152602090f35b3461029b57600036600319011261029b57611fc8613029565b60095460ff811661200a5760019060ff1916176009557f62e78cea01bee320cd4e420270b5ea74000d11b0c9f74754ebdbfc544b05a2586020604051338152a1005b60405162461bcd60e51b815260206004820152601060248201526f14185d5cd8589b194e881c185d5cd95960821b6044820152606490fd5b3461029b57600036600319011261029b5761205b613029565b600780546001600160a01b031981169091556000906001600160a01b03167f8be0079c531659141344cd1fd0a4f28419497f9722a3daafe3b4186f6b6457e08280a3005b3461029b57602036600319011261029b576001600160a01b036120c0612d20565b1680156120df5760005260036020526020604060002054604051908152f35b60405162461bcd60e51b815260206004820152602960248201527f4552433732313a2061646472657373207a65726f206973206e6f7420612076616044820152683634b21037bbb732b960b91b6064820152608490fd5b3461029b57602036600319011261029b5760206121546004356130cd565b6040516001600160a01b039091168152f35b3461029b57602036600319011261029b5761217f612d20565b612187613029565b6001600160a01b031680156121ae576001600160601b0360a01b600c541617600c55600080f35b60405162461bcd60e51b8152602060048201526014602482015273496e76616c69642055534443206164647265737360601b6044820152606490fd5b3461029b57602036600319011261029b57600435600081815260026020526040902054612221906001600160a01b0316151561383d565b600052600d602052602060018060a01b0360016040600020015416604051908152f35b3461029b57600036600319011261029b57602060ff600954166040519015158152f35b3461029b57600036600319011261029b57612280613029565b600c546001600160a01b03908116612299811515613585565b604051906370a0823160e01b82523060048301526020928383602481855afa928315610bef57600093612363575b5082156123285760075460405163a9059cbb60e01b815291166001600160a01b03166004820152602481019290925282908290816000816044810103925af18015610bef5761231257005b816105c092903d10610be857610bd98183612d83565b60405162461bcd60e51b81526004810185905260136024820152724e6f206665657320746f20776974686472617760681b6044820152606490fd5b9092508381813d831161238b575b61237b8183612d83565b8101031261029b575191846122c7565b503d612371565b3461029b5760208060031936011261029b576001600160a01b036123b4612d20565b16600052600e8152604060002090604051908181845491828152019360005281600020916000905b8282106123ff576104cc856123f381890382612d83565b60405191829182612e14565b8354865294850194600193840193909101906123dc565b3461029b57600036600319011261029b5760206040516101f48152f35b3461029b57602036600319011261029b57600435600061014060405161245881612d4c565b8281528260208201526060604082015260608082015260606080820152606060a0820152606060c0820152606060e0820152826101008201528261012082015201526124bc61038a82600052600260205260018060a01b0360406000205416151590565b600052600d6020526040600020604051906124d682612d4c565b8054825260018101546001600160a01b031660208301526124f960028201612ebe565b604083015261250a60038201612ebe565b606083015261251b60048201612ebe565b608083015260058101805461252f81612f64565b9161253d6040519384612d83565b818352602083019060005260206000206000915b8383106126cf578660ff600a888860a085015261257060068201612ebe565b60c085015261258160078201612ebe565b60e08501526008810154610100850152600981015461012085015201541615156101408201526040805160208082528351818301528301516001600160a01b0316818301529082015161016060608301526125e190610180830190612cfb565b91612615612601606083015194601f199586868303016080870152612cfb565b6080830151858583030160a0860152612cfb565b60a082015190848482030160c0850152815180825260208201916020808360051b8301019401926000915b8383106126a45787808861014061267f8d6126698c60c0860151838883030160e0890152612cfb565b9060e08501519086830301610100870152612cfb565b9161010081015161012085015261012081015182850152015115156101608301520390f35b90919293946020806126c0838c86600196030187528951612cfb565b97019301930191939290612640565b6001602081926126de85612ebe565b815201920192019190612551565b3461029b576105c06105bb61270036612e4f565b906040519261270e84612d68565b600084526105ab6105a68433613207565b3461029b57602036600319011261029b57600435600081815260026020526040902054612756906001600160a01b0316151561383d565b80600052600d60205261277a60018060a01b0360016040600020015416331461387f565b80600052600d6020526040600020600a8101600160ff19825416179055600942910155604051904282527f3d16ea86111872645a6b9be237c624253a379483a0fec7f94765752dca698dcf60203393a3005b3461029b57600036600319011261029b576127e5613029565b60095460ff8116156128245760ff19166009557f5db9ee0a495bf2e6ff9c91a7834c1ba4fdd244a5e8aa4e537bd38aeae4b073aa6020604051338152a1005b60405162461bcd60e51b815260206004820152601460248201527314185d5cd8589b194e881b9bdd081c185d5cd95960621b6044820152606490fd5b3461029b57604036600319011261029b57600435600081815260026020526040902054602435919061289c906001600160a01b0316151561383d565b6000908152600d60205260409020600101546001600160a01b0316906101f480820291801590830490911417156118b357604080516001600160a01b03939093168352612710909104602083015290f35b3461029b576105c06128fe36612e4f565b9161290c6105a68433613207565b6132cf565b3461029b5760208060031936011261029b576004356001600160401b03811161029b578161185a612946923690600401612df6565b8101600f81520301902090604051908181845491828152019360005281600020916000905b828210612982576104cc856123f381890382612d83565b83548652948501946001938401939091019061296b565b3461029b57600036600319011261029b576020600b54604051908152f35b3461029b57600036600319011261029b57600c546040516001600160a01b039091168152602090f35b3461029b57600036600319011261029b576020600a54604051908152f35b3461029b57604036600319011261029b57612a17612d20565b602435906001600160a01b038080612a2e856130cd565b16921691808314612b2957803314908115612b04575b5015612a9957600083815260046020526040902080546001600160a01b03191683179055612a71836130cd565b167f8c5be1e5ebec7d5bd14f71427d1e84f3dd0314c0f7b2291e5b200ac8c7c3b925600080a4005b60405162461bcd60e51b815260206004820152603d60248201527f4552433732313a20617070726f76652063616c6c6572206973206e6f7420746f60448201527f6b656e206f776e6572206f7220617070726f76656420666f7220616c6c0000006064820152608490fd5b9050600052600560205260406000203360005260205260ff6040600020541684612a44565b60405162461bcd60e51b815260206004820152602160248201527f4552433732313a20617070726f76616c20746f2063757272656e74206f776e656044820152603960f91b6064820152608490fd5b3461029b57602036600319011261029b5760206121546004356130f0565b3461029b57600036600319011261029b5760405160008054612bb781612e84565b80845290600190818116908115611e5d5750600114612be0576104cc84611df081860382612d83565b600080805292507f290decd9548b62a8d60345a988386fc84ba6bc95484008f6362f93160ef3e5635b828410612c21575050508101602001611df082611de0565b80546020858701810191909152909301928101612c09565b3461029b57602036600319011261029b576004359063ffffffff60e01b821680920361029b5760209163152a902d60e11b8114908115612c7b575b5015158152f35b632483248360e11b811491508115612c95575b5083612c74565b6380ac58cd60e01b811491508115612cc7575b8115612cb6575b5083612c8e565b6301ffc9a760e01b14905083612caf565b635b5e139f60e01b81149150612ca8565b60005b838110612ceb5750506000910152565b8181015183820152602001612cdb565b90602091612d1481518092818552858086019101612cd8565b601f01601f1916010190565b600435906001600160a01b038216820361029b57565b602435906001600160a01b038216820361029b57565b61016081019081106001600160401b03821117610cc057604052565b602081019081106001600160401b03821117610cc057604052565b90601f801991011681019081106001600160401b03821117610cc057604052565b6001600160401b038111610cc057601f01601f191660200190565b929192612dcb82612da4565b91612dd96040519384612d83565b82948184528183011161029b578281602093846000960137010152565b9080601f8301121561029b57816020612e1193359101612dbf565b90565b6020908160408183019282815285518094520193019160005b828110612e3b575050505090565b835185529381019392810192600101612e2d565b606090600319011261029b576001600160a01b0390600435828116810361029b5791602435908116810361029b579060443590565b90600182811c92168015612eb4575b6020831014612e9e57565b634e487b7160e01b600052602260045260246000fd5b91607f1691612e93565b9060405191826000825492612ed284612e84565b908184526001948581169081600014612f415750600114612efe575b5050612efc92500383612d83565b565b9093915060005260209081600020936000915b818310612f29575050612efc93508201013880612eee565b85548884018501529485019487945091830191612f11565b915050612efc94506020925060ff191682840152151560051b8201013880612eee565b6001600160401b038111610cc05760051b60200190565b9080601f8301121561029b57813590612f9382612f64565b92612fa16040519485612d83565b828452602092838086019160051b8301019280841161029b57848301915b848310612fcf5750505050505090565b82356001600160401b03811161029b578691612ff084848094890101612df6565b815201920191612fbf565b80548210156130135760005260206000200190600090565b634e487b7160e01b600052603260045260246000fd5b6007546001600160a01b0316330361303d57565b606460405162461bcd60e51b815260206004820152602060248201527f4f776e61626c653a2063616c6c6572206973206e6f7420746865206f776e65726044820152fd5b1561308857565b60405162461bcd60e51b815260206004820152601860248201527f4552433732313a20696e76616c696420746f6b656e20494400000000000000006044820152606490fd5b6000908152600260205260409020546001600160a01b0316612e11811515613081565b600081815260026020526040902054613113906001600160a01b03161515613081565b6000908152600460205260409020546001600160a01b031690565b1561313557565b60405162461bcd60e51b815260206004820152602d60248201527f4552433732313a2063616c6c6572206973206e6f7420746f6b656e206f776e6560448201526c1c881bdc88185c1c1c9bdd9959609a1b6064820152608490fd5b60809060208152603260208201527f4552433732313a207472616e7366657220746f206e6f6e20455243373231526560408201527131b2b4bb32b91034b6b83632b6b2b73a32b960711b60608201520190565b156131ea57565b60405162461bcd60e51b81528061320360048201613190565b0390fd5b906001600160a01b03808061321b846130cd565b1693169183831493841561324e575b508315613238575b50505090565b613244919293506130f0565b1614388080613232565b909350600052600560205260406000208260005260205260ff60406000205416923861322a565b1561327c57565b60405162461bcd60e51b815260206004820152602560248201527f4552433732313a207472616e736665722066726f6d20696e636f72726563742060448201526437bbb732b960d91b6064820152608490fd5b906132f7916132dd846130cd565b6001600160a01b0393918416928492909183168414613275565b1691821561338f57816133149161330d866130cd565b1614613275565b7fddf252ad1be2c89b69c2b068fc378daa952ba7f163c4a11628f55a4df523b3ef60008481526004602052604081206001600160601b0360a01b9081815416905583825260036020526040822060001981540190558482526040822060018154019055858252600260205284604083209182541617905580a4565b60405162461bcd60e51b8152602060048201526024808201527f4552433732313a207472616e7366657220746f20746865207a65726f206164646044820152637265737360e01b6064820152608490fd5b91929091803b156134f55761342d936040519081630a85bd0160e11b9384825233600483015260009687602484015260448301526080606483015281878160209a8b966084830190612cfb565b03926001600160a01b03165af18491816134b1575b506134a0575050503d600014613498573d61345c81612da4565b9061346a6040519283612d83565b81528091833d92013e5b805191826134955760405162461bcd60e51b81528061320360048201613190565b01fd5b506060613474565b6001600160e01b0319161492509050565b9091508581813d83116134ee575b6134c98183612d83565b810103126134ea57516001600160e01b0319811681036134ea579038613442565b8480fd5b503d6134bf565b50915050600190565b92939190803b1561357b57613550946040518092630a85bd0160e11b9485835233600484015260018060a01b03809816602484015260448301526080606483015281806020998a956084830190612cfb565b03916000988991165af18491816134b157506134a0575050503d600014613498573d61345c81612da4565b5050915050600190565b1561358c57565b60405162461bcd60e51b81526020600482015260126024820152711554d110c81d1bdad95b881b9bdd081cd95d60721b6044820152606490fd5b8181106135d1575050565b600081556001016135c6565b90815491600160401b831015610cc057826118fd916001612efc95018155612ffb565b9081602091031261029b5751801515810361029b5790565b1561361f57565b60405162461bcd60e51b815260206004820152601c60248201527f4552433732313a20746f6b656e20616c7265616479206d696e746564000000006044820152606490fd5b6000818152600260205260409020549192916001600160a01b0316156137e1576000908082526020916006835260408120908551906001600160401b0382116137cd576136b18354612e84565b601f811161379f575b508490601f831160011461371b57907ff8e1a15aba9398e019f0b49df1a4fde98ee17ae345cb5f6b5e2c27f5033e8ce7969783613710575b50508160011b916000199060031b1c19161790555b604051908152a1565b0151905038806136f2565b9196601f198816848452868420935b81811061378857509160019391897ff8e1a15aba9398e019f0b49df1a4fde98ee17ae345cb5f6b5e2c27f5033e8ce7999a941061376f575b505050811b019055613707565b015160001960f88460031b161c19169055388080613762565b92938760018192878601518155019501930161372a565b6137c790848352868320601f850160051c810191888610610cb657601f0160051c01906135c6565b386136ba565b634e487b7160e01b81526041600452602490fd5b60405162461bcd60e51b815260206004820152602e60248201527f45524337323155524953746f726167653a2055524920736574206f66206e6f6e60448201526d32bc34b9ba32b73a103a37b5b2b760911b6064820152608490fd5b1561384457565b60405162461bcd60e51b81526020600482015260136024820152721259195848191bd95cc81b9bdd08195e1a5cdd606a1b6044820152606490fd5b1561388657565b60405162461bcd60e51b815260206004820152601960248201527f4f6e6c7920696e6e6f7661746f722063616e206d6f64696679000000000000006044820152606490fdfea2646970667358221220ed51a1637a774e96cc9886c190affa9fef334ebee6d93206465adedc12545d1c64736f6c63430008140033","opcodes":"PUSH1 0x80 CALLVALUE PUSH3 0x387 JUMPI PUSH1 0x1 PUSH1 0x1 PUSH1 0x40 SHL SUB SWAP1 PUSH1 0x40 SWAP1 DUP1 DUP3 ADD DUP4 DUP2 GT DUP3 DUP3 LT OR PUSH3 0x371 JUMPI DUP3 MSTORE PUSH1 0xF DUP2 MSTORE PUSH1 0x20 SWAP2 PUSH15 0x13DC9C1A185B881259195848139195 PUSH1 0x8A SHL DUP4 DUP4 ADD MSTORE DUP1 MLOAD SWAP4 DUP2 DUP6 ADD DUP6 DUP2 LT DUP3 DUP3 GT OR PUSH3 0x371 JUMPI DUP3 MSTORE PUSH1 0x4 DUP6 MSTORE PUSH4 0x49444541 PUSH1 0xE0 SHL DUP5 DUP7 ADD MSTORE DUP3 MLOAD DUP2 DUP2 GT PUSH3 0x371 JUMPI PUSH1 0x0 SWAP5 DUP6 SLOAD SWAP2 PUSH1 0x1 SWAP6 DUP7 DUP5 DUP2 SHR SWAP5 AND DUP1 ISZERO PUSH3 0x366 JUMPI JUMPDEST DUP4 DUP6 LT EQ PUSH3 0x352 JUMPI DUP2 SWAP1 PUSH1 0x1F SWAP5 DUP6 DUP2 GT PUSH3 0x2FF JUMPI JUMPDEST POP DUP4 SWAP1 DUP6 DUP4 GT PUSH1 0x1 EQ PUSH3 0x29B JUMPI DUP10 SWAP3 PUSH3 0x28F JUMPI JUMPDEST POP POP PUSH1 0x0 NOT PUSH1 0x3 DUP4 SWAP1 SHL SHR NOT AND SWAP1 DUP7 SHL OR DUP7 SSTORE JUMPDEST DUP7 MLOAD SWAP3 DUP4 GT PUSH3 0x27B JUMPI DUP5 SLOAD DUP6 DUP2 DUP2 SHR SWAP2 AND DUP1 ISZERO PUSH3 0x270 JUMPI JUMPDEST DUP3 DUP3 LT EQ PUSH3 0x25C JUMPI DUP3 DUP2 GT PUSH3 0x214 JUMPI JUMPDEST POP DUP1 SWAP2 DUP4 GT PUSH1 0x1 EQ PUSH3 0x1AB JUMPI POP DUP5 SWAP6 DUP3 SWAP4 SWAP5 SWAP6 SWAP3 PUSH3 0x19F JUMPI JUMPDEST POP POP PUSH1 0x0 NOT PUSH1 0x3 DUP4 SWAP1 SHL SHR NOT AND SWAP1 DUP4 SHL OR DUP3 SSTORE JUMPDEST PUSH1 0x7 DUP1 SLOAD CALLER PUSH1 0x1 PUSH1 0x1 PUSH1 0xA0 SHL SUB NOT DUP3 AND DUP2 OR SWAP1 SWAP3 SSTORE SWAP2 MLOAD SWAP4 SWAP1 SWAP2 PUSH1 0x1 PUSH1 0x1 PUSH1 0xA0 SHL SUB AND SWAP1 PUSH32 0x8BE0079C531659141344CD1FD0A4F28419497F9722A3DAAFE3B4186F6B6457E0 SWAP1 DUP1 LOG3 PUSH1 0x8 SSTORE PUSH1 0x9 DUP1 SLOAD PUSH1 0xFF NOT AND SWAP1 SSTORE PUSH3 0x4C4B40 PUSH1 0xB SSTORE PUSH1 0xC DUP1 SLOAD PUSH1 0xFF PUSH1 0xA0 SHL NOT AND PUSH1 0x1 PUSH1 0xA0 SHL OR SWAP1 SSTORE PUSH2 0x3901 SWAP1 DUP2 PUSH3 0x38D DUP3 CODECOPY RETURN JUMPDEST ADD MLOAD SWAP1 POP CODESIZE DUP1 PUSH3 0x10F JUMP JUMPDEST SWAP1 PUSH1 0x1F NOT DUP4 AND SWAP7 DUP6 DUP8 MSTORE DUP3 DUP8 KECCAK256 SWAP3 DUP8 SWAP1 JUMPDEST DUP10 DUP3 LT PUSH3 0x1FC JUMPI POP POP DUP4 DUP7 SWAP8 SWAP9 SWAP7 SWAP6 SWAP7 LT PUSH3 0x1E2 JUMPI JUMPDEST POP POP POP DUP2 SHL ADD DUP3 SSTORE PUSH3 0x123 JUMP JUMPDEST ADD MLOAD PUSH1 0x0 NOT PUSH1 0xF8 DUP5 PUSH1 0x3 SHL AND SHR NOT AND SWAP1 SSTORE CODESIZE DUP1 DUP1 PUSH3 0x1D4 JUMP JUMPDEST DUP1 DUP9 DUP6 SWAP7 DUP3 SWAP5 SWAP7 DUP7 ADD MLOAD DUP2 SSTORE ADD SWAP6 ADD SWAP4 ADD SWAP1 PUSH3 0x1BC JUMP JUMPDEST DUP6 DUP8 MSTORE DUP2 DUP8 KECCAK256 DUP4 DUP1 DUP7 ADD PUSH1 0x5 SHR DUP3 ADD SWAP3 DUP5 DUP8 LT PUSH3 0x252 JUMPI JUMPDEST ADD PUSH1 0x5 SHR ADD SWAP1 DUP7 SWAP1 JUMPDEST DUP3 DUP2 LT PUSH3 0x246 JUMPI POP POP PUSH3 0xF4 JUMP JUMPDEST DUP9 DUP2 SSTORE ADD DUP7 SWAP1 PUSH3 0x236 JUMP JUMPDEST SWAP3 POP DUP2 SWAP3 PUSH3 0x22D JUMP JUMPDEST PUSH4 0x4E487B71 PUSH1 0xE0 SHL DUP8 MSTORE PUSH1 0x22 PUSH1 0x4 MSTORE PUSH1 0x24 DUP8 REVERT JUMPDEST SWAP1 PUSH1 0x7F AND SWAP1 PUSH3 0xE2 JUMP JUMPDEST PUSH4 0x4E487B71 PUSH1 0xE0 SHL DUP7 MSTORE PUSH1 0x41 PUSH1 0x4 MSTORE PUSH1 0x24 DUP7 REVERT JUMPDEST ADD MLOAD SWAP1 POP CODESIZE DUP1 PUSH3 0xB4 JUMP JUMPDEST DUP10 DUP1 MSTORE DUP5 DUP11 KECCAK256 DUP10 SWAP5 POP SWAP2 SWAP1 PUSH1 0x1F NOT DUP5 AND DUP12 JUMPDEST DUP8 DUP3 DUP3 LT PUSH3 0x2E8 JUMPI POP POP DUP5 GT PUSH3 0x2CE JUMPI JUMPDEST POP POP POP DUP2 SHL ADD DUP7 SSTORE PUSH3 0xC8 JUMP JUMPDEST ADD MLOAD PUSH1 0x0 NOT PUSH1 0xF8 DUP5 PUSH1 0x3 SHL AND SHR NOT AND SWAP1 SSTORE CODESIZE DUP1 DUP1 PUSH3 0x2C0 JUMP JUMPDEST DUP4 DUP6 ADD MLOAD DUP7 SSTORE DUP13 SWAP8 SWAP1 SWAP6 ADD SWAP5 SWAP4 DUP5 ADD SWAP4 ADD PUSH3 0x2AD JUMP JUMPDEST SWAP1 SWAP2 POP DUP9 DUP1 MSTORE DUP4 DUP10 KECCAK256 DUP6 DUP1 DUP6 ADD PUSH1 0x5 SHR DUP3 ADD SWAP3 DUP7 DUP7 LT PUSH3 0x348 JUMPI JUMPDEST SWAP2 DUP11 SWAP2 DUP7 SWAP6 SWAP5 SWAP4 ADD PUSH1 0x5 SHR ADD SWAP2 JUMPDEST DUP3 DUP2 LT PUSH3 0x339 JUMPI POP POP PUSH3 0x9E JUMP JUMPDEST DUP12 DUP2 SSTORE DUP6 SWAP5 POP DUP11 SWAP2 ADD PUSH3 0x329 JUMP JUMPDEST SWAP3 POP DUP2 SWAP3 PUSH3 0x31B JUMP JUMPDEST PUSH4 0x4E487B71 PUSH1 0xE0 SHL DUP9 MSTORE PUSH1 0x22 PUSH1 0x4 MSTORE PUSH1 0x24 DUP9 REVERT JUMPDEST SWAP4 PUSH1 0x7F AND SWAP4 PUSH3 0x87 JUMP JUMPDEST PUSH4 0x4E487B71 PUSH1 0xE0 SHL PUSH1 0x0 MSTORE PUSH1 0x41 PUSH1 0x4 MSTORE PUSH1 0x24 PUSH1 0x0 REVERT JUMPDEST PUSH1 0x0 DUP1 REVERT INVALID PUSH1 0x80 DUP1 PUSH1 0x40 MSTORE PUSH1 0x4 CALLDATASIZE LT ISZERO PUSH2 0x13 JUMPI PUSH1 0x0 DUP1 REVERT JUMPDEST PUSH1 0x0 CALLDATALOAD PUSH1 0xE0 SHR SWAP1 DUP2 PUSH4 0x1FFC9A7 EQ PUSH2 0x2C39 JUMPI POP DUP1 PUSH4 0x6FDDE03 EQ PUSH2 0x2B96 JUMPI DUP1 PUSH4 0x81812FC EQ PUSH2 0x2B78 JUMPI DUP1 PUSH4 0x95EA7B3 EQ PUSH2 0x29FE JUMPI DUP1 PUSH4 0x115A4BAC EQ PUSH2 0x29E0 JUMPI DUP1 PUSH4 0x11EAC855 EQ PUSH2 0x29B7 JUMPI DUP1 PUSH4 0x13966DB5 EQ PUSH2 0x2999 JUMPI DUP1 PUSH4 0x228EE43E EQ PUSH2 0x2911 JUMPI DUP1 PUSH4 0x23B872DD EQ PUSH2 0x28ED JUMPI DUP1 PUSH4 0x2A55205A EQ PUSH2 0x2860 JUMPI DUP1 PUSH4 0x3F4BA83A EQ PUSH2 0x27CC JUMPI DUP1 PUSH4 0x424A2BF1 EQ PUSH2 0x271F JUMPI DUP1 PUSH4 0x42842E0E EQ PUSH2 0x26EC JUMPI DUP1 PUSH4 0x44DE6B2F EQ PUSH2 0x2433 JUMPI DUP1 PUSH4 0x463B08DB EQ PUSH2 0x2416 JUMPI DUP1 PUSH4 0x467A7927 EQ PUSH2 0x2392 JUMPI DUP1 PUSH4 0x476343EE EQ PUSH2 0x2267 JUMPI DUP1 PUSH4 0x5C975ABB EQ PUSH2 0x2244 JUMPI DUP1 PUSH4 0x5CD2DD5E EQ PUSH2 0x21EA JUMPI DUP1 PUSH4 0x5D886F22 EQ PUSH2 0x2166 JUMPI DUP1 PUSH4 0x6352211E EQ PUSH2 0x2136 JUMPI DUP1 PUSH4 0x70A08231 EQ PUSH2 0x209F JUMPI DUP1 PUSH4 0x715018A6 EQ PUSH2 0x2042 JUMPI DUP1 PUSH4 0x8456CB59 EQ PUSH2 0x1FAF JUMPI DUP1 PUSH4 0x8DA5CB5B EQ PUSH2 0x1F86 JUMPI DUP1 PUSH4 0x95B53837 EQ PUSH2 0x1E84 JUMPI DUP1 PUSH4 0x95D89B41 EQ PUSH2 0x1DA5 JUMPI DUP1 PUSH4 0xA22CB465 EQ PUSH2 0x1CCA JUMPI DUP1 PUSH4 0xA64E4F8A EQ PUSH2 0x1CA4 JUMPI DUP1 PUSH4 0xA9472016 EQ PUSH2 0x12C1 JUMPI DUP1 PUSH4 0xABAA44F5 EQ PUSH2 0x5C2 JUMPI DUP1 PUSH4 0xB88D4FDE EQ PUSH2 0x53B JUMPI DUP1 PUSH4 0xC0ED4154 EQ PUSH2 0x4D0 JUMPI DUP1 PUSH4 0xC87B56DD EQ PUSH2 0x45A JUMPI DUP1 PUSH4 0xC93B66F9 EQ PUSH2 0x402 JUMPI DUP1 PUSH4 0xDC6DD052 EQ PUSH2 0x353 JUMPI DUP1 PUSH4 0xDDF54512 EQ PUSH2 0x317 JUMPI DUP1 PUSH4 0xE985E9C5 EQ PUSH2 0x2C1 JUMPI DUP1 PUSH4 0xEDDD0D9C EQ PUSH2 0x2A0 JUMPI PUSH4 0xF2FDE38B EQ PUSH2 0x1D7 JUMPI PUSH1 0x0 DUP1 REVERT JUMPDEST CALLVALUE PUSH2 0x29B JUMPI PUSH1 0x20 CALLDATASIZE PUSH1 0x3 NOT ADD SLT PUSH2 0x29B JUMPI PUSH2 0x1F0 PUSH2 0x2D20 JUMP JUMPDEST PUSH2 0x1F8 PUSH2 0x3029 JUMP JUMPDEST PUSH1 0x1 PUSH1 0x1 PUSH1 0xA0 SHL SUB SWAP1 DUP2 AND SWAP1 DUP2 ISZERO PUSH2 0x247 JUMPI PUSH1 0x7 SLOAD DUP3 PUSH1 0x1 PUSH1 0x1 PUSH1 0x60 SHL SUB PUSH1 0xA0 SHL DUP3 AND OR PUSH1 0x7 SSTORE AND PUSH32 0x8BE0079C531659141344CD1FD0A4F28419497F9722A3DAAFE3B4186F6B6457E0 PUSH1 0x0 DUP1 LOG3 STOP JUMPDEST PUSH1 0x40 MLOAD PUSH3 0x461BCD PUSH1 0xE5 SHL DUP2 MSTORE PUSH1 0x20 PUSH1 0x4 DUP3 ADD MSTORE PUSH1 0x26 PUSH1 0x24 DUP3 ADD MSTORE PUSH32 0x4F776E61626C653A206E6577206F776E657220697320746865207A65726F2061 PUSH1 0x44 DUP3 ADD MSTORE PUSH6 0x646472657373 PUSH1 0xD0 SHL PUSH1 0x64 DUP3 ADD MSTORE PUSH1 0x84 SWAP1 REVERT JUMPDEST PUSH1 0x0 DUP1 REVERT JUMPDEST CALLVALUE PUSH2 0x29B JUMPI PUSH1 0x20 CALLDATASIZE PUSH1 0x3 NOT ADD SLT PUSH2 0x29B JUMPI PUSH2 0x2B9 PUSH2 0x3029 JUMP JUMPDEST PUSH1 0x4 CALLDATALOAD PUSH1 0xB SSTORE STOP JUMPDEST CALLVALUE PUSH2 0x29B JUMPI PUSH1 0x40 CALLDATASIZE PUSH1 0x3 NOT ADD SLT PUSH2 0x29B JUMPI PUSH2 0x2DA PUSH2 0x2D20 JUMP JUMPDEST PUSH2 0x2E2 PUSH2 0x2D36 JUMP JUMPDEST SWAP1 PUSH1 0x1 DUP1 PUSH1 0xA0 SHL SUB DUP1 SWAP2 AND PUSH1 0x0 MSTORE PUSH1 0x5 PUSH1 0x20 MSTORE PUSH1 0x40 PUSH1 0x0 KECCAK256 SWAP2 AND PUSH1 0x0 MSTORE PUSH1 0x20 MSTORE PUSH1 0x20 PUSH1 0xFF PUSH1 0x40 PUSH1 0x0 KECCAK256 SLOAD AND PUSH1 0x40 MLOAD SWAP1 ISZERO ISZERO DUP2 MSTORE RETURN JUMPDEST CALLVALUE PUSH2 0x29B JUMPI PUSH1 0x0 CALLDATASIZE PUSH1 0x3 NOT ADD SLT PUSH2 0x29B JUMPI PUSH2 0x330 PUSH2 0x3029 JUMP JUMPDEST PUSH1 0xC DUP1 SLOAD PUSH1 0xFF PUSH1 0xA0 SHL NOT DUP2 AND PUSH1 0xA0 SWAP2 DUP3 SHR PUSH1 0xFF AND ISZERO SWAP1 SWAP2 SHL PUSH1 0xFF PUSH1 0xA0 SHL AND OR SWAP1 SSTORE STOP JUMPDEST CALLVALUE PUSH2 0x29B JUMPI PUSH1 0x20 CALLDATASIZE PUSH1 0x3 NOT ADD SLT PUSH2 0x29B JUMPI PUSH1 0x4 CALLDATALOAD PUSH1 0x0 DUP2 DUP2 MSTORE PUSH1 0x2 PUSH1 0x20 MSTORE PUSH1 0x40 SWAP1 KECCAK256 SLOAD PUSH2 0x38F SWAP1 PUSH1 0x1 PUSH1 0x1 PUSH1 0xA0 SHL SUB AND ISZERO ISZERO PUSH2 0x383D JUMP JUMPDEST PUSH2 0x383D JUMP JUMPDEST DUP1 PUSH1 0x0 MSTORE PUSH1 0xD PUSH1 0x20 MSTORE PUSH2 0x3B3 PUSH1 0x1 DUP1 PUSH1 0xA0 SHL SUB PUSH1 0x1 PUSH1 0x40 PUSH1 0x0 KECCAK256 ADD SLOAD AND CALLER EQ PUSH2 0x387F JUMP JUMPDEST DUP1 PUSH1 0x0 MSTORE PUSH1 0xD PUSH1 0x20 MSTORE PUSH1 0x40 PUSH1 0x0 KECCAK256 PUSH1 0xA DUP2 ADD PUSH1 0xFF NOT DUP2 SLOAD AND SWAP1 SSTORE PUSH1 0x9 TIMESTAMP SWAP2 ADD SSTORE PUSH1 0x40 MLOAD SWAP1 TIMESTAMP DUP3 MSTORE PUSH32 0x3D16EA86111872645A6B9BE237C624253A379483A0FEC7F94765752DCA698DCF PUSH1 0x20 CALLER SWAP4 LOG3 STOP JUMPDEST CALLVALUE PUSH2 0x29B JUMPI PUSH1 0x40 CALLDATASIZE PUSH1 0x3 NOT ADD SLT PUSH2 0x29B JUMPI PUSH2 0x41B PUSH2 0x2D20 JUMP JUMPDEST PUSH1 0x1 PUSH1 0x1 PUSH1 0xA0 SHL SUB AND PUSH1 0x0 SWAP1 DUP2 MSTORE PUSH1 0xE PUSH1 0x20 MSTORE PUSH1 0x40 SWAP1 KECCAK256 DUP1 SLOAD PUSH1 0x24 CALLDATALOAD SWAP2 SWAP1 DUP3 LT ISZERO PUSH2 0x29B JUMPI PUSH1 0x20 SWAP2 PUSH2 0x44C SWAP2 PUSH2 0x2FFB JUMP JUMPDEST SWAP1 SLOAD PUSH1 0x40 MLOAD SWAP2 PUSH1 0x3 SHL SHR DUP2 MSTORE RETURN JUMPDEST CALLVALUE PUSH2 0x29B JUMPI PUSH1 0x20 CALLDATASIZE PUSH1 0x3 NOT ADD SLT PUSH2 0x29B JUMPI PUSH1 0x4 CALLDATALOAD PUSH1 0x0 DUP2 DUP2 MSTORE PUSH1 0x2 PUSH1 0x20 MSTORE PUSH1 0x40 SWAP1 KECCAK256 SLOAD PUSH2 0x491 SWAP1 PUSH1 0x1 PUSH1 0x1 PUSH1 0xA0 SHL SUB AND ISZERO ISZERO PUSH2 0x3081 JUMP JUMPDEST PUSH1 0x0 MSTORE PUSH1 0x6 PUSH1 0x20 MSTORE PUSH2 0x4CC PUSH2 0x4A9 PUSH1 0x40 PUSH1 0x0 KECCAK256 PUSH2 0x2EBE JUMP JUMPDEST PUSH1 0x0 PUSH1 0x40 MLOAD PUSH2 0x4B7 DUP2 PUSH2 0x2D68 JUMP JUMPDEST MSTORE PUSH1 0x40 MLOAD SWAP2 DUP3 SWAP2 PUSH1 0x20 DUP4 MSTORE PUSH1 0x20 DUP4 ADD SWAP1 PUSH2 0x2CFB JUMP JUMPDEST SUB SWAP1 RETURN JUMPDEST CALLVALUE PUSH2 0x29B JUMPI PUSH1 0x40 CALLDATASIZE PUSH1 0x3 NOT ADD SLT PUSH2 0x29B JUMPI PUSH1 0x4 CALLDATALOAD PUSH1 0x1 PUSH1 0x1 PUSH1 0x40 SHL SUB DUP2 GT PUSH2 0x29B JUMPI PUSH2 0x500 SWAP1 CALLDATASIZE SWAP1 PUSH1 0x4 ADD PUSH2 0x2DF6 JUMP JUMPDEST PUSH2 0x51C PUSH1 0x20 PUSH1 0x24 CALLDATALOAD SWAP3 DUP2 PUSH1 0x40 MLOAD SWAP4 DUP3 DUP6 DUP1 SWAP5 MLOAD SWAP4 DUP5 SWAP3 ADD PUSH2 0x2CD8 JUMP JUMPDEST DUP2 ADD PUSH1 0xF DUP2 MSTORE SUB ADD SWAP1 KECCAK256 DUP1 SLOAD DUP3 LT ISZERO PUSH2 0x29B JUMPI PUSH1 0x20 SWAP2 PUSH2 0x44C SWAP2 PUSH2 0x2FFB JUMP JUMPDEST CALLVALUE PUSH2 0x29B JUMPI PUSH1 0x80 CALLDATASIZE PUSH1 0x3 NOT ADD SLT PUSH2 0x29B JUMPI PUSH2 0x554 PUSH2 0x2D20 JUMP JUMPDEST PUSH2 0x55C PUSH2 0x2D36 JUMP JUMPDEST SWAP1 PUSH1 0x64 CALLDATALOAD SWAP1 PUSH1 0x44 CALLDATALOAD PUSH1 0x1 PUSH1 0x1 PUSH1 0x40 SHL SUB DUP4 GT PUSH2 0x29B JUMPI CALLDATASIZE PUSH1 0x23 DUP5 ADD SLT ISZERO PUSH2 0x29B JUMPI PUSH2 0x5C0 SWAP4 PUSH2 0x598 PUSH2 0x5BB SWAP5 CALLDATASIZE SWAP1 PUSH1 0x24 DUP2 PUSH1 0x4 ADD CALLDATALOAD SWAP2 ADD PUSH2 0x2DBF JUMP JUMPDEST SWAP3 PUSH2 0x5AB PUSH2 0x5A6 DUP5 CALLER PUSH2 0x3207 JUMP JUMPDEST PUSH2 0x312E JUMP JUMPDEST PUSH2 0x5B6 DUP4 DUP4 DUP4 PUSH2 0x32CF JUMP JUMPDEST PUSH2 0x34FE JUMP JUMPDEST PUSH2 0x31E3 JUMP JUMPDEST STOP JUMPDEST CALLVALUE PUSH2 0x29B JUMPI PUSH1 0xC0 CALLDATASIZE PUSH1 0x3 NOT ADD SLT PUSH2 0x29B JUMPI PUSH1 0x4 CALLDATALOAD PUSH1 0x1 PUSH1 0x1 PUSH1 0x40 SHL SUB DUP2 GT PUSH2 0x29B JUMPI PUSH2 0x5F2 SWAP1 CALLDATASIZE SWAP1 PUSH1 0x4 ADD PUSH2 0x2DF6 JUMP JUMPDEST PUSH1 0x24 CALLDATALOAD PUSH1 0x1 PUSH1 0x1 PUSH1 0x40 SHL SUB DUP2 GT PUSH2 0x29B JUMPI PUSH2 0x611 SWAP1 CALLDATASIZE SWAP1 PUSH1 0x4 ADD PUSH2 0x2DF6 JUMP JUMPDEST SWAP1 PUSH1 0x44 CALLDATALOAD PUSH1 0x1 PUSH1 0x1 PUSH1 0x40 SHL SUB DUP2 GT PUSH2 0x29B JUMPI PUSH2 0x631 SWAP1 CALLDATASIZE SWAP1 PUSH1 0x4 ADD PUSH2 0x2DF6 JUMP JUMPDEST SWAP1 PUSH1 0x64 CALLDATALOAD PUSH1 0x1 PUSH1 0x1 PUSH1 0x40 SHL SUB DUP2 GT PUSH2 0x29B JUMPI PUSH2 0x651 SWAP1 CALLDATASIZE SWAP1 PUSH1 0x4 ADD PUSH2 0x2F7B JUMP JUMPDEST SWAP2 PUSH1 0x84 CALLDATALOAD PUSH1 0x1 PUSH1 0x1 PUSH1 0x40 SHL SUB DUP2 GT PUSH2 0x29B JUMPI PUSH2 0x671 SWAP1 CALLDATASIZE SWAP1 PUSH1 0x4 ADD PUSH2 0x2DF6 JUMP JUMPDEST SWAP4 PUSH1 0xA4 CALLDATALOAD PUSH1 0x1 PUSH1 0x1 PUSH1 0x40 SHL SUB DUP2 GT PUSH2 0x29B JUMPI PUSH2 0x691 SWAP1 CALLDATASIZE SWAP1 PUSH1 0x4 ADD PUSH2 0x2DF6 JUMP JUMPDEST SWAP5 PUSH1 0x2 PUSH1 0x8 SLOAD EQ PUSH2 0x127C JUMPI PUSH1 0x2 PUSH1 0x8 SSTORE PUSH1 0xC SLOAD PUSH1 0xFF DUP2 PUSH1 0xA0 SHR AND ISZERO PUSH2 0x1237 JUMPI PUSH2 0x6C4 SWAP1 PUSH1 0x1 PUSH1 0x1 PUSH1 0xA0 SHL SUB AND ISZERO ISZERO PUSH2 0x3585 JUMP JUMPDEST DUP4 MLOAD ISZERO PUSH2 0x11FA JUMPI DUP2 MLOAD ISZERO PUSH2 0x11B5 JUMPI DUP3 MLOAD ISZERO PUSH2 0x1170 JUMPI DUP5 MLOAD ISZERO PUSH2 0x112B JUMPI PUSH1 0x1 PUSH1 0xA SLOAD ADD SWAP5 DUP6 PUSH1 0xA SSTORE PUSH1 0x40 MLOAD SWAP3 PUSH2 0x6F8 DUP5 PUSH2 0x2D4C JUMP JUMPDEST DUP7 DUP5 MSTORE CALLER PUSH1 0x20 DUP6 ADD MSTORE DUP6 PUSH1 0x40 DUP6 ADD MSTORE PUSH1 0x60 DUP5 ADD MSTORE DUP4 PUSH1 0x80 DUP5 ADD MSTORE PUSH1 0xA0 DUP4 ADD MSTORE PUSH1 0xC0 DUP3 ADD MSTORE DUP5 PUSH1 0xE0 DUP3 ADD MSTORE TIMESTAMP PUSH2 0x100 DUP3 ADD MSTORE TIMESTAMP PUSH2 0x120 DUP3 ADD MSTORE PUSH1 0x1 PUSH2 0x140 DUP3 ADD MSTORE DUP4 PUSH1 0x0 MSTORE PUSH1 0xD PUSH1 0x20 MSTORE PUSH1 0x40 PUSH1 0x0 KECCAK256 SWAP1 DUP1 MLOAD DUP3 SSTORE PUSH1 0x1 DUP1 PUSH1 0xA0 SHL SUB PUSH1 0x20 DUP3 ADD MLOAD AND PUSH1 0x1 PUSH1 0x1 PUSH1 0x60 SHL SUB PUSH1 0xA0 SHL PUSH1 0x1 DUP5 ADD SLOAD AND OR PUSH1 0x1 DUP4 ADD SSTORE PUSH1 0x40 DUP2 ADD MLOAD DUP1 MLOAD SWAP1 PUSH1 0x1 PUSH1 0x1 PUSH1 0x40 SHL SUB DUP3 GT PUSH2 0xCC0 JUMPI DUP2 SWAP1 PUSH2 0x794 PUSH1 0x2 DUP7 ADD SLOAD PUSH2 0x2E84 JUMP JUMPDEST PUSH1 0x1F DUP2 GT PUSH2 0x10F6 JUMPI JUMPDEST POP PUSH1 0x20 SWAP1 PUSH1 0x1F DUP4 GT PUSH1 0x1 EQ PUSH2 0x1084 JUMPI PUSH1 0x0 SWAP3 PUSH2 0x1079 JUMPI JUMPDEST POP POP DUP2 PUSH1 0x1 SHL SWAP2 PUSH1 0x0 NOT SWAP1 PUSH1 0x3 SHL SHR NOT AND OR PUSH1 0x2 DUP4 ADD SSTORE JUMPDEST PUSH1 0x60 DUP2 ADD MLOAD DUP1 MLOAD SWAP1 PUSH1 0x1 PUSH1 0x1 PUSH1 0x40 SHL SUB DUP3 GT PUSH2 0xCC0 JUMPI DUP2 SWAP1 PUSH2 0x7F1 PUSH1 0x3 DUP7 ADD SLOAD PUSH2 0x2E84 JUMP JUMPDEST PUSH1 0x1F DUP2 GT PUSH2 0x1044 JUMPI JUMPDEST POP PUSH1 0x20 SWAP1 PUSH1 0x1F DUP4 GT PUSH1 0x1 EQ PUSH2 0xFD2 JUMPI PUSH1 0x0 SWAP3 PUSH2 0xFC7 JUMPI JUMPDEST POP POP DUP2 PUSH1 0x1 SHL SWAP2 PUSH1 0x0 NOT SWAP1 PUSH1 0x3 SHL SHR NOT AND OR PUSH1 0x3 DUP4 ADD SSTORE JUMPDEST PUSH1 0x80 DUP2 ADD MLOAD DUP1 MLOAD SWAP1 PUSH1 0x1 PUSH1 0x1 PUSH1 0x40 SHL SUB DUP3 GT PUSH2 0xCC0 JUMPI DUP2 SWAP1 PUSH2 0x84E PUSH1 0x4 DUP7 ADD SLOAD PUSH2 0x2E84 JUMP JUMPDEST PUSH1 0x1F DUP2 GT PUSH2 0xF92 JUMPI JUMPDEST POP PUSH1 0x20 SWAP1 PUSH1 0x1F DUP4 GT PUSH1 0x1 EQ PUSH2 0xF20 JUMPI PUSH1 0x0 SWAP3 PUSH2 0xF15 JUMPI JUMPDEST POP POP DUP2 PUSH1 0x1 SHL SWAP2 PUSH1 0x0 NOT SWAP1 PUSH1 0x3 SHL SHR NOT AND OR PUSH1 0x4 DUP4 ADD SSTORE JUMPDEST PUSH1 0xA0 DUP2 ADD MLOAD DUP1 MLOAD SWAP1 PUSH1 0x1 PUSH1 0x40 SHL DUP3 GT PUSH2 0xCC0 JUMPI PUSH1 0x5 DUP5 ADD SLOAD DUP3 PUSH1 0x5 DUP7 ADD SSTORE DUP1 DUP4 LT PUSH2 0xE9D JUMPI JUMPDEST POP PUSH1 0x20 ADD SWAP1 PUSH1 0x5 DUP5 ADD PUSH1 0x0 MSTORE PUSH1 0x20 PUSH1 0x0 KECCAK256 SWAP2 PUSH1 0x0 SWAP1 JUMPDEST DUP3 DUP3 LT PUSH2 0xD88 JUMPI POP POP POP POP PUSH1 0xC0 DUP2 ADD MLOAD DUP1 MLOAD SWAP1 PUSH1 0x1 PUSH1 0x1 PUSH1 0x40 SHL SUB DUP3 GT PUSH2 0xCC0 JUMPI DUP2 SWAP1 PUSH2 0x8F2 PUSH1 0x6 DUP7 ADD SLOAD PUSH2 0x2E84 JUMP JUMPDEST PUSH1 0x1F DUP2 GT PUSH2 0xD53 JUMPI JUMPDEST POP PUSH1 0x20 SWAP1 PUSH1 0x1F DUP4 GT PUSH1 0x1 EQ PUSH2 0xCE1 JUMPI PUSH1 0x0 SWAP3 PUSH2 0xCD6 JUMPI JUMPDEST POP POP DUP2 PUSH1 0x1 SHL SWAP2 PUSH1 0x0 NOT SWAP1 PUSH1 0x3 SHL SHR NOT AND OR PUSH1 0x6 DUP4 ADD SSTORE JUMPDEST PUSH1 0xE0 DUP2 ADD MLOAD DUP1 MLOAD SWAP1 PUSH1 0x1 PUSH1 0x1 PUSH1 0x40 SHL SUB DUP3 GT PUSH2 0xCC0 JUMPI PUSH2 0x94D PUSH1 0x7 DUP6 ADD SLOAD PUSH2 0x2E84 JUMP JUMPDEST PUSH1 0x1F DUP2 GT PUSH2 0xC80 JUMPI JUMPDEST POP PUSH1 0x20 SWAP1 PUSH1 0x1F DUP4 GT PUSH1 0x1 EQ PUSH2 0xC06 JUMPI SWAP3 DUP3 PUSH1 0xA SWAP4 PUSH2 0x140 SWAP4 PUSH2 0x9C0 SWAP8 SWAP7 PUSH1 0x0 SWAP3 PUSH2 0xBFB JUMPI JUMPDEST POP POP DUP2 PUSH1 0x1 SHL SWAP2 PUSH1 0x0 NOT SWAP1 PUSH1 0x3 SHL SHR NOT AND OR PUSH1 0x7 DUP6 ADD SSTORE JUMPDEST PUSH2 0x100 DUP2 ADD MLOAD PUSH1 0x8 DUP6 ADD SSTORE PUSH2 0x120 DUP2 ADD MLOAD PUSH1 0x9 DUP6 ADD SSTORE ADD MLOAD ISZERO ISZERO SWAP2 ADD SWAP1 PUSH1 0xFF DUP1 NOT DUP4 SLOAD AND SWAP2 ISZERO ISZERO AND OR SWAP1 SSTORE JUMP JUMPDEST CALLER PUSH1 0x0 MSTORE PUSH1 0xE PUSH1 0x20 MSTORE PUSH2 0x9D7 DUP4 PUSH1 0x40 PUSH1 0x0 KECCAK256 PUSH2 0x35DD JUMP JUMPDEST PUSH2 0x9FF DUP4 PUSH1 0x40 MLOAD PUSH1 0x20 DUP2 DUP6 MLOAD PUSH2 0x9F0 DUP2 DUP4 DUP6 DUP11 ADD PUSH2 0x2CD8 JUMP JUMPDEST DUP2 ADD PUSH1 0xF DUP2 MSTORE SUB ADD SWAP1 KECCAK256 PUSH2 0x35DD JUMP JUMPDEST PUSH1 0x0 PUSH1 0x20 PUSH1 0x1 DUP1 PUSH1 0xA0 SHL SUB PUSH1 0xC SLOAD AND PUSH1 0x64 PUSH1 0xB SLOAD PUSH1 0x40 MLOAD SWAP5 DUP6 SWAP4 DUP5 SWAP3 PUSH4 0x23B872DD PUSH1 0xE0 SHL DUP5 MSTORE CALLER PUSH1 0x4 DUP6 ADD MSTORE ADDRESS PUSH1 0x24 DUP6 ADD MSTORE PUSH1 0x44 DUP5 ADD MSTORE GAS CALL DUP1 ISZERO PUSH2 0xBEF JUMPI PUSH2 0xBC0 JUMPI JUMPDEST POP PUSH1 0x40 MLOAD PUSH2 0xA50 DUP2 PUSH2 0x2D68 JUMP JUMPDEST PUSH1 0x0 DUP2 MSTORE CALLER ISZERO PUSH2 0xB7C JUMPI PUSH2 0xB62 DUP5 SWAP3 PUSH2 0xB40 PUSH1 0x20 SWAP8 PUSH2 0xB3A PUSH2 0x5BB PUSH32 0xF312782D31F7DCD1BA423329A047E0942E88F349CE14C25A3855369B97756A89 SWAP7 PUSH2 0xAB5 PUSH2 0xAAF DUP11 PUSH1 0x0 MSTORE PUSH1 0x2 PUSH1 0x20 MSTORE PUSH1 0x1 DUP1 PUSH1 0xA0 SHL SUB PUSH1 0x40 PUSH1 0x0 KECCAK256 SLOAD AND ISZERO ISZERO SWAP1 JUMP JUMPDEST ISZERO PUSH2 0x3618 JUMP JUMPDEST PUSH1 0x0 DUP10 DUP2 MSTORE PUSH1 0x2 PUSH1 0x20 MSTORE PUSH1 0x40 SWAP1 KECCAK256 SLOAD PUSH2 0xAD8 SWAP1 PUSH1 0x1 PUSH1 0x1 PUSH1 0xA0 SHL SUB AND ISZERO ISZERO PUSH2 0xAAF JUMP JUMPDEST CALLER PUSH1 0x0 MSTORE PUSH1 0x3 DUP13 MSTORE PUSH1 0x40 PUSH1 0x0 KECCAK256 PUSH1 0x1 DUP2 SLOAD ADD SWAP1 SSTORE DUP9 PUSH1 0x0 MSTORE PUSH1 0x2 DUP13 MSTORE PUSH1 0x40 PUSH1 0x0 KECCAK256 CALLER PUSH1 0x1 PUSH1 0x1 PUSH1 0x60 SHL SUB PUSH1 0xA0 SHL DUP3 SLOAD AND OR SWAP1 SSTORE DUP9 CALLER PUSH1 0x0 PUSH32 0xDDF252AD1BE2C89B69C2B068FC378DAA952BA7F163C4A11628F55A4DF523B3EF DUP2 DUP1 LOG4 DUP9 CALLER PUSH2 0x33E0 JUMP JUMPDEST DUP6 PUSH2 0x3664 JUMP JUMPDEST PUSH2 0xB55 PUSH1 0x40 MLOAD SWAP6 PUSH1 0x60 DUP8 MSTORE PUSH1 0x60 DUP8 ADD SWAP1 PUSH2 0x2CFB JUMP JUMPDEST SWAP1 DUP6 DUP3 SUB DUP9 DUP8 ADD MSTORE PUSH2 0x2CFB JUMP JUMPDEST SWAP3 TIMESTAMP PUSH1 0x40 DUP3 ADD MSTORE DUP1 CALLER SWAP5 SUB SWAP1 LOG3 PUSH1 0x1 PUSH1 0x8 SSTORE PUSH1 0x40 MLOAD SWAP1 DUP2 MSTORE RETURN JUMPDEST PUSH1 0x64 PUSH1 0x40 MLOAD PUSH3 0x461BCD PUSH1 0xE5 SHL DUP2 MSTORE PUSH1 0x20 PUSH1 0x4 DUP3 ADD MSTORE PUSH1 0x20 PUSH1 0x24 DUP3 ADD MSTORE PUSH32 0x4552433732313A206D696E7420746F20746865207A65726F2061646472657373 PUSH1 0x44 DUP3 ADD MSTORE REVERT JUMPDEST PUSH2 0xBE1 SWAP1 PUSH1 0x20 RETURNDATASIZE PUSH1 0x20 GT PUSH2 0xBE8 JUMPI JUMPDEST PUSH2 0xBD9 DUP2 DUP4 PUSH2 0x2D83 JUMP JUMPDEST DUP2 ADD SWAP1 PUSH2 0x3600 JUMP JUMPDEST POP DUP5 PUSH2 0xA43 JUMP JUMPDEST POP RETURNDATASIZE PUSH2 0xBCF JUMP JUMPDEST PUSH1 0x40 MLOAD RETURNDATASIZE PUSH1 0x0 DUP3 RETURNDATACOPY RETURNDATASIZE SWAP1 REVERT JUMPDEST ADD MLOAD SWAP1 POP DUP12 DUP1 PUSH2 0x97B JUMP JUMPDEST SWAP1 PUSH1 0x7 DUP6 ADD PUSH1 0x0 MSTORE PUSH1 0x20 PUSH1 0x0 KECCAK256 SWAP2 PUSH1 0x0 JUMPDEST PUSH1 0x1F NOT DUP6 AND DUP2 LT PUSH2 0xC68 JUMPI POP DUP4 PUSH2 0x140 SWAP4 PUSH2 0x9C0 SWAP8 SWAP7 SWAP4 PUSH1 0x1 SWAP4 PUSH1 0xA SWAP8 PUSH1 0x1F NOT DUP2 AND LT PUSH2 0xC4F JUMPI JUMPDEST POP POP POP DUP2 SHL ADD PUSH1 0x7 DUP6 ADD SSTORE PUSH2 0x993 JUMP JUMPDEST ADD MLOAD PUSH1 0x0 NOT PUSH1 0xF8 DUP5 PUSH1 0x3 SHL AND SHR NOT AND SWAP1 SSTORE DUP12 DUP1 DUP1 PUSH2 0xC3F JUMP JUMPDEST SWAP2 SWAP3 PUSH1 0x20 PUSH1 0x1 DUP2 SWAP3 DUP7 DUP6 ADD MLOAD DUP2 SSTORE ADD SWAP5 ADD SWAP3 ADD PUSH2 0xC17 JUMP JUMPDEST PUSH2 0xCB0 SWAP1 PUSH1 0x7 DUP7 ADD PUSH1 0x0 MSTORE PUSH1 0x20 PUSH1 0x0 KECCAK256 PUSH1 0x1F DUP6 ADD PUSH1 0x5 SHR DUP2 ADD SWAP2 PUSH1 0x20 DUP7 LT PUSH2 0xCB6 JUMPI JUMPDEST PUSH1 0x1F ADD PUSH1 0x5 SHR ADD SWAP1 PUSH2 0x35C6 JUMP JUMPDEST DUP9 PUSH2 0x956 JUMP JUMPDEST SWAP1 SWAP2 POP DUP2 SWAP1 PUSH2 0xCA3 JUMP JUMPDEST PUSH4 0x4E487B71 PUSH1 0xE0 SHL PUSH1 0x0 MSTORE PUSH1 0x41 PUSH1 0x4 MSTORE PUSH1 0x24 PUSH1 0x0 REVERT JUMPDEST ADD MLOAD SWAP1 POP DUP9 DUP1 PUSH2 0x912 JUMP JUMPDEST SWAP3 POP PUSH1 0x6 DUP6 ADD PUSH1 0x0 MSTORE PUSH1 0x20 PUSH1 0x0 KECCAK256 SWAP1 PUSH1 0x0 SWAP4 JUMPDEST PUSH1 0x1F NOT DUP5 AND DUP6 LT PUSH2 0xD38 JUMPI PUSH1 0x1 SWAP5 POP DUP4 PUSH1 0x1F NOT DUP2 AND LT PUSH2 0xD1F JUMPI JUMPDEST POP POP POP DUP2 SHL ADD PUSH1 0x6 DUP4 ADD SSTORE PUSH2 0x92A JUMP JUMPDEST ADD MLOAD PUSH1 0x0 NOT PUSH1 0xF8 DUP5 PUSH1 0x3 SHL AND SHR NOT AND SWAP1 SSTORE DUP9 DUP1 DUP1 PUSH2 0xD0F JUMP JUMPDEST DUP2 DUP2 ADD MLOAD DUP4 SSTORE PUSH1 0x20 SWAP5 DUP6 ADD SWAP5 PUSH1 0x1 SWAP1 SWAP4 ADD SWAP3 SWAP1 SWAP2 ADD SWAP1 PUSH2 0xCF4 JUMP JUMPDEST PUSH2 0xD82 SWAP1 PUSH1 0x6 DUP8 ADD PUSH1 0x0 MSTORE PUSH1 0x20 PUSH1 0x0 KECCAK256 PUSH1 0x1F DUP6 ADD PUSH1 0x5 SHR DUP2 ADD SWAP2 PUSH1 0x20 DUP7 LT PUSH2 0xCB6 JUMPI PUSH1 0x1F ADD PUSH1 0x5 SHR ADD SWAP1 PUSH2 0x35C6 JUMP JUMPDEST DUP10 PUSH2 0x8FB JUMP JUMPDEST DUP1 MLOAD DUP1 MLOAD SWAP1 PUSH1 0x1 PUSH1 0x1 PUSH1 0x40 SHL SUB DUP3 GT PUSH2 0xCC0 JUMPI PUSH2 0xDA5 DUP7 SLOAD PUSH2 0x2E84 JUMP JUMPDEST PUSH1 0x1F DUP2 GT PUSH2 0xE6B JUMPI JUMPDEST POP PUSH1 0x20 SWAP1 PUSH1 0x1F DUP4 GT PUSH1 0x1 EQ PUSH2 0xDFB JUMPI SWAP3 DUP3 PUSH1 0x1 SWAP5 SWAP4 PUSH1 0x20 SWAP4 DUP7 SWAP6 PUSH1 0x0 SWAP3 PUSH2 0xDF0 JUMPI JUMPDEST POP POP PUSH1 0x0 NOT PUSH1 0x3 DUP4 SWAP1 SHL SHR NOT AND SWAP1 DUP5 SHL OR DUP8 SSTORE JUMPDEST ADD SWAP5 ADD SWAP2 ADD SWAP1 SWAP3 PUSH2 0x8C2 JUMP JUMPDEST ADD MLOAD SWAP1 POP DUP16 DUP1 PUSH2 0xDD0 JUMP JUMPDEST SWAP1 DUP7 PUSH1 0x0 MSTORE PUSH1 0x20 PUSH1 0x0 KECCAK256 SWAP2 PUSH1 0x0 JUMPDEST PUSH1 0x1F NOT DUP6 AND DUP2 LT PUSH2 0xE53 JUMPI POP DUP4 PUSH1 0x20 SWAP4 PUSH1 0x1 SWAP7 SWAP4 DUP8 SWAP7 SWAP4 DUP8 SWAP5 PUSH1 0x1F NOT DUP2 AND LT PUSH2 0xE3A JUMPI JUMPDEST POP POP POP DUP2 SHL ADD DUP8 SSTORE PUSH2 0xDE4 JUMP JUMPDEST ADD MLOAD PUSH1 0x0 NOT PUSH1 0xF8 DUP5 PUSH1 0x3 SHL AND SHR NOT AND SWAP1 SSTORE DUP16 DUP1 DUP1 PUSH2 0xE2D JUMP JUMPDEST SWAP2 SWAP3 PUSH1 0x20 PUSH1 0x1 DUP2 SWAP3 DUP7 DUP6 ADD MLOAD DUP2 SSTORE ADD SWAP5 ADD SWAP3 ADD PUSH2 0xE09 JUMP JUMPDEST PUSH2 0xE97 SWAP1 DUP8 PUSH1 0x0 MSTORE PUSH1 0x20 PUSH1 0x0 KECCAK256 PUSH1 0x1F DUP6 ADD PUSH1 0x5 SHR DUP2 ADD SWAP2 PUSH1 0x20 DUP7 LT PUSH2 0xCB6 JUMPI PUSH1 0x1F ADD PUSH1 0x5 SHR ADD SWAP1 PUSH2 0x35C6 JUMP JUMPDEST DUP13 PUSH2 0xDAE JUMP JUMPDEST PUSH1 0x5 DUP6 ADD PUSH1 0x0 MSTORE PUSH1 0x20 PUSH1 0x0 KECCAK256 SWAP1 DUP4 DUP3 ADD JUMPDEST DUP2 DUP4 ADD DUP2 LT PUSH2 0xEBE JUMPI POP POP PUSH2 0x8AC JUMP JUMPDEST DUP1 PUSH2 0xECB PUSH1 0x1 SWAP3 SLOAD PUSH2 0x2E84 JUMP JUMPDEST DUP1 PUSH2 0xED8 JUMPI JUMPDEST POP ADD PUSH2 0xEAE JUMP JUMPDEST PUSH1 0x1F DUP2 GT DUP4 EQ PUSH2 0xEEE JUMPI POP PUSH1 0x0 DUP2 SSTORE JUMPDEST DUP13 PUSH2 0xED1 JUMP JUMPDEST PUSH1 0x0 SWAP1 DUP3 DUP3 MSTORE PUSH2 0xF0C PUSH1 0x1F PUSH1 0x20 DUP5 KECCAK256 SWAP3 ADD PUSH1 0x5 SHR DUP3 ADD DUP6 DUP4 ADD PUSH2 0x35C6 JUMP JUMPDEST DUP2 DUP4 SSTORE SSTORE PUSH2 0xEE8 JUMP JUMPDEST ADD MLOAD SWAP1 POP DUP9 DUP1 PUSH2 0x86E JUMP JUMPDEST SWAP3 POP PUSH1 0x4 DUP6 ADD PUSH1 0x0 MSTORE PUSH1 0x20 PUSH1 0x0 KECCAK256 SWAP1 PUSH1 0x0 SWAP4 JUMPDEST PUSH1 0x1F NOT DUP5 AND DUP6 LT PUSH2 0xF77 JUMPI PUSH1 0x1 SWAP5 POP DUP4 PUSH1 0x1F NOT DUP2 AND LT PUSH2 0xF5E JUMPI JUMPDEST POP POP POP DUP2 SHL ADD PUSH1 0x4 DUP4 ADD SSTORE PUSH2 0x886 JUMP JUMPDEST ADD MLOAD PUSH1 0x0 NOT PUSH1 0xF8 DUP5 PUSH1 0x3 SHL AND SHR NOT AND SWAP1 SSTORE DUP9 DUP1 DUP1 PUSH2 0xF4E JUMP JUMPDEST DUP2 DUP2 ADD MLOAD DUP4 SSTORE PUSH1 0x20 SWAP5 DUP6 ADD SWAP5 PUSH1 0x1 SWAP1 SWAP4 ADD SWAP3 SWAP1 SWAP2 ADD SWAP1 PUSH2 0xF33 JUMP JUMPDEST PUSH2 0xFC1 SWAP1 PUSH1 0x4 DUP8 ADD PUSH1 0x0 MSTORE PUSH1 0x20 PUSH1 0x0 KECCAK256 PUSH1 0x1F DUP6 ADD PUSH1 0x5 SHR DUP2 ADD SWAP2 PUSH1 0x20 DUP7 LT PUSH2 0xCB6 JUMPI PUSH1 0x1F ADD PUSH1 0x5 SHR ADD SWAP1 PUSH2 0x35C6 JUMP JUMPDEST DUP10 PUSH2 0x857 JUMP JUMPDEST ADD MLOAD SWAP1 POP DUP9 DUP1 PUSH2 0x811 JUMP JUMPDEST SWAP3 POP PUSH1 0x3 DUP6 ADD PUSH1 0x0 MSTORE PUSH1 0x20 PUSH1 0x0 KECCAK256 SWAP1 PUSH1 0x0 SWAP4 JUMPDEST PUSH1 0x1F NOT DUP5 AND DUP6 LT PUSH2 0x1029 JUMPI PUSH1 0x1 SWAP5 POP DUP4 PUSH1 0x1F NOT DUP2 AND LT PUSH2 0x1010 JUMPI JUMPDEST POP POP POP DUP2 SHL ADD PUSH1 0x3 DUP4 ADD SSTORE PUSH2 0x829 JUMP JUMPDEST ADD MLOAD PUSH1 0x0 NOT PUSH1 0xF8 DUP5 PUSH1 0x3 SHL AND SHR NOT AND SWAP1 SSTORE DUP9 DUP1 DUP1 PUSH2 0x1000 JUMP JUMPDEST DUP2 DUP2 ADD MLOAD DUP4 SSTORE PUSH1 0x20 SWAP5 DUP6 ADD SWAP5 PUSH1 0x1 SWAP1 SWAP4 ADD SWAP3 SWAP1 SWAP2 ADD SWAP1 PUSH2 0xFE5 JUMP JUMPDEST PUSH2 0x1073 SWAP1 PUSH1 0x3 DUP8 ADD PUSH1 0x0 MSTORE PUSH1 0x20 PUSH1 0x0 KECCAK256 PUSH1 0x1F DUP6 ADD PUSH1 0x5 SHR DUP2 ADD SWAP2 PUSH1 0x20 DUP7 LT PUSH2 0xCB6 JUMPI PUSH1 0x1F ADD PUSH1 0x5 SHR ADD SWAP1 PUSH2 0x35C6 JUMP JUMPDEST DUP10 PUSH2 0x7FA JUMP JUMPDEST ADD MLOAD SWAP1 POP DUP9 DUP1 PUSH2 0x7B4 JUMP JUMPDEST SWAP3 POP PUSH1 0x2 DUP6 ADD PUSH1 0x0 MSTORE PUSH1 0x20 PUSH1 0x0 KECCAK256 SWAP1 PUSH1 0x0 SWAP4 JUMPDEST PUSH1 0x1F NOT DUP5 AND DUP6 LT PUSH2 0x10DB JUMPI PUSH1 0x1 SWAP5 POP DUP4 PUSH1 0x1F NOT DUP2 AND LT PUSH2 0x10C2 JUMPI JUMPDEST POP POP POP DUP2 SHL ADD PUSH1 0x2 DUP4 ADD SSTORE PUSH2 0x7CC JUMP JUMPDEST ADD MLOAD PUSH1 0x0 NOT PUSH1 0xF8 DUP5 PUSH1 0x3 SHL AND SHR NOT AND SWAP1 SSTORE DUP9 DUP1 DUP1 PUSH2 0x10B2 JUMP JUMPDEST DUP2 DUP2 ADD MLOAD DUP4 SSTORE PUSH1 0x20 SWAP5 DUP6 ADD SWAP5 PUSH1 0x1 SWAP1 SWAP4 ADD SWAP3 SWAP1 SWAP2 ADD SWAP1 PUSH2 0x1097 JUMP JUMPDEST PUSH2 0x1125 SWAP1 PUSH1 0x2 DUP8 ADD PUSH1 0x0 MSTORE PUSH1 0x20 PUSH1 0x0 KECCAK256 PUSH1 0x1F DUP6 ADD PUSH1 0x5 SHR DUP2 ADD SWAP2 PUSH1 0x20 DUP7 LT PUSH2 0xCB6 JUMPI PUSH1 0x1F ADD PUSH1 0x5 SHR ADD SWAP1 PUSH2 0x35C6 JUMP JUMPDEST DUP10 PUSH2 0x79D JUMP JUMPDEST PUSH1 0x40 MLOAD PUSH3 0x461BCD PUSH1 0xE5 SHL DUP2 MSTORE PUSH1 0x20 PUSH1 0x4 DUP3 ADD MSTORE PUSH1 0x1C PUSH1 0x24 DUP3 ADD MSTORE PUSH32 0x4174206C65617374206F6E652074616720697320726571756972656400000000 PUSH1 0x44 DUP3 ADD MSTORE PUSH1 0x64 SWAP1 REVERT JUMPDEST PUSH1 0x40 MLOAD PUSH3 0x461BCD PUSH1 0xE5 SHL DUP2 MSTORE PUSH1 0x20 PUSH1 0x4 DUP3 ADD MSTORE PUSH1 0x18 PUSH1 0x24 DUP3 ADD MSTORE PUSH32 0x43617465676F72792063616E6E6F7420626520656D7074790000000000000000 PUSH1 0x44 DUP3 ADD MSTORE PUSH1 0x64 SWAP1 REVERT JUMPDEST PUSH1 0x40 MLOAD PUSH3 0x461BCD PUSH1 0xE5 SHL DUP2 MSTORE PUSH1 0x20 PUSH1 0x4 DUP3 ADD MSTORE PUSH1 0x1B PUSH1 0x24 DUP3 ADD MSTORE PUSH32 0x4465736372697074696F6E2063616E6E6F7420626520656D7074790000000000 PUSH1 0x44 DUP3 ADD MSTORE PUSH1 0x64 SWAP1 REVERT JUMPDEST PUSH1 0x40 MLOAD PUSH3 0x461BCD PUSH1 0xE5 SHL DUP2 MSTORE PUSH1 0x20 PUSH1 0x4 DUP3 ADD MSTORE PUSH1 0x15 PUSH1 0x24 DUP3 ADD MSTORE PUSH21 0x5469746C652063616E6E6F7420626520656D707479 PUSH1 0x58 SHL PUSH1 0x44 DUP3 ADD MSTORE PUSH1 0x64 SWAP1 REVERT JUMPDEST PUSH1 0x40 MLOAD PUSH3 0x461BCD PUSH1 0xE5 SHL DUP2 MSTORE PUSH1 0x20 PUSH1 0x4 DUP3 ADD MSTORE PUSH1 0x1B PUSH1 0x24 DUP3 ADD MSTORE PUSH32 0x46656573206172652063757272656E746C792064697361626C65640000000000 PUSH1 0x44 DUP3 ADD MSTORE PUSH1 0x64 SWAP1 REVERT JUMPDEST PUSH1 0x40 MLOAD PUSH3 0x461BCD PUSH1 0xE5 SHL DUP2 MSTORE PUSH1 0x20 PUSH1 0x4 DUP3 ADD MSTORE PUSH1 0x1F PUSH1 0x24 DUP3 ADD MSTORE PUSH32 0x5265656E7472616E637947756172643A207265656E7472616E742063616C6C00 PUSH1 0x44 DUP3 ADD MSTORE PUSH1 0x64 SWAP1 REVERT JUMPDEST CALLVALUE PUSH2 0x29B JUMPI PUSH1 0xE0 CALLDATASIZE PUSH1 0x3 NOT ADD SLT PUSH2 0x29B JUMPI PUSH1 0x24 CALLDATALOAD PUSH1 0x1 PUSH1 0x1 PUSH1 0x40 SHL SUB DUP2 GT PUSH2 0x29B JUMPI PUSH2 0x12F1 SWAP1 CALLDATASIZE SWAP1 PUSH1 0x4 ADD PUSH2 0x2DF6 JUMP JUMPDEST PUSH1 0x44 CALLDATALOAD PUSH1 0x1 PUSH1 0x1 PUSH1 0x40 SHL SUB DUP2 GT PUSH2 0x29B JUMPI PUSH2 0x1310 SWAP1 CALLDATASIZE SWAP1 PUSH1 0x4 ADD PUSH2 0x2DF6 JUMP JUMPDEST PUSH1 0x64 CALLDATALOAD PUSH1 0x1 PUSH1 0x1 PUSH1 0x40 SHL SUB DUP2 GT PUSH2 0x29B JUMPI PUSH2 0x132F SWAP1 CALLDATASIZE SWAP1 PUSH1 0x4 ADD PUSH2 0x2DF6 JUMP JUMPDEST SWAP2 PUSH1 0x84 CALLDATALOAD PUSH1 0x1 PUSH1 0x1 PUSH1 0x40 SHL SUB DUP2 GT PUSH2 0x29B JUMPI PUSH2 0x134F SWAP1 CALLDATASIZE SWAP1 PUSH1 0x4 ADD PUSH2 0x2F7B JUMP JUMPDEST PUSH1 0xA4 CALLDATALOAD PUSH1 0x1 PUSH1 0x1 PUSH1 0x40 SHL SUB DUP2 GT PUSH2 0x29B JUMPI PUSH2 0x136E SWAP1 CALLDATASIZE SWAP1 PUSH1 0x4 ADD PUSH2 0x2DF6 JUMP JUMPDEST SWAP4 PUSH1 0xC4 CALLDATALOAD PUSH1 0x1 PUSH1 0x1 PUSH1 0x40 SHL SUB DUP2 GT PUSH2 0x29B JUMPI PUSH2 0x138E SWAP1 CALLDATASIZE SWAP1 PUSH1 0x4 ADD PUSH2 0x2DF6 JUMP JUMPDEST SWAP4 PUSH2 0x13B3 PUSH2 0x38A PUSH1 0x4 CALLDATALOAD PUSH1 0x0 MSTORE PUSH1 0x2 PUSH1 0x20 MSTORE PUSH1 0x1 DUP1 PUSH1 0xA0 SHL SUB PUSH1 0x40 PUSH1 0x0 KECCAK256 SLOAD AND ISZERO ISZERO SWAP1 JUMP JUMPDEST PUSH1 0x4 CALLDATALOAD PUSH1 0x0 MSTORE PUSH1 0xD PUSH1 0x20 MSTORE PUSH2 0x13D9 PUSH1 0x1 DUP1 PUSH1 0xA0 SHL SUB PUSH1 0x1 PUSH1 0x40 PUSH1 0x0 KECCAK256 ADD SLOAD AND CALLER EQ PUSH2 0x387F JUMP JUMPDEST PUSH1 0x4 CALLDATALOAD PUSH1 0x0 MSTORE PUSH1 0xD PUSH1 0x20 MSTORE PUSH1 0x40 PUSH1 0x0 KECCAK256 SWAP4 DUP1 MLOAD DUP1 PUSH2 0x1BA6 JUMPI JUMPDEST POP POP DUP1 MLOAD SWAP1 DUP2 PUSH2 0x1A98 JUMPI JUMPDEST POP POP DUP1 MLOAD PUSH2 0x1845 JUMPI JUMPDEST POP DUP1 MLOAD SWAP1 DUP2 PUSH2 0x166C JUMPI JUMPDEST POP POP DUP3 MLOAD DUP1 PUSH2 0x1569 JUMPI JUMPDEST POP DUP2 MLOAD SWAP3 POP SWAP1 DUP3 PUSH2 0x145F JUMPI JUMPDEST POP PUSH1 0x9 TIMESTAMP SWAP2 ADD SSTORE PUSH1 0x40 MLOAD TIMESTAMP DUP2 MSTORE CALLER SWAP1 PUSH32 0x3D16EA86111872645A6B9BE237C624253A379483A0FEC7F94765752DCA698DCF PUSH1 0x20 PUSH1 0x4 CALLDATALOAD SWAP3 LOG3 STOP JUMPDEST PUSH1 0x7 DUP3 ADD PUSH1 0x1 PUSH1 0x1 PUSH1 0x40 SHL SUB DUP5 GT PUSH2 0xCC0 JUMPI PUSH2 0x147B DUP2 SLOAD PUSH2 0x2E84 JUMP JUMPDEST PUSH1 0x1F DUP2 GT PUSH2 0x1537 JUMPI JUMPDEST POP PUSH1 0x20 SWAP4 PUSH1 0x1F DUP2 GT PUSH1 0x1 EQ PUSH2 0x14CF JUMPI DUP1 PUSH2 0x14BD SWAP5 SWAP6 PUSH1 0x0 SWAP2 PUSH2 0x14C4 JUMPI JUMPDEST POP DUP2 PUSH1 0x1 SHL SWAP2 PUSH1 0x0 NOT SWAP1 PUSH1 0x3 SHL SHR NOT AND OR SWAP1 SSTORE JUMPDEST PUSH1 0x4 CALLDATALOAD PUSH2 0x3664 JUMP JUMPDEST DUP1 DUP3 PUSH2 0x1426 JUMP JUMPDEST SWAP1 POP DUP4 ADD MLOAD DUP7 PUSH2 0x14A1 JUMP JUMPDEST PUSH1 0x1F NOT DUP2 AND DUP3 PUSH1 0x0 MSTORE PUSH1 0x20 PUSH1 0x0 KECCAK256 SWAP1 PUSH1 0x0 JUMPDEST DUP2 DUP2 LT PUSH2 0x151F JUMPI POP SWAP1 PUSH2 0x14BD SWAP6 SWAP7 DUP4 PUSH1 0x1 SWAP5 SWAP4 LT PUSH2 0x1506 JUMPI JUMPDEST POP POP DUP2 SHL ADD SWAP1 SSTORE PUSH2 0x14B5 JUMP JUMPDEST DUP6 ADD MLOAD PUSH1 0x0 NOT PUSH1 0xF8 DUP5 PUSH1 0x3 SHL AND SHR NOT AND SWAP1 SSTORE DUP7 DUP1 PUSH2 0x14FA JUMP JUMPDEST DUP6 DUP9 ADD MLOAD DUP4 SSTORE PUSH1 0x20 SWAP8 DUP9 ADD SWAP8 PUSH1 0x1 SWAP1 SWAP4 ADD SWAP3 ADD PUSH2 0x14E1 JUMP JUMPDEST PUSH2 0x1563 SWAP1 DUP3 PUSH1 0x0 MSTORE PUSH1 0x20 PUSH1 0x0 KECCAK256 PUSH1 0x1F DUP8 ADD PUSH1 0x5 SHR DUP2 ADD SWAP2 PUSH1 0x20 DUP9 LT PUSH2 0xCB6 JUMPI PUSH1 0x1F ADD PUSH1 0x5 SHR ADD SWAP1 PUSH2 0x35C6 JUMP JUMPDEST DUP5 PUSH2 0x1484 JUMP JUMPDEST PUSH1 0x6 DUP3 ADD SWAP1 PUSH1 0x1 PUSH1 0x1 PUSH1 0x40 SHL SUB DUP2 GT PUSH2 0xCC0 JUMPI PUSH2 0x1586 DUP3 SLOAD PUSH2 0x2E84 JUMP JUMPDEST PUSH1 0x1F DUP2 GT PUSH2 0x163A JUMPI JUMPDEST POP PUSH1 0x20 SWAP5 PUSH1 0x1F DUP3 GT PUSH1 0x1 EQ PUSH2 0x15D4 JUMPI SWAP5 DUP2 SWAP3 SWAP4 SWAP5 SWAP6 PUSH1 0x0 SWAP3 PUSH2 0x15C9 JUMPI JUMPDEST POP POP DUP2 PUSH1 0x1 SHL SWAP2 PUSH1 0x0 NOT SWAP1 PUSH1 0x3 SHL SHR NOT AND OR SWAP1 SSTORE JUMPDEST DUP2 SWAP1 DUP4 PUSH2 0x141A JUMP JUMPDEST ADD MLOAD SWAP1 POP DUP6 DUP1 PUSH2 0x15AC JUMP JUMPDEST PUSH1 0x1F NOT DUP3 AND SWAP6 DUP4 PUSH1 0x0 MSTORE PUSH1 0x20 PUSH1 0x0 KECCAK256 SWAP2 PUSH1 0x0 JUMPDEST DUP9 DUP2 LT PUSH2 0x1622 JUMPI POP DUP4 PUSH1 0x1 SWAP6 SWAP7 SWAP8 SWAP9 LT PUSH2 0x1609 JUMPI JUMPDEST POP POP POP DUP2 SHL ADD SWAP1 SSTORE PUSH2 0x15C1 JUMP JUMPDEST ADD MLOAD PUSH1 0x0 NOT PUSH1 0xF8 DUP5 PUSH1 0x3 SHL AND SHR NOT AND SWAP1 SSTORE DUP6 DUP1 DUP1 PUSH2 0x15FC JUMP JUMPDEST SWAP2 SWAP3 PUSH1 0x20 PUSH1 0x1 DUP2 SWAP3 DUP7 DUP6 ADD MLOAD DUP2 SSTORE ADD SWAP5 ADD SWAP3 ADD PUSH2 0x15E7 JUMP JUMPDEST PUSH2 0x1666 SWAP1 DUP4 PUSH1 0x0 MSTORE PUSH1 0x20 PUSH1 0x0 KECCAK256 PUSH1 0x1F DUP5 ADD PUSH1 0x5 SHR DUP2 ADD SWAP2 PUSH1 0x20 DUP6 LT PUSH2 0xCB6 JUMPI PUSH1 0x1F ADD PUSH1 0x5 SHR ADD SWAP1 PUSH2 0x35C6 JUMP JUMPDEST DUP6 PUSH2 0x158F JUMP JUMPDEST PUSH1 0x1 PUSH1 0x40 SHL DUP3 GT PUSH2 0xCC0 JUMPI PUSH1 0x5 DUP4 ADD SLOAD DUP3 PUSH1 0x5 DUP6 ADD SSTORE DUP1 DUP4 LT PUSH2 0x17CC JUMPI JUMPDEST POP PUSH1 0x20 ADD SWAP1 PUSH1 0x5 DUP4 ADD PUSH1 0x0 MSTORE PUSH1 0x20 PUSH1 0x0 KECCAK256 SWAP2 PUSH1 0x0 SWAP1 JUMPDEST DUP3 DUP3 LT PUSH2 0x16AE JUMPI POP POP PUSH2 0x1410 JUMP JUMPDEST DUP1 MLOAD DUP1 MLOAD SWAP1 PUSH1 0x1 PUSH1 0x1 PUSH1 0x40 SHL SUB DUP3 GT PUSH2 0xCC0 JUMPI PUSH2 0x16CB DUP7 SLOAD PUSH2 0x2E84 JUMP JUMPDEST SWAP1 PUSH1 0x1F SWAP2 DUP3 DUP2 GT PUSH2 0x1792 JUMPI JUMPDEST POP PUSH1 0x20 SWAP2 DUP4 GT PUSH1 0x1 EQ PUSH2 0x1722 JUMPI SWAP3 DUP3 PUSH1 0x1 SWAP5 SWAP4 PUSH1 0x20 SWAP4 DUP7 SWAP6 PUSH1 0x0 SWAP3 PUSH2 0x1717 JUMPI JUMPDEST POP POP PUSH1 0x0 NOT PUSH1 0x3 DUP4 SWAP1 SHL SHR NOT AND SWAP1 DUP5 SHL OR DUP8 SSTORE JUMPDEST ADD SWAP5 ADD SWAP2 ADD SWAP1 SWAP3 PUSH2 0x16A0 JUMP JUMPDEST ADD MLOAD SWAP1 POP DUP13 DUP1 PUSH2 0x16F7 JUMP JUMPDEST SWAP1 DUP7 PUSH1 0x0 MSTORE PUSH1 0x20 PUSH1 0x0 KECCAK256 SWAP2 PUSH1 0x0 JUMPDEST PUSH1 0x1F NOT DUP6 AND DUP2 LT PUSH2 0x177A JUMPI POP DUP4 PUSH1 0x20 SWAP4 PUSH1 0x1 SWAP7 SWAP4 DUP8 SWAP7 SWAP4 DUP8 SWAP5 PUSH1 0x1F NOT DUP2 AND LT PUSH2 0x1761 JUMPI JUMPDEST POP POP POP DUP2 SHL ADD DUP8 SSTORE PUSH2 0x170B JUMP JUMPDEST ADD MLOAD PUSH1 0x0 NOT PUSH1 0xF8 DUP5 PUSH1 0x3 SHL AND SHR NOT AND SWAP1 SSTORE DUP13 DUP1 DUP1 PUSH2 0x1754 JUMP JUMPDEST SWAP2 SWAP3 PUSH1 0x20 PUSH1 0x1 DUP2 SWAP3 DUP7 DUP6 ADD MLOAD DUP2 SSTORE ADD SWAP5 ADD SWAP3 ADD PUSH2 0x1730 JUMP JUMPDEST PUSH2 0x17BD SWAP1 DUP9 PUSH1 0x0 MSTORE PUSH1 0x20 PUSH1 0x0 KECCAK256 DUP5 DUP1 DUP8 ADD PUSH1 0x5 SHR DUP3 ADD SWAP3 PUSH1 0x20 DUP9 LT PUSH2 0x17C3 JUMPI JUMPDEST ADD PUSH1 0x5 SHR ADD SWAP1 PUSH2 0x35C6 JUMP JUMPDEST DUP11 PUSH2 0x16D7 JUMP JUMPDEST SWAP3 POP DUP2 SWAP3 PUSH2 0x17B2 JUMP JUMPDEST PUSH1 0x5 DUP5 ADD PUSH1 0x0 MSTORE PUSH1 0x20 PUSH1 0x0 KECCAK256 SWAP1 DUP4 DUP3 ADD JUMPDEST DUP2 DUP4 ADD DUP2 LT PUSH2 0x17ED JUMPI POP POP PUSH2 0x168A JUMP JUMPDEST DUP1 PUSH2 0x17FA PUSH1 0x1 SWAP3 SLOAD PUSH2 0x2E84 JUMP JUMPDEST DUP1 PUSH2 0x1807 JUMPI JUMPDEST POP ADD PUSH2 0x17DD JUMP JUMPDEST PUSH1 0x1F SWAP1 DUP2 DUP2 GT DUP5 EQ PUSH2 0x1820 JUMPI POP POP PUSH1 0x0 DUP2 SSTORE JUMPDEST DUP10 PUSH2 0x1800 JUMP JUMPDEST PUSH2 0x183C PUSH1 0x0 SWAP3 DUP5 DUP5 MSTORE PUSH1 0x20 DUP5 KECCAK256 SWAP3 ADD PUSH1 0x5 SHR DUP3 ADD DUP6 DUP4 ADD PUSH2 0x35C6 JUMP JUMPDEST DUP2 DUP4 SSTORE SSTORE PUSH2 0x181A JUMP JUMPDEST SWAP4 SWAP3 SWAP2 SWAP1 PUSH2 0x186D PUSH1 0x20 PUSH2 0x185A PUSH1 0x4 DUP6 ADD PUSH2 0x2EBE JUMP JUMPDEST DUP2 PUSH1 0x40 MLOAD SWAP4 DUP3 DUP6 DUP1 SWAP5 MLOAD SWAP4 DUP5 SWAP3 ADD PUSH2 0x2CD8 JUMP JUMPDEST DUP2 ADD PUSH1 0xF DUP2 MSTORE SUB ADD SWAP1 KECCAK256 SWAP5 PUSH1 0x0 JUMPDEST DUP7 SLOAD DUP1 DUP3 LT ISZERO PUSH2 0x1A8B JUMPI PUSH2 0x188F DUP3 DUP10 PUSH2 0x2FFB JUMP JUMPDEST SWAP1 SLOAD PUSH1 0x3 SWAP3 SWAP2 DUP4 SHL SHR PUSH1 0x4 CALLDATALOAD EQ PUSH2 0x18C9 JUMPI POP POP PUSH1 0x0 NOT DUP2 EQ PUSH2 0x18B3 JUMPI PUSH1 0x1 ADD PUSH2 0x187B JUMP JUMPDEST PUSH4 0x4E487B71 PUSH1 0xE0 SHL PUSH1 0x0 MSTORE PUSH1 0x11 PUSH1 0x4 MSTORE PUSH1 0x24 PUSH1 0x0 REVERT JUMPDEST PUSH1 0x0 SWAP9 SWAP3 SWAP2 SWAP4 SWAP5 SWAP6 SWAP7 SWAP8 SWAP9 NOT SWAP2 DUP3 DUP3 ADD SWAP2 DUP3 GT PUSH2 0x18B3 JUMPI PUSH2 0x18FD PUSH2 0x18F0 PUSH2 0x1916 SWAP4 DUP7 PUSH2 0x2FFB JUMP JUMPDEST SWAP1 SLOAD SWAP1 DUP8 SHL SHR SWAP2 DUP6 PUSH2 0x2FFB JUMP JUMPDEST SWAP1 SWAP2 SWAP1 DUP3 SLOAD SWAP1 PUSH1 0x3 SHL SWAP2 DUP3 SHL SWAP2 PUSH1 0x0 NOT SWAP1 SHL NOT AND OR SWAP1 SSTORE JUMP JUMPDEST DUP2 SLOAD DUP1 ISZERO PUSH2 0x1A75 JUMPI DUP2 ADD SWAP3 PUSH2 0x192B DUP5 DUP5 PUSH2 0x2FFB JUMP JUMPDEST DUP2 SWAP4 SWAP2 SLOAD SWAP3 SHL SHL NOT AND SWAP1 SSTORE SSTORE JUMPDEST DUP1 MLOAD PUSH1 0x1 PUSH1 0x1 PUSH1 0x40 SHL SUB DUP2 GT PUSH2 0xCC0 JUMPI PUSH2 0x1955 PUSH1 0x4 DUP6 ADD SLOAD PUSH2 0x2E84 JUMP JUMPDEST PUSH1 0x1F DUP2 GT PUSH2 0x1A40 JUMPI JUMPDEST POP PUSH1 0x20 PUSH1 0x1F DUP3 GT PUSH1 0x1 EQ PUSH2 0x19CF JUMPI SWAP1 DUP1 PUSH2 0x19BE SWAP4 SWAP3 PUSH1 0x0 SWAP2 PUSH2 0x19C4 JUMPI JUMPDEST POP DUP2 PUSH1 0x1 SHL SWAP2 PUSH1 0x0 NOT SWAP1 PUSH1 0x3 SHL SHR NOT AND OR PUSH1 0x4 DUP6 ADD SSTORE JUMPDEST PUSH1 0x20 PUSH2 0x19A7 PUSH1 0x40 MLOAD SWAP3 DUP4 DUP2 MLOAD SWAP4 DUP5 SWAP3 ADD PUSH2 0x2CD8 JUMP JUMPDEST DUP2 ADD SWAP1 PUSH1 0xF DUP3 MSTORE PUSH1 0x20 DUP2 PUSH1 0x4 CALLDATALOAD SWAP4 SUB ADD SWAP1 KECCAK256 PUSH2 0x35DD JUMP JUMPDEST DUP5 PUSH2 0x1406 JUMP JUMPDEST SWAP1 POP DUP3 ADD MLOAD DUP9 PUSH2 0x197B JUMP JUMPDEST PUSH1 0x4 DUP6 ADD PUSH1 0x0 MSTORE PUSH1 0x20 PUSH1 0x0 KECCAK256 SWAP1 PUSH1 0x0 JUMPDEST PUSH1 0x1F NOT DUP5 AND DUP2 LT PUSH2 0x1A28 JUMPI POP SWAP2 PUSH1 0x1 SWAP2 PUSH2 0x19BE SWAP5 SWAP4 DUP3 PUSH1 0x1F NOT DUP2 AND LT PUSH2 0x1A0F JUMPI JUMPDEST POP POP DUP2 SHL ADD PUSH1 0x4 DUP6 ADD SSTORE PUSH2 0x1992 JUMP JUMPDEST DUP5 ADD MLOAD PUSH1 0x0 NOT PUSH1 0xF8 DUP5 PUSH1 0x3 SHL AND SHR NOT AND SWAP1 SSTORE DUP9 DUP1 PUSH2 0x1A00 JUMP JUMPDEST SWAP1 SWAP2 PUSH1 0x20 PUSH1 0x1 DUP2 SWAP3 DUP6 DUP9 ADD MLOAD DUP2 SSTORE ADD SWAP4 ADD SWAP2 ADD PUSH2 0x19DF JUMP JUMPDEST PUSH2 0x1A6F SWAP1 PUSH1 0x4 DUP7 ADD PUSH1 0x0 MSTORE PUSH1 0x20 PUSH1 0x0 KECCAK256 PUSH1 0x1F DUP5 ADD PUSH1 0x5 SHR DUP2 ADD SWAP2 PUSH1 0x20 DUP6 LT PUSH2 0xCB6 JUMPI PUSH1 0x1F ADD PUSH1 0x5 SHR ADD SWAP1 PUSH2 0x35C6 JUMP JUMPDEST DUP7 PUSH2 0x195E JUMP JUMPDEST PUSH4 0x4E487B71 PUSH1 0xE0 SHL PUSH1 0x0 MSTORE PUSH1 0x31 PUSH1 0x4 MSTORE PUSH1 0x24 PUSH1 0x0 REVERT JUMPDEST POP POP SWAP1 SWAP2 SWAP3 SWAP4 SWAP5 POP PUSH2 0x1938 JUMP JUMPDEST PUSH1 0x1 PUSH1 0x1 PUSH1 0x40 SHL SUB DUP3 GT PUSH2 0xCC0 JUMPI DUP2 SWAP1 PUSH2 0x1AB5 PUSH1 0x3 DUP8 ADD SLOAD PUSH2 0x2E84 JUMP JUMPDEST PUSH1 0x1F DUP2 GT PUSH2 0x1B71 JUMPI JUMPDEST POP PUSH1 0x20 SWAP1 PUSH1 0x1F DUP4 GT PUSH1 0x1 EQ PUSH2 0x1AFF JUMPI PUSH1 0x0 SWAP3 PUSH2 0x1AF4 JUMPI JUMPDEST POP POP DUP2 PUSH1 0x1 SHL SWAP2 PUSH1 0x0 NOT SWAP1 PUSH1 0x3 SHL SHR NOT AND OR PUSH1 0x3 DUP5 ADD SSTORE JUMPDEST DUP6 DUP1 PUSH2 0x13FD JUMP JUMPDEST ADD MLOAD SWAP1 POP DUP8 DUP1 PUSH2 0x1AD5 JUMP JUMPDEST SWAP3 POP PUSH1 0x3 DUP7 ADD PUSH1 0x0 MSTORE PUSH1 0x20 PUSH1 0x0 KECCAK256 SWAP1 PUSH1 0x0 SWAP4 JUMPDEST PUSH1 0x1F NOT DUP5 AND DUP6 LT PUSH2 0x1B56 JUMPI PUSH1 0x1 SWAP5 POP DUP4 PUSH1 0x1F NOT DUP2 AND LT PUSH2 0x1B3D JUMPI JUMPDEST POP POP POP DUP2 SHL ADD PUSH1 0x3 DUP5 ADD SSTORE PUSH2 0x1AED JUMP JUMPDEST ADD MLOAD PUSH1 0x0 NOT PUSH1 0xF8 DUP5 PUSH1 0x3 SHL AND SHR NOT AND SWAP1 SSTORE DUP8 DUP1 DUP1 PUSH2 0x1B2D JUMP JUMPDEST DUP2 DUP2 ADD MLOAD DUP4 SSTORE PUSH1 0x20 SWAP5 DUP6 ADD SWAP5 PUSH1 0x1 SWAP1 SWAP4 ADD SWAP3 SWAP1 SWAP2 ADD SWAP1 PUSH2 0x1B12 JUMP JUMPDEST PUSH2 0x1BA0 SWAP1 PUSH1 0x3 DUP9 ADD PUSH1 0x0 MSTORE PUSH1 0x20 PUSH1 0x0 KECCAK256 PUSH1 0x1F DUP6 ADD PUSH1 0x5 SHR DUP2 ADD SWAP2 PUSH1 0x20 DUP7 LT PUSH2 0xCB6 JUMPI PUSH1 0x1F ADD PUSH1 0x5 SHR ADD SWAP1 PUSH2 0x35C6 JUMP JUMPDEST DUP9 PUSH2 0x1ABE JUMP JUMPDEST PUSH1 0x2 DUP7 ADD SWAP2 PUSH1 0x1 PUSH1 0x1 PUSH1 0x40 SHL SUB DUP3 GT PUSH2 0xCC0 JUMPI DUP2 SWAP1 PUSH2 0x1BC5 DUP5 SLOAD PUSH2 0x2E84 JUMP JUMPDEST PUSH1 0x1F DUP2 GT PUSH2 0x1C72 JUMPI JUMPDEST POP PUSH1 0x20 SWAP1 PUSH1 0x1F DUP4 GT PUSH1 0x1 EQ PUSH2 0x1C0C JUMPI PUSH1 0x0 SWAP3 PUSH2 0x1C01 JUMPI JUMPDEST POP POP DUP2 PUSH1 0x1 SHL SWAP2 PUSH1 0x0 NOT SWAP1 PUSH1 0x3 SHL SHR NOT AND OR SWAP1 SSTORE JUMPDEST DUP7 DUP1 PUSH2 0x13F2 JUMP JUMPDEST ADD MLOAD SWAP1 POP DUP10 DUP1 PUSH2 0x1BE5 JUMP JUMPDEST PUSH1 0x0 DUP6 DUP2 MSTORE PUSH1 0x20 DUP2 KECCAK256 SWAP4 POP PUSH1 0x1F NOT DUP6 AND SWAP1 JUMPDEST DUP2 DUP2 LT PUSH2 0x1C5A JUMPI POP SWAP1 DUP5 PUSH1 0x1 SWAP6 SWAP5 SWAP4 SWAP3 LT PUSH2 0x1C41 JUMPI JUMPDEST POP POP POP DUP2 SHL ADD SWAP1 SSTORE PUSH2 0x1BFA JUMP JUMPDEST ADD MLOAD PUSH1 0x0 NOT PUSH1 0xF8 DUP5 PUSH1 0x3 SHL AND SHR NOT AND SWAP1 SSTORE DUP10 DUP1 DUP1 PUSH2 0x1C34 JUMP JUMPDEST SWAP3 SWAP4 PUSH1 0x20 PUSH1 0x1 DUP2 SWAP3 DUP8 DUP7 ADD MLOAD DUP2 SSTORE ADD SWAP6 ADD SWAP4 ADD PUSH2 0x1C1E JUMP JUMPDEST PUSH2 0x1C9E SWAP1 DUP6 PUSH1 0x0 MSTORE PUSH1 0x20 PUSH1 0x0 KECCAK256 PUSH1 0x1F DUP6 ADD PUSH1 0x5 SHR DUP2 ADD SWAP2 PUSH1 0x20 DUP7 LT PUSH2 0xCB6 JUMPI PUSH1 0x1F ADD PUSH1 0x5 SHR ADD SWAP1 PUSH2 0x35C6 JUMP JUMPDEST DUP11 PUSH2 0x1BCE JUMP JUMPDEST CALLVALUE PUSH2 0x29B JUMPI PUSH1 0x0 CALLDATASIZE PUSH1 0x3 NOT ADD SLT PUSH2 0x29B JUMPI PUSH1 0x20 PUSH1 0xFF PUSH1 0xC SLOAD PUSH1 0xA0 SHR AND PUSH1 0x40 MLOAD SWAP1 ISZERO ISZERO DUP2 MSTORE RETURN JUMPDEST CALLVALUE PUSH2 0x29B JUMPI PUSH1 0x40 CALLDATASIZE PUSH1 0x3 NOT ADD SLT PUSH2 0x29B JUMPI PUSH2 0x1CE3 PUSH2 0x2D20 JUMP JUMPDEST PUSH1 0x24 CALLDATALOAD SWAP1 DUP2 ISZERO ISZERO SWAP1 DUP2 DUP4 SUB PUSH2 0x29B JUMPI PUSH1 0x1 PUSH1 0x1 PUSH1 0xA0 SHL SUB AND SWAP2 CALLER DUP4 EQ PUSH2 0x1D60 JUMPI PUSH2 0x1D32 SWAP1 CALLER PUSH1 0x0 MSTORE PUSH1 0x5 PUSH1 0x20 MSTORE PUSH1 0x40 PUSH1 0x0 KECCAK256 DUP5 PUSH1 0x0 MSTORE PUSH1 0x20 MSTORE PUSH1 0x40 PUSH1 0x0 KECCAK256 SWAP1 PUSH1 0xFF DUP1 NOT DUP4 SLOAD AND SWAP2 ISZERO ISZERO AND OR SWAP1 SSTORE JUMP JUMPDEST PUSH1 0x40 MLOAD SWAP1 DUP2 MSTORE PUSH32 0x17307EAB39AB6107E8899845AD3D59BD9653F200F220920489CA2B5937696C31 PUSH1 0x20 CALLER SWAP3 LOG3 STOP JUMPDEST PUSH1 0x40 MLOAD PUSH3 0x461BCD PUSH1 0xE5 SHL DUP2 MSTORE PUSH1 0x20 PUSH1 0x4 DUP3 ADD MSTORE PUSH1 0x19 PUSH1 0x24 DUP3 ADD MSTORE PUSH32 0x4552433732313A20617070726F766520746F2063616C6C657200000000000000 PUSH1 0x44 DUP3 ADD MSTORE PUSH1 0x64 SWAP1 REVERT JUMPDEST CALLVALUE PUSH2 0x29B JUMPI PUSH1 0x0 CALLDATASIZE PUSH1 0x3 NOT ADD SLT PUSH2 0x29B JUMPI PUSH1 0x40 MLOAD PUSH1 0x0 PUSH1 0x1 DUP1 SLOAD SWAP1 PUSH2 0x1DC9 DUP3 PUSH2 0x2E84 JUMP JUMPDEST DUP1 DUP6 MSTORE SWAP2 DUP2 DUP2 AND SWAP1 DUP2 ISZERO PUSH2 0x1E5D JUMPI POP PUSH1 0x1 EQ PUSH2 0x1E04 JUMPI JUMPDEST PUSH2 0x4CC DUP5 PUSH2 0x1DF0 DUP2 DUP7 SUB DUP3 PUSH2 0x2D83 JUMP JUMPDEST PUSH1 0x40 MLOAD SWAP2 DUP3 SWAP2 PUSH1 0x20 DUP4 MSTORE PUSH1 0x20 DUP4 ADD SWAP1 PUSH2 0x2CFB JUMP JUMPDEST PUSH1 0x0 DUP2 DUP2 MSTORE SWAP3 POP PUSH32 0xB10E2D527612073B26EECDFD717E6A320CF44B4AFAC2B0732D9FCBE2B7FA0CF6 JUMPDEST DUP3 DUP5 LT PUSH2 0x1E45 JUMPI POP POP POP DUP2 ADD PUSH1 0x20 ADD PUSH2 0x1DF0 DUP3 PUSH2 0x1DE0 JUMP JUMPDEST DUP1 SLOAD PUSH1 0x20 DUP6 DUP8 ADD DUP2 ADD SWAP2 SWAP1 SWAP2 MSTORE SWAP1 SWAP4 ADD SWAP3 DUP2 ADD PUSH2 0x1E2D JUMP JUMPDEST PUSH1 0xFF NOT AND PUSH1 0x20 DUP1 DUP8 ADD SWAP2 SWAP1 SWAP2 MSTORE SWAP3 ISZERO ISZERO PUSH1 0x5 SHL DUP6 ADD SWAP1 SWAP3 ADD SWAP3 POP PUSH2 0x1DF0 SWAP2 POP DUP4 SWAP1 POP PUSH2 0x1DE0 JUMP JUMPDEST CALLVALUE PUSH2 0x29B JUMPI PUSH1 0x20 CALLDATASIZE PUSH1 0x3 NOT ADD SLT PUSH2 0x29B JUMPI PUSH1 0x4 CALLDATALOAD PUSH1 0x0 SWAP1 DUP2 MSTORE PUSH1 0xD PUSH1 0x20 MSTORE PUSH1 0x40 SWAP1 KECCAK256 DUP1 SLOAD PUSH1 0x1 DUP3 ADD SLOAD PUSH1 0x1 PUSH1 0x1 PUSH1 0xA0 SHL SUB AND SWAP2 PUSH2 0x1EC3 PUSH1 0x2 DUP3 ADD PUSH2 0x2EBE JUMP JUMPDEST PUSH2 0x1ECF PUSH1 0x3 DUP4 ADD PUSH2 0x2EBE JUMP JUMPDEST SWAP2 PUSH2 0x1EDC PUSH1 0x4 DUP3 ADD PUSH2 0x2EBE JUMP JUMPDEST PUSH2 0x1EE8 PUSH1 0x6 DUP4 ADD PUSH2 0x2EBE JUMP JUMPDEST PUSH2 0x1EF4 PUSH1 0x7 DUP5 ADD PUSH2 0x2EBE JUMP JUMPDEST SWAP2 PUSH1 0x8 DUP5 ADD SLOAD SWAP6 PUSH1 0x9 DUP6 ADD SLOAD SWAP5 PUSH1 0xA ADD SLOAD PUSH1 0xFF AND SWAP6 PUSH1 0x40 MLOAD SWAP10 DUP11 SWAP10 DUP11 MSTORE PUSH1 0x20 DUP11 ADD MSTORE PUSH2 0x140 DUP1 PUSH1 0x40 DUP12 ADD MSTORE DUP10 ADD PUSH2 0x1F2A SWAP2 PUSH2 0x2CFB JUMP JUMPDEST DUP9 DUP2 SUB PUSH1 0x60 DUP11 ADD MSTORE PUSH2 0x1F3B SWAP2 PUSH2 0x2CFB JUMP JUMPDEST DUP8 DUP2 SUB PUSH1 0x80 DUP10 ADD MSTORE PUSH2 0x1F4C SWAP2 PUSH2 0x2CFB JUMP JUMPDEST DUP7 DUP2 SUB PUSH1 0xA0 DUP9 ADD MSTORE PUSH2 0x1F5D SWAP2 PUSH2 0x2CFB JUMP JUMPDEST DUP6 DUP2 SUB PUSH1 0xC0 DUP8 ADD MSTORE PUSH2 0x1F6E SWAP2 PUSH2 0x2CFB JUMP JUMPDEST SWAP3 PUSH1 0xE0 DUP6 ADD MSTORE PUSH2 0x100 DUP5 ADD MSTORE ISZERO ISZERO PUSH2 0x120 DUP4 ADD MSTORE SUB SWAP1 RETURN JUMPDEST CALLVALUE PUSH2 0x29B JUMPI PUSH1 0x0 CALLDATASIZE PUSH1 0x3 NOT ADD SLT PUSH2 0x29B JUMPI PUSH1 0x7 SLOAD PUSH1 0x40 MLOAD PUSH1 0x1 PUSH1 0x1 PUSH1 0xA0 SHL SUB SWAP1 SWAP2 AND DUP2 MSTORE PUSH1 0x20 SWAP1 RETURN JUMPDEST CALLVALUE PUSH2 0x29B JUMPI PUSH1 0x0 CALLDATASIZE PUSH1 0x3 NOT ADD SLT PUSH2 0x29B JUMPI PUSH2 0x1FC8 PUSH2 0x3029 JUMP JUMPDEST PUSH1 0x9 SLOAD PUSH1 0xFF DUP2 AND PUSH2 0x200A JUMPI PUSH1 0x1 SWAP1 PUSH1 0xFF NOT AND OR PUSH1 0x9 SSTORE PUSH32 0x62E78CEA01BEE320CD4E420270B5EA74000D11B0C9F74754EBDBFC544B05A258 PUSH1 0x20 PUSH1 0x40 MLOAD CALLER DUP2 MSTORE LOG1 STOP JUMPDEST PUSH1 0x40 MLOAD PUSH3 0x461BCD PUSH1 0xE5 SHL DUP2 MSTORE PUSH1 0x20 PUSH1 0x4 DUP3 ADD MSTORE PUSH1 0x10 PUSH1 0x24 DUP3 ADD MSTORE PUSH16 0x14185D5CD8589B194E881C185D5CD959 PUSH1 0x82 SHL PUSH1 0x44 DUP3 ADD MSTORE PUSH1 0x64 SWAP1 REVERT JUMPDEST CALLVALUE PUSH2 0x29B JUMPI PUSH1 0x0 CALLDATASIZE PUSH1 0x3 NOT ADD SLT PUSH2 0x29B JUMPI PUSH2 0x205B PUSH2 0x3029 JUMP JUMPDEST PUSH1 0x7 DUP1 SLOAD PUSH1 0x1 PUSH1 0x1 PUSH1 0xA0 SHL SUB NOT DUP2 AND SWAP1 SWAP2 SSTORE PUSH1 0x0 SWAP1 PUSH1 0x1 PUSH1 0x1 PUSH1 0xA0 SHL SUB AND PUSH32 0x8BE0079C531659141344CD1FD0A4F28419497F9722A3DAAFE3B4186F6B6457E0 DUP3 DUP1 LOG3 STOP JUMPDEST CALLVALUE PUSH2 0x29B JUMPI PUSH1 0x20 CALLDATASIZE PUSH1 0x3 NOT ADD SLT PUSH2 0x29B JUMPI PUSH1 0x1 PUSH1 0x1 PUSH1 0xA0 SHL SUB PUSH2 0x20C0 PUSH2 0x2D20 JUMP JUMPDEST AND DUP1 ISZERO PUSH2 0x20DF JUMPI PUSH1 0x0 MSTORE PUSH1 0x3 PUSH1 0x20 MSTORE PUSH1 0x20 PUSH1 0x40 PUSH1 0x0 KECCAK256 SLOAD PUSH1 0x40 MLOAD SWAP1 DUP2 MSTORE RETURN JUMPDEST PUSH1 0x40 MLOAD PUSH3 0x461BCD PUSH1 0xE5 SHL DUP2 MSTORE PUSH1 0x20 PUSH1 0x4 DUP3 ADD MSTORE PUSH1 0x29 PUSH1 0x24 DUP3 ADD MSTORE PUSH32 0x4552433732313A2061646472657373207A65726F206973206E6F742061207661 PUSH1 0x44 DUP3 ADD MSTORE PUSH9 0x3634B21037BBB732B9 PUSH1 0xB9 SHL PUSH1 0x64 DUP3 ADD MSTORE PUSH1 0x84 SWAP1 REVERT JUMPDEST CALLVALUE PUSH2 0x29B JUMPI PUSH1 0x20 CALLDATASIZE PUSH1 0x3 NOT ADD SLT PUSH2 0x29B JUMPI PUSH1 0x20 PUSH2 0x2154 PUSH1 0x4 CALLDATALOAD PUSH2 0x30CD JUMP JUMPDEST PUSH1 0x40 MLOAD PUSH1 0x1 PUSH1 0x1 PUSH1 0xA0 SHL SUB SWAP1 SWAP2 AND DUP2 MSTORE RETURN JUMPDEST CALLVALUE PUSH2 0x29B JUMPI PUSH1 0x20 CALLDATASIZE PUSH1 0x3 NOT ADD SLT PUSH2 0x29B JUMPI PUSH2 0x217F PUSH2 0x2D20 JUMP JUMPDEST PUSH2 0x2187 PUSH2 0x3029 JUMP JUMPDEST PUSH1 0x1 PUSH1 0x1 PUSH1 0xA0 SHL SUB AND DUP1 ISZERO PUSH2 0x21AE JUMPI PUSH1 0x1 PUSH1 0x1 PUSH1 0x60 SHL SUB PUSH1 0xA0 SHL PUSH1 0xC SLOAD AND OR PUSH1 0xC SSTORE PUSH1 0x0 DUP1 RETURN JUMPDEST PUSH1 0x40 MLOAD PUSH3 0x461BCD PUSH1 0xE5 SHL DUP2 MSTORE PUSH1 0x20 PUSH1 0x4 DUP3 ADD MSTORE PUSH1 0x14 PUSH1 0x24 DUP3 ADD MSTORE PUSH20 0x496E76616C696420555344432061646472657373 PUSH1 0x60 SHL PUSH1 0x44 DUP3 ADD MSTORE PUSH1 0x64 SWAP1 REVERT JUMPDEST CALLVALUE PUSH2 0x29B JUMPI PUSH1 0x20 CALLDATASIZE PUSH1 0x3 NOT ADD SLT PUSH2 0x29B JUMPI PUSH1 0x4 CALLDATALOAD PUSH1 0x0 DUP2 DUP2 MSTORE PUSH1 0x2 PUSH1 0x20 MSTORE PUSH1 0x40 SWAP1 KECCAK256 SLOAD PUSH2 0x2221 SWAP1 PUSH1 0x1 PUSH1 0x1 PUSH1 0xA0 SHL SUB AND ISZERO ISZERO PUSH2 0x383D JUMP JUMPDEST PUSH1 0x0 MSTORE PUSH1 0xD PUSH1 0x20 MSTORE PUSH1 0x20 PUSH1 0x1 DUP1 PUSH1 0xA0 SHL SUB PUSH1 0x1 PUSH1 0x40 PUSH1 0x0 KECCAK256 ADD SLOAD AND PUSH1 0x40 MLOAD SWAP1 DUP2 MSTORE RETURN JUMPDEST CALLVALUE PUSH2 0x29B JUMPI PUSH1 0x0 CALLDATASIZE PUSH1 0x3 NOT ADD SLT PUSH2 0x29B JUMPI PUSH1 0x20 PUSH1 0xFF PUSH1 0x9 SLOAD AND PUSH1 0x40 MLOAD SWAP1 ISZERO ISZERO DUP2 MSTORE RETURN JUMPDEST CALLVALUE PUSH2 0x29B JUMPI PUSH1 0x0 CALLDATASIZE PUSH1 0x3 NOT ADD SLT PUSH2 0x29B JUMPI PUSH2 0x2280 PUSH2 0x3029 JUMP JUMPDEST PUSH1 0xC SLOAD PUSH1 0x1 PUSH1 0x1 PUSH1 0xA0 SHL SUB SWAP1 DUP2 AND PUSH2 0x2299 DUP2 ISZERO ISZERO PUSH2 0x3585 JUMP JUMPDEST PUSH1 0x40 MLOAD SWAP1 PUSH4 0x70A08231 PUSH1 0xE0 SHL DUP3 MSTORE ADDRESS PUSH1 0x4 DUP4 ADD MSTORE PUSH1 0x20 SWAP3 DUP4 DUP4 PUSH1 0x24 DUP2 DUP6 GAS STATICCALL SWAP3 DUP4 ISZERO PUSH2 0xBEF JUMPI PUSH1 0x0 SWAP4 PUSH2 0x2363 JUMPI JUMPDEST POP DUP3 ISZERO PUSH2 0x2328 JUMPI PUSH1 0x7 SLOAD PUSH1 0x40 MLOAD PUSH4 0xA9059CBB PUSH1 0xE0 SHL DUP2 MSTORE SWAP2 AND PUSH1 0x1 PUSH1 0x1 PUSH1 0xA0 SHL SUB AND PUSH1 0x4 DUP3 ADD MSTORE PUSH1 0x24 DUP2 ADD SWAP3 SWAP1 SWAP3 MSTORE DUP3 SWAP1 DUP3 SWAP1 DUP2 PUSH1 0x0 DUP2 PUSH1 0x44 DUP2 ADD SUB SWAP3 GAS CALL DUP1 ISZERO PUSH2 0xBEF JUMPI PUSH2 0x2312 JUMPI STOP JUMPDEST DUP2 PUSH2 0x5C0 SWAP3 SWAP1 RETURNDATASIZE LT PUSH2 0xBE8 JUMPI PUSH2 0xBD9 DUP2 DUP4 PUSH2 0x2D83 JUMP JUMPDEST PUSH1 0x40 MLOAD PUSH3 0x461BCD PUSH1 0xE5 SHL DUP2 MSTORE PUSH1 0x4 DUP2 ADD DUP6 SWAP1 MSTORE PUSH1 0x13 PUSH1 0x24 DUP3 ADD MSTORE PUSH19 0x4E6F206665657320746F207769746864726177 PUSH1 0x68 SHL PUSH1 0x44 DUP3 ADD MSTORE PUSH1 0x64 SWAP1 REVERT JUMPDEST SWAP1 SWAP3 POP DUP4 DUP2 DUP2 RETURNDATASIZE DUP4 GT PUSH2 0x238B JUMPI JUMPDEST PUSH2 0x237B DUP2 DUP4 PUSH2 0x2D83 JUMP JUMPDEST DUP2 ADD SUB SLT PUSH2 0x29B JUMPI MLOAD SWAP2 DUP5 PUSH2 0x22C7 JUMP JUMPDEST POP RETURNDATASIZE PUSH2 0x2371 JUMP JUMPDEST CALLVALUE PUSH2 0x29B JUMPI PUSH1 0x20 DUP1 PUSH1 0x3 NOT CALLDATASIZE ADD SLT PUSH2 0x29B JUMPI PUSH1 0x1 PUSH1 0x1 PUSH1 0xA0 SHL SUB PUSH2 0x23B4 PUSH2 0x2D20 JUMP JUMPDEST AND PUSH1 0x0 MSTORE PUSH1 0xE DUP2 MSTORE PUSH1 0x40 PUSH1 0x0 KECCAK256 SWAP1 PUSH1 0x40 MLOAD SWAP1 DUP2 DUP2 DUP5 SLOAD SWAP2 DUP3 DUP2 MSTORE ADD SWAP4 PUSH1 0x0 MSTORE DUP2 PUSH1 0x0 KECCAK256 SWAP2 PUSH1 0x0 SWAP1 JUMPDEST DUP3 DUP3 LT PUSH2 0x23FF JUMPI PUSH2 0x4CC DUP6 PUSH2 0x23F3 DUP2 DUP10 SUB DUP3 PUSH2 0x2D83 JUMP JUMPDEST PUSH1 0x40 MLOAD SWAP2 DUP3 SWAP2 DUP3 PUSH2 0x2E14 JUMP JUMPDEST DUP4 SLOAD DUP7 MSTORE SWAP5 DUP6 ADD SWAP5 PUSH1 0x1 SWAP4 DUP5 ADD SWAP4 SWAP1 SWAP2 ADD SWAP1 PUSH2 0x23DC JUMP JUMPDEST CALLVALUE PUSH2 0x29B JUMPI PUSH1 0x0 CALLDATASIZE PUSH1 0x3 NOT ADD SLT PUSH2 0x29B JUMPI PUSH1 0x20 PUSH1 0x40 MLOAD PUSH2 0x1F4 DUP2 MSTORE RETURN JUMPDEST CALLVALUE PUSH2 0x29B JUMPI PUSH1 0x20 CALLDATASIZE PUSH1 0x3 NOT ADD SLT PUSH2 0x29B JUMPI PUSH1 0x4 CALLDATALOAD PUSH1 0x0 PUSH2 0x140 PUSH1 0x40 MLOAD PUSH2 0x2458 DUP2 PUSH2 0x2D4C JUMP JUMPDEST DUP3 DUP2 MSTORE DUP3 PUSH1 0x20 DUP3 ADD MSTORE PUSH1 0x60 PUSH1 0x40 DUP3 ADD MSTORE PUSH1 0x60 DUP1 DUP3 ADD MSTORE PUSH1 0x60 PUSH1 0x80 DUP3 ADD MSTORE PUSH1 0x60 PUSH1 0xA0 DUP3 ADD MSTORE PUSH1 0x60 PUSH1 0xC0 DUP3 ADD MSTORE PUSH1 0x60 PUSH1 0xE0 DUP3 ADD MSTORE DUP3 PUSH2 0x100 DUP3 ADD MSTORE DUP3 PUSH2 0x120 DUP3 ADD MSTORE ADD MSTORE PUSH2 0x24BC PUSH2 0x38A DUP3 PUSH1 0x0 MSTORE PUSH1 0x2 PUSH1 0x20 MSTORE PUSH1 0x1 DUP1 PUSH1 0xA0 SHL SUB PUSH1 0x40 PUSH1 0x0 KECCAK256 SLOAD AND ISZERO ISZERO SWAP1 JUMP JUMPDEST PUSH1 0x0 MSTORE PUSH1 0xD PUSH1 0x20 MSTORE PUSH1 0x40 PUSH1 0x0 KECCAK256 PUSH1 0x40 MLOAD SWAP1 PUSH2 0x24D6 DUP3 PUSH2 0x2D4C JUMP JUMPDEST DUP1 SLOAD DUP3 MSTORE PUSH1 0x1 DUP2 ADD SLOAD PUSH1 0x1 PUSH1 0x1 PUSH1 0xA0 SHL SUB AND PUSH1 0x20 DUP4 ADD MSTORE PUSH2 0x24F9 PUSH1 0x2 DUP3 ADD PUSH2 0x2EBE JUMP JUMPDEST PUSH1 0x40 DUP4 ADD MSTORE PUSH2 0x250A PUSH1 0x3 DUP3 ADD PUSH2 0x2EBE JUMP JUMPDEST PUSH1 0x60 DUP4 ADD MSTORE PUSH2 0x251B PUSH1 0x4 DUP3 ADD PUSH2 0x2EBE JUMP JUMPDEST PUSH1 0x80 DUP4 ADD MSTORE PUSH1 0x5 DUP2 ADD DUP1 SLOAD PUSH2 0x252F DUP2 PUSH2 0x2F64 JUMP JUMPDEST SWAP2 PUSH2 0x253D PUSH1 0x40 MLOAD SWAP4 DUP5 PUSH2 0x2D83 JUMP JUMPDEST DUP2 DUP4 MSTORE PUSH1 0x20 DUP4 ADD SWAP1 PUSH1 0x0 MSTORE PUSH1 0x20 PUSH1 0x0 KECCAK256 PUSH1 0x0 SWAP2 JUMPDEST DUP4 DUP4 LT PUSH2 0x26CF JUMPI DUP7 PUSH1 0xFF PUSH1 0xA DUP9 DUP9 PUSH1 0xA0 DUP6 ADD MSTORE PUSH2 0x2570 PUSH1 0x6 DUP3 ADD PUSH2 0x2EBE JUMP JUMPDEST PUSH1 0xC0 DUP6 ADD MSTORE PUSH2 0x2581 PUSH1 0x7 DUP3 ADD PUSH2 0x2EBE JUMP JUMPDEST PUSH1 0xE0 DUP6 ADD MSTORE PUSH1 0x8 DUP2 ADD SLOAD PUSH2 0x100 DUP6 ADD MSTORE PUSH1 0x9 DUP2 ADD SLOAD PUSH2 0x120 DUP6 ADD MSTORE ADD SLOAD AND ISZERO ISZERO PUSH2 0x140 DUP3 ADD MSTORE PUSH1 0x40 DUP1 MLOAD PUSH1 0x20 DUP1 DUP3 MSTORE DUP4 MLOAD DUP2 DUP4 ADD MSTORE DUP4 ADD MLOAD PUSH1 0x1 PUSH1 0x1 PUSH1 0xA0 SHL SUB AND DUP2 DUP4 ADD MSTORE SWAP1 DUP3 ADD MLOAD PUSH2 0x160 PUSH1 0x60 DUP4 ADD MSTORE PUSH2 0x25E1 SWAP1 PUSH2 0x180 DUP4 ADD SWAP1 PUSH2 0x2CFB JUMP JUMPDEST SWAP2 PUSH2 0x2615 PUSH2 0x2601 PUSH1 0x60 DUP4 ADD MLOAD SWAP5 PUSH1 0x1F NOT SWAP6 DUP7 DUP7 DUP4 SUB ADD PUSH1 0x80 DUP8 ADD MSTORE PUSH2 0x2CFB JUMP JUMPDEST PUSH1 0x80 DUP4 ADD MLOAD DUP6 DUP6 DUP4 SUB ADD PUSH1 0xA0 DUP7 ADD MSTORE PUSH2 0x2CFB JUMP JUMPDEST PUSH1 0xA0 DUP3 ADD MLOAD SWAP1 DUP5 DUP5 DUP3 SUB ADD PUSH1 0xC0 DUP6 ADD MSTORE DUP2 MLOAD DUP1 DUP3 MSTORE PUSH1 0x20 DUP3 ADD SWAP2 PUSH1 0x20 DUP1 DUP4 PUSH1 0x5 SHL DUP4 ADD ADD SWAP5 ADD SWAP3 PUSH1 0x0 SWAP2 JUMPDEST DUP4 DUP4 LT PUSH2 0x26A4 JUMPI DUP8 DUP1 DUP9 PUSH2 0x140 PUSH2 0x267F DUP14 PUSH2 0x2669 DUP13 PUSH1 0xC0 DUP7 ADD MLOAD DUP4 DUP9 DUP4 SUB ADD PUSH1 0xE0 DUP10 ADD MSTORE PUSH2 0x2CFB JUMP JUMPDEST SWAP1 PUSH1 0xE0 DUP6 ADD MLOAD SWAP1 DUP7 DUP4 SUB ADD PUSH2 0x100 DUP8 ADD MSTORE PUSH2 0x2CFB JUMP JUMPDEST SWAP2 PUSH2 0x100 DUP2 ADD MLOAD PUSH2 0x120 DUP6 ADD MSTORE PUSH2 0x120 DUP2 ADD MLOAD DUP3 DUP6 ADD MSTORE ADD MLOAD ISZERO ISZERO PUSH2 0x160 DUP4 ADD MSTORE SUB SWAP1 RETURN JUMPDEST SWAP1 SWAP2 SWAP3 SWAP4 SWAP5 PUSH1 0x20 DUP1 PUSH2 0x26C0 DUP4 DUP13 DUP7 PUSH1 0x1 SWAP7 SUB ADD DUP8 MSTORE DUP10 MLOAD PUSH2 0x2CFB JUMP JUMPDEST SWAP8 ADD SWAP4 ADD SWAP4 ADD SWAP2 SWAP4 SWAP3 SWAP1 PUSH2 0x2640 JUMP JUMPDEST PUSH1 0x1 PUSH1 0x20 DUP2 SWAP3 PUSH2 0x26DE DUP6 PUSH2 0x2EBE JUMP JUMPDEST DUP2 MSTORE ADD SWAP3 ADD SWAP3 ADD SWAP2 SWAP1 PUSH2 0x2551 JUMP JUMPDEST CALLVALUE PUSH2 0x29B JUMPI PUSH2 0x5C0 PUSH2 0x5BB PUSH2 0x2700 CALLDATASIZE PUSH2 0x2E4F JUMP JUMPDEST SWAP1 PUSH1 0x40 MLOAD SWAP3 PUSH2 0x270E DUP5 PUSH2 0x2D68 JUMP JUMPDEST PUSH1 0x0 DUP5 MSTORE PUSH2 0x5AB PUSH2 0x5A6 DUP5 CALLER PUSH2 0x3207 JUMP JUMPDEST CALLVALUE PUSH2 0x29B JUMPI PUSH1 0x20 CALLDATASIZE PUSH1 0x3 NOT ADD SLT PUSH2 0x29B JUMPI PUSH1 0x4 CALLDATALOAD PUSH1 0x0 DUP2 DUP2 MSTORE PUSH1 0x2 PUSH1 0x20 MSTORE PUSH1 0x40 SWAP1 KECCAK256 SLOAD PUSH2 0x2756 SWAP1 PUSH1 0x1 PUSH1 0x1 PUSH1 0xA0 SHL SUB AND ISZERO ISZERO PUSH2 0x383D JUMP JUMPDEST DUP1 PUSH1 0x0 MSTORE PUSH1 0xD PUSH1 0x20 MSTORE PUSH2 0x277A PUSH1 0x1 DUP1 PUSH1 0xA0 SHL SUB PUSH1 0x1 PUSH1 0x40 PUSH1 0x0 KECCAK256 ADD SLOAD AND CALLER EQ PUSH2 0x387F JUMP JUMPDEST DUP1 PUSH1 0x0 MSTORE PUSH1 0xD PUSH1 0x20 MSTORE PUSH1 0x40 PUSH1 0x0 KECCAK256 PUSH1 0xA DUP2 ADD PUSH1 0x1 PUSH1 0xFF NOT DUP3 SLOAD AND OR SWAP1 SSTORE PUSH1 0x9 TIMESTAMP SWAP2 ADD SSTORE PUSH1 0x40 MLOAD SWAP1 TIMESTAMP DUP3 MSTORE PUSH32 0x3D16EA86111872645A6B9BE237C624253A379483A0FEC7F94765752DCA698DCF PUSH1 0x20 CALLER SWAP4 LOG3 STOP JUMPDEST CALLVALUE PUSH2 0x29B JUMPI PUSH1 0x0 CALLDATASIZE PUSH1 0x3 NOT ADD SLT PUSH2 0x29B JUMPI PUSH2 0x27E5 PUSH2 0x3029 JUMP JUMPDEST PUSH1 0x9 SLOAD PUSH1 0xFF DUP2 AND ISZERO PUSH2 0x2824 JUMPI PUSH1 0xFF NOT AND PUSH1 0x9 SSTORE PUSH32 0x5DB9EE0A495BF2E6FF9C91A7834C1BA4FDD244A5E8AA4E537BD38AEAE4B073AA PUSH1 0x20 PUSH1 0x40 MLOAD CALLER DUP2 MSTORE LOG1 STOP JUMPDEST PUSH1 0x40 MLOAD PUSH3 0x461BCD PUSH1 0xE5 SHL DUP2 MSTORE PUSH1 0x20 PUSH1 0x4 DUP3 ADD MSTORE PUSH1 0x14 PUSH1 0x24 DUP3 ADD MSTORE PUSH20 0x14185D5CD8589B194E881B9BDD081C185D5CD959 PUSH1 0x62 SHL PUSH1 0x44 DUP3 ADD MSTORE PUSH1 0x64 SWAP1 REVERT JUMPDEST CALLVALUE PUSH2 0x29B JUMPI PUSH1 0x40 CALLDATASIZE PUSH1 0x3 NOT ADD SLT PUSH2 0x29B JUMPI PUSH1 0x4 CALLDATALOAD PUSH1 0x0 DUP2 DUP2 MSTORE PUSH1 0x2 PUSH1 0x20 MSTORE PUSH1 0x40 SWAP1 KECCAK256 SLOAD PUSH1 0x24 CALLDATALOAD SWAP2 SWAP1 PUSH2 0x289C SWAP1 PUSH1 0x1 PUSH1 0x1 PUSH1 0xA0 SHL SUB AND ISZERO ISZERO PUSH2 0x383D JUMP JUMPDEST PUSH1 0x0 SWAP1 DUP2 MSTORE PUSH1 0xD PUSH1 0x20 MSTORE PUSH1 0x40 SWAP1 KECCAK256 PUSH1 0x1 ADD SLOAD PUSH1 0x1 PUSH1 0x1 PUSH1 0xA0 SHL SUB AND SWAP1 PUSH2 0x1F4 DUP1 DUP3 MUL SWAP2 DUP1 ISZERO SWAP1 DUP4 DIV SWAP1 SWAP2 EQ OR ISZERO PUSH2 0x18B3 JUMPI PUSH1 0x40 DUP1 MLOAD PUSH1 0x1 PUSH1 0x1 PUSH1 0xA0 SHL SUB SWAP4 SWAP1 SWAP4 AND DUP4 MSTORE PUSH2 0x2710 SWAP1 SWAP2 DIV PUSH1 0x20 DUP4 ADD MSTORE SWAP1 RETURN JUMPDEST CALLVALUE PUSH2 0x29B JUMPI PUSH2 0x5C0 PUSH2 0x28FE CALLDATASIZE PUSH2 0x2E4F JUMP JUMPDEST SWAP2 PUSH2 0x290C PUSH2 0x5A6 DUP5 CALLER PUSH2 0x3207 JUMP JUMPDEST PUSH2 0x32CF JUMP JUMPDEST CALLVALUE PUSH2 0x29B JUMPI PUSH1 0x20 DUP1 PUSH1 0x3 NOT CALLDATASIZE ADD SLT PUSH2 0x29B JUMPI PUSH1 0x4 CALLDATALOAD PUSH1 0x1 PUSH1 0x1 PUSH1 0x40 SHL SUB DUP2 GT PUSH2 0x29B JUMPI DUP2 PUSH2 0x185A PUSH2 0x2946 SWAP3 CALLDATASIZE SWAP1 PUSH1 0x4 ADD PUSH2 0x2DF6 JUMP JUMPDEST DUP2 ADD PUSH1 0xF DUP2 MSTORE SUB ADD SWAP1 KECCAK256 SWAP1 PUSH1 0x40 MLOAD SWAP1 DUP2 DUP2 DUP5 SLOAD SWAP2 DUP3 DUP2 MSTORE ADD SWAP4 PUSH1 0x0 MSTORE DUP2 PUSH1 0x0 KECCAK256 SWAP2 PUSH1 0x0 SWAP1 JUMPDEST DUP3 DUP3 LT PUSH2 0x2982 JUMPI PUSH2 0x4CC DUP6 PUSH2 0x23F3 DUP2 DUP10 SUB DUP3 PUSH2 0x2D83 JUMP JUMPDEST DUP4 SLOAD DUP7 MSTORE SWAP5 DUP6 ADD SWAP5 PUSH1 0x1 SWAP4 DUP5 ADD SWAP4 SWAP1 SWAP2 ADD SWAP1 PUSH2 0x296B JUMP JUMPDEST CALLVALUE PUSH2 0x29B JUMPI PUSH1 0x0 CALLDATASIZE PUSH1 0x3 NOT ADD SLT PUSH2 0x29B JUMPI PUSH1 0x20 PUSH1 0xB SLOAD PUSH1 0x40 MLOAD SWAP1 DUP2 MSTORE RETURN JUMPDEST CALLVALUE PUSH2 0x29B JUMPI PUSH1 0x0 CALLDATASIZE PUSH1 0x3 NOT ADD SLT PUSH2 0x29B JUMPI PUSH1 0xC SLOAD PUSH1 0x40 MLOAD PUSH1 0x1 PUSH1 0x1 PUSH1 0xA0 SHL SUB SWAP1 SWAP2 AND DUP2 MSTORE PUSH1 0x20 SWAP1 RETURN JUMPDEST CALLVALUE PUSH2 0x29B JUMPI PUSH1 0x0 CALLDATASIZE PUSH1 0x3 NOT ADD SLT PUSH2 0x29B JUMPI PUSH1 0x20 PUSH1 0xA SLOAD PUSH1 0x40 MLOAD SWAP1 DUP2 MSTORE RETURN JUMPDEST CALLVALUE PUSH2 0x29B JUMPI PUSH1 0x40 CALLDATASIZE PUSH1 0x3 NOT ADD SLT PUSH2 0x29B JUMPI PUSH2 0x2A17 PUSH2 0x2D20 JUMP JUMPDEST PUSH1 0x24 CALLDATALOAD SWAP1 PUSH1 0x1 PUSH1 0x1 PUSH1 0xA0 SHL SUB DUP1 DUP1 PUSH2 0x2A2E DUP6 PUSH2 0x30CD JUMP JUMPDEST AND SWAP3 AND SWAP2 DUP1 DUP4 EQ PUSH2 0x2B29 JUMPI DUP1 CALLER EQ SWAP1 DUP2 ISZERO PUSH2 0x2B04 JUMPI JUMPDEST POP ISZERO PUSH2 0x2A99 JUMPI PUSH1 0x0 DUP4 DUP2 MSTORE PUSH1 0x4 PUSH1 0x20 MSTORE PUSH1 0x40 SWAP1 KECCAK256 DUP1 SLOAD PUSH1 0x1 PUSH1 0x1 PUSH1 0xA0 SHL SUB NOT AND DUP4 OR SWAP1 SSTORE PUSH2 0x2A71 DUP4 PUSH2 0x30CD JUMP JUMPDEST AND PUSH32 0x8C5BE1E5EBEC7D5BD14F71427D1E84F3DD0314C0F7B2291E5B200AC8C7C3B925 PUSH1 0x0 DUP1 LOG4 STOP JUMPDEST PUSH1 0x40 MLOAD PUSH3 0x461BCD PUSH1 0xE5 SHL DUP2 MSTORE PUSH1 0x20 PUSH1 0x4 DUP3 ADD MSTORE PUSH1 0x3D PUSH1 0x24 DUP3 ADD MSTORE PUSH32 0x4552433732313A20617070726F76652063616C6C6572206973206E6F7420746F PUSH1 0x44 DUP3 ADD MSTORE PUSH32 0x6B656E206F776E6572206F7220617070726F76656420666F7220616C6C000000 PUSH1 0x64 DUP3 ADD MSTORE PUSH1 0x84 SWAP1 REVERT JUMPDEST SWAP1 POP PUSH1 0x0 MSTORE PUSH1 0x5 PUSH1 0x20 MSTORE PUSH1 0x40 PUSH1 0x0 KECCAK256 CALLER PUSH1 0x0 MSTORE PUSH1 0x20 MSTORE PUSH1 0xFF PUSH1 0x40 PUSH1 0x0 KECCAK256 SLOAD AND DUP5 PUSH2 0x2A44 JUMP JUMPDEST PUSH1 0x40 MLOAD PUSH3 0x461BCD PUSH1 0xE5 SHL DUP2 MSTORE PUSH1 0x20 PUSH1 0x4 DUP3 ADD MSTORE PUSH1 0x21 PUSH1 0x24 DUP3 ADD MSTORE PUSH32 0x4552433732313A20617070726F76616C20746F2063757272656E74206F776E65 PUSH1 0x44 DUP3 ADD MSTORE PUSH1 0x39 PUSH1 0xF9 SHL PUSH1 0x64 DUP3 ADD MSTORE PUSH1 0x84 SWAP1 REVERT JUMPDEST CALLVALUE PUSH2 0x29B JUMPI PUSH1 0x20 CALLDATASIZE PUSH1 0x3 NOT ADD SLT PUSH2 0x29B JUMPI PUSH1 0x20 PUSH2 0x2154 PUSH1 0x4 CALLDATALOAD PUSH2 0x30F0 JUMP JUMPDEST CALLVALUE PUSH2 0x29B JUMPI PUSH1 0x0 CALLDATASIZE PUSH1 0x3 NOT ADD SLT PUSH2 0x29B JUMPI PUSH1 0x40 MLOAD PUSH1 0x0 DUP1 SLOAD PUSH2 0x2BB7 DUP2 PUSH2 0x2E84 JUMP JUMPDEST DUP1 DUP5 MSTORE SWAP1 PUSH1 0x1 SWAP1 DUP2 DUP2 AND SWAP1 DUP2 ISZERO PUSH2 0x1E5D JUMPI POP PUSH1 0x1 EQ PUSH2 0x2BE0 JUMPI PUSH2 0x4CC DUP5 PUSH2 0x1DF0 DUP2 DUP7 SUB DUP3 PUSH2 0x2D83 JUMP JUMPDEST PUSH1 0x0 DUP1 DUP1 MSTORE SWAP3 POP PUSH32 0x290DECD9548B62A8D60345A988386FC84BA6BC95484008F6362F93160EF3E563 JUMPDEST DUP3 DUP5 LT PUSH2 0x2C21 JUMPI POP POP POP DUP2 ADD PUSH1 0x20 ADD PUSH2 0x1DF0 DUP3 PUSH2 0x1DE0 JUMP JUMPDEST DUP1 SLOAD PUSH1 0x20 DUP6 DUP8 ADD DUP2 ADD SWAP2 SWAP1 SWAP2 MSTORE SWAP1 SWAP4 ADD SWAP3 DUP2 ADD PUSH2 0x2C09 JUMP JUMPDEST CALLVALUE PUSH2 0x29B JUMPI PUSH1 0x20 CALLDATASIZE PUSH1 0x3 NOT ADD SLT PUSH2 0x29B JUMPI PUSH1 0x4 CALLDATALOAD SWAP1 PUSH4 0xFFFFFFFF PUSH1 0xE0 SHL DUP3 AND DUP1 SWAP3 SUB PUSH2 0x29B JUMPI PUSH1 0x20 SWAP2 PUSH4 0x152A902D PUSH1 0xE1 SHL DUP2 EQ SWAP1 DUP2 ISZERO PUSH2 0x2C7B JUMPI JUMPDEST POP ISZERO ISZERO DUP2 MSTORE RETURN JUMPDEST PUSH4 0x24832483 PUSH1 0xE1 SHL DUP2 EQ SWAP2 POP DUP2 ISZERO PUSH2 0x2C95 JUMPI JUMPDEST POP DUP4 PUSH2 0x2C74 JUMP JUMPDEST PUSH4 0x80AC58CD PUSH1 0xE0 SHL DUP2 EQ SWAP2 POP DUP2 ISZERO PUSH2 0x2CC7 JUMPI JUMPDEST DUP2 ISZERO PUSH2 0x2CB6 JUMPI JUMPDEST POP DUP4 PUSH2 0x2C8E JUMP JUMPDEST PUSH4 0x1FFC9A7 PUSH1 0xE0 SHL EQ SWAP1 POP DUP4 PUSH2 0x2CAF JUMP JUMPDEST PUSH4 0x5B5E139F PUSH1 0xE0 SHL DUP2 EQ SWAP2 POP PUSH2 0x2CA8 JUMP JUMPDEST PUSH1 0x0 JUMPDEST DUP4 DUP2 LT PUSH2 0x2CEB JUMPI POP POP PUSH1 0x0 SWAP2 ADD MSTORE JUMP JUMPDEST DUP2 DUP2 ADD MLOAD DUP4 DUP3 ADD MSTORE PUSH1 0x20 ADD PUSH2 0x2CDB JUMP JUMPDEST SWAP1 PUSH1 0x20 SWAP2 PUSH2 0x2D14 DUP2 MLOAD DUP1 SWAP3 DUP2 DUP6 MSTORE DUP6 DUP1 DUP7 ADD SWAP2 ADD PUSH2 0x2CD8 JUMP JUMPDEST PUSH1 0x1F ADD PUSH1 0x1F NOT AND ADD ADD SWAP1 JUMP JUMPDEST PUSH1 0x4 CALLDATALOAD SWAP1 PUSH1 0x1 PUSH1 0x1 PUSH1 0xA0 SHL SUB DUP3 AND DUP3 SUB PUSH2 0x29B JUMPI JUMP JUMPDEST PUSH1 0x24 CALLDATALOAD SWAP1 PUSH1 0x1 PUSH1 0x1 PUSH1 0xA0 SHL SUB DUP3 AND DUP3 SUB PUSH2 0x29B JUMPI JUMP JUMPDEST PUSH2 0x160 DUP2 ADD SWAP1 DUP2 LT PUSH1 0x1 PUSH1 0x1 PUSH1 0x40 SHL SUB DUP3 GT OR PUSH2 0xCC0 JUMPI PUSH1 0x40 MSTORE JUMP JUMPDEST PUSH1 0x20 DUP2 ADD SWAP1 DUP2 LT PUSH1 0x1 PUSH1 0x1 PUSH1 0x40 SHL SUB DUP3 GT OR PUSH2 0xCC0 JUMPI PUSH1 0x40 MSTORE JUMP JUMPDEST SWAP1 PUSH1 0x1F DUP1 NOT SWAP2 ADD AND DUP2 ADD SWAP1 DUP2 LT PUSH1 0x1 PUSH1 0x1 PUSH1 0x40 SHL SUB DUP3 GT OR PUSH2 0xCC0 JUMPI PUSH1 0x40 MSTORE JUMP JUMPDEST PUSH1 0x1 PUSH1 0x1 PUSH1 0x40 SHL SUB DUP2 GT PUSH2 0xCC0 JUMPI PUSH1 0x1F ADD PUSH1 0x1F NOT AND PUSH1 0x20 ADD SWAP1 JUMP JUMPDEST SWAP3 SWAP2 SWAP3 PUSH2 0x2DCB DUP3 PUSH2 0x2DA4 JUMP JUMPDEST SWAP2 PUSH2 0x2DD9 PUSH1 0x40 MLOAD SWAP4 DUP5 PUSH2 0x2D83 JUMP JUMPDEST DUP3 SWAP5 DUP2 DUP5 MSTORE DUP2 DUP4 ADD GT PUSH2 0x29B JUMPI DUP3 DUP2 PUSH1 0x20 SWAP4 DUP5 PUSH1 0x0 SWAP7 ADD CALLDATACOPY ADD ADD MSTORE JUMP JUMPDEST SWAP1 DUP1 PUSH1 0x1F DUP4 ADD SLT ISZERO PUSH2 0x29B JUMPI DUP2 PUSH1 0x20 PUSH2 0x2E11 SWAP4 CALLDATALOAD SWAP2 ADD PUSH2 0x2DBF JUMP JUMPDEST SWAP1 JUMP JUMPDEST PUSH1 0x20 SWAP1 DUP2 PUSH1 0x40 DUP2 DUP4 ADD SWAP3 DUP3 DUP2 MSTORE DUP6 MLOAD DUP1 SWAP5 MSTORE ADD SWAP4 ADD SWAP2 PUSH1 0x0 JUMPDEST DUP3 DUP2 LT PUSH2 0x2E3B JUMPI POP POP POP POP SWAP1 JUMP JUMPDEST DUP4 MLOAD DUP6 MSTORE SWAP4 DUP2 ADD SWAP4 SWAP3 DUP2 ADD SWAP3 PUSH1 0x1 ADD PUSH2 0x2E2D JUMP JUMPDEST PUSH1 0x60 SWAP1 PUSH1 0x3 NOT ADD SLT PUSH2 0x29B JUMPI PUSH1 0x1 PUSH1 0x1 PUSH1 0xA0 SHL SUB SWAP1 PUSH1 0x4 CALLDATALOAD DUP3 DUP2 AND DUP2 SUB PUSH2 0x29B JUMPI SWAP2 PUSH1 0x24 CALLDATALOAD SWAP1 DUP2 AND DUP2 SUB PUSH2 0x29B JUMPI SWAP1 PUSH1 0x44 CALLDATALOAD SWAP1 JUMP JUMPDEST SWAP1 PUSH1 0x1 DUP3 DUP2 SHR SWAP3 AND DUP1 ISZERO PUSH2 0x2EB4 JUMPI JUMPDEST PUSH1 0x20 DUP4 LT EQ PUSH2 0x2E9E JUMPI JUMP JUMPDEST PUSH4 0x4E487B71 PUSH1 0xE0 SHL PUSH1 0x0 MSTORE PUSH1 0x22 PUSH1 0x4 MSTORE PUSH1 0x24 PUSH1 0x0 REVERT JUMPDEST SWAP2 PUSH1 0x7F AND SWAP2 PUSH2 0x2E93 JUMP JUMPDEST SWAP1 PUSH1 0x40 MLOAD SWAP2 DUP3 PUSH1 0x0 DUP3 SLOAD SWAP3 PUSH2 0x2ED2 DUP5 PUSH2 0x2E84 JUMP JUMPDEST SWAP1 DUP2 DUP5 MSTORE PUSH1 0x1 SWAP5 DUP6 DUP2 AND SWAP1 DUP2 PUSH1 0x0 EQ PUSH2 0x2F41 JUMPI POP PUSH1 0x1 EQ PUSH2 0x2EFE JUMPI JUMPDEST POP POP PUSH2 0x2EFC SWAP3 POP SUB DUP4 PUSH2 0x2D83 JUMP JUMPDEST JUMP JUMPDEST SWAP1 SWAP4 SWAP2 POP PUSH1 0x0 MSTORE PUSH1 0x20 SWAP1 DUP2 PUSH1 0x0 KECCAK256 SWAP4 PUSH1 0x0 SWAP2 JUMPDEST DUP2 DUP4 LT PUSH2 0x2F29 JUMPI POP POP PUSH2 0x2EFC SWAP4 POP DUP3 ADD ADD CODESIZE DUP1 PUSH2 0x2EEE JUMP JUMPDEST DUP6 SLOAD DUP9 DUP5 ADD DUP6 ADD MSTORE SWAP5 DUP6 ADD SWAP5 DUP8 SWAP5 POP SWAP2 DUP4 ADD SWAP2 PUSH2 0x2F11 JUMP JUMPDEST SWAP2 POP POP PUSH2 0x2EFC SWAP5 POP PUSH1 0x20 SWAP3 POP PUSH1 0xFF NOT AND DUP3 DUP5 ADD MSTORE ISZERO ISZERO PUSH1 0x5 SHL DUP3 ADD ADD CODESIZE DUP1 PUSH2 0x2EEE JUMP JUMPDEST PUSH1 0x1 PUSH1 0x1 PUSH1 0x40 SHL SUB DUP2 GT PUSH2 0xCC0 JUMPI PUSH1 0x5 SHL PUSH1 0x20 ADD SWAP1 JUMP JUMPDEST SWAP1 DUP1 PUSH1 0x1F DUP4 ADD SLT ISZERO PUSH2 0x29B JUMPI DUP2 CALLDATALOAD SWAP1 PUSH2 0x2F93 DUP3 PUSH2 0x2F64 JUMP JUMPDEST SWAP3 PUSH2 0x2FA1 PUSH1 0x40 MLOAD SWAP5 DUP6 PUSH2 0x2D83 JUMP JUMPDEST DUP3 DUP5 MSTORE PUSH1 0x20 SWAP3 DUP4 DUP1 DUP7 ADD SWAP2 PUSH1 0x5 SHL DUP4 ADD ADD SWAP3 DUP1 DUP5 GT PUSH2 0x29B JUMPI DUP5 DUP4 ADD SWAP2 JUMPDEST DUP5 DUP4 LT PUSH2 0x2FCF JUMPI POP POP POP POP POP POP SWAP1 JUMP JUMPDEST DUP3 CALLDATALOAD PUSH1 0x1 PUSH1 0x1 PUSH1 0x40 SHL SUB DUP2 GT PUSH2 0x29B JUMPI DUP7 SWAP2 PUSH2 0x2FF0 DUP5 DUP5 DUP1 SWAP5 DUP10 ADD ADD PUSH2 0x2DF6 JUMP JUMPDEST DUP2 MSTORE ADD SWAP3 ADD SWAP2 PUSH2 0x2FBF JUMP JUMPDEST DUP1 SLOAD DUP3 LT ISZERO PUSH2 0x3013 JUMPI PUSH1 0x0 MSTORE PUSH1 0x20 PUSH1 0x0 KECCAK256 ADD SWAP1 PUSH1 0x0 SWAP1 JUMP JUMPDEST PUSH4 0x4E487B71 PUSH1 0xE0 SHL PUSH1 0x0 MSTORE PUSH1 0x32 PUSH1 0x4 MSTORE PUSH1 0x24 PUSH1 0x0 REVERT JUMPDEST PUSH1 0x7 SLOAD PUSH1 0x1 PUSH1 0x1 PUSH1 0xA0 SHL SUB AND CALLER SUB PUSH2 0x303D JUMPI JUMP JUMPDEST PUSH1 0x64 PUSH1 0x40 MLOAD PUSH3 0x461BCD PUSH1 0xE5 SHL DUP2 MSTORE PUSH1 0x20 PUSH1 0x4 DUP3 ADD MSTORE PUSH1 0x20 PUSH1 0x24 DUP3 ADD MSTORE PUSH32 0x4F776E61626C653A2063616C6C6572206973206E6F7420746865206F776E6572 PUSH1 0x44 DUP3 ADD MSTORE REVERT JUMPDEST ISZERO PUSH2 0x3088 JUMPI JUMP JUMPDEST PUSH1 0x40 MLOAD PUSH3 0x461BCD PUSH1 0xE5 SHL DUP2 MSTORE PUSH1 0x20 PUSH1 0x4 DUP3 ADD MSTORE PUSH1 0x18 PUSH1 0x24 DUP3 ADD MSTORE PUSH32 0x4552433732313A20696E76616C696420746F6B656E2049440000000000000000 PUSH1 0x44 DUP3 ADD MSTORE PUSH1 0x64 SWAP1 REVERT JUMPDEST PUSH1 0x0 SWAP1 DUP2 MSTORE PUSH1 0x2 PUSH1 0x20 MSTORE PUSH1 0x40 SWAP1 KECCAK256 SLOAD PUSH1 0x1 PUSH1 0x1 PUSH1 0xA0 SHL SUB AND PUSH2 0x2E11 DUP2 ISZERO ISZERO PUSH2 0x3081 JUMP JUMPDEST PUSH1 0x0 DUP2 DUP2 MSTORE PUSH1 0x2 PUSH1 0x20 MSTORE PUSH1 0x40 SWAP1 KECCAK256 SLOAD PUSH2 0x3113 SWAP1 PUSH1 0x1 PUSH1 0x1 PUSH1 0xA0 SHL SUB AND ISZERO ISZERO PUSH2 0x3081 JUMP JUMPDEST PUSH1 0x0 SWAP1 DUP2 MSTORE PUSH1 0x4 PUSH1 0x20 MSTORE PUSH1 0x40 SWAP1 KECCAK256 SLOAD PUSH1 0x1 PUSH1 0x1 PUSH1 0xA0 SHL SUB AND SWAP1 JUMP JUMPDEST ISZERO PUSH2 0x3135 JUMPI JUMP JUMPDEST PUSH1 0x40 MLOAD PUSH3 0x461BCD PUSH1 0xE5 SHL DUP2 MSTORE PUSH1 0x20 PUSH1 0x4 DUP3 ADD MSTORE PUSH1 0x2D PUSH1 0x24 DUP3 ADD MSTORE PUSH32 0x4552433732313A2063616C6C6572206973206E6F7420746F6B656E206F776E65 PUSH1 0x44 DUP3 ADD MSTORE PUSH13 0x1C881BDC88185C1C1C9BDD9959 PUSH1 0x9A SHL PUSH1 0x64 DUP3 ADD MSTORE PUSH1 0x84 SWAP1 REVERT JUMPDEST PUSH1 0x80 SWAP1 PUSH1 0x20 DUP2 MSTORE PUSH1 0x32 PUSH1 0x20 DUP3 ADD MSTORE PUSH32 0x4552433732313A207472616E7366657220746F206E6F6E204552433732315265 PUSH1 0x40 DUP3 ADD MSTORE PUSH18 0x31B2B4BB32B91034B6B83632B6B2B73A32B9 PUSH1 0x71 SHL PUSH1 0x60 DUP3 ADD MSTORE ADD SWAP1 JUMP JUMPDEST ISZERO PUSH2 0x31EA JUMPI JUMP JUMPDEST PUSH1 0x40 MLOAD PUSH3 0x461BCD PUSH1 0xE5 SHL DUP2 MSTORE DUP1 PUSH2 0x3203 PUSH1 0x4 DUP3 ADD PUSH2 0x3190 JUMP JUMPDEST SUB SWAP1 REVERT JUMPDEST SWAP1 PUSH1 0x1 PUSH1 0x1 PUSH1 0xA0 SHL SUB DUP1 DUP1 PUSH2 0x321B DUP5 PUSH2 0x30CD JUMP JUMPDEST AND SWAP4 AND SWAP2 DUP4 DUP4 EQ SWAP4 DUP5 ISZERO PUSH2 0x324E JUMPI JUMPDEST POP DUP4 ISZERO PUSH2 0x3238 JUMPI JUMPDEST POP POP POP SWAP1 JUMP JUMPDEST PUSH2 0x3244 SWAP2 SWAP3 SWAP4 POP PUSH2 0x30F0 JUMP JUMPDEST AND EQ CODESIZE DUP1 DUP1 PUSH2 0x3232 JUMP JUMPDEST SWAP1 SWAP4 POP PUSH1 0x0 MSTORE PUSH1 0x5 PUSH1 0x20 MSTORE PUSH1 0x40 PUSH1 0x0 KECCAK256 DUP3 PUSH1 0x0 MSTORE PUSH1 0x20 MSTORE PUSH1 0xFF PUSH1 0x40 PUSH1 0x0 KECCAK256 SLOAD AND SWAP3 CODESIZE PUSH2 0x322A JUMP JUMPDEST ISZERO PUSH2 0x327C JUMPI JUMP JUMPDEST PUSH1 0x40 MLOAD PUSH3 0x461BCD PUSH1 0xE5 SHL DUP2 MSTORE PUSH1 0x20 PUSH1 0x4 DUP3 ADD MSTORE PUSH1 0x25 PUSH1 0x24 DUP3 ADD MSTORE PUSH32 0x4552433732313A207472616E736665722066726F6D20696E636F727265637420 PUSH1 0x44 DUP3 ADD MSTORE PUSH5 0x37BBB732B9 PUSH1 0xD9 SHL PUSH1 0x64 DUP3 ADD MSTORE PUSH1 0x84 SWAP1 REVERT JUMPDEST SWAP1 PUSH2 0x32F7 SWAP2 PUSH2 0x32DD DUP5 PUSH2 0x30CD JUMP JUMPDEST PUSH1 0x1 PUSH1 0x1 PUSH1 0xA0 SHL SUB SWAP4 SWAP2 DUP5 AND SWAP3 DUP5 SWAP3 SWAP1 SWAP2 DUP4 AND DUP5 EQ PUSH2 0x3275 JUMP JUMPDEST AND SWAP2 DUP3 ISZERO PUSH2 0x338F JUMPI DUP2 PUSH2 0x3314 SWAP2 PUSH2 0x330D DUP7 PUSH2 0x30CD JUMP JUMPDEST AND EQ PUSH2 0x3275 JUMP JUMPDEST PUSH32 0xDDF252AD1BE2C89B69C2B068FC378DAA952BA7F163C4A11628F55A4DF523B3EF PUSH1 0x0 DUP5 DUP2 MSTORE PUSH1 0x4 PUSH1 0x20 MSTORE PUSH1 0x40 DUP2 KECCAK256 PUSH1 0x1 PUSH1 0x1 PUSH1 0x60 SHL SUB PUSH1 0xA0 SHL SWAP1 DUP2 DUP2 SLOAD AND SWAP1 SSTORE DUP4 DUP3 MSTORE PUSH1 0x3 PUSH1 0x20 MSTORE PUSH1 0x40 DUP3 KECCAK256 PUSH1 0x0 NOT DUP2 SLOAD ADD SWAP1 SSTORE DUP5 DUP3 MSTORE PUSH1 0x40 DUP3 KECCAK256 PUSH1 0x1 DUP2 SLOAD ADD SWAP1 SSTORE DUP6 DUP3 MSTORE PUSH1 0x2 PUSH1 0x20 MSTORE DUP5 PUSH1 0x40 DUP4 KECCAK256 SWAP2 DUP3 SLOAD AND OR SWAP1 SSTORE DUP1 LOG4 JUMP JUMPDEST PUSH1 0x40 MLOAD PUSH3 0x461BCD PUSH1 0xE5 SHL DUP2 MSTORE PUSH1 0x20 PUSH1 0x4 DUP3 ADD MSTORE PUSH1 0x24 DUP1 DUP3 ADD MSTORE PUSH32 0x4552433732313A207472616E7366657220746F20746865207A65726F20616464 PUSH1 0x44 DUP3 ADD MSTORE PUSH4 0x72657373 PUSH1 0xE0 SHL PUSH1 0x64 DUP3 ADD MSTORE PUSH1 0x84 SWAP1 REVERT JUMPDEST SWAP2 SWAP3 SWAP1 SWAP2 DUP1 EXTCODESIZE ISZERO PUSH2 0x34F5 JUMPI PUSH2 0x342D SWAP4 PUSH1 0x40 MLOAD SWAP1 DUP2 PUSH4 0xA85BD01 PUSH1 0xE1 SHL SWAP4 DUP5 DUP3 MSTORE CALLER PUSH1 0x4 DUP4 ADD MSTORE PUSH1 0x0 SWAP7 DUP8 PUSH1 0x24 DUP5 ADD MSTORE PUSH1 0x44 DUP4 ADD MSTORE PUSH1 0x80 PUSH1 0x64 DUP4 ADD MSTORE DUP2 DUP8 DUP2 PUSH1 0x20 SWAP11 DUP12 SWAP7 PUSH1 0x84 DUP4 ADD SWAP1 PUSH2 0x2CFB JUMP JUMPDEST SUB SWAP3 PUSH1 0x1 PUSH1 0x1 PUSH1 0xA0 SHL SUB AND GAS CALL DUP5 SWAP2 DUP2 PUSH2 0x34B1 JUMPI JUMPDEST POP PUSH2 0x34A0 JUMPI POP POP POP RETURNDATASIZE PUSH1 0x0 EQ PUSH2 0x3498 JUMPI RETURNDATASIZE PUSH2 0x345C DUP2 PUSH2 0x2DA4 JUMP JUMPDEST SWAP1 PUSH2 0x346A PUSH1 0x40 MLOAD SWAP3 DUP4 PUSH2 0x2D83 JUMP JUMPDEST DUP2 MSTORE DUP1 SWAP2 DUP4 RETURNDATASIZE SWAP3 ADD RETURNDATACOPY JUMPDEST DUP1 MLOAD SWAP2 DUP3 PUSH2 0x3495 JUMPI PUSH1 0x40 MLOAD PUSH3 0x461BCD PUSH1 0xE5 SHL DUP2 MSTORE DUP1 PUSH2 0x3203 PUSH1 0x4 DUP3 ADD PUSH2 0x3190 JUMP JUMPDEST ADD REVERT JUMPDEST POP PUSH1 0x60 PUSH2 0x3474 JUMP JUMPDEST PUSH1 0x1 PUSH1 0x1 PUSH1 0xE0 SHL SUB NOT AND EQ SWAP3 POP SWAP1 POP JUMP JUMPDEST SWAP1 SWAP2 POP DUP6 DUP2 DUP2 RETURNDATASIZE DUP4 GT PUSH2 0x34EE JUMPI JUMPDEST PUSH2 0x34C9 DUP2 DUP4 PUSH2 0x2D83 JUMP JUMPDEST DUP2 ADD SUB SLT PUSH2 0x34EA JUMPI MLOAD PUSH1 0x1 PUSH1 0x1 PUSH1 0xE0 SHL SUB NOT DUP2 AND DUP2 SUB PUSH2 0x34EA JUMPI SWAP1 CODESIZE PUSH2 0x3442 JUMP JUMPDEST DUP5 DUP1 REVERT JUMPDEST POP RETURNDATASIZE PUSH2 0x34BF JUMP JUMPDEST POP SWAP2 POP POP PUSH1 0x1 SWAP1 JUMP JUMPDEST SWAP3 SWAP4 SWAP2 SWAP1 DUP1 EXTCODESIZE ISZERO PUSH2 0x357B JUMPI PUSH2 0x3550 SWAP5 PUSH1 0x40 MLOAD DUP1 SWAP3 PUSH4 0xA85BD01 PUSH1 0xE1 SHL SWAP5 DUP6 DUP4 MSTORE CALLER PUSH1 0x4 DUP5 ADD MSTORE PUSH1 0x1 DUP1 PUSH1 0xA0 SHL SUB DUP1 SWAP9 AND PUSH1 0x24 DUP5 ADD MSTORE PUSH1 0x44 DUP4 ADD MSTORE PUSH1 0x80 PUSH1 0x64 DUP4 ADD MSTORE DUP2 DUP1 PUSH1 0x20 SWAP10 DUP11 SWAP6 PUSH1 0x84 DUP4 ADD SWAP1 PUSH2 0x2CFB JUMP JUMPDEST SUB SWAP2 PUSH1 0x0 SWAP9 DUP10 SWAP2 AND GAS CALL DUP5 SWAP2 DUP2 PUSH2 0x34B1 JUMPI POP PUSH2 0x34A0 JUMPI POP POP POP RETURNDATASIZE PUSH1 0x0 EQ PUSH2 0x3498 JUMPI RETURNDATASIZE PUSH2 0x345C DUP2 PUSH2 0x2DA4 JUMP JUMPDEST POP POP SWAP2 POP POP PUSH1 0x1 SWAP1 JUMP JUMPDEST ISZERO PUSH2 0x358C JUMPI JUMP JUMPDEST PUSH1 0x40 MLOAD PUSH3 0x461BCD PUSH1 0xE5 SHL DUP2 MSTORE PUSH1 0x20 PUSH1 0x4 DUP3 ADD MSTORE PUSH1 0x12 PUSH1 0x24 DUP3 ADD MSTORE PUSH18 0x1554D110C81D1BDAD95B881B9BDD081CD95D PUSH1 0x72 SHL PUSH1 0x44 DUP3 ADD MSTORE PUSH1 0x64 SWAP1 REVERT JUMPDEST DUP2 DUP2 LT PUSH2 0x35D1 JUMPI POP POP JUMP JUMPDEST PUSH1 0x0 DUP2 SSTORE PUSH1 0x1 ADD PUSH2 0x35C6 JUMP JUMPDEST SWAP1 DUP2 SLOAD SWAP2 PUSH1 0x1 PUSH1 0x40 SHL DUP4 LT ISZERO PUSH2 0xCC0 JUMPI DUP3 PUSH2 0x18FD SWAP2 PUSH1 0x1 PUSH2 0x2EFC SWAP6 ADD DUP2 SSTORE PUSH2 0x2FFB JUMP JUMPDEST SWAP1 DUP2 PUSH1 0x20 SWAP2 SUB SLT PUSH2 0x29B JUMPI MLOAD DUP1 ISZERO ISZERO DUP2 SUB PUSH2 0x29B JUMPI SWAP1 JUMP JUMPDEST ISZERO PUSH2 0x361F JUMPI JUMP JUMPDEST PUSH1 0x40 MLOAD PUSH3 0x461BCD PUSH1 0xE5 SHL DUP2 MSTORE PUSH1 0x20 PUSH1 0x4 DUP3 ADD MSTORE PUSH1 0x1C PUSH1 0x24 DUP3 ADD MSTORE PUSH32 0x4552433732313A20746F6B656E20616C7265616479206D696E74656400000000 PUSH1 0x44 DUP3 ADD MSTORE PUSH1 0x64 SWAP1 REVERT JUMPDEST PUSH1 0x0 DUP2 DUP2 MSTORE PUSH1 0x2 PUSH1 0x20 MSTORE PUSH1 0x40 SWAP1 KECCAK256 SLOAD SWAP2 SWAP3 SWAP2 PUSH1 0x1 PUSH1 0x1 PUSH1 0xA0 SHL SUB AND ISZERO PUSH2 0x37E1 JUMPI PUSH1 0x0 SWAP1 DUP1 DUP3 MSTORE PUSH1 0x20 SWAP2 PUSH1 0x6 DUP4 MSTORE PUSH1 0x40 DUP2 KECCAK256 SWAP1 DUP6 MLOAD SWAP1 PUSH1 0x1 PUSH1 0x1 PUSH1 0x40 SHL SUB DUP3 GT PUSH2 0x37CD JUMPI PUSH2 0x36B1 DUP4 SLOAD PUSH2 0x2E84 JUMP JUMPDEST PUSH1 0x1F DUP2 GT PUSH2 0x379F JUMPI JUMPDEST POP DUP5 SWAP1 PUSH1 0x1F DUP4 GT PUSH1 0x1 EQ PUSH2 0x371B JUMPI SWAP1 PUSH32 0xF8E1A15ABA9398E019F0B49DF1A4FDE98EE17AE345CB5F6B5E2C27F5033E8CE7 SWAP7 SWAP8 DUP4 PUSH2 0x3710 JUMPI JUMPDEST POP POP DUP2 PUSH1 0x1 SHL SWAP2 PUSH1 0x0 NOT SWAP1 PUSH1 0x3 SHL SHR NOT AND OR SWAP1 SSTORE JUMPDEST PUSH1 0x40 MLOAD SWAP1 DUP2 MSTORE LOG1 JUMP JUMPDEST ADD MLOAD SWAP1 POP CODESIZE DUP1 PUSH2 0x36F2 JUMP JUMPDEST SWAP2 SWAP7 PUSH1 0x1F NOT DUP9 AND DUP5 DUP5 MSTORE DUP7 DUP5 KECCAK256 SWAP4 JUMPDEST DUP2 DUP2 LT PUSH2 0x3788 JUMPI POP SWAP2 PUSH1 0x1 SWAP4 SWAP2 DUP10 PUSH32 0xF8E1A15ABA9398E019F0B49DF1A4FDE98EE17AE345CB5F6B5E2C27F5033E8CE7 SWAP10 SWAP11 SWAP5 LT PUSH2 0x376F JUMPI JUMPDEST POP POP POP DUP2 SHL ADD SWAP1 SSTORE PUSH2 0x3707 JUMP JUMPDEST ADD MLOAD PUSH1 0x0 NOT PUSH1 0xF8 DUP5 PUSH1 0x3 SHL AND SHR NOT AND SWAP1 SSTORE CODESIZE DUP1 DUP1 PUSH2 0x3762 JUMP JUMPDEST SWAP3 SWAP4 DUP8 PUSH1 0x1 DUP2 SWAP3 DUP8 DUP7 ADD MLOAD DUP2 SSTORE ADD SWAP6 ADD SWAP4 ADD PUSH2 0x372A JUMP JUMPDEST PUSH2 0x37C7 SWAP1 DUP5 DUP4 MSTORE DUP7 DUP4 KECCAK256 PUSH1 0x1F DUP6 ADD PUSH1 0x5 SHR DUP2 ADD SWAP2 DUP9 DUP7 LT PUSH2 0xCB6 JUMPI PUSH1 0x1F ADD PUSH1 0x5 SHR ADD SWAP1 PUSH2 0x35C6 JUMP JUMPDEST CODESIZE PUSH2 0x36BA JUMP JUMPDEST PUSH4 0x4E487B71 PUSH1 0xE0 SHL DUP2 MSTORE PUSH1 0x41 PUSH1 0x4 MSTORE PUSH1 0x24 SWAP1 REVERT JUMPDEST PUSH1 0x40 MLOAD PUSH3 0x461BCD PUSH1 0xE5 SHL DUP2 MSTORE PUSH1 0x20 PUSH1 0x4 DUP3 ADD MSTORE PUSH1 0x2E PUSH1 0x24 DUP3 ADD MSTORE PUSH32 0x45524337323155524953746F726167653A2055524920736574206F66206E6F6E PUSH1 0x44 DUP3 ADD MSTORE PUSH14 0x32BC34B9BA32B73A103A37B5B2B7 PUSH1 0x91 SHL PUSH1 0x64 DUP3 ADD MSTORE PUSH1 0x84 SWAP1 REVERT JUMPDEST ISZERO PUSH2 0x3844 JUMPI JUMP JUMPDEST PUSH1 0x40 MLOAD PUSH3 0x461BCD PUSH1 0xE5 SHL DUP2 MSTORE PUSH1 0x20 PUSH1 0x4 DUP3 ADD MSTORE PUSH1 0x13 PUSH1 0x24 DUP3 ADD MSTORE PUSH19 0x1259195848191BD95CC81B9BDD08195E1A5CDD PUSH1 0x6A SHL PUSH1 0x44 DUP3 ADD MSTORE PUSH1 0x64 SWAP1 REVERT JUMPDEST ISZERO PUSH2 0x3886 JUMPI JUMP JUMPDEST PUSH1 0x40 MLOAD PUSH3 0x461BCD PUSH1 0xE5 SHL DUP2 MSTORE PUSH1 0x20 PUSH1 0x4 DUP3 ADD MSTORE PUSH1 0x19 PUSH1 0x24 DUP3 ADD MSTORE PUSH32 0x4F6E6C7920696E6E6F7661746F722063616E206D6F6469667900000000000000 PUSH1 0x44 DUP3 ADD MSTORE PUSH1 0x64 SWAP1 REVERT INVALID LOG2 PUSH5 0x6970667358 0x22 SLT KECCAK256 0xED MLOAD LOG1 PUSH4 0x7A774E96 0xCC SWAP9 DUP7 0xC1 SWAP1 0xAF STATICCALL SWAP16 0xEF CALLER 0x4E 0xBE 0xE6 0xD9 ORIGIN MOD CHAINID GAS 0xDE 0xDC SLT SLOAD 0x5D SHR PUSH5 0x736F6C6343 STOP ADDMOD EQ STOP CALLER "},"methodIdentifiers":{"ROYALTY_PERCENTAGE()":"463b08db","approve(address,uint256)":"095ea7b3","balanceOf(address)":"70a08231","categoryIdeas(string,uint256)":"c0ed4154","createIdea(string,string,string,string[],string,string)":"abaa44f5","deactivateIdea(uint256)":"dc6dd052","feesEnabled()":"a64e4f8a","getApproved(uint256)":"081812fc","getIdea(uint256)":"44de6b2f","getIdeasByCategory(string)":"228ee43e","getIdeasByInnovator(address)":"467a7927","getTotalIdeas()":"115a4bac","ideas(uint256)":"95b53837","innovatorIdeas(address,uint256)":"c93b66f9","isApprovedForAll(address,address)":"e985e9c5","mintFee()":"13966db5","name()":"06fdde03","owner()":"8da5cb5b","ownerOf(uint256)":"6352211e","pause()":"8456cb59","paused()":"5c975abb","reactivateIdea(uint256)":"424a2bf1","renounceOwnership()":"715018a6","royaltyInfo(uint256,uint256)":"2a55205a","royaltyReceiver(uint256)":"5cd2dd5e","safeTransferFrom(address,address,uint256)":"42842e0e","safeTransferFrom(address,address,uint256,bytes)":"b88d4fde","setApprovalForAll(address,bool)":"a22cb465","setMintFee(uint256)":"eddd0d9c","setUsdcToken(address)":"5d886f22","supportsInterface(bytes4)":"01ffc9a7","symbol()":"95d89b41","toggleFees()":"ddf54512","tokenURI(uint256)":"c87b56dd","transferFrom(address,address,uint256)":"23b872dd","transferOwnership(address)":"f2fde38b","unpause()":"3f4ba83a","updateIdea(uint256,string,string,string,string[],string,string)":"a9472016","usdcToken()":"11eac855","withdrawFees()":"476343ee"}}}}}