{"contracts/OrphanPlatform.sol":{"OrphanPlatform":{"abi":[{"inputs":[{"internalType":"address","name":"_ideaNFT","type":"address"}],"stateMutability":"nonpayable","type":"constructor"},{"anonymous":false,"inputs":[{"indexed":true,"internalType":"uint256","name":"proposalId","type":"uint256"},{"indexed":true,"internalType":"uint256","name":"ideaNFTId","type":"uint256"},{"indexed":true,"internalType":"address","name":"executor","type":"address"},{"indexed":false,"internalType":"uint256","name":"timestamp","type":"uint256"}],"name":"ExecutorProposalSubmitted","type":"event"},{"anonymous":false,"inputs":[{"indexed":true,"internalType":"uint256","name":"proposalId","type":"uint256"},{"indexed":false,"internalType":"enum OrphanPlatform.ProposalStatus","name":"status","type":"uint8"},{"indexed":false,"internalType":"uint256","name":"timestamp","type":"uint256"}],"name":"ExecutorProposalUpdated","type":"event"},{"anonymous":false,"inputs":[{"indexed":true,"internalType":"address","name":"from","type":"address"},{"indexed":false,"internalType":"uint256","name":"amount","type":"uint256"},{"indexed":false,"internalType":"string","name":"feeType","type":"string"},{"indexed":false,"internalType":"uint256","name":"timestamp","type":"uint256"}],"name":"FeeCollected","type":"event"},{"anonymous":false,"inputs":[{"indexed":true,"internalType":"uint256","name":"proposalId","type":"uint256"},{"indexed":true,"internalType":"uint256","name":"projectNFTId","type":"uint256"},{"indexed":true,"internalType":"address","name":"investor","type":"address"},{"indexed":false,"internalType":"uint256","name":"timestamp","type":"uint256"}],"name":"InvestorProposalSubmitted","type":"event"},{"anonymous":false,"inputs":[{"indexed":true,"internalType":"uint256","name":"proposalId","type":"uint256"},{"indexed":false,"internalType":"enum OrphanPlatform.ProposalStatus","name":"status","type":"uint8"},{"indexed":false,"internalType":"uint256","name":"timestamp","type":"uint256"}],"name":"InvestorProposalUpdated","type":"event"},{"anonymous":false,"inputs":[{"indexed":true,"internalType":"uint256","name":"milestoneId","type":"uint256"},{"indexed":true,"internalType":"uint256","name":"proposalId","type":"uint256"},{"indexed":false,"internalType":"uint256","name":"timestamp","type":"uint256"}],"name":"MilestoneCreated","type":"event"},{"anonymous":false,"inputs":[{"indexed":true,"internalType":"uint256","name":"milestoneId","type":"uint256"},{"indexed":false,"internalType":"enum OrphanPlatform.MilestoneStatus","name":"status","type":"uint8"},{"indexed":false,"internalType":"uint256","name":"timestamp","type":"uint256"}],"name":"MilestoneUpdated","type":"event"},{"anonymous":false,"inputs":[{"indexed":true,"internalType":"address","name":"previousOwner","type":"address"},{"indexed":true,"internalType":"address","name":"newOwner","type":"address"}],"name":"OwnershipTransferred","type":"event"},{"anonymous":false,"inputs":[{"indexed":false,"internalType":"address","name":"account","type":"address"}],"name":"Paused","type":"event"},{"anonymous":false,"inputs":[{"indexed":false,"internalType":"address","name":"account","type":"address"}],"name":"Unpaused","type":"event"},{"anonymous":false,"inputs":[{"indexed":true,"internalType":"address","name":"walletAddress","type":"address"},{"indexed":false,"internalType":"enum OrphanPlatform.UserRole","name":"role","type":"uint8"},{"indexed":false,"internalType":"uint256","name":"timestamp","type":"uint256"}],"name":"UserRegistered","type":"event"},{"anonymous":false,"inputs":[{"indexed":true,"internalType":"address","name":"walletAddress","type":"address"},{"indexed":false,"internalType":"uint256","name":"timestamp","type":"uint256"}],"name":"UserUpdated","type":"event"},{"inputs":[],"name":"executorProposalFee","outputs":[{"internalType":"uint256","name":"","type":"uint256"}],"stateMutability":"view","type":"function"},{"inputs":[{"internalType":"uint256","name":"","type":"uint256"}],"name":"executorProposals","outputs":[{"internalType":"uint256","name":"id","type":"uint256"},{"internalType":"uint256","name":"ideaNFTId","type":"uint256"},{"internalType":"address","name":"executor","type":"address"},{"internalType":"address","name":"innovator","type":"address"},{"internalType":"string","name":"proposalTitle","type":"string"},{"internalType":"string","name":"proposalDescription","type":"string"},{"internalType":"uint256","name":"estimatedTimeline","type":"uint256"},{"internalType":"uint256","name":"requestedEquity","type":"uint256"},{"internalType":"string","name":"additionalTerms","type":"string"},{"internalType":"enum OrphanPlatform.ProposalStatus","name":"status","type":"uint8"},{"internalType":"uint256","name":"fee","type":"uint256"},{"internalType":"uint256","name":"createdAt","type":"uint256"},{"internalType":"uint256","name":"updatedAt","type":"uint256"}],"stateMutability":"view","type":"function"},{"inputs":[],"name":"executorRewardPercentage","outputs":[{"internalType":"uint256","name":"","type":"uint256"}],"stateMutability":"view","type":"function"},{"inputs":[],"name":"feesEnabled","outputs":[{"internalType":"bool","name":"","type":"bool"}],"stateMutability":"view","type":"function"},{"inputs":[{"internalType":"uint256","name":"proposalId","type":"uint256"}],"name":"getExecutorProposal","outputs":[{"components":[{"internalType":"uint256","name":"id","type":"uint256"},{"internalType":"uint256","name":"ideaNFTId","type":"uint256"},{"internalType":"address","name":"executor","type":"address"},{"internalType":"address","name":"innovator","type":"address"},{"internalType":"string","name":"proposalTitle","type":"string"},{"internalType":"string","name":"proposalDescription","type":"string"},{"components":[{"internalType":"string","name":"title","type":"string"},{"internalType":"string","name":"description","type":"string"},{"internalType":"uint256","name":"targetDate","type":"uint256"},{"internalType":"uint256","name":"reward","type":"uint256"},{"internalType":"string[]","name":"verificationCriteria","type":"string[]"},{"internalType":"enum OrphanPlatform.MilestoneStatus","name":"status","type":"uint8"}],"internalType":"struct OrphanPlatform.Milestone[]","name":"milestones","type":"tuple[]"},{"internalType":"uint256","name":"estimatedTimeline","type":"uint256"},{"internalType":"uint256","name":"requestedEquity","type":"uint256"},{"internalType":"string","name":"additionalTerms","type":"string"},{"internalType":"enum OrphanPlatform.ProposalStatus","name":"status","type":"uint8"},{"internalType":"uint256","name":"fee","type":"uint256"},{"internalType":"uint256","name":"createdAt","type":"uint256"},{"internalType":"uint256","name":"updatedAt","type":"uint256"}],"internalType":"struct OrphanPlatform.ExecutorProposal","name":"","type":"tuple"}],"stateMutability":"view","type":"function"},{"inputs":[{"internalType":"uint256","name":"ideaNFTId","type":"uint256"}],"name":"getProposalsForIdea","outputs":[{"internalType":"uint256[]","name":"","type":"uint256[]"}],"stateMutability":"view","type":"function"},{"inputs":[],"name":"getTotalMilestones","outputs":[{"internalType":"uint256","name":"","type":"uint256"}],"stateMutability":"view","type":"function"},{"inputs":[],"name":"getTotalProposals","outputs":[{"internalType":"uint256","name":"","type":"uint256"}],"stateMutability":"view","type":"function"},{"inputs":[{"internalType":"address","name":"userAddress","type":"address"}],"name":"getUser","outputs":[{"components":[{"internalType":"address","name":"walletAddress","type":"address"},{"internalType":"string","name":"name","type":"string"},{"internalType":"string","name":"bio","type":"string"},{"internalType":"string","name":"avatar","type":"string"},{"internalType":"string","name":"location","type":"string"},{"internalType":"string","name":"website","type":"string"},{"internalType":"string","name":"twitter","type":"string"},{"internalType":"string","name":"linkedin","type":"string"},{"internalType":"string","name":"github","type":"string"},{"internalType":"enum OrphanPlatform.UserRole","name":"role","type":"uint8"},{"internalType":"bool","name":"isOnboarded","type":"bool"},{"internalType":"uint256","name":"createdAt","type":"uint256"},{"internalType":"uint256","name":"updatedAt","type":"uint256"}],"internalType":"struct OrphanPlatform.User","name":"","type":"tuple"}],"stateMutability":"view","type":"function"},{"inputs":[{"internalType":"address","name":"userAddress","type":"address"}],"name":"getUserProposals","outputs":[{"internalType":"uint256[]","name":"","type":"uint256[]"}],"stateMutability":"view","type":"function"},{"inputs":[],"name":"ideaNFT","outputs":[{"internalType":"contract IdeaNFT","name":"","type":"address"}],"stateMutability":"view","type":"function"},{"inputs":[{"internalType":"uint256","name":"","type":"uint256"},{"internalType":"uint256","name":"","type":"uint256"}],"name":"ideaProposals","outputs":[{"internalType":"uint256","name":"","type":"uint256"}],"stateMutability":"view","type":"function"},{"inputs":[],"name":"innovatorRewardPercentage","outputs":[{"internalType":"uint256","name":"","type":"uint256"}],"stateMutability":"view","type":"function"},{"inputs":[],"name":"investorProposalFee","outputs":[{"internalType":"uint256","name":"","type":"uint256"}],"stateMutability":"view","type":"function"},{"inputs":[{"internalType":"uint256","name":"","type":"uint256"}],"name":"investorProposals","outputs":[{"internalType":"uint256","name":"id","type":"uint256"},{"internalType":"uint256","name":"projectNFTId","type":"uint256"},{"internalType":"address","name":"investor","type":"address"},{"internalType":"address","name":"executor","type":"address"},{"internalType":"string","name":"proposalTitle","type":"string"},{"internalType":"uint256","name":"investmentAmount","type":"uint256"},{"internalType":"uint256","name":"requestedEquity","type":"uint256"},{"components":[{"components":[{"internalType":"uint256","name":"milestoneId","type":"uint256"},{"internalType":"uint256","name":"amount","type":"uint256"},{"internalType":"uint256","name":"percentage","type":"uint256"},{"internalType":"string[]","name":"conditions","type":"string[]"}],"internalType":"struct OrphanPlatform.PayoutSchedule[]","name":"payoutSchedule","type":"tuple[]"},{"internalType":"string[]","name":"milestoneRequirements","type":"string[]"},{"internalType":"string","name":"exitStrategy","type":"string"},{"internalType":"string","name":"additionalTerms","type":"string"}],"internalType":"struct OrphanPlatform.InvestmentTerms","name":"terms","type":"tuple"},{"internalType":"enum OrphanPlatform.ProposalStatus","name":"status","type":"uint8"},{"internalType":"uint256","name":"fee","type":"uint256"},{"internalType":"uint256","name":"createdAt","type":"uint256"},{"internalType":"uint256","name":"updatedAt","type":"uint256"}],"stateMutability":"view","type":"function"},{"inputs":[{"internalType":"uint256","name":"","type":"uint256"}],"name":"milestones","outputs":[{"internalType":"string","name":"title","type":"string"},{"internalType":"string","name":"description","type":"string"},{"internalType":"uint256","name":"targetDate","type":"uint256"},{"internalType":"uint256","name":"reward","type":"uint256"},{"internalType":"enum OrphanPlatform.MilestoneStatus","name":"status","type":"uint8"}],"stateMutability":"view","type":"function"},{"inputs":[],"name":"owner","outputs":[{"internalType":"address","name":"","type":"address"}],"stateMutability":"view","type":"function"},{"inputs":[],"name":"pause","outputs":[],"stateMutability":"nonpayable","type":"function"},{"inputs":[],"name":"paused","outputs":[{"internalType":"bool","name":"","type":"bool"}],"stateMutability":"view","type":"function"},{"inputs":[],"name":"platformFeePercentage","outputs":[{"internalType":"uint256","name":"","type":"uint256"}],"stateMutability":"view","type":"function"},{"inputs":[{"internalType":"string","name":"name","type":"string"},{"internalType":"string","name":"bio","type":"string"},{"internalType":"string","name":"avatar","type":"string"},{"internalType":"string","name":"location","type":"string"},{"internalType":"string","name":"website","type":"string"},{"internalType":"string","name":"twitter","type":"string"},{"internalType":"string","name":"linkedin","type":"string"},{"internalType":"string","name":"github","type":"string"},{"internalType":"enum OrphanPlatform.UserRole","name":"role","type":"uint8"}],"name":"registerUser","outputs":[],"stateMutability":"nonpayable","type":"function"},{"inputs":[],"name":"renounceOwnership","outputs":[],"stateMutability":"nonpayable","type":"function"},{"inputs":[{"internalType":"uint256","name":"_fee","type":"uint256"}],"name":"setExecutorProposalFee","outputs":[],"stateMutability":"nonpayable","type":"function"},{"inputs":[{"internalType":"uint256","name":"_innovatorReward","type":"uint256"},{"internalType":"uint256","name":"_executorReward","type":"uint256"}],"name":"setFeeDistribution","outputs":[],"stateMutability":"nonpayable","type":"function"},{"inputs":[{"internalType":"uint256","name":"_fee","type":"uint256"}],"name":"setInvestorProposalFee","outputs":[],"stateMutability":"nonpayable","type":"function"},{"inputs":[{"internalType":"address","name":"_usdcToken","type":"address"}],"name":"setUsdcToken","outputs":[],"stateMutability":"nonpayable","type":"function"},{"inputs":[{"internalType":"uint256","name":"ideaNFTId","type":"uint256"},{"internalType":"string","name":"proposalTitle","type":"string"},{"internalType":"string","name":"proposalDescription","type":"string"},{"internalType":"string[]","name":"milestoneTitles","type":"string[]"},{"internalType":"string[]","name":"milestoneDescriptions","type":"string[]"},{"internalType":"uint256[]","name":"milestoneTargetDates","type":"uint256[]"},{"internalType":"uint256[]","name":"milestoneRewards","type":"uint256[]"},{"internalType":"uint256","name":"estimatedTimeline","type":"uint256"},{"internalType":"uint256","name":"requestedEquity","type":"uint256"},{"internalType":"string","name":"additionalTerms","type":"string"}],"name":"submitExecutorProposal","outputs":[],"stateMutability":"nonpayable","type":"function"},{"inputs":[],"name":"toggleFees","outputs":[],"stateMutability":"nonpayable","type":"function"},{"inputs":[{"internalType":"address","name":"newOwner","type":"address"}],"name":"transferOwnership","outputs":[],"stateMutability":"nonpayable","type":"function"},{"inputs":[],"name":"unpause","outputs":[],"stateMutability":"nonpayable","type":"function"},{"inputs":[{"internalType":"uint256","name":"proposalId","type":"uint256"},{"internalType":"enum OrphanPlatform.ProposalStatus","name":"status","type":"uint8"}],"name":"updateExecutorProposalStatus","outputs":[],"stateMutability":"nonpayable","type":"function"},{"inputs":[{"internalType":"address","name":"_ideaNFT","type":"address"}],"name":"updateIdeaNFT","outputs":[],"stateMutability":"nonpayable","type":"function"},{"inputs":[{"internalType":"string","name":"name","type":"string"},{"internalType":"string","name":"bio","type":"string"},{"internalType":"string","name":"avatar","type":"string"},{"internalType":"string","name":"location","type":"string"},{"internalType":"string","name":"website","type":"string"},{"internalType":"string","name":"twitter","type":"string"},{"internalType":"string","name":"linkedin","type":"string"},{"internalType":"string","name":"github","type":"string"}],"name":"updateUser","outputs":[],"stateMutability":"nonpayable","type":"function"},{"inputs":[],"name":"usdcToken","outputs":[{"internalType":"address","name":"","type":"address"}],"stateMutability":"view","type":"function"},{"inputs":[{"internalType":"address","name":"","type":"address"},{"internalType":"uint256","name":"","type":"uint256"}],"name":"userProposals","outputs":[{"internalType":"uint256","name":"","type":"uint256"}],"stateMutability":"view","type":"function"},{"inputs":[{"internalType":"address","name":"","type":"address"}],"name":"users","outputs":[{"internalType":"address","name":"walletAddress","type":"address"},{"internalType":"string","name":"name","type":"string"},{"internalType":"string","name":"bio","type":"string"},{"internalType":"string","name":"avatar","type":"string"},{"internalType":"string","name":"location","type":"string"},{"internalType":"string","name":"website","type":"string"},{"internalType":"string","name":"twitter","type":"string"},{"internalType":"string","name":"linkedin","type":"string"},{"internalType":"string","name":"github","type":"string"},{"internalType":"enum OrphanPlatform.UserRole","name":"role","type":"uint8"},{"internalType":"bool","name":"isOnboarded","type":"bool"},{"internalType":"uint256","name":"createdAt","type":"uint256"},{"internalType":"uint256","name":"updatedAt","type":"uint256"}],"stateMutability":"view","type":"function"},{"inputs":[],"name":"withdrawFees","outputs":[],"stateMutability":"nonpayable","type":"function"}],"evm":{"bytecode":{"linkReferences":{},"object":"608034620000fa57601f620049a538819003918201601f19168301916001600160401b03831184841017620000ff57808492602094604052833981010312620000fa57516001600160a01b03908181168103620000fa576000543360018060a01b0319821617600055604051923391167f8be0079c531659141344cd1fd0a4f28419497f9722a3daafe3b4186f6b6457e0600080a36001805560028054629896806003556301312d0060045560c860055561138860068190556007556008805460ff60a01b1916600160a01b1781556001600160a81b031990911692901b610100600160a81b031691909117905561488f9081620001168239f35b600080fd5b634e487b7160e01b600052604160045260246000fdfe6080604052600436101561001257600080fd5b60003560e01c806306b4625814612d7f57806307a2998414612d5e57806311eac85514612d35578063130721b614612d1757806318a118d814612cf95780631a5007dd14612cdb5780631b31527f14612c9157806323e746d714612c2757806327e4148114612c0957806339197b211461208d5780633f344a1e146120605780633f4ba83a14611fcc578063476343ee14611e935780634a1081a814611c315780634ad4322814611c135780635a7da88414611bf55780635c975abb14611bd25780635d886f2214611b4e57806360d458ed14611ab6578063650bd73614611a285780636f77926b146117a25780636fa9095b1461153e578063715018a6146114e5578063748a5f54146114c457806378ef11381461143c5780638456cb59146113a95780638da5cb5b146113805780638f6f78f31461103f578063a64e4f8a14611019578063a87430ba14610eaa578063adbe8e3314610d9f578063bd68aa7c14610d60578063cdd78cfc14610d42578063d7d91fe414610348578063ddf545121461030c578063e89e4ed61461027c5763f2fde38b146101b357600080fd5b34610277576020366003190112610277576101cc61434c565b6101d46145ca565b6001600160a01b0390811690811561022357600054826001600160601b0360a01b821617600055167f8be0079c531659141344cd1fd0a4f28419497f9722a3daafe3b4186f6b6457e0600080a3005b60405162461bcd60e51b815260206004820152602660248201527f4f776e61626c653a206e6577206f776e657220697320746865207a65726f206160448201526564647265737360d01b6064820152608490fd5b600080fd5b3461027757602036600319011261027757600435600052600e6020526102e160406000206102a981614470565b906102b660018201614470565b6002820154916102ef60ff60056003840154930154169260405196879660a0885260a0880190614404565b908682036020880152614404565b9260408501526060840152610303816145c0565b60808301520390f35b34610277576000366003190112610277576103256145ca565b6008805460ff60a01b19811660a091821c60ff161590911b60ff60a01b16179055005b3461027757610100366003190112610277576004356001600160401b03811161027757610379903690600401614201565b6024356001600160401b03811161027757610398903690600401614201565b6044356001600160401b038111610277576103b7903690600401614201565b916064356001600160401b038111610277576103d7903690600401614201565b6084356001600160401b038111610277576103f6903690600401614201565b60a4356001600160401b03811161027757610415903690600401614201565b9160c4356001600160401b03811161027757610435903690600401614201565b9560e4356001600160401b03811161027757610455903690600401614201565b9533600052600b60205261047660ff60096040600020015460081c16614645565b33600052600b602052604060002095805180610c45575b505080519081610b37575b505080519081610a29575b505080518061092b575b505080518061082d575b505080518061072f575b505082518061062c575b5090809250518061050c575b50600b429101556040514281527f43ca283f77ef1cc413e9ed99cf3cec9f055cb57e133c045a39cbf70cb068057f60203392a2005b60088201906001600160401b038111610616576105298254614436565b601f81116105d9575b506020601f82116001146105735781929394600092610568575b50508160011b916000199060031b1c19161790555b80826104d7565b01519050848061054c565b601f198216908360005260206000209160005b8181106105c1575095836001959697106105a8575b505050811b019055610561565b015160001960f88460031b161c1916905584808061059b565b9192602060018192868b015181550194019201610586565b61060690836000526020600020601f840160051c8101916020851061060c575b601f0160051c019061462e565b84610532565b90915081906105f9565b634e487b7160e01b600052604160045260246000fd5b60078201906001600160401b038111610616576106498254614436565b601f81116106fd575b50602094601f82116001146106975794819293949560009261068c575b50508160011b916000199060031b1c19161790555b8190836104cb565b01519050858061066f565b601f198216958360005260206000209160005b8881106106e5575083600195969798106106cc575b505050811b019055610684565b015160001960f88460031b161c191690558580806106bf565b919260206001819286850151815501940192016106aa565b61072990836000526020600020601f840160051c8101916020851061060c57601f0160051c019061462e565b85610652565b60068301916001600160401b03821161061657819061074e8454614436565b601f81116107fb575b50602090601f83116001146107955760009261078a575b50508160011b916000199060031b1c19161790555b83806104c1565b01519050868061076e565b6000858152602081209350601f198516905b8181106107e357509084600195949392106107ca575b505050811b019055610783565b015160001960f88460031b161c191690558680806107bd565b929360206001819287860151815501950193016107a7565b61082790856000526020600020601f850160051c8101916020861061060c57601f0160051c019061462e565b87610757565b60058401916001600160401b03821161061657819061084c8454614436565b601f81116108f9575b50602090601f831160011461089357600092610888575b50508160011b916000199060031b1c19161790555b84806104b7565b01519050878061086c565b6000858152602081209350601f198516905b8181106108e157509084600195949392106108c8575b505050811b019055610881565b015160001960f88460031b161c191690558780806108bb565b929360206001819287860151815501950193016108a5565b61092590856000526020600020601f850160051c8101916020861061060c57601f0160051c019061462e565b88610855565b60048501916001600160401b03821161061657819061094a8454614436565b601f81116109f7575b50602090601f831160011461099157600092610986575b50508160011b916000199060031b1c19161790555b85806104ad565b01519050888061096a565b6000858152602081209350601f198516905b8181106109df57509084600195949392106109c6575b505050811b01905561097f565b015160001960f88460031b161c191690558880806109b9565b929360206001819287860151815501950193016109a3565b610a2390856000526020600020601f850160051c8101916020861061060c57601f0160051c019061462e565b89610953565b6001600160401b038211610616578190610a466003880154614436565b601f8111610b02575b50602090601f8311600114610a9057600092610a85575b50508160011b916000199060031b1c19161760038501555b86806104a3565b015190508880610a66565b9250600387016000526020600020906000935b601f1984168510610ae7576001945083601f19811610610ace575b505050811b016003850155610a7e565b015160001960f88460031b161c19169055888080610abe565b81810151835560209485019460019093019290910190610aa3565b610b3190600389016000526020600020601f850160051c8101916020861061060c57601f0160051c019061462e565b89610a4f565b6001600160401b038211610616578190610b546002890154614436565b601f8111610c10575b50602090601f8311600114610b9e57600092610b93575b50508160011b916000199060031b1c19161760028601555b8780610498565b015190508980610b74565b9250600288016000526020600020906000935b601f1984168510610bf5576001945083601f19811610610bdc575b505050811b016002860155610b8c565b015160001960f88460031b161c19169055898080610bcc565b81810151835560209485019460019093019290910190610bb1565b610c3f9060028a016000526020600020601f850160051c8101916020861061060c57601f0160051c019061462e565b8a610b5d565b6001600160401b03811161061657806001890192610c638454614436565b601f8111610d10575b50602090601f8311600114610caa57600092610c9f575b50508160011b916000199060031b1c19161790555b888061048d565b015190508b80610c83565b6000858152602081209350601f198516905b818110610cf85750908460019594939210610cdf575b505050811b019055610c98565b015160001960f88460031b161c191690558b8080610cd2565b92936020600181928786015181550195019301610cbc565b610d3c90856000526020600020601f850160051c8101916020861061060c57601f0160051c019061462e565b8c610c6c565b34610277576000366003190112610277576020600554604051908152f35b3461027757610d6e366143cb565b9060005260106020526040600020805482101561027757602091610d9191614362565b90546040519160031b1c8152f35b3461027757602036600319011261027757600435600052600c60205260406000208054600182015491600160a01b6001900380600283015416906003830154169160048101610ded90614470565b92610dfa60058301614470565b60078301546008840154610e1060098601614470565b92600a86015460ff1697600b87015495600c88015497600d0154986040519c8d9c8d5260208d015260408c015260608b01526101a08060808c01528a01610e5691614404565b89810360a08b0152610e6791614404565b9160c089015260e0880152868103610100880152610e8491614404565b93610e8e816145c0565b6101208601526101408501526101608401526101808301520390f35b34610277576020366003190112610277576001600160a01b0380610ecc61434c565b16600052600b60205260406000209081541660018201610eeb90614470565b91610ef860028201614470565b610f0460038301614470565b91610f1160048201614470565b610f1d60058301614470565b610f2960068401614470565b610f3560078501614470565b91610f4260088601614470565b93600986015497600a87015496600b0154976040519b8c9b8c528b6101a06020819201528c01610f7191614404565b8b810360408d0152610f8291614404565b8a810360608c0152610f9391614404565b89810360808b0152610fa491614404565b88810360a08a0152610fb591614404565b87810360c0890152610fc691614404565b86810360e0880152610fd791614404565b858103610100870152610fe991614404565b92610ffb610120860160ff8316614429565b60081c60ff1615156101408501526101608401526101808301520390f35b3461027757600036600319011261027757602060ff60085460a01c166040519015158152f35b346102775760203660031901126102775760006101a060405161106181614172565b82815282602082015282604082015282606082015260606080820152606060a0820152606060c08201528260e08201528261010082015260606101208201528261014082015282610160820152826101808201520152600435600052600c60205260406000206040516110d381614172565b815481526001820154602082015260028201546001600160a01b039081166040830152600383015416606082015261110d60048301614470565b608082015261111e60058301614470565b60a082015260068201549161113283614257565b61113f60405191826141e0565b8381526020810193600683016000526020600020946000905b8282106113625785600d868660c0840152600781015460e0840152600881015461010084015261118a60098201614470565b61012084015260ff600a820154166111a1816145c0565b610140840152600b810154610160840152600c81015461018084015201546101a082015260405160208152815160208201526020820151604082015260018060a01b03604083015116606082015260018060a01b03606083015116608082015261123561121f60808401516101c060a08501526101e0840190614404565b60a0840151838203601f190160c0850152614404565b9160c081015192601f198382030160e0840152835180825260208201916020808360051b8301019601926000915b8383106112db578680876101a06112a38c60e0840151610100860152610100840151610120860152610120840151601f1986830301610140870152614404565b916101408101516112b3816145c0565b6101608501526101608101516101808501526101808101518285015201516101c08301520390f35b9091929396602080600192601f198582030186528a519060a08061134461131e61130e865160c0875260c0870190614404565b8787015186820389880152614404565b60408601516040860152606086015160608601526080860151858203608087015261456b565b93015191611351836145c0565b015299019301930191939290611263565b600660206001926113728a61478d565b815201970191019095611158565b34610277576000366003190112610277576000546040516001600160a01b039091168152602090f35b34610277576000366003190112610277576113c26145ca565b60025460ff81166114045760019060ff1916176002557f62e78cea01bee320cd4e420270b5ea74000d11b0c9f74754ebdbfc544b05a2586020604051338152a1005b60405162461bcd60e51b815260206004820152601060248201526f14185d5cd8589b194e881c185d5cd95960821b6044820152606490fd5b3461027757602080600319360112610277576001600160a01b0361145e61434c565b16600052600f8152604060002090604051908181845491828152019360005281600020916000905b8282106114ad576114a98561149d818903826141e0565b60405191829182614390565b0390f35b835486529485019460019384019390910190611486565b34610277576020366003190112610277576114dd6145ca565b600435600355005b34610277576000366003190112610277576114fe6145ca565b600080546001600160a01b0319811682556001600160a01b03167f8be0079c531659141344cd1fd0a4f28419497f9722a3daafe3b4186f6b6457e08280a3005b3461027757602036600319011261027757600435600052600d6020526040600020805460018201549160018060a01b039283600283015416936003830154169161158a60048201614470565b60058201546006830154604051979290600785016115a78a6141aa565b80546115b281614257565b916115c060405193846141e0565b818352602083019060005260206000206000915b83831061175a575050505089526115ed60088601614516565b60208a01526115fe60098601614470565b60408a015261160f600a8601614470565b60608a015260ff600b8601541696600c86015494600e600d880154970154976040519a8b5260208b015260408a0152606089015261165a6101809260809380858c01528a0190614404565b9260a089015260c088015286820360e088015280820190885191818452825180915260a0840191602060a08360051b8701019401926000915b838310611709575050505050966116e39160606116d26116c08a9b6020860151858203602087015261456b565b60408501518482036040860152614404565b920151906060818403910152614404565b936116ed816145c0565b6101008601526101208501526101408401526101608301520390f35b909192939460208061174b600193609f198b82030187528560608b5180518452858101518685015260408101516040850152015191816060820152019061456b565b97019301930191939290611693565b6004602060019260405161176d816141aa565b8554815284860154838201526002860154604082015261178f60038701614516565b60608201528152019201920191906115d4565b34610277576020366003190112610277576117bb61434c565b60006101806040516117cc8161418e565b828152606060208201526060604082015260608082015260606080820152606060a0820152606060c0820152606060e08201526060610100820152826101208201528261014082015282610160820152015260018060a01b0316600052600b6020526040600020600b604051916118428361418e565b80546001600160a01b0316835261185b60018201614470565b602084015261186c60028201614470565b604084015261187d60038201614470565b606084015261188e60048201614470565b608084015261189f60058201614470565b60a08401526118b060068201614470565b60c08401526118c160078201614470565b60e08401526118d260088201614470565b61010084015260ff60098201546118ef8282166101208701614622565b60081c161515610140840152600a810154610160840152015461018082015260405180916020825260018060a01b0381511660208301526101806119ef61194760208401516101a060408701526101c0860190614404565b6119d86119c36119af61199b61198761197360408a015196601f19978c60608a82850301910152614404565b60608a0151878c83030160808d0152614404565b6080890151868b83030160a08c0152614404565b60a0880151858a83030160c08b0152614404565b60c0870151848983030160e08a0152614404565b60e08601518388830301610100890152614404565b906101008501519086830301610120870152614404565b91611a04610120820151610140860190614429565b61014081015115156101608501526101608101518285015201516101a08301520390f35b3461027757602036600319011261027757611a4161434c565b611a496145ca565b6001600160a01b03811615611a7f5760028054610100600160a81b03191660089290921b610100600160a81b0316919091179055005b60405162461bcd60e51b815260206004820152600f60248201526e496e76616c6964206164647265737360881b6044820152606490fd5b3461027757611ac4366143cb565b90611acd6145ca565b818101808211611b385761271010611ae757600655600755005b60405162461bcd60e51b815260206004820152602360248201527f546f74616c2070657263656e746167652063616e6e6f7420657863656564203160448201526230302560e81b6064820152608490fd5b634e487b7160e01b600052601160045260246000fd5b3461027757602036600319011261027757611b6761434c565b611b6f6145ca565b6001600160a01b03168015611b96576001600160601b0360a01b6008541617600855600080f35b60405162461bcd60e51b8152602060048201526014602482015273496e76616c69642055534443206164647265737360601b6044820152606490fd5b3461027757600036600319011261027757602060ff600254166040519015158152f35b34610277576000366003190112610277576020600a54604051908152f35b34610277576000366003190112610277576020600654604051908152f35b3461027757604036600319011261027757600435602435600481101561027757816000526020600c815260406000205415801590611e81575b15611e3d576000838152600c8252604090206003810154336001600160a01b03918216148015919082611e2e575b15611df857611ca6856145c0565b600185148015611de5575b15611d4e5750611d0b57916040917f98d45ecb02499d1831c49939269a333e209445c33d08f99d082e7bdbe0693b51935b611cef83600a83016147f4565b600d42910155825191611d01816145c0565b82524290820152a2005b6064826040519062461bcd60e51b825280600483015260248201527f4f6e6c7920696e6e6f7661746f722063616e206163636570742f72656a6563746044820152fd5b9050611d59846145c0565b60038414611d8e575b50916040917f98d45ecb02499d1831c49939269a333e209445c33d08f99d082e7bdbe0693b5193611ce2565b6002820154163303611da05784611d62565b60405162461bcd60e51b815260048101839052601a60248201527f4f6e6c79206578656375746f722063616e2077697468647261770000000000006044820152606490fd5b50611def856145c0565b60028514611cb1565b60405162461bcd60e51b815260048101859052600e60248201526d139bdd08185d5d1a1bdc9a5e995960921b6044820152606490fd5b50806002840154163314611c98565b6064906040519062461bcd60e51b82526004820152601760248201527f50726f706f73616c20646f6573206e6f742065786973740000000000000000006044820152fd5b50600d81526040600020541515611c6a565b3461027757600036600319011261027757611eac6145ca565b6008546001600160a01b03908116611ec5811515614687565b6040516370a0823160e01b81523060048201526020928382602481865afa918215611f5657600092611f9d575b508115611f62579060448492600054166000604051958694859363a9059cbb60e01b8552600485015260248401525af18015611f5657611f2e57005b81611f4d92903d10611f4f575b611f4581836141e0565b810190614841565b005b503d611f3b565b6040513d6000823e3d90fd5b60405162461bcd60e51b81526004810185905260136024820152724e6f206665657320746f20776974686472617760681b6044820152606490fd5b9091508381813d8311611fc5575b611fb581836141e0565b8101031261027757519084611ef2565b503d611fab565b3461027757600036600319011261027757611fe56145ca565b60025460ff8116156120245760ff19166002557f5db9ee0a495bf2e6ff9c91a7834c1ba4fdd244a5e8aa4e537bd38aeae4b073aa6020604051338152a1005b60405162461bcd60e51b815260206004820152601460248201527314185d5cd8589b194e881b9bdd081c185d5cd95960621b6044820152606490fd5b346102775760003660031901126102775760025460405160089190911c6001600160a01b03168152602090f35b3461027757610120366003190112610277576004356001600160401b038111610277576120be903690600401614201565b6024356001600160401b038111610277576120dd903690600401614201565b6044356001600160401b038111610277576120fc903690600401614201565b6064356001600160401b0381116102775761211b903690600401614201565b6084356001600160401b0381116102775761213a903690600401614201565b60a4356001600160401b03811161027757612159903690600401614201565b9160c4356001600160401b03811161027757612179903690600401614201565b9360e4356001600160401b03811161027757612199903690600401614201565b95600361010435101561027757875115612bcd5760026101043511612b995733600052600b60205260ff60096040600020015460081c16612b5457604051976121e18961418e565b338952602089015260408801526060870152608086015260a085015260c084015260e083015261010082015261221e610104356101208301614622565b6001610140820152426101608201524261018082015233600052600b60205260406000209060018060a01b038151166001600160601b0360a01b83541617825560208101519182516001600160401b038111610616576122816001830154614436565b601f8111612b1f575b506020601f8211600114612ab15781929394600092612aa6575b50508160011b916000199060031b1c19161760018201555b60408201519182516001600160401b038111610616576122df6002840154614436565b601f8111612a71575b506020601f8211600114612a0357819293946000926129f8575b50508160011b916000199060031b1c19161760028301555b60608101519182516001600160401b0381116106165761233d6003830154614436565b601f81116129c3575b506020601f8211600114612955578192939460009261294a575b50508160011b916000199060031b1c19161760038201555b60808201519182516001600160401b0381116106165761239b6004840154614436565b601f8111612915575b506020601f82116001146128a7578192939460009261289c575b50508160011b916000199060031b1c19161760048301555b60a08101519182516001600160401b038111610616576123f96005830154614436565b601f8111612867575b506020601f82116001146127f957819293946000926127ee575b50508160011b916000199060031b1c19161760058201555b60c08201519182516001600160401b038111610616576124576006840154614436565b601f81116127b9575b506020601f821160011461274b5781929394600092612740575b50508160011b916000199060031b1c19161760068301555b60e08101519182516001600160401b038111610616576124b56007830154614436565b601f811161270b575b506020601f821160011461269d5781929394600092612692575b50508160011b916000199060031b1c19161760078201555b6101008201519182516001600160401b0381116106165760088301906125168254614436565b601f8111612660575b50602094601f82116001146125fa579481929394956000926125ef575b50508160011b916000199060031b1c19161790555b610120810151600983019160038210156125d9578261018092600b945460ff61ff00610140860151151560081b1692169061ffff191617179055610160810151600a85015501519101556040516125ab8161010435614429565b4260208201527feea238307e4577ec1b8645d63505c2d57767cfc074bb5ab579a615525f07a25760403392a2005b634e487b7160e01b600052602160045260246000fd5b01519050858061253c565b601f198216958360005260206000209160005b8881106126485750836001959697981061262f575b505050811b019055612551565b015160001960f88460031b161c19169055858080612622565b9192602060018192868501518155019401920161260d565b61268c90836000526020600020601f840160051c8101916020851061060c57601f0160051c019061462e565b8561251f565b0151905084806124d8565b6007830160005260206000209060005b601f19841681106126f35750600193949583601f198116106126da575b505050811b0160078201556124f0565b015160001960f88460031b161c191690558480806126ca565b9091602060018192858a0151815501930191016126ad565b61273a90600784016000526020600020601f840160051c8101916020851061060c57601f0160051c019061462e565b846124be565b01519050848061247a565b6006840160005260206000209060005b601f19841681106127a15750600193949583601f19811610612788575b505050811b016006830155612492565b015160001960f88460031b161c19169055848080612778565b9091602060018192858a01518155019301910161275b565b6127e890600685016000526020600020601f840160051c8101916020851061060c57601f0160051c019061462e565b84612460565b01519050848061241c565b6005830160005260206000209060005b601f198416811061284f5750600193949583601f19811610612836575b505050811b016005820155612434565b015160001960f88460031b161c19169055848080612826565b9091602060018192858a015181550193019101612809565b61289690600584016000526020600020601f840160051c8101916020851061060c57601f0160051c019061462e565b84612402565b0151905084806123be565b6004840160005260206000209060005b601f19841681106128fd5750600193949583601f198116106128e4575b505050811b0160048301556123d6565b015160001960f88460031b161c191690558480806128d4565b9091602060018192858a0151815501930191016128b7565b61294490600485016000526020600020601f840160051c8101916020851061060c57601f0160051c019061462e565b846123a4565b015190508480612360565b6003830160005260206000209060005b601f19841681106129ab5750600193949583601f19811610612992575b505050811b016003820155612378565b015160001960f88460031b161c19169055848080612982565b9091602060018192858a015181550193019101612965565b6129f290600384016000526020600020601f840160051c8101916020851061060c57601f0160051c019061462e565b84612346565b015190508480612302565b6002840160005260206000209060005b601f1984168110612a595750600193949583601f19811610612a40575b505050811b01600283015561231a565b015160001960f88460031b161c19169055848080612a30565b9091602060018192858a015181550193019101612a13565b612aa090600285016000526020600020601f840160051c8101916020851061060c57601f0160051c019061462e565b846122e8565b0151905084806122a4565b6001830160005260206000209060005b601f1984168110612b075750600193949583601f19811610612aee575b505050811b0160018201556122bc565b015160001960f88460031b161c19169055848080612ade565b9091602060018192858a015181550193019101612ac1565b612b4e90600184016000526020600020601f840160051c8101916020851061060c57601f0160051c019061462e565b8461228a565b60405162461bcd60e51b815260206004820152601760248201527f5573657220616c726561647920726567697374657265640000000000000000006044820152606490fd5b60405162461bcd60e51b815260206004820152600c60248201526b496e76616c696420726f6c6560a01b6044820152606490fd5b60405162461bcd60e51b81526020600482015260146024820152734e616d652063616e6e6f7420626520656d70747960601b6044820152606490fd5b34610277576000366003190112610277576020600354604051908152f35b34610277576020806003193601126102775760043560005260108152604060002090604051908181845491828152019360005281600020916000905b828210612c7a576114a98561149d818903826141e0565b835486529485019460019384019390910190612c63565b3461027757604036600319011261027757612caa61434c565b6001600160a01b03166000908152600f602052604090208054602435919082101561027757602091610d9191614362565b34610277576000366003190112610277576020600954604051908152f35b34610277576000366003190112610277576020600454604051908152f35b34610277576000366003190112610277576020600754604051908152f35b34610277576000366003190112610277576008546040516001600160a01b039091168152602090f35b3461027757602036600319011261027757612d776145ca565b600480359055005b3461027757610140366003190112610277576024356001600160401b03811161027757612db0903690600401614201565b6044356001600160401b03811161027757612dcf903690600401614201565b906064356001600160401b03811161027757612def90369060040161426e565b6084356001600160401b03811161027757612e0e90369060040161426e565b60a4356001600160401b03811161027757612e2d9036906004016142ee565b60c4356001600160401b03811161027757612e4c9036906004016142ee565b610124356001600160401b03811161027757612e6c903690600401614201565b9433600052600b602052612e8d60ff60096040600020015460081c16614645565b33600052600b60205260ff6009604060002001541660038110156125d95760010361411c576002600154146140d757600260015560085460ff8160a01c161561409257612ee4906001600160a01b03161515614687565b6002546040516331a9108f60e11b81526004803590820152906020908290602490829060081c6001600160a01b03165afa908115611f5657600091614073575b506001600160a01b03161561402e57845115613fe957605f6101043511613fa4576001600954019081600955855196612f5c88614257565b97612f6a604051998a6141e0565b808952612f79601f1991614257565b0160005b818110613f6657505060005b87518110156133fc57600a6001815401809155612fa6828a6146e7565b51612fb1838a6146e7565b51612fbc848a6146e7565b51612fc7858a6146e7565b5190604051928360208101106001600160401b0360208601111761061657602084016040526000845260405194612ffd86614157565b85526020850152604084015260608301526080820152600060a082015281600052600e602052604060002081518051906001600160401b0382116106165781906130478454614436565b601f81116133ca575b50602090601f831160011461335e57600092613353575b50508160011b916000199060031b1c19161781555b60208201518051906001600160401b0382116106165781906130a16001850154614436565b601f811161331e575b50602090601f83116001146132ac576000926132a1575b50508160011b916000199060031b1c19161760018201555b604082015160028201556060820151600382015560048101608083015160208151916131058385614744565b019160005260206000206000925b8284106131815750505050600560a09101910151613130816145c0565b613139816145c0565b60ff80198354169116179055600052600e60205261315a604060002061478d565b613164828b6146e7565b5261316f818a6146e7565b506000198114611b3857600101612f89565b80518051906001600160401b0382116106165761319e8454614436565b601f8111613264575b50602090601f83116001146131f45792826001949360209386956000926131e9575b5050600019600383901b1c191690841b1785555b01920193019290613113565b0151905038806131c9565b908460005260206000209160005b601f198516811061324c575083602093600196938796938794601f19811610613233575b505050811b0185556131dd565b015160001960f88460031b161c19169055388080613226565b91926020600181928685015181550194019201613202565b613291908560005260206000206005601f8601811c82019260208710613297575b601f01901c019061462e565b386131a7565b9192508291613285565b015190508f806130c1565b9250600184016000526020600020906000935b601f1984168510613303576001945083601f198116106132ea575b505050811b0160018201556130d9565b015160001960f88460031b161c191690558f80806132da565b818101518355602094850194600190930192909101906132bf565b61334d906001860160005260206000206005601f8601811c8201926020871061329757601f01901c019061462e565b386130aa565b015190508f80613067565b9250836000526020600020906000935b601f19841685106133af576001945083601f19811610613396575b505050811b01815561307c565b015160001960f88460031b161c191690558f8080613389565b8181015183556020948501946001909301929091019061336e565b6133f6908560005260206000206005601f8601811c8201926020871061329757601f01901c019061462e565b38613050565b5090602491888a602060018060a01b0360025460081c16604051968780926331a9108f60e11b825260043560048301525afa948515611f5657600095613f35575b50600354936040519561344f87614172565b878752600435602088015233604088015260018060a01b03166060870152608086015260a085015260c084015260e43560e084015261010435610100840152610120830152600061014083015261016082015242610180820152426101a082015281600052600c60205260406000209181518355602082015160018401556002830160018060a01b03604084015116906001600160601b0360a01b9182825416179055600384019060018060a01b036060850151169082541617905560808201519283516001600160401b0381116106165761352e6004830154614436565b601f8111613f00575b506020601f8211600114613e91578192939495600092613e86575b50508160011b916000199060031b1c19161760048201555b60a08301519283516001600160401b0381116106165761358d6005840154614436565b601f8111613e51575b506020601f8211600114613de2578192939495600092613dd7575b50508160011b916000199060031b1c19161760058301555b60c0810151805190600160401b8211610616576006840154826006860155808310613d24575b50602001906006840160005260206000206000925b828410613981575050505060e0810151600783015561010081015160088301556101208101518051906001600160401b038211610616576136486009850154614436565b601f811161394c575b50602090601f83116001146138d6579180600d94926101a0946000926138cb575b50508160011b916000199060031b1c19161760098501555b6136a561014082015161369c816145c0565b600a86016147f4565b610160810151600b850155610180810151600c850155015191015533600052600f6020526136d781604060002061480c565b60043560005260106020526136f081604060002061480c565b6003546040516136ff816141c5565b6011815270195e1958dd5d1bdc97dc1c9bdc1bdcd85b607a1b60208083018281526008546040516323b872dd60e01b81523360048201523060248201526044810187905291949290829060649082906000906001600160a01b03165af18015611f56576138ac575b50600554808502908582041485151715611b3857612710859104810311611b38577f66aecc579aa1ef463c0ed1547c2cb6163370e6311a60cba815252acbb398f213926138129260405160208101906137d660208287516137c981878a6143e1565b81010380845201826141e0565b5190209060405160208101918252601181526137f1816141c5565b51902003613855575b50604051938452606060208501526060840190614404565b914260408201528033930390a260405142815233917f58641f9822b0de362383333aec34df2ac6a1d31ee8840147e7cdadf01446330a602060043593a460018055005b61387d906020604051809261387086518092858501906143e1565b81010380835201906141e0565b6138a6604051701a5b9d995cdd1bdc97dc1c9bdc1bdcd85b607a1b6020820152601181526141c5565b856137fa565b6138c49060203d602011611f4f57611f4581836141e0565b5085613767565b015190508780613672565b906009850160005260206000209160005b601f1985168110613934575092600d94926001926101a09583601f1981161061391b575b505050811b01600985015561368a565b015160001960f88460031b161c1916905587808061390b565b919260206001819286850151815501940192016138e7565b61397b90600986016000526020600020601f850160051c8101916020861061060c57601f0160051c019061462e565b85613651565b805180518051906001600160401b0382116106165781906139a28654614436565b601f8111613cf2575b50602090601f8311600114613c8657600092613c7b575b50508160011b916000199060031b1c19161783555b60208101518051906001600160401b0382116106165781906139fc6001870154614436565b601f8111613c46575b50602090601f8311600114613bd457600092613bc9575b50508160011b916000199060031b1c19161760018401555b60408101516002840155606081015160038401556004830160808201516020815191613a608385614744565b019160005260206000206000925b828410613ab45750505050602060019260069260a060058701910151613a93816145c0565b613a9c816145c0565b60ff8019835416911617905501920193019290613604565b80518051906001600160401b03821161061657613ad18454614436565b601f8111613b97575b50602090601f8311600114613b27579282600194936020938695600092613b1c575b5050600019600383901b1c191690841b1785555b01920193019290613a6e565b015190503880613afc565b908460005260206000209160005b601f1985168110613b7f575083602093600196938796938794601f19811610613b66575b505050811b018555613b10565b015160001960f88460031b161c19169055388080613b59565b91926020600181928685015181550194019201613b35565b613bc390856000526020600020601f850160051c8101916020861061060c57601f0160051c019061462e565b8e613ada565b015190508a80613a1c565b9250600186016000526020600020906000935b601f1984168510613c2b576001945083601f19811610613c12575b505050811b016001840155613a34565b015160001960f88460031b161c191690558a8080613c02565b81810151835560209485019460019093019290910190613be7565b613c7590600188016000526020600020601f850160051c8101916020861061060c57601f0160051c019061462e565b8b613a05565b015190508a806139c2565b9250856000526020600020906000935b601f1984168510613cd7576001945083601f19811610613cbe575b505050811b0183556139d7565b015160001960f88460031b161c191690558a8080613cb1565b81810151835560209485019460019093019290910190613c96565b613d1e90876000526020600020601f850160051c8101916020861061060c57601f0160051c019061462e565b8b6139ab565b6006818102048103611b38576006838102048303611b38576006850160005260206000208360060281015b8260060282018110613d625750506135ef565b613d6b816146fb565b613d77600182016146fb565b600060028201556000600382015560048101546000600483015580613da7575b5060006005820155600601613d4f565b600482016000526020600020908101905b818110613dc55750613d97565b80613dd16001926146fb565b01613db8565b0151905085806135b1565b6005840160005260206000209060005b601f1984168110613e39575060019394959683601f19811610613e20575b505050811b0160058301556135c9565b015160001960f88460031b161c19169055858080613e10565b9091602060018192858b015181550193019101613df2565b613e8090600585016000526020600020601f840160051c8101916020851061060c57601f0160051c019061462e565b85613596565b015190508580613552565b6004830160005260206000209060005b601f1984168110613ee8575060019394959683601f19811610613ecf575b505050811b01600482015561356a565b015160001960f88460031b161c19169055858080613ebf565b9091602060018192858b015181550193019101613ea1565b613f2f90600484016000526020600020601f840160051c8101916020851061060c57601f0160051c019061462e565b85613537565b613f5891955060203d602011613f5f575b613f5081836141e0565b8101906146c8565b938661343d565b503d613f46565b602090604051613f7581614157565b60608082528084830152600060408301526000818301526080820152600060a082015282828d01015201612f7d565b60405162461bcd60e51b815260206004820152601860248201527f4571756974792063616e6e6f74206578636565642039352500000000000000006044820152606490fd5b60405162461bcd60e51b815260206004820152601f60248201527f4174206c65617374206f6e65206d696c6573746f6e65207265717569726564006044820152606490fd5b60405162461bcd60e51b815260206004820152601760248201527f49646561204e465420646f6573206e6f742065786973740000000000000000006044820152606490fd5b61408c915060203d602011613f5f57613f5081836141e0565b88612f24565b60405162461bcd60e51b815260206004820152601b60248201527f46656573206172652063757272656e746c792064697361626c656400000000006044820152606490fd5b60405162461bcd60e51b815260206004820152601f60248201527f5265656e7472616e637947756172643a207265656e7472616e742063616c6c006044820152606490fd5b60405162461bcd60e51b8152602060048201526013602482015272496e636f7272656374207573657220726f6c6560681b6044820152606490fd5b60c081019081106001600160401b0382111761061657604052565b6101c081019081106001600160401b0382111761061657604052565b6101a081019081106001600160401b0382111761061657604052565b608081019081106001600160401b0382111761061657604052565b604081019081106001600160401b0382111761061657604052565b90601f801991011681019081106001600160401b0382111761061657604052565b81601f82011215610277578035906001600160401b0382116106165760405192614235601f8401601f1916602001856141e0565b8284526020838301011161027757816000926020809301838601378301015290565b6001600160401b0381116106165760051b60200190565b9080601f830112156102775781359061428682614257565b9261429460405194856141e0565b828452602092838086019160051b8301019280841161027757848301915b8483106142c25750505050505090565b82356001600160401b0381116102775786916142e384848094890101614201565b8152019201916142b2565b81601f820112156102775780359161430583614257565b9261431360405194856141e0565b808452602092838086019260051b820101928311610277578301905b82821061433d575050505090565b8135815290830190830161432f565b600435906001600160a01b038216820361027757565b805482101561437a5760005260206000200190600090565b634e487b7160e01b600052603260045260246000fd5b6020908160408183019282815285518094520193019160005b8281106143b7575050505090565b8351855293810193928101926001016143a9565b6040906003190112610277576004359060243590565b60005b8381106143f45750506000910152565b81810151838201526020016143e4565b9060209161441d815180928185528580860191016143e1565b601f01601f1916010190565b9060038210156125d95752565b90600182811c92168015614466575b602083101461445057565b634e487b7160e01b600052602260045260246000fd5b91607f1691614445565b906040519182600082549261448484614436565b9081845260019485811690816000146144f357506001146144b0575b50506144ae925003836141e0565b565b9093915060005260209081600020936000915b8183106144db5750506144ae935082010138806144a0565b855488840185015294850194879450918301916144c3565b9150506144ae94506020925060ff191682840152151560051b82010138806144a0565b90815461452281614257565b9261453060405194856141e0565b818452600090815260208082208186015b84841061454f575050505050565b600183819261455d85614470565b815201920193019290614541565b90815180825260208092019182818360051b85019501936000915b8483106145965750505050505090565b90919293949584806145b083856001950387528a51614404565b9801930193019194939290614586565b600411156125d957565b6000546001600160a01b031633036145de57565b606460405162461bcd60e51b815260206004820152602060248201527f4f776e61626c653a2063616c6c6572206973206e6f7420746865206f776e65726044820152fd5b60038210156125d95752565b818110614639575050565b6000815560010161462e565b1561464c57565b60405162461bcd60e51b8152602060048201526013602482015272155cd95c881b9bdd081c9959da5cdd195c9959606a1b6044820152606490fd5b1561468e57565b60405162461bcd60e51b81526020600482015260126024820152711554d110c81d1bdad95b881b9bdd081cd95d60721b6044820152606490fd5b9081602091031261027757516001600160a01b03811681036102775790565b805182101561437a5760209160051b010190565b6147058154614436565b908161470f575050565b81601f60009311600114614721575055565b908083918252614740601f60208420940160051c84016001850161462e565b5555565b90600160401b81116106165781549181815582821061476257505050565b600052602060002091820191015b81811061477b575050565b806147876001926146fb565b01614770565b9060405161479a81614157565b60a060ff600583956147ab81614470565b85526147b960018201614470565b602086015260028101546040860152600381015460608601526147de60048201614516565b6080860152015416916147f0836145c0565b0152565b906147fe816145c0565b60ff80198354169116179055565b8054600160401b8110156106165761482991600182018155614362565b819291549060031b91821b91600019901b1916179055565b9081602091031261027757518015158103610277579056fea26469706673582212206d825c0a57491ba494d9f4472847e38960f7c00c7565ad0c078a22bd75294ba064736f6c63430008140033","opcodes":"PUSH1 0x80 CALLVALUE PUSH3 0xFA JUMPI PUSH1 0x1F PUSH3 0x49A5 CODESIZE DUP2 SWAP1 SUB SWAP2 DUP3 ADD PUSH1 0x1F NOT AND DUP4 ADD SWAP2 PUSH1 0x1 PUSH1 0x1 PUSH1 0x40 SHL SUB DUP4 GT DUP5 DUP5 LT OR PUSH3 0xFF JUMPI DUP1 DUP5 SWAP3 PUSH1 0x20 SWAP5 PUSH1 0x40 MSTORE DUP4 CODECOPY DUP2 ADD SUB SLT PUSH3 0xFA JUMPI MLOAD PUSH1 0x1 PUSH1 0x1 PUSH1 0xA0 SHL SUB SWAP1 DUP2 DUP2 AND DUP2 SUB PUSH3 0xFA JUMPI PUSH1 0x0 SLOAD CALLER PUSH1 0x1 DUP1 PUSH1 0xA0 SHL SUB NOT DUP3 AND OR PUSH1 0x0 SSTORE PUSH1 0x40 MLOAD SWAP3 CALLER SWAP2 AND PUSH32 0x8BE0079C531659141344CD1FD0A4F28419497F9722A3DAAFE3B4186F6B6457E0 PUSH1 0x0 DUP1 LOG3 PUSH1 0x1 DUP1 SSTORE PUSH1 0x2 DUP1 SLOAD PUSH3 0x989680 PUSH1 0x3 SSTORE PUSH4 0x1312D00 PUSH1 0x4 SSTORE PUSH1 0xC8 PUSH1 0x5 SSTORE PUSH2 0x1388 PUSH1 0x6 DUP2 SWAP1 SSTORE PUSH1 0x7 SSTORE PUSH1 0x8 DUP1 SLOAD PUSH1 0xFF PUSH1 0xA0 SHL NOT AND PUSH1 0x1 PUSH1 0xA0 SHL OR DUP2 SSTORE PUSH1 0x1 PUSH1 0x1 PUSH1 0xA8 SHL SUB NOT SWAP1 SWAP2 AND SWAP3 SWAP1 SHL PUSH2 0x100 PUSH1 0x1 PUSH1 0xA8 SHL SUB AND SWAP2 SWAP1 SWAP2 OR SWAP1 SSTORE PUSH2 0x488F SWAP1 DUP2 PUSH3 0x116 DUP3 CODECOPY RETURN JUMPDEST PUSH1 0x0 DUP1 REVERT JUMPDEST PUSH4 0x4E487B71 PUSH1 0xE0 SHL PUSH1 0x0 MSTORE PUSH1 0x41 PUSH1 0x4 MSTORE PUSH1 0x24 PUSH1 0x0 REVERT INVALID PUSH1 0x80 PUSH1 0x40 MSTORE PUSH1 0x4 CALLDATASIZE LT ISZERO PUSH2 0x12 JUMPI PUSH1 0x0 DUP1 REVERT JUMPDEST PUSH1 0x0 CALLDATALOAD PUSH1 0xE0 SHR DUP1 PUSH4 0x6B46258 EQ PUSH2 0x2D7F JUMPI DUP1 PUSH4 0x7A29984 EQ PUSH2 0x2D5E JUMPI DUP1 PUSH4 0x11EAC855 EQ PUSH2 0x2D35 JUMPI DUP1 PUSH4 0x130721B6 EQ PUSH2 0x2D17 JUMPI DUP1 PUSH4 0x18A118D8 EQ PUSH2 0x2CF9 JUMPI DUP1 PUSH4 0x1A5007DD EQ PUSH2 0x2CDB JUMPI DUP1 PUSH4 0x1B31527F EQ PUSH2 0x2C91 JUMPI DUP1 PUSH4 0x23E746D7 EQ PUSH2 0x2C27 JUMPI DUP1 PUSH4 0x27E41481 EQ PUSH2 0x2C09 JUMPI DUP1 PUSH4 0x39197B21 EQ PUSH2 0x208D JUMPI DUP1 PUSH4 0x3F344A1E EQ PUSH2 0x2060 JUMPI DUP1 PUSH4 0x3F4BA83A EQ PUSH2 0x1FCC JUMPI DUP1 PUSH4 0x476343EE EQ PUSH2 0x1E93 JUMPI DUP1 PUSH4 0x4A1081A8 EQ PUSH2 0x1C31 JUMPI DUP1 PUSH4 0x4AD43228 EQ PUSH2 0x1C13 JUMPI DUP1 PUSH4 0x5A7DA884 EQ PUSH2 0x1BF5 JUMPI DUP1 PUSH4 0x5C975ABB EQ PUSH2 0x1BD2 JUMPI DUP1 PUSH4 0x5D886F22 EQ PUSH2 0x1B4E JUMPI DUP1 PUSH4 0x60D458ED EQ PUSH2 0x1AB6 JUMPI DUP1 PUSH4 0x650BD736 EQ PUSH2 0x1A28 JUMPI DUP1 PUSH4 0x6F77926B EQ PUSH2 0x17A2 JUMPI DUP1 PUSH4 0x6FA9095B EQ PUSH2 0x153E JUMPI DUP1 PUSH4 0x715018A6 EQ PUSH2 0x14E5 JUMPI DUP1 PUSH4 0x748A5F54 EQ PUSH2 0x14C4 JUMPI DUP1 PUSH4 0x78EF1138 EQ PUSH2 0x143C JUMPI DUP1 PUSH4 0x8456CB59 EQ PUSH2 0x13A9 JUMPI DUP1 PUSH4 0x8DA5CB5B EQ PUSH2 0x1380 JUMPI DUP1 PUSH4 0x8F6F78F3 EQ PUSH2 0x103F JUMPI DUP1 PUSH4 0xA64E4F8A EQ PUSH2 0x1019 JUMPI DUP1 PUSH4 0xA87430BA EQ PUSH2 0xEAA JUMPI DUP1 PUSH4 0xADBE8E33 EQ PUSH2 0xD9F JUMPI DUP1 PUSH4 0xBD68AA7C EQ PUSH2 0xD60 JUMPI DUP1 PUSH4 0xCDD78CFC EQ PUSH2 0xD42 JUMPI DUP1 PUSH4 0xD7D91FE4 EQ PUSH2 0x348 JUMPI DUP1 PUSH4 0xDDF54512 EQ PUSH2 0x30C JUMPI DUP1 PUSH4 0xE89E4ED6 EQ PUSH2 0x27C JUMPI PUSH4 0xF2FDE38B EQ PUSH2 0x1B3 JUMPI PUSH1 0x0 DUP1 REVERT JUMPDEST CALLVALUE PUSH2 0x277 JUMPI PUSH1 0x20 CALLDATASIZE PUSH1 0x3 NOT ADD SLT PUSH2 0x277 JUMPI PUSH2 0x1CC PUSH2 0x434C JUMP JUMPDEST PUSH2 0x1D4 PUSH2 0x45CA JUMP JUMPDEST PUSH1 0x1 PUSH1 0x1 PUSH1 0xA0 SHL SUB SWAP1 DUP2 AND SWAP1 DUP2 ISZERO PUSH2 0x223 JUMPI PUSH1 0x0 SLOAD DUP3 PUSH1 0x1 PUSH1 0x1 PUSH1 0x60 SHL SUB PUSH1 0xA0 SHL DUP3 AND OR PUSH1 0x0 SSTORE AND PUSH32 0x8BE0079C531659141344CD1FD0A4F28419497F9722A3DAAFE3B4186F6B6457E0 PUSH1 0x0 DUP1 LOG3 STOP JUMPDEST PUSH1 0x40 MLOAD PUSH3 0x461BCD PUSH1 0xE5 SHL DUP2 MSTORE PUSH1 0x20 PUSH1 0x4 DUP3 ADD MSTORE PUSH1 0x26 PUSH1 0x24 DUP3 ADD MSTORE PUSH32 0x4F776E61626C653A206E6577206F776E657220697320746865207A65726F2061 PUSH1 0x44 DUP3 ADD MSTORE PUSH6 0x646472657373 PUSH1 0xD0 SHL PUSH1 0x64 DUP3 ADD MSTORE PUSH1 0x84 SWAP1 REVERT JUMPDEST PUSH1 0x0 DUP1 REVERT JUMPDEST CALLVALUE PUSH2 0x277 JUMPI PUSH1 0x20 CALLDATASIZE PUSH1 0x3 NOT ADD SLT PUSH2 0x277 JUMPI PUSH1 0x4 CALLDATALOAD PUSH1 0x0 MSTORE PUSH1 0xE PUSH1 0x20 MSTORE PUSH2 0x2E1 PUSH1 0x40 PUSH1 0x0 KECCAK256 PUSH2 0x2A9 DUP2 PUSH2 0x4470 JUMP JUMPDEST SWAP1 PUSH2 0x2B6 PUSH1 0x1 DUP3 ADD PUSH2 0x4470 JUMP JUMPDEST PUSH1 0x2 DUP3 ADD SLOAD SWAP2 PUSH2 0x2EF PUSH1 0xFF PUSH1 0x5 PUSH1 0x3 DUP5 ADD SLOAD SWAP4 ADD SLOAD AND SWAP3 PUSH1 0x40 MLOAD SWAP7 DUP8 SWAP7 PUSH1 0xA0 DUP9 MSTORE PUSH1 0xA0 DUP9 ADD SWAP1 PUSH2 0x4404 JUMP JUMPDEST SWAP1 DUP7 DUP3 SUB PUSH1 0x20 DUP9 ADD MSTORE PUSH2 0x4404 JUMP JUMPDEST SWAP3 PUSH1 0x40 DUP6 ADD MSTORE PUSH1 0x60 DUP5 ADD MSTORE PUSH2 0x303 DUP2 PUSH2 0x45C0 JUMP JUMPDEST PUSH1 0x80 DUP4 ADD MSTORE SUB SWAP1 RETURN JUMPDEST CALLVALUE PUSH2 0x277 JUMPI PUSH1 0x0 CALLDATASIZE PUSH1 0x3 NOT ADD SLT PUSH2 0x277 JUMPI PUSH2 0x325 PUSH2 0x45CA JUMP JUMPDEST PUSH1 0x8 DUP1 SLOAD PUSH1 0xFF PUSH1 0xA0 SHL NOT DUP2 AND PUSH1 0xA0 SWAP2 DUP3 SHR PUSH1 0xFF AND ISZERO SWAP1 SWAP2 SHL PUSH1 0xFF PUSH1 0xA0 SHL AND OR SWAP1 SSTORE STOP JUMPDEST CALLVALUE PUSH2 0x277 JUMPI PUSH2 0x100 CALLDATASIZE PUSH1 0x3 NOT ADD SLT PUSH2 0x277 JUMPI PUSH1 0x4 CALLDATALOAD PUSH1 0x1 PUSH1 0x1 PUSH1 0x40 SHL SUB DUP2 GT PUSH2 0x277 JUMPI PUSH2 0x379 SWAP1 CALLDATASIZE SWAP1 PUSH1 0x4 ADD PUSH2 0x4201 JUMP JUMPDEST PUSH1 0x24 CALLDATALOAD PUSH1 0x1 PUSH1 0x1 PUSH1 0x40 SHL SUB DUP2 GT PUSH2 0x277 JUMPI PUSH2 0x398 SWAP1 CALLDATASIZE SWAP1 PUSH1 0x4 ADD PUSH2 0x4201 JUMP JUMPDEST PUSH1 0x44 CALLDATALOAD PUSH1 0x1 PUSH1 0x1 PUSH1 0x40 SHL SUB DUP2 GT PUSH2 0x277 JUMPI PUSH2 0x3B7 SWAP1 CALLDATASIZE SWAP1 PUSH1 0x4 ADD PUSH2 0x4201 JUMP JUMPDEST SWAP2 PUSH1 0x64 CALLDATALOAD PUSH1 0x1 PUSH1 0x1 PUSH1 0x40 SHL SUB DUP2 GT PUSH2 0x277 JUMPI PUSH2 0x3D7 SWAP1 CALLDATASIZE SWAP1 PUSH1 0x4 ADD PUSH2 0x4201 JUMP JUMPDEST PUSH1 0x84 CALLDATALOAD PUSH1 0x1 PUSH1 0x1 PUSH1 0x40 SHL SUB DUP2 GT PUSH2 0x277 JUMPI PUSH2 0x3F6 SWAP1 CALLDATASIZE SWAP1 PUSH1 0x4 ADD PUSH2 0x4201 JUMP JUMPDEST PUSH1 0xA4 CALLDATALOAD PUSH1 0x1 PUSH1 0x1 PUSH1 0x40 SHL SUB DUP2 GT PUSH2 0x277 JUMPI PUSH2 0x415 SWAP1 CALLDATASIZE SWAP1 PUSH1 0x4 ADD PUSH2 0x4201 JUMP JUMPDEST SWAP2 PUSH1 0xC4 CALLDATALOAD PUSH1 0x1 PUSH1 0x1 PUSH1 0x40 SHL SUB DUP2 GT PUSH2 0x277 JUMPI PUSH2 0x435 SWAP1 CALLDATASIZE SWAP1 PUSH1 0x4 ADD PUSH2 0x4201 JUMP JUMPDEST SWAP6 PUSH1 0xE4 CALLDATALOAD PUSH1 0x1 PUSH1 0x1 PUSH1 0x40 SHL SUB DUP2 GT PUSH2 0x277 JUMPI PUSH2 0x455 SWAP1 CALLDATASIZE SWAP1 PUSH1 0x4 ADD PUSH2 0x4201 JUMP JUMPDEST SWAP6 CALLER PUSH1 0x0 MSTORE PUSH1 0xB PUSH1 0x20 MSTORE PUSH2 0x476 PUSH1 0xFF PUSH1 0x9 PUSH1 0x40 PUSH1 0x0 KECCAK256 ADD SLOAD PUSH1 0x8 SHR AND PUSH2 0x4645 JUMP JUMPDEST CALLER PUSH1 0x0 MSTORE PUSH1 0xB PUSH1 0x20 MSTORE PUSH1 0x40 PUSH1 0x0 KECCAK256 SWAP6 DUP1 MLOAD DUP1 PUSH2 0xC45 JUMPI JUMPDEST POP POP DUP1 MLOAD SWAP1 DUP2 PUSH2 0xB37 JUMPI JUMPDEST POP POP DUP1 MLOAD SWAP1 DUP2 PUSH2 0xA29 JUMPI JUMPDEST POP POP DUP1 MLOAD DUP1 PUSH2 0x92B JUMPI JUMPDEST POP POP DUP1 MLOAD DUP1 PUSH2 0x82D JUMPI JUMPDEST POP POP DUP1 MLOAD DUP1 PUSH2 0x72F JUMPI JUMPDEST POP POP DUP3 MLOAD DUP1 PUSH2 0x62C JUMPI JUMPDEST POP SWAP1 DUP1 SWAP3 POP MLOAD DUP1 PUSH2 0x50C JUMPI JUMPDEST POP PUSH1 0xB TIMESTAMP SWAP2 ADD SSTORE PUSH1 0x40 MLOAD TIMESTAMP DUP2 MSTORE PUSH32 0x43CA283F77EF1CC413E9ED99CF3CEC9F055CB57E133C045A39CBF70CB068057F PUSH1 0x20 CALLER SWAP3 LOG2 STOP JUMPDEST PUSH1 0x8 DUP3 ADD SWAP1 PUSH1 0x1 PUSH1 0x1 PUSH1 0x40 SHL SUB DUP2 GT PUSH2 0x616 JUMPI PUSH2 0x529 DUP3 SLOAD PUSH2 0x4436 JUMP JUMPDEST PUSH1 0x1F DUP2 GT PUSH2 0x5D9 JUMPI JUMPDEST POP PUSH1 0x20 PUSH1 0x1F DUP3 GT PUSH1 0x1 EQ PUSH2 0x573 JUMPI DUP2 SWAP3 SWAP4 SWAP5 PUSH1 0x0 SWAP3 PUSH2 0x568 JUMPI JUMPDEST POP POP DUP2 PUSH1 0x1 SHL SWAP2 PUSH1 0x0 NOT SWAP1 PUSH1 0x3 SHL SHR NOT AND OR SWAP1 SSTORE JUMPDEST DUP1 DUP3 PUSH2 0x4D7 JUMP JUMPDEST ADD MLOAD SWAP1 POP DUP5 DUP1 PUSH2 0x54C JUMP JUMPDEST PUSH1 0x1F NOT DUP3 AND SWAP1 DUP4 PUSH1 0x0 MSTORE PUSH1 0x20 PUSH1 0x0 KECCAK256 SWAP2 PUSH1 0x0 JUMPDEST DUP2 DUP2 LT PUSH2 0x5C1 JUMPI POP SWAP6 DUP4 PUSH1 0x1 SWAP6 SWAP7 SWAP8 LT PUSH2 0x5A8 JUMPI JUMPDEST POP POP POP DUP2 SHL ADD SWAP1 SSTORE PUSH2 0x561 JUMP JUMPDEST ADD MLOAD PUSH1 0x0 NOT PUSH1 0xF8 DUP5 PUSH1 0x3 SHL AND SHR NOT AND SWAP1 SSTORE DUP5 DUP1 DUP1 PUSH2 0x59B JUMP JUMPDEST SWAP2 SWAP3 PUSH1 0x20 PUSH1 0x1 DUP2 SWAP3 DUP7 DUP12 ADD MLOAD DUP2 SSTORE ADD SWAP5 ADD SWAP3 ADD PUSH2 0x586 JUMP JUMPDEST PUSH2 0x606 SWAP1 DUP4 PUSH1 0x0 MSTORE PUSH1 0x20 PUSH1 0x0 KECCAK256 PUSH1 0x1F DUP5 ADD PUSH1 0x5 SHR DUP2 ADD SWAP2 PUSH1 0x20 DUP6 LT PUSH2 0x60C JUMPI JUMPDEST PUSH1 0x1F ADD PUSH1 0x5 SHR ADD SWAP1 PUSH2 0x462E JUMP JUMPDEST DUP5 PUSH2 0x532 JUMP JUMPDEST SWAP1 SWAP2 POP DUP2 SWAP1 PUSH2 0x5F9 JUMP JUMPDEST PUSH4 0x4E487B71 PUSH1 0xE0 SHL PUSH1 0x0 MSTORE PUSH1 0x41 PUSH1 0x4 MSTORE PUSH1 0x24 PUSH1 0x0 REVERT JUMPDEST PUSH1 0x7 DUP3 ADD SWAP1 PUSH1 0x1 PUSH1 0x1 PUSH1 0x40 SHL SUB DUP2 GT PUSH2 0x616 JUMPI PUSH2 0x649 DUP3 SLOAD PUSH2 0x4436 JUMP JUMPDEST PUSH1 0x1F DUP2 GT PUSH2 0x6FD JUMPI JUMPDEST POP PUSH1 0x20 SWAP5 PUSH1 0x1F DUP3 GT PUSH1 0x1 EQ PUSH2 0x697 JUMPI SWAP5 DUP2 SWAP3 SWAP4 SWAP5 SWAP6 PUSH1 0x0 SWAP3 PUSH2 0x68C JUMPI JUMPDEST POP POP DUP2 PUSH1 0x1 SHL SWAP2 PUSH1 0x0 NOT SWAP1 PUSH1 0x3 SHL SHR NOT AND OR SWAP1 SSTORE JUMPDEST DUP2 SWAP1 DUP4 PUSH2 0x4CB JUMP JUMPDEST ADD MLOAD SWAP1 POP DUP6 DUP1 PUSH2 0x66F JUMP JUMPDEST PUSH1 0x1F NOT DUP3 AND SWAP6 DUP4 PUSH1 0x0 MSTORE PUSH1 0x20 PUSH1 0x0 KECCAK256 SWAP2 PUSH1 0x0 JUMPDEST DUP9 DUP2 LT PUSH2 0x6E5 JUMPI POP DUP4 PUSH1 0x1 SWAP6 SWAP7 SWAP8 SWAP9 LT PUSH2 0x6CC JUMPI JUMPDEST POP POP POP DUP2 SHL ADD SWAP1 SSTORE PUSH2 0x684 JUMP JUMPDEST ADD MLOAD PUSH1 0x0 NOT PUSH1 0xF8 DUP5 PUSH1 0x3 SHL AND SHR NOT AND SWAP1 SSTORE DUP6 DUP1 DUP1 PUSH2 0x6BF JUMP JUMPDEST SWAP2 SWAP3 PUSH1 0x20 PUSH1 0x1 DUP2 SWAP3 DUP7 DUP6 ADD MLOAD DUP2 SSTORE ADD SWAP5 ADD SWAP3 ADD PUSH2 0x6AA JUMP JUMPDEST PUSH2 0x729 SWAP1 DUP4 PUSH1 0x0 MSTORE PUSH1 0x20 PUSH1 0x0 KECCAK256 PUSH1 0x1F DUP5 ADD PUSH1 0x5 SHR DUP2 ADD SWAP2 PUSH1 0x20 DUP6 LT PUSH2 0x60C JUMPI PUSH1 0x1F ADD PUSH1 0x5 SHR ADD SWAP1 PUSH2 0x462E JUMP JUMPDEST DUP6 PUSH2 0x652 JUMP JUMPDEST PUSH1 0x6 DUP4 ADD SWAP2 PUSH1 0x1 PUSH1 0x1 PUSH1 0x40 SHL SUB DUP3 GT PUSH2 0x616 JUMPI DUP2 SWAP1 PUSH2 0x74E DUP5 SLOAD PUSH2 0x4436 JUMP JUMPDEST PUSH1 0x1F DUP2 GT PUSH2 0x7FB JUMPI JUMPDEST POP PUSH1 0x20 SWAP1 PUSH1 0x1F DUP4 GT PUSH1 0x1 EQ PUSH2 0x795 JUMPI PUSH1 0x0 SWAP3 PUSH2 0x78A JUMPI JUMPDEST POP POP DUP2 PUSH1 0x1 SHL SWAP2 PUSH1 0x0 NOT SWAP1 PUSH1 0x3 SHL SHR NOT AND OR SWAP1 SSTORE JUMPDEST DUP4 DUP1 PUSH2 0x4C1 JUMP JUMPDEST ADD MLOAD SWAP1 POP DUP7 DUP1 PUSH2 0x76E JUMP JUMPDEST PUSH1 0x0 DUP6 DUP2 MSTORE PUSH1 0x20 DUP2 KECCAK256 SWAP4 POP PUSH1 0x1F NOT DUP6 AND SWAP1 JUMPDEST DUP2 DUP2 LT PUSH2 0x7E3 JUMPI POP SWAP1 DUP5 PUSH1 0x1 SWAP6 SWAP5 SWAP4 SWAP3 LT PUSH2 0x7CA JUMPI JUMPDEST POP POP POP DUP2 SHL ADD SWAP1 SSTORE PUSH2 0x783 JUMP JUMPDEST ADD MLOAD PUSH1 0x0 NOT PUSH1 0xF8 DUP5 PUSH1 0x3 SHL AND SHR NOT AND SWAP1 SSTORE DUP7 DUP1 DUP1 PUSH2 0x7BD JUMP JUMPDEST SWAP3 SWAP4 PUSH1 0x20 PUSH1 0x1 DUP2 SWAP3 DUP8 DUP7 ADD MLOAD DUP2 SSTORE ADD SWAP6 ADD SWAP4 ADD PUSH2 0x7A7 JUMP JUMPDEST PUSH2 0x827 SWAP1 DUP6 PUSH1 0x0 MSTORE PUSH1 0x20 PUSH1 0x0 KECCAK256 PUSH1 0x1F DUP6 ADD PUSH1 0x5 SHR DUP2 ADD SWAP2 PUSH1 0x20 DUP7 LT PUSH2 0x60C JUMPI PUSH1 0x1F ADD PUSH1 0x5 SHR ADD SWAP1 PUSH2 0x462E JUMP JUMPDEST DUP8 PUSH2 0x757 JUMP JUMPDEST PUSH1 0x5 DUP5 ADD SWAP2 PUSH1 0x1 PUSH1 0x1 PUSH1 0x40 SHL SUB DUP3 GT PUSH2 0x616 JUMPI DUP2 SWAP1 PUSH2 0x84C DUP5 SLOAD PUSH2 0x4436 JUMP JUMPDEST PUSH1 0x1F DUP2 GT PUSH2 0x8F9 JUMPI JUMPDEST POP PUSH1 0x20 SWAP1 PUSH1 0x1F DUP4 GT PUSH1 0x1 EQ PUSH2 0x893 JUMPI PUSH1 0x0 SWAP3 PUSH2 0x888 JUMPI JUMPDEST POP POP DUP2 PUSH1 0x1 SHL SWAP2 PUSH1 0x0 NOT SWAP1 PUSH1 0x3 SHL SHR NOT AND OR SWAP1 SSTORE JUMPDEST DUP5 DUP1 PUSH2 0x4B7 JUMP JUMPDEST ADD MLOAD SWAP1 POP DUP8 DUP1 PUSH2 0x86C JUMP JUMPDEST PUSH1 0x0 DUP6 DUP2 MSTORE PUSH1 0x20 DUP2 KECCAK256 SWAP4 POP PUSH1 0x1F NOT DUP6 AND SWAP1 JUMPDEST DUP2 DUP2 LT PUSH2 0x8E1 JUMPI POP SWAP1 DUP5 PUSH1 0x1 SWAP6 SWAP5 SWAP4 SWAP3 LT PUSH2 0x8C8 JUMPI JUMPDEST POP POP POP DUP2 SHL ADD SWAP1 SSTORE PUSH2 0x881 JUMP JUMPDEST ADD MLOAD PUSH1 0x0 NOT PUSH1 0xF8 DUP5 PUSH1 0x3 SHL AND SHR NOT AND SWAP1 SSTORE DUP8 DUP1 DUP1 PUSH2 0x8BB JUMP JUMPDEST SWAP3 SWAP4 PUSH1 0x20 PUSH1 0x1 DUP2 SWAP3 DUP8 DUP7 ADD MLOAD DUP2 SSTORE ADD SWAP6 ADD SWAP4 ADD PUSH2 0x8A5 JUMP JUMPDEST PUSH2 0x925 SWAP1 DUP6 PUSH1 0x0 MSTORE PUSH1 0x20 PUSH1 0x0 KECCAK256 PUSH1 0x1F DUP6 ADD PUSH1 0x5 SHR DUP2 ADD SWAP2 PUSH1 0x20 DUP7 LT PUSH2 0x60C JUMPI PUSH1 0x1F ADD PUSH1 0x5 SHR ADD SWAP1 PUSH2 0x462E JUMP JUMPDEST DUP9 PUSH2 0x855 JUMP JUMPDEST PUSH1 0x4 DUP6 ADD SWAP2 PUSH1 0x1 PUSH1 0x1 PUSH1 0x40 SHL SUB DUP3 GT PUSH2 0x616 JUMPI DUP2 SWAP1 PUSH2 0x94A DUP5 SLOAD PUSH2 0x4436 JUMP JUMPDEST PUSH1 0x1F DUP2 GT PUSH2 0x9F7 JUMPI JUMPDEST POP PUSH1 0x20 SWAP1 PUSH1 0x1F DUP4 GT PUSH1 0x1 EQ PUSH2 0x991 JUMPI PUSH1 0x0 SWAP3 PUSH2 0x986 JUMPI JUMPDEST POP POP DUP2 PUSH1 0x1 SHL SWAP2 PUSH1 0x0 NOT SWAP1 PUSH1 0x3 SHL SHR NOT AND OR SWAP1 SSTORE JUMPDEST DUP6 DUP1 PUSH2 0x4AD JUMP JUMPDEST ADD MLOAD SWAP1 POP DUP9 DUP1 PUSH2 0x96A JUMP JUMPDEST PUSH1 0x0 DUP6 DUP2 MSTORE PUSH1 0x20 DUP2 KECCAK256 SWAP4 POP PUSH1 0x1F NOT DUP6 AND SWAP1 JUMPDEST DUP2 DUP2 LT PUSH2 0x9DF JUMPI POP SWAP1 DUP5 PUSH1 0x1 SWAP6 SWAP5 SWAP4 SWAP3 LT PUSH2 0x9C6 JUMPI JUMPDEST POP POP POP DUP2 SHL ADD SWAP1 SSTORE PUSH2 0x97F JUMP JUMPDEST ADD MLOAD PUSH1 0x0 NOT PUSH1 0xF8 DUP5 PUSH1 0x3 SHL AND SHR NOT AND SWAP1 SSTORE DUP9 DUP1 DUP1 PUSH2 0x9B9 JUMP JUMPDEST SWAP3 SWAP4 PUSH1 0x20 PUSH1 0x1 DUP2 SWAP3 DUP8 DUP7 ADD MLOAD DUP2 SSTORE ADD SWAP6 ADD SWAP4 ADD PUSH2 0x9A3 JUMP JUMPDEST PUSH2 0xA23 SWAP1 DUP6 PUSH1 0x0 MSTORE PUSH1 0x20 PUSH1 0x0 KECCAK256 PUSH1 0x1F DUP6 ADD PUSH1 0x5 SHR DUP2 ADD SWAP2 PUSH1 0x20 DUP7 LT PUSH2 0x60C JUMPI PUSH1 0x1F ADD PUSH1 0x5 SHR ADD SWAP1 PUSH2 0x462E JUMP JUMPDEST DUP10 PUSH2 0x953 JUMP JUMPDEST PUSH1 0x1 PUSH1 0x1 PUSH1 0x40 SHL SUB DUP3 GT PUSH2 0x616 JUMPI DUP2 SWAP1 PUSH2 0xA46 PUSH1 0x3 DUP9 ADD SLOAD PUSH2 0x4436 JUMP JUMPDEST PUSH1 0x1F DUP2 GT PUSH2 0xB02 JUMPI JUMPDEST POP PUSH1 0x20 SWAP1 PUSH1 0x1F DUP4 GT PUSH1 0x1 EQ PUSH2 0xA90 JUMPI PUSH1 0x0 SWAP3 PUSH2 0xA85 JUMPI JUMPDEST POP POP DUP2 PUSH1 0x1 SHL SWAP2 PUSH1 0x0 NOT SWAP1 PUSH1 0x3 SHL SHR NOT AND OR PUSH1 0x3 DUP6 ADD SSTORE JUMPDEST DUP7 DUP1 PUSH2 0x4A3 JUMP JUMPDEST ADD MLOAD SWAP1 POP DUP9 DUP1 PUSH2 0xA66 JUMP JUMPDEST SWAP3 POP PUSH1 0x3 DUP8 ADD PUSH1 0x0 MSTORE PUSH1 0x20 PUSH1 0x0 KECCAK256 SWAP1 PUSH1 0x0 SWAP4 JUMPDEST PUSH1 0x1F NOT DUP5 AND DUP6 LT PUSH2 0xAE7 JUMPI PUSH1 0x1 SWAP5 POP DUP4 PUSH1 0x1F NOT DUP2 AND LT PUSH2 0xACE JUMPI JUMPDEST POP POP POP DUP2 SHL ADD PUSH1 0x3 DUP6 ADD SSTORE PUSH2 0xA7E JUMP JUMPDEST ADD MLOAD PUSH1 0x0 NOT PUSH1 0xF8 DUP5 PUSH1 0x3 SHL AND SHR NOT AND SWAP1 SSTORE DUP9 DUP1 DUP1 PUSH2 0xABE JUMP JUMPDEST DUP2 DUP2 ADD MLOAD DUP4 SSTORE PUSH1 0x20 SWAP5 DUP6 ADD SWAP5 PUSH1 0x1 SWAP1 SWAP4 ADD SWAP3 SWAP1 SWAP2 ADD SWAP1 PUSH2 0xAA3 JUMP JUMPDEST PUSH2 0xB31 SWAP1 PUSH1 0x3 DUP10 ADD PUSH1 0x0 MSTORE PUSH1 0x20 PUSH1 0x0 KECCAK256 PUSH1 0x1F DUP6 ADD PUSH1 0x5 SHR DUP2 ADD SWAP2 PUSH1 0x20 DUP7 LT PUSH2 0x60C JUMPI PUSH1 0x1F ADD PUSH1 0x5 SHR ADD SWAP1 PUSH2 0x462E JUMP JUMPDEST DUP10 PUSH2 0xA4F JUMP JUMPDEST PUSH1 0x1 PUSH1 0x1 PUSH1 0x40 SHL SUB DUP3 GT PUSH2 0x616 JUMPI DUP2 SWAP1 PUSH2 0xB54 PUSH1 0x2 DUP10 ADD SLOAD PUSH2 0x4436 JUMP JUMPDEST PUSH1 0x1F DUP2 GT PUSH2 0xC10 JUMPI JUMPDEST POP PUSH1 0x20 SWAP1 PUSH1 0x1F DUP4 GT PUSH1 0x1 EQ PUSH2 0xB9E JUMPI PUSH1 0x0 SWAP3 PUSH2 0xB93 JUMPI JUMPDEST POP POP DUP2 PUSH1 0x1 SHL SWAP2 PUSH1 0x0 NOT SWAP1 PUSH1 0x3 SHL SHR NOT AND OR PUSH1 0x2 DUP7 ADD SSTORE JUMPDEST DUP8 DUP1 PUSH2 0x498 JUMP JUMPDEST ADD MLOAD SWAP1 POP DUP10 DUP1 PUSH2 0xB74 JUMP JUMPDEST SWAP3 POP PUSH1 0x2 DUP9 ADD PUSH1 0x0 MSTORE PUSH1 0x20 PUSH1 0x0 KECCAK256 SWAP1 PUSH1 0x0 SWAP4 JUMPDEST PUSH1 0x1F NOT DUP5 AND DUP6 LT PUSH2 0xBF5 JUMPI PUSH1 0x1 SWAP5 POP DUP4 PUSH1 0x1F NOT DUP2 AND LT PUSH2 0xBDC JUMPI JUMPDEST POP POP POP DUP2 SHL ADD PUSH1 0x2 DUP7 ADD SSTORE PUSH2 0xB8C JUMP JUMPDEST ADD MLOAD PUSH1 0x0 NOT PUSH1 0xF8 DUP5 PUSH1 0x3 SHL AND SHR NOT AND SWAP1 SSTORE DUP10 DUP1 DUP1 PUSH2 0xBCC JUMP JUMPDEST DUP2 DUP2 ADD MLOAD DUP4 SSTORE PUSH1 0x20 SWAP5 DUP6 ADD SWAP5 PUSH1 0x1 SWAP1 SWAP4 ADD SWAP3 SWAP1 SWAP2 ADD SWAP1 PUSH2 0xBB1 JUMP JUMPDEST PUSH2 0xC3F SWAP1 PUSH1 0x2 DUP11 ADD PUSH1 0x0 MSTORE PUSH1 0x20 PUSH1 0x0 KECCAK256 PUSH1 0x1F DUP6 ADD PUSH1 0x5 SHR DUP2 ADD SWAP2 PUSH1 0x20 DUP7 LT PUSH2 0x60C JUMPI PUSH1 0x1F ADD PUSH1 0x5 SHR ADD SWAP1 PUSH2 0x462E JUMP JUMPDEST DUP11 PUSH2 0xB5D JUMP JUMPDEST PUSH1 0x1 PUSH1 0x1 PUSH1 0x40 SHL SUB DUP2 GT PUSH2 0x616 JUMPI DUP1 PUSH1 0x1 DUP10 ADD SWAP3 PUSH2 0xC63 DUP5 SLOAD PUSH2 0x4436 JUMP JUMPDEST PUSH1 0x1F DUP2 GT PUSH2 0xD10 JUMPI JUMPDEST POP PUSH1 0x20 SWAP1 PUSH1 0x1F DUP4 GT PUSH1 0x1 EQ PUSH2 0xCAA JUMPI PUSH1 0x0 SWAP3 PUSH2 0xC9F JUMPI JUMPDEST POP POP DUP2 PUSH1 0x1 SHL SWAP2 PUSH1 0x0 NOT SWAP1 PUSH1 0x3 SHL SHR NOT AND OR SWAP1 SSTORE JUMPDEST DUP9 DUP1 PUSH2 0x48D JUMP JUMPDEST ADD MLOAD SWAP1 POP DUP12 DUP1 PUSH2 0xC83 JUMP JUMPDEST PUSH1 0x0 DUP6 DUP2 MSTORE PUSH1 0x20 DUP2 KECCAK256 SWAP4 POP PUSH1 0x1F NOT DUP6 AND SWAP1 JUMPDEST DUP2 DUP2 LT PUSH2 0xCF8 JUMPI POP SWAP1 DUP5 PUSH1 0x1 SWAP6 SWAP5 SWAP4 SWAP3 LT PUSH2 0xCDF JUMPI JUMPDEST POP POP POP DUP2 SHL ADD SWAP1 SSTORE PUSH2 0xC98 JUMP JUMPDEST ADD MLOAD PUSH1 0x0 NOT PUSH1 0xF8 DUP5 PUSH1 0x3 SHL AND SHR NOT AND SWAP1 SSTORE DUP12 DUP1 DUP1 PUSH2 0xCD2 JUMP JUMPDEST SWAP3 SWAP4 PUSH1 0x20 PUSH1 0x1 DUP2 SWAP3 DUP8 DUP7 ADD MLOAD DUP2 SSTORE ADD SWAP6 ADD SWAP4 ADD PUSH2 0xCBC JUMP JUMPDEST PUSH2 0xD3C SWAP1 DUP6 PUSH1 0x0 MSTORE PUSH1 0x20 PUSH1 0x0 KECCAK256 PUSH1 0x1F DUP6 ADD PUSH1 0x5 SHR DUP2 ADD SWAP2 PUSH1 0x20 DUP7 LT PUSH2 0x60C JUMPI PUSH1 0x1F ADD PUSH1 0x5 SHR ADD SWAP1 PUSH2 0x462E JUMP JUMPDEST DUP13 PUSH2 0xC6C JUMP JUMPDEST CALLVALUE PUSH2 0x277 JUMPI PUSH1 0x0 CALLDATASIZE PUSH1 0x3 NOT ADD SLT PUSH2 0x277 JUMPI PUSH1 0x20 PUSH1 0x5 SLOAD PUSH1 0x40 MLOAD SWAP1 DUP2 MSTORE RETURN JUMPDEST CALLVALUE PUSH2 0x277 JUMPI PUSH2 0xD6E CALLDATASIZE PUSH2 0x43CB JUMP JUMPDEST SWAP1 PUSH1 0x0 MSTORE PUSH1 0x10 PUSH1 0x20 MSTORE PUSH1 0x40 PUSH1 0x0 KECCAK256 DUP1 SLOAD DUP3 LT ISZERO PUSH2 0x277 JUMPI PUSH1 0x20 SWAP2 PUSH2 0xD91 SWAP2 PUSH2 0x4362 JUMP JUMPDEST SWAP1 SLOAD PUSH1 0x40 MLOAD SWAP2 PUSH1 0x3 SHL SHR DUP2 MSTORE RETURN JUMPDEST CALLVALUE PUSH2 0x277 JUMPI PUSH1 0x20 CALLDATASIZE PUSH1 0x3 NOT ADD SLT PUSH2 0x277 JUMPI PUSH1 0x4 CALLDATALOAD PUSH1 0x0 MSTORE PUSH1 0xC PUSH1 0x20 MSTORE PUSH1 0x40 PUSH1 0x0 KECCAK256 DUP1 SLOAD PUSH1 0x1 DUP3 ADD SLOAD SWAP2 PUSH1 0x1 PUSH1 0xA0 SHL PUSH1 0x1 SWAP1 SUB DUP1 PUSH1 0x2 DUP4 ADD SLOAD AND SWAP1 PUSH1 0x3 DUP4 ADD SLOAD AND SWAP2 PUSH1 0x4 DUP2 ADD PUSH2 0xDED SWAP1 PUSH2 0x4470 JUMP JUMPDEST SWAP3 PUSH2 0xDFA PUSH1 0x5 DUP4 ADD PUSH2 0x4470 JUMP JUMPDEST PUSH1 0x7 DUP4 ADD SLOAD PUSH1 0x8 DUP5 ADD SLOAD PUSH2 0xE10 PUSH1 0x9 DUP7 ADD PUSH2 0x4470 JUMP JUMPDEST SWAP3 PUSH1 0xA DUP7 ADD SLOAD PUSH1 0xFF AND SWAP8 PUSH1 0xB DUP8 ADD SLOAD SWAP6 PUSH1 0xC DUP9 ADD SLOAD SWAP8 PUSH1 0xD ADD SLOAD SWAP9 PUSH1 0x40 MLOAD SWAP13 DUP14 SWAP13 DUP14 MSTORE PUSH1 0x20 DUP14 ADD MSTORE PUSH1 0x40 DUP13 ADD MSTORE PUSH1 0x60 DUP12 ADD MSTORE PUSH2 0x1A0 DUP1 PUSH1 0x80 DUP13 ADD MSTORE DUP11 ADD PUSH2 0xE56 SWAP2 PUSH2 0x4404 JUMP JUMPDEST DUP10 DUP2 SUB PUSH1 0xA0 DUP12 ADD MSTORE PUSH2 0xE67 SWAP2 PUSH2 0x4404 JUMP JUMPDEST SWAP2 PUSH1 0xC0 DUP10 ADD MSTORE PUSH1 0xE0 DUP9 ADD MSTORE DUP7 DUP2 SUB PUSH2 0x100 DUP9 ADD MSTORE PUSH2 0xE84 SWAP2 PUSH2 0x4404 JUMP JUMPDEST SWAP4 PUSH2 0xE8E DUP2 PUSH2 0x45C0 JUMP JUMPDEST PUSH2 0x120 DUP7 ADD MSTORE PUSH2 0x140 DUP6 ADD MSTORE PUSH2 0x160 DUP5 ADD MSTORE PUSH2 0x180 DUP4 ADD MSTORE SUB SWAP1 RETURN JUMPDEST CALLVALUE PUSH2 0x277 JUMPI PUSH1 0x20 CALLDATASIZE PUSH1 0x3 NOT ADD SLT PUSH2 0x277 JUMPI PUSH1 0x1 PUSH1 0x1 PUSH1 0xA0 SHL SUB DUP1 PUSH2 0xECC PUSH2 0x434C JUMP JUMPDEST AND PUSH1 0x0 MSTORE PUSH1 0xB PUSH1 0x20 MSTORE PUSH1 0x40 PUSH1 0x0 KECCAK256 SWAP1 DUP2 SLOAD AND PUSH1 0x1 DUP3 ADD PUSH2 0xEEB SWAP1 PUSH2 0x4470 JUMP JUMPDEST SWAP2 PUSH2 0xEF8 PUSH1 0x2 DUP3 ADD PUSH2 0x4470 JUMP JUMPDEST PUSH2 0xF04 PUSH1 0x3 DUP4 ADD PUSH2 0x4470 JUMP JUMPDEST SWAP2 PUSH2 0xF11 PUSH1 0x4 DUP3 ADD PUSH2 0x4470 JUMP JUMPDEST PUSH2 0xF1D PUSH1 0x5 DUP4 ADD PUSH2 0x4470 JUMP JUMPDEST PUSH2 0xF29 PUSH1 0x6 DUP5 ADD PUSH2 0x4470 JUMP JUMPDEST PUSH2 0xF35 PUSH1 0x7 DUP6 ADD PUSH2 0x4470 JUMP JUMPDEST SWAP2 PUSH2 0xF42 PUSH1 0x8 DUP7 ADD PUSH2 0x4470 JUMP JUMPDEST SWAP4 PUSH1 0x9 DUP7 ADD SLOAD SWAP8 PUSH1 0xA DUP8 ADD SLOAD SWAP7 PUSH1 0xB ADD SLOAD SWAP8 PUSH1 0x40 MLOAD SWAP12 DUP13 SWAP12 DUP13 MSTORE DUP12 PUSH2 0x1A0 PUSH1 0x20 DUP2 SWAP3 ADD MSTORE DUP13 ADD PUSH2 0xF71 SWAP2 PUSH2 0x4404 JUMP JUMPDEST DUP12 DUP2 SUB PUSH1 0x40 DUP14 ADD MSTORE PUSH2 0xF82 SWAP2 PUSH2 0x4404 JUMP JUMPDEST DUP11 DUP2 SUB PUSH1 0x60 DUP13 ADD MSTORE PUSH2 0xF93 SWAP2 PUSH2 0x4404 JUMP JUMPDEST DUP10 DUP2 SUB PUSH1 0x80 DUP12 ADD MSTORE PUSH2 0xFA4 SWAP2 PUSH2 0x4404 JUMP JUMPDEST DUP9 DUP2 SUB PUSH1 0xA0 DUP11 ADD MSTORE PUSH2 0xFB5 SWAP2 PUSH2 0x4404 JUMP JUMPDEST DUP8 DUP2 SUB PUSH1 0xC0 DUP10 ADD MSTORE PUSH2 0xFC6 SWAP2 PUSH2 0x4404 JUMP JUMPDEST DUP7 DUP2 SUB PUSH1 0xE0 DUP9 ADD MSTORE PUSH2 0xFD7 SWAP2 PUSH2 0x4404 JUMP JUMPDEST DUP6 DUP2 SUB PUSH2 0x100 DUP8 ADD MSTORE PUSH2 0xFE9 SWAP2 PUSH2 0x4404 JUMP JUMPDEST SWAP3 PUSH2 0xFFB PUSH2 0x120 DUP7 ADD PUSH1 0xFF DUP4 AND PUSH2 0x4429 JUMP JUMPDEST PUSH1 0x8 SHR PUSH1 0xFF AND ISZERO ISZERO PUSH2 0x140 DUP6 ADD MSTORE PUSH2 0x160 DUP5 ADD MSTORE PUSH2 0x180 DUP4 ADD MSTORE SUB SWAP1 RETURN JUMPDEST CALLVALUE PUSH2 0x277 JUMPI PUSH1 0x0 CALLDATASIZE PUSH1 0x3 NOT ADD SLT PUSH2 0x277 JUMPI PUSH1 0x20 PUSH1 0xFF PUSH1 0x8 SLOAD PUSH1 0xA0 SHR AND PUSH1 0x40 MLOAD SWAP1 ISZERO ISZERO DUP2 MSTORE RETURN JUMPDEST CALLVALUE PUSH2 0x277 JUMPI PUSH1 0x20 CALLDATASIZE PUSH1 0x3 NOT ADD SLT PUSH2 0x277 JUMPI PUSH1 0x0 PUSH2 0x1A0 PUSH1 0x40 MLOAD PUSH2 0x1061 DUP2 PUSH2 0x4172 JUMP JUMPDEST DUP3 DUP2 MSTORE DUP3 PUSH1 0x20 DUP3 ADD MSTORE DUP3 PUSH1 0x40 DUP3 ADD MSTORE DUP3 PUSH1 0x60 DUP3 ADD MSTORE PUSH1 0x60 PUSH1 0x80 DUP3 ADD MSTORE PUSH1 0x60 PUSH1 0xA0 DUP3 ADD MSTORE PUSH1 0x60 PUSH1 0xC0 DUP3 ADD MSTORE DUP3 PUSH1 0xE0 DUP3 ADD MSTORE DUP3 PUSH2 0x100 DUP3 ADD MSTORE PUSH1 0x60 PUSH2 0x120 DUP3 ADD MSTORE DUP3 PUSH2 0x140 DUP3 ADD MSTORE DUP3 PUSH2 0x160 DUP3 ADD MSTORE DUP3 PUSH2 0x180 DUP3 ADD MSTORE ADD MSTORE PUSH1 0x4 CALLDATALOAD PUSH1 0x0 MSTORE PUSH1 0xC PUSH1 0x20 MSTORE PUSH1 0x40 PUSH1 0x0 KECCAK256 PUSH1 0x40 MLOAD PUSH2 0x10D3 DUP2 PUSH2 0x4172 JUMP JUMPDEST DUP2 SLOAD DUP2 MSTORE PUSH1 0x1 DUP3 ADD SLOAD PUSH1 0x20 DUP3 ADD MSTORE PUSH1 0x2 DUP3 ADD SLOAD PUSH1 0x1 PUSH1 0x1 PUSH1 0xA0 SHL SUB SWAP1 DUP2 AND PUSH1 0x40 DUP4 ADD MSTORE PUSH1 0x3 DUP4 ADD SLOAD AND PUSH1 0x60 DUP3 ADD MSTORE PUSH2 0x110D PUSH1 0x4 DUP4 ADD PUSH2 0x4470 JUMP JUMPDEST PUSH1 0x80 DUP3 ADD MSTORE PUSH2 0x111E PUSH1 0x5 DUP4 ADD PUSH2 0x4470 JUMP JUMPDEST PUSH1 0xA0 DUP3 ADD MSTORE PUSH1 0x6 DUP3 ADD SLOAD SWAP2 PUSH2 0x1132 DUP4 PUSH2 0x4257 JUMP JUMPDEST PUSH2 0x113F PUSH1 0x40 MLOAD SWAP2 DUP3 PUSH2 0x41E0 JUMP JUMPDEST DUP4 DUP2 MSTORE PUSH1 0x20 DUP2 ADD SWAP4 PUSH1 0x6 DUP4 ADD PUSH1 0x0 MSTORE PUSH1 0x20 PUSH1 0x0 KECCAK256 SWAP5 PUSH1 0x0 SWAP1 JUMPDEST DUP3 DUP3 LT PUSH2 0x1362 JUMPI DUP6 PUSH1 0xD DUP7 DUP7 PUSH1 0xC0 DUP5 ADD MSTORE PUSH1 0x7 DUP2 ADD SLOAD PUSH1 0xE0 DUP5 ADD MSTORE PUSH1 0x8 DUP2 ADD SLOAD PUSH2 0x100 DUP5 ADD MSTORE PUSH2 0x118A PUSH1 0x9 DUP3 ADD PUSH2 0x4470 JUMP JUMPDEST PUSH2 0x120 DUP5 ADD MSTORE PUSH1 0xFF PUSH1 0xA DUP3 ADD SLOAD AND PUSH2 0x11A1 DUP2 PUSH2 0x45C0 JUMP JUMPDEST PUSH2 0x140 DUP5 ADD MSTORE PUSH1 0xB DUP2 ADD SLOAD PUSH2 0x160 DUP5 ADD MSTORE PUSH1 0xC DUP2 ADD SLOAD PUSH2 0x180 DUP5 ADD MSTORE ADD SLOAD PUSH2 0x1A0 DUP3 ADD MSTORE PUSH1 0x40 MLOAD PUSH1 0x20 DUP2 MSTORE DUP2 MLOAD PUSH1 0x20 DUP3 ADD MSTORE PUSH1 0x20 DUP3 ADD MLOAD PUSH1 0x40 DUP3 ADD MSTORE PUSH1 0x1 DUP1 PUSH1 0xA0 SHL SUB PUSH1 0x40 DUP4 ADD MLOAD AND PUSH1 0x60 DUP3 ADD MSTORE PUSH1 0x1 DUP1 PUSH1 0xA0 SHL SUB PUSH1 0x60 DUP4 ADD MLOAD AND PUSH1 0x80 DUP3 ADD MSTORE PUSH2 0x1235 PUSH2 0x121F PUSH1 0x80 DUP5 ADD MLOAD PUSH2 0x1C0 PUSH1 0xA0 DUP6 ADD MSTORE PUSH2 0x1E0 DUP5 ADD SWAP1 PUSH2 0x4404 JUMP JUMPDEST PUSH1 0xA0 DUP5 ADD MLOAD DUP4 DUP3 SUB PUSH1 0x1F NOT ADD PUSH1 0xC0 DUP6 ADD MSTORE PUSH2 0x4404 JUMP JUMPDEST SWAP2 PUSH1 0xC0 DUP2 ADD MLOAD SWAP3 PUSH1 0x1F NOT DUP4 DUP3 SUB ADD PUSH1 0xE0 DUP5 ADD MSTORE DUP4 MLOAD DUP1 DUP3 MSTORE PUSH1 0x20 DUP3 ADD SWAP2 PUSH1 0x20 DUP1 DUP4 PUSH1 0x5 SHL DUP4 ADD ADD SWAP7 ADD SWAP3 PUSH1 0x0 SWAP2 JUMPDEST DUP4 DUP4 LT PUSH2 0x12DB JUMPI DUP7 DUP1 DUP8 PUSH2 0x1A0 PUSH2 0x12A3 DUP13 PUSH1 0xE0 DUP5 ADD MLOAD PUSH2 0x100 DUP7 ADD MSTORE PUSH2 0x100 DUP5 ADD MLOAD PUSH2 0x120 DUP7 ADD MSTORE PUSH2 0x120 DUP5 ADD MLOAD PUSH1 0x1F NOT DUP7 DUP4 SUB ADD PUSH2 0x140 DUP8 ADD MSTORE PUSH2 0x4404 JUMP JUMPDEST SWAP2 PUSH2 0x140 DUP2 ADD MLOAD PUSH2 0x12B3 DUP2 PUSH2 0x45C0 JUMP JUMPDEST PUSH2 0x160 DUP6 ADD MSTORE PUSH2 0x160 DUP2 ADD MLOAD PUSH2 0x180 DUP6 ADD MSTORE PUSH2 0x180 DUP2 ADD MLOAD DUP3 DUP6 ADD MSTORE ADD MLOAD PUSH2 0x1C0 DUP4 ADD MSTORE SUB SWAP1 RETURN JUMPDEST SWAP1 SWAP2 SWAP3 SWAP4 SWAP7 PUSH1 0x20 DUP1 PUSH1 0x1 SWAP3 PUSH1 0x1F NOT DUP6 DUP3 SUB ADD DUP7 MSTORE DUP11 MLOAD SWAP1 PUSH1 0xA0 DUP1 PUSH2 0x1344 PUSH2 0x131E PUSH2 0x130E DUP7 MLOAD PUSH1 0xC0 DUP8 MSTORE PUSH1 0xC0 DUP8 ADD SWAP1 PUSH2 0x4404 JUMP JUMPDEST DUP8 DUP8 ADD MLOAD DUP7 DUP3 SUB DUP10 DUP9 ADD MSTORE PUSH2 0x4404 JUMP JUMPDEST PUSH1 0x40 DUP7 ADD MLOAD PUSH1 0x40 DUP7 ADD MSTORE PUSH1 0x60 DUP7 ADD MLOAD PUSH1 0x60 DUP7 ADD MSTORE PUSH1 0x80 DUP7 ADD MLOAD DUP6 DUP3 SUB PUSH1 0x80 DUP8 ADD MSTORE PUSH2 0x456B JUMP JUMPDEST SWAP4 ADD MLOAD SWAP2 PUSH2 0x1351 DUP4 PUSH2 0x45C0 JUMP JUMPDEST ADD MSTORE SWAP10 ADD SWAP4 ADD SWAP4 ADD SWAP2 SWAP4 SWAP3 SWAP1 PUSH2 0x1263 JUMP JUMPDEST PUSH1 0x6 PUSH1 0x20 PUSH1 0x1 SWAP3 PUSH2 0x1372 DUP11 PUSH2 0x478D JUMP JUMPDEST DUP2 MSTORE ADD SWAP8 ADD SWAP2 ADD SWAP1 SWAP6 PUSH2 0x1158 JUMP JUMPDEST CALLVALUE PUSH2 0x277 JUMPI PUSH1 0x0 CALLDATASIZE PUSH1 0x3 NOT ADD SLT PUSH2 0x277 JUMPI PUSH1 0x0 SLOAD PUSH1 0x40 MLOAD PUSH1 0x1 PUSH1 0x1 PUSH1 0xA0 SHL SUB SWAP1 SWAP2 AND DUP2 MSTORE PUSH1 0x20 SWAP1 RETURN JUMPDEST CALLVALUE PUSH2 0x277 JUMPI PUSH1 0x0 CALLDATASIZE PUSH1 0x3 NOT ADD SLT PUSH2 0x277 JUMPI PUSH2 0x13C2 PUSH2 0x45CA JUMP JUMPDEST PUSH1 0x2 SLOAD PUSH1 0xFF DUP2 AND PUSH2 0x1404 JUMPI PUSH1 0x1 SWAP1 PUSH1 0xFF NOT AND OR PUSH1 0x2 SSTORE PUSH32 0x62E78CEA01BEE320CD4E420270B5EA74000D11B0C9F74754EBDBFC544B05A258 PUSH1 0x20 PUSH1 0x40 MLOAD CALLER DUP2 MSTORE LOG1 STOP JUMPDEST PUSH1 0x40 MLOAD PUSH3 0x461BCD PUSH1 0xE5 SHL DUP2 MSTORE PUSH1 0x20 PUSH1 0x4 DUP3 ADD MSTORE PUSH1 0x10 PUSH1 0x24 DUP3 ADD MSTORE PUSH16 0x14185D5CD8589B194E881C185D5CD959 PUSH1 0x82 SHL PUSH1 0x44 DUP3 ADD MSTORE PUSH1 0x64 SWAP1 REVERT JUMPDEST CALLVALUE PUSH2 0x277 JUMPI PUSH1 0x20 DUP1 PUSH1 0x3 NOT CALLDATASIZE ADD SLT PUSH2 0x277 JUMPI PUSH1 0x1 PUSH1 0x1 PUSH1 0xA0 SHL SUB PUSH2 0x145E PUSH2 0x434C JUMP JUMPDEST AND PUSH1 0x0 MSTORE PUSH1 0xF DUP2 MSTORE PUSH1 0x40 PUSH1 0x0 KECCAK256 SWAP1 PUSH1 0x40 MLOAD SWAP1 DUP2 DUP2 DUP5 SLOAD SWAP2 DUP3 DUP2 MSTORE ADD SWAP4 PUSH1 0x0 MSTORE DUP2 PUSH1 0x0 KECCAK256 SWAP2 PUSH1 0x0 SWAP1 JUMPDEST DUP3 DUP3 LT PUSH2 0x14AD JUMPI PUSH2 0x14A9 DUP6 PUSH2 0x149D DUP2 DUP10 SUB DUP3 PUSH2 0x41E0 JUMP JUMPDEST PUSH1 0x40 MLOAD SWAP2 DUP3 SWAP2 DUP3 PUSH2 0x4390 JUMP JUMPDEST SUB SWAP1 RETURN JUMPDEST DUP4 SLOAD DUP7 MSTORE SWAP5 DUP6 ADD SWAP5 PUSH1 0x1 SWAP4 DUP5 ADD SWAP4 SWAP1 SWAP2 ADD SWAP1 PUSH2 0x1486 JUMP JUMPDEST CALLVALUE PUSH2 0x277 JUMPI PUSH1 0x20 CALLDATASIZE PUSH1 0x3 NOT ADD SLT PUSH2 0x277 JUMPI PUSH2 0x14DD PUSH2 0x45CA JUMP JUMPDEST PUSH1 0x4 CALLDATALOAD PUSH1 0x3 SSTORE STOP JUMPDEST CALLVALUE PUSH2 0x277 JUMPI PUSH1 0x0 CALLDATASIZE PUSH1 0x3 NOT ADD SLT PUSH2 0x277 JUMPI PUSH2 0x14FE PUSH2 0x45CA JUMP JUMPDEST PUSH1 0x0 DUP1 SLOAD PUSH1 0x1 PUSH1 0x1 PUSH1 0xA0 SHL SUB NOT DUP2 AND DUP3 SSTORE PUSH1 0x1 PUSH1 0x1 PUSH1 0xA0 SHL SUB AND PUSH32 0x8BE0079C531659141344CD1FD0A4F28419497F9722A3DAAFE3B4186F6B6457E0 DUP3 DUP1 LOG3 STOP JUMPDEST CALLVALUE PUSH2 0x277 JUMPI PUSH1 0x20 CALLDATASIZE PUSH1 0x3 NOT ADD SLT PUSH2 0x277 JUMPI PUSH1 0x4 CALLDATALOAD PUSH1 0x0 MSTORE PUSH1 0xD PUSH1 0x20 MSTORE PUSH1 0x40 PUSH1 0x0 KECCAK256 DUP1 SLOAD PUSH1 0x1 DUP3 ADD SLOAD SWAP2 PUSH1 0x1 DUP1 PUSH1 0xA0 SHL SUB SWAP3 DUP4 PUSH1 0x2 DUP4 ADD SLOAD AND SWAP4 PUSH1 0x3 DUP4 ADD SLOAD AND SWAP2 PUSH2 0x158A PUSH1 0x4 DUP3 ADD PUSH2 0x4470 JUMP JUMPDEST PUSH1 0x5 DUP3 ADD SLOAD PUSH1 0x6 DUP4 ADD SLOAD PUSH1 0x40 MLOAD SWAP8 SWAP3 SWAP1 PUSH1 0x7 DUP6 ADD PUSH2 0x15A7 DUP11 PUSH2 0x41AA JUMP JUMPDEST DUP1 SLOAD PUSH2 0x15B2 DUP2 PUSH2 0x4257 JUMP JUMPDEST SWAP2 PUSH2 0x15C0 PUSH1 0x40 MLOAD SWAP4 DUP5 PUSH2 0x41E0 JUMP JUMPDEST DUP2 DUP4 MSTORE PUSH1 0x20 DUP4 ADD SWAP1 PUSH1 0x0 MSTORE PUSH1 0x20 PUSH1 0x0 KECCAK256 PUSH1 0x0 SWAP2 JUMPDEST DUP4 DUP4 LT PUSH2 0x175A JUMPI POP POP POP POP DUP10 MSTORE PUSH2 0x15ED PUSH1 0x8 DUP7 ADD PUSH2 0x4516 JUMP JUMPDEST PUSH1 0x20 DUP11 ADD MSTORE PUSH2 0x15FE PUSH1 0x9 DUP7 ADD PUSH2 0x4470 JUMP JUMPDEST PUSH1 0x40 DUP11 ADD MSTORE PUSH2 0x160F PUSH1 0xA DUP7 ADD PUSH2 0x4470 JUMP JUMPDEST PUSH1 0x60 DUP11 ADD MSTORE PUSH1 0xFF PUSH1 0xB DUP7 ADD SLOAD AND SWAP7 PUSH1 0xC DUP7 ADD SLOAD SWAP5 PUSH1 0xE PUSH1 0xD DUP9 ADD SLOAD SWAP8 ADD SLOAD SWAP8 PUSH1 0x40 MLOAD SWAP11 DUP12 MSTORE PUSH1 0x20 DUP12 ADD MSTORE PUSH1 0x40 DUP11 ADD MSTORE PUSH1 0x60 DUP10 ADD MSTORE PUSH2 0x165A PUSH2 0x180 SWAP3 PUSH1 0x80 SWAP4 DUP1 DUP6 DUP13 ADD MSTORE DUP11 ADD SWAP1 PUSH2 0x4404 JUMP JUMPDEST SWAP3 PUSH1 0xA0 DUP10 ADD MSTORE PUSH1 0xC0 DUP9 ADD MSTORE DUP7 DUP3 SUB PUSH1 0xE0 DUP9 ADD MSTORE DUP1 DUP3 ADD SWAP1 DUP9 MLOAD SWAP2 DUP2 DUP5 MSTORE DUP3 MLOAD DUP1 SWAP2 MSTORE PUSH1 0xA0 DUP5 ADD SWAP2 PUSH1 0x20 PUSH1 0xA0 DUP4 PUSH1 0x5 SHL DUP8 ADD ADD SWAP5 ADD SWAP3 PUSH1 0x0 SWAP2 JUMPDEST DUP4 DUP4 LT PUSH2 0x1709 JUMPI POP POP POP POP POP SWAP7 PUSH2 0x16E3 SWAP2 PUSH1 0x60 PUSH2 0x16D2 PUSH2 0x16C0 DUP11 SWAP12 PUSH1 0x20 DUP7 ADD MLOAD DUP6 DUP3 SUB PUSH1 0x20 DUP8 ADD MSTORE PUSH2 0x456B JUMP JUMPDEST PUSH1 0x40 DUP6 ADD MLOAD DUP5 DUP3 SUB PUSH1 0x40 DUP7 ADD MSTORE PUSH2 0x4404 JUMP JUMPDEST SWAP3 ADD MLOAD SWAP1 PUSH1 0x60 DUP2 DUP5 SUB SWAP2 ADD MSTORE PUSH2 0x4404 JUMP JUMPDEST SWAP4 PUSH2 0x16ED DUP2 PUSH2 0x45C0 JUMP JUMPDEST PUSH2 0x100 DUP7 ADD MSTORE PUSH2 0x120 DUP6 ADD MSTORE PUSH2 0x140 DUP5 ADD MSTORE PUSH2 0x160 DUP4 ADD MSTORE SUB SWAP1 RETURN JUMPDEST SWAP1 SWAP2 SWAP3 SWAP4 SWAP5 PUSH1 0x20 DUP1 PUSH2 0x174B PUSH1 0x1 SWAP4 PUSH1 0x9F NOT DUP12 DUP3 SUB ADD DUP8 MSTORE DUP6 PUSH1 0x60 DUP12 MLOAD DUP1 MLOAD DUP5 MSTORE DUP6 DUP2 ADD MLOAD DUP7 DUP6 ADD MSTORE PUSH1 0x40 DUP2 ADD MLOAD PUSH1 0x40 DUP6 ADD MSTORE ADD MLOAD SWAP2 DUP2 PUSH1 0x60 DUP3 ADD MSTORE ADD SWAP1 PUSH2 0x456B JUMP JUMPDEST SWAP8 ADD SWAP4 ADD SWAP4 ADD SWAP2 SWAP4 SWAP3 SWAP1 PUSH2 0x1693 JUMP JUMPDEST PUSH1 0x4 PUSH1 0x20 PUSH1 0x1 SWAP3 PUSH1 0x40 MLOAD PUSH2 0x176D DUP2 PUSH2 0x41AA JUMP JUMPDEST DUP6 SLOAD DUP2 MSTORE DUP5 DUP7 ADD SLOAD DUP4 DUP3 ADD MSTORE PUSH1 0x2 DUP7 ADD SLOAD PUSH1 0x40 DUP3 ADD MSTORE PUSH2 0x178F PUSH1 0x3 DUP8 ADD PUSH2 0x4516 JUMP JUMPDEST PUSH1 0x60 DUP3 ADD MSTORE DUP2 MSTORE ADD SWAP3 ADD SWAP3 ADD SWAP2 SWAP1 PUSH2 0x15D4 JUMP JUMPDEST CALLVALUE PUSH2 0x277 JUMPI PUSH1 0x20 CALLDATASIZE PUSH1 0x3 NOT ADD SLT PUSH2 0x277 JUMPI PUSH2 0x17BB PUSH2 0x434C JUMP JUMPDEST PUSH1 0x0 PUSH2 0x180 PUSH1 0x40 MLOAD PUSH2 0x17CC DUP2 PUSH2 0x418E JUMP JUMPDEST DUP3 DUP2 MSTORE PUSH1 0x60 PUSH1 0x20 DUP3 ADD MSTORE PUSH1 0x60 PUSH1 0x40 DUP3 ADD MSTORE PUSH1 0x60 DUP1 DUP3 ADD MSTORE PUSH1 0x60 PUSH1 0x80 DUP3 ADD MSTORE PUSH1 0x60 PUSH1 0xA0 DUP3 ADD MSTORE PUSH1 0x60 PUSH1 0xC0 DUP3 ADD MSTORE PUSH1 0x60 PUSH1 0xE0 DUP3 ADD MSTORE PUSH1 0x60 PUSH2 0x100 DUP3 ADD MSTORE DUP3 PUSH2 0x120 DUP3 ADD MSTORE DUP3 PUSH2 0x140 DUP3 ADD MSTORE DUP3 PUSH2 0x160 DUP3 ADD MSTORE ADD MSTORE PUSH1 0x1 DUP1 PUSH1 0xA0 SHL SUB AND PUSH1 0x0 MSTORE PUSH1 0xB PUSH1 0x20 MSTORE PUSH1 0x40 PUSH1 0x0 KECCAK256 PUSH1 0xB PUSH1 0x40 MLOAD SWAP2 PUSH2 0x1842 DUP4 PUSH2 0x418E JUMP JUMPDEST DUP1 SLOAD PUSH1 0x1 PUSH1 0x1 PUSH1 0xA0 SHL SUB AND DUP4 MSTORE PUSH2 0x185B PUSH1 0x1 DUP3 ADD PUSH2 0x4470 JUMP JUMPDEST PUSH1 0x20 DUP5 ADD MSTORE PUSH2 0x186C PUSH1 0x2 DUP3 ADD PUSH2 0x4470 JUMP JUMPDEST PUSH1 0x40 DUP5 ADD MSTORE PUSH2 0x187D PUSH1 0x3 DUP3 ADD PUSH2 0x4470 JUMP JUMPDEST PUSH1 0x60 DUP5 ADD MSTORE PUSH2 0x188E PUSH1 0x4 DUP3 ADD PUSH2 0x4470 JUMP JUMPDEST PUSH1 0x80 DUP5 ADD MSTORE PUSH2 0x189F PUSH1 0x5 DUP3 ADD PUSH2 0x4470 JUMP JUMPDEST PUSH1 0xA0 DUP5 ADD MSTORE PUSH2 0x18B0 PUSH1 0x6 DUP3 ADD PUSH2 0x4470 JUMP JUMPDEST PUSH1 0xC0 DUP5 ADD MSTORE PUSH2 0x18C1 PUSH1 0x7 DUP3 ADD PUSH2 0x4470 JUMP JUMPDEST PUSH1 0xE0 DUP5 ADD MSTORE PUSH2 0x18D2 PUSH1 0x8 DUP3 ADD PUSH2 0x4470 JUMP JUMPDEST PUSH2 0x100 DUP5 ADD MSTORE PUSH1 0xFF PUSH1 0x9 DUP3 ADD SLOAD PUSH2 0x18EF DUP3 DUP3 AND PUSH2 0x120 DUP8 ADD PUSH2 0x4622 JUMP JUMPDEST PUSH1 0x8 SHR AND ISZERO ISZERO PUSH2 0x140 DUP5 ADD MSTORE PUSH1 0xA DUP2 ADD SLOAD PUSH2 0x160 DUP5 ADD MSTORE ADD SLOAD PUSH2 0x180 DUP3 ADD MSTORE PUSH1 0x40 MLOAD DUP1 SWAP2 PUSH1 0x20 DUP3 MSTORE PUSH1 0x1 DUP1 PUSH1 0xA0 SHL SUB DUP2 MLOAD AND PUSH1 0x20 DUP4 ADD MSTORE PUSH2 0x180 PUSH2 0x19EF PUSH2 0x1947 PUSH1 0x20 DUP5 ADD MLOAD PUSH2 0x1A0 PUSH1 0x40 DUP8 ADD MSTORE PUSH2 0x1C0 DUP7 ADD SWAP1 PUSH2 0x4404 JUMP JUMPDEST PUSH2 0x19D8 PUSH2 0x19C3 PUSH2 0x19AF PUSH2 0x199B PUSH2 0x1987 PUSH2 0x1973 PUSH1 0x40 DUP11 ADD MLOAD SWAP7 PUSH1 0x1F NOT SWAP8 DUP13 PUSH1 0x60 DUP11 DUP3 DUP6 SUB ADD SWAP2 ADD MSTORE PUSH2 0x4404 JUMP JUMPDEST PUSH1 0x60 DUP11 ADD MLOAD DUP8 DUP13 DUP4 SUB ADD PUSH1 0x80 DUP14 ADD MSTORE PUSH2 0x4404 JUMP JUMPDEST PUSH1 0x80 DUP10 ADD MLOAD DUP7 DUP12 DUP4 SUB ADD PUSH1 0xA0 DUP13 ADD MSTORE PUSH2 0x4404 JUMP JUMPDEST PUSH1 0xA0 DUP9 ADD MLOAD DUP6 DUP11 DUP4 SUB ADD PUSH1 0xC0 DUP12 ADD MSTORE PUSH2 0x4404 JUMP JUMPDEST PUSH1 0xC0 DUP8 ADD MLOAD DUP5 DUP10 DUP4 SUB ADD PUSH1 0xE0 DUP11 ADD MSTORE PUSH2 0x4404 JUMP JUMPDEST PUSH1 0xE0 DUP7 ADD MLOAD DUP4 DUP9 DUP4 SUB ADD PUSH2 0x100 DUP10 ADD MSTORE PUSH2 0x4404 JUMP JUMPDEST SWAP1 PUSH2 0x100 DUP6 ADD MLOAD SWAP1 DUP7 DUP4 SUB ADD PUSH2 0x120 DUP8 ADD MSTORE PUSH2 0x4404 JUMP JUMPDEST SWAP2 PUSH2 0x1A04 PUSH2 0x120 DUP3 ADD MLOAD PUSH2 0x140 DUP7 ADD SWAP1 PUSH2 0x4429 JUMP JUMPDEST PUSH2 0x140 DUP2 ADD MLOAD ISZERO ISZERO PUSH2 0x160 DUP6 ADD MSTORE PUSH2 0x160 DUP2 ADD MLOAD DUP3 DUP6 ADD MSTORE ADD MLOAD PUSH2 0x1A0 DUP4 ADD MSTORE SUB SWAP1 RETURN JUMPDEST CALLVALUE PUSH2 0x277 JUMPI PUSH1 0x20 CALLDATASIZE PUSH1 0x3 NOT ADD SLT PUSH2 0x277 JUMPI PUSH2 0x1A41 PUSH2 0x434C JUMP JUMPDEST PUSH2 0x1A49 PUSH2 0x45CA JUMP JUMPDEST PUSH1 0x1 PUSH1 0x1 PUSH1 0xA0 SHL SUB DUP2 AND ISZERO PUSH2 0x1A7F JUMPI PUSH1 0x2 DUP1 SLOAD PUSH2 0x100 PUSH1 0x1 PUSH1 0xA8 SHL SUB NOT AND PUSH1 0x8 SWAP3 SWAP1 SWAP3 SHL PUSH2 0x100 PUSH1 0x1 PUSH1 0xA8 SHL SUB AND SWAP2 SWAP1 SWAP2 OR SWAP1 SSTORE STOP JUMPDEST PUSH1 0x40 MLOAD PUSH3 0x461BCD PUSH1 0xE5 SHL DUP2 MSTORE PUSH1 0x20 PUSH1 0x4 DUP3 ADD MSTORE PUSH1 0xF PUSH1 0x24 DUP3 ADD MSTORE PUSH15 0x496E76616C69642061646472657373 PUSH1 0x88 SHL PUSH1 0x44 DUP3 ADD MSTORE PUSH1 0x64 SWAP1 REVERT JUMPDEST CALLVALUE PUSH2 0x277 JUMPI PUSH2 0x1AC4 CALLDATASIZE PUSH2 0x43CB JUMP JUMPDEST SWAP1 PUSH2 0x1ACD PUSH2 0x45CA JUMP JUMPDEST DUP2 DUP2 ADD DUP1 DUP3 GT PUSH2 0x1B38 JUMPI PUSH2 0x2710 LT PUSH2 0x1AE7 JUMPI PUSH1 0x6 SSTORE PUSH1 0x7 SSTORE STOP JUMPDEST PUSH1 0x40 MLOAD PUSH3 0x461BCD PUSH1 0xE5 SHL DUP2 MSTORE PUSH1 0x20 PUSH1 0x4 DUP3 ADD MSTORE PUSH1 0x23 PUSH1 0x24 DUP3 ADD MSTORE PUSH32 0x546F74616C2070657263656E746167652063616E6E6F74206578636565642031 PUSH1 0x44 DUP3 ADD MSTORE PUSH3 0x303025 PUSH1 0xE8 SHL PUSH1 0x64 DUP3 ADD MSTORE PUSH1 0x84 SWAP1 REVERT JUMPDEST PUSH4 0x4E487B71 PUSH1 0xE0 SHL PUSH1 0x0 MSTORE PUSH1 0x11 PUSH1 0x4 MSTORE PUSH1 0x24 PUSH1 0x0 REVERT JUMPDEST CALLVALUE PUSH2 0x277 JUMPI PUSH1 0x20 CALLDATASIZE PUSH1 0x3 NOT ADD SLT PUSH2 0x277 JUMPI PUSH2 0x1B67 PUSH2 0x434C JUMP JUMPDEST PUSH2 0x1B6F PUSH2 0x45CA JUMP JUMPDEST PUSH1 0x1 PUSH1 0x1 PUSH1 0xA0 SHL SUB AND DUP1 ISZERO PUSH2 0x1B96 JUMPI PUSH1 0x1 PUSH1 0x1 PUSH1 0x60 SHL SUB PUSH1 0xA0 SHL PUSH1 0x8 SLOAD AND OR PUSH1 0x8 SSTORE PUSH1 0x0 DUP1 RETURN JUMPDEST PUSH1 0x40 MLOAD PUSH3 0x461BCD PUSH1 0xE5 SHL DUP2 MSTORE PUSH1 0x20 PUSH1 0x4 DUP3 ADD MSTORE PUSH1 0x14 PUSH1 0x24 DUP3 ADD MSTORE PUSH20 0x496E76616C696420555344432061646472657373 PUSH1 0x60 SHL PUSH1 0x44 DUP3 ADD MSTORE PUSH1 0x64 SWAP1 REVERT JUMPDEST CALLVALUE PUSH2 0x277 JUMPI PUSH1 0x0 CALLDATASIZE PUSH1 0x3 NOT ADD SLT PUSH2 0x277 JUMPI PUSH1 0x20 PUSH1 0xFF PUSH1 0x2 SLOAD AND PUSH1 0x40 MLOAD SWAP1 ISZERO ISZERO DUP2 MSTORE RETURN JUMPDEST CALLVALUE PUSH2 0x277 JUMPI PUSH1 0x0 CALLDATASIZE PUSH1 0x3 NOT ADD SLT PUSH2 0x277 JUMPI PUSH1 0x20 PUSH1 0xA SLOAD PUSH1 0x40 MLOAD SWAP1 DUP2 MSTORE RETURN JUMPDEST CALLVALUE PUSH2 0x277 JUMPI PUSH1 0x0 CALLDATASIZE PUSH1 0x3 NOT ADD SLT PUSH2 0x277 JUMPI PUSH1 0x20 PUSH1 0x6 SLOAD PUSH1 0x40 MLOAD SWAP1 DUP2 MSTORE RETURN JUMPDEST CALLVALUE PUSH2 0x277 JUMPI PUSH1 0x40 CALLDATASIZE PUSH1 0x3 NOT ADD SLT PUSH2 0x277 JUMPI PUSH1 0x4 CALLDATALOAD PUSH1 0x24 CALLDATALOAD PUSH1 0x4 DUP2 LT ISZERO PUSH2 0x277 JUMPI DUP2 PUSH1 0x0 MSTORE PUSH1 0x20 PUSH1 0xC DUP2 MSTORE PUSH1 0x40 PUSH1 0x0 KECCAK256 SLOAD ISZERO DUP1 ISZERO SWAP1 PUSH2 0x1E81 JUMPI JUMPDEST ISZERO PUSH2 0x1E3D JUMPI PUSH1 0x0 DUP4 DUP2 MSTORE PUSH1 0xC DUP3 MSTORE PUSH1 0x40 SWAP1 KECCAK256 PUSH1 0x3 DUP2 ADD SLOAD CALLER PUSH1 0x1 PUSH1 0x1 PUSH1 0xA0 SHL SUB SWAP2 DUP3 AND EQ DUP1 ISZERO SWAP2 SWAP1 DUP3 PUSH2 0x1E2E JUMPI JUMPDEST ISZERO PUSH2 0x1DF8 JUMPI PUSH2 0x1CA6 DUP6 PUSH2 0x45C0 JUMP JUMPDEST PUSH1 0x1 DUP6 EQ DUP1 ISZERO PUSH2 0x1DE5 JUMPI JUMPDEST ISZERO PUSH2 0x1D4E JUMPI POP PUSH2 0x1D0B JUMPI SWAP2 PUSH1 0x40 SWAP2 PUSH32 0x98D45ECB02499D1831C49939269A333E209445C33D08F99D082E7BDBE0693B51 SWAP4 JUMPDEST PUSH2 0x1CEF DUP4 PUSH1 0xA DUP4 ADD PUSH2 0x47F4 JUMP JUMPDEST PUSH1 0xD TIMESTAMP SWAP2 ADD SSTORE DUP3 MLOAD SWAP2 PUSH2 0x1D01 DUP2 PUSH2 0x45C0 JUMP JUMPDEST DUP3 MSTORE TIMESTAMP SWAP1 DUP3 ADD MSTORE LOG2 STOP JUMPDEST PUSH1 0x64 DUP3 PUSH1 0x40 MLOAD SWAP1 PUSH3 0x461BCD PUSH1 0xE5 SHL DUP3 MSTORE DUP1 PUSH1 0x4 DUP4 ADD MSTORE PUSH1 0x24 DUP3 ADD MSTORE PUSH32 0x4F6E6C7920696E6E6F7661746F722063616E206163636570742F72656A656374 PUSH1 0x44 DUP3 ADD MSTORE REVERT JUMPDEST SWAP1 POP PUSH2 0x1D59 DUP5 PUSH2 0x45C0 JUMP JUMPDEST PUSH1 0x3 DUP5 EQ PUSH2 0x1D8E JUMPI JUMPDEST POP SWAP2 PUSH1 0x40 SWAP2 PUSH32 0x98D45ECB02499D1831C49939269A333E209445C33D08F99D082E7BDBE0693B51 SWAP4 PUSH2 0x1CE2 JUMP JUMPDEST PUSH1 0x2 DUP3 ADD SLOAD AND CALLER SUB PUSH2 0x1DA0 JUMPI DUP5 PUSH2 0x1D62 JUMP JUMPDEST PUSH1 0x40 MLOAD PUSH3 0x461BCD PUSH1 0xE5 SHL DUP2 MSTORE PUSH1 0x4 DUP2 ADD DUP4 SWAP1 MSTORE PUSH1 0x1A PUSH1 0x24 DUP3 ADD MSTORE PUSH32 0x4F6E6C79206578656375746F722063616E207769746864726177000000000000 PUSH1 0x44 DUP3 ADD MSTORE PUSH1 0x64 SWAP1 REVERT JUMPDEST POP PUSH2 0x1DEF DUP6 PUSH2 0x45C0 JUMP JUMPDEST PUSH1 0x2 DUP6 EQ PUSH2 0x1CB1 JUMP JUMPDEST PUSH1 0x40 MLOAD PUSH3 0x461BCD PUSH1 0xE5 SHL DUP2 MSTORE PUSH1 0x4 DUP2 ADD DUP6 SWAP1 MSTORE PUSH1 0xE PUSH1 0x24 DUP3 ADD MSTORE PUSH14 0x139BDD08185D5D1A1BDC9A5E9959 PUSH1 0x92 SHL PUSH1 0x44 DUP3 ADD MSTORE PUSH1 0x64 SWAP1 REVERT JUMPDEST POP DUP1 PUSH1 0x2 DUP5 ADD SLOAD AND CALLER EQ PUSH2 0x1C98 JUMP JUMPDEST PUSH1 0x64 SWAP1 PUSH1 0x40 MLOAD SWAP1 PUSH3 0x461BCD PUSH1 0xE5 SHL DUP3 MSTORE PUSH1 0x4 DUP3 ADD MSTORE PUSH1 0x17 PUSH1 0x24 DUP3 ADD MSTORE PUSH32 0x50726F706F73616C20646F6573206E6F74206578697374000000000000000000 PUSH1 0x44 DUP3 ADD MSTORE REVERT JUMPDEST POP PUSH1 0xD DUP2 MSTORE PUSH1 0x40 PUSH1 0x0 KECCAK256 SLOAD ISZERO ISZERO PUSH2 0x1C6A JUMP JUMPDEST CALLVALUE PUSH2 0x277 JUMPI PUSH1 0x0 CALLDATASIZE PUSH1 0x3 NOT ADD SLT PUSH2 0x277 JUMPI PUSH2 0x1EAC PUSH2 0x45CA JUMP JUMPDEST PUSH1 0x8 SLOAD PUSH1 0x1 PUSH1 0x1 PUSH1 0xA0 SHL SUB SWAP1 DUP2 AND PUSH2 0x1EC5 DUP2 ISZERO ISZERO PUSH2 0x4687 JUMP JUMPDEST PUSH1 0x40 MLOAD PUSH4 0x70A08231 PUSH1 0xE0 SHL DUP2 MSTORE ADDRESS PUSH1 0x4 DUP3 ADD MSTORE PUSH1 0x20 SWAP3 DUP4 DUP3 PUSH1 0x24 DUP2 DUP7 GAS STATICCALL SWAP2 DUP3 ISZERO PUSH2 0x1F56 JUMPI PUSH1 0x0 SWAP3 PUSH2 0x1F9D JUMPI JUMPDEST POP DUP2 ISZERO PUSH2 0x1F62 JUMPI SWAP1 PUSH1 0x44 DUP5 SWAP3 PUSH1 0x0 SLOAD AND PUSH1 0x0 PUSH1 0x40 MLOAD SWAP6 DUP7 SWAP5 DUP6 SWAP4 PUSH4 0xA9059CBB PUSH1 0xE0 SHL DUP6 MSTORE PUSH1 0x4 DUP6 ADD MSTORE PUSH1 0x24 DUP5 ADD MSTORE GAS CALL DUP1 ISZERO PUSH2 0x1F56 JUMPI PUSH2 0x1F2E JUMPI STOP JUMPDEST DUP2 PUSH2 0x1F4D SWAP3 SWAP1 RETURNDATASIZE LT PUSH2 0x1F4F JUMPI JUMPDEST PUSH2 0x1F45 DUP2 DUP4 PUSH2 0x41E0 JUMP JUMPDEST DUP2 ADD SWAP1 PUSH2 0x4841 JUMP JUMPDEST STOP JUMPDEST POP RETURNDATASIZE PUSH2 0x1F3B JUMP JUMPDEST PUSH1 0x40 MLOAD RETURNDATASIZE PUSH1 0x0 DUP3 RETURNDATACOPY RETURNDATASIZE SWAP1 REVERT JUMPDEST PUSH1 0x40 MLOAD PUSH3 0x461BCD PUSH1 0xE5 SHL DUP2 MSTORE PUSH1 0x4 DUP2 ADD DUP6 SWAP1 MSTORE PUSH1 0x13 PUSH1 0x24 DUP3 ADD MSTORE PUSH19 0x4E6F206665657320746F207769746864726177 PUSH1 0x68 SHL PUSH1 0x44 DUP3 ADD MSTORE PUSH1 0x64 SWAP1 REVERT JUMPDEST SWAP1 SWAP2 POP DUP4 DUP2 DUP2 RETURNDATASIZE DUP4 GT PUSH2 0x1FC5 JUMPI JUMPDEST PUSH2 0x1FB5 DUP2 DUP4 PUSH2 0x41E0 JUMP JUMPDEST DUP2 ADD SUB SLT PUSH2 0x277 JUMPI MLOAD SWAP1 DUP5 PUSH2 0x1EF2 JUMP JUMPDEST POP RETURNDATASIZE PUSH2 0x1FAB JUMP JUMPDEST CALLVALUE PUSH2 0x277 JUMPI PUSH1 0x0 CALLDATASIZE PUSH1 0x3 NOT ADD SLT PUSH2 0x277 JUMPI PUSH2 0x1FE5 PUSH2 0x45CA JUMP JUMPDEST PUSH1 0x2 SLOAD PUSH1 0xFF DUP2 AND ISZERO PUSH2 0x2024 JUMPI PUSH1 0xFF NOT AND PUSH1 0x2 SSTORE PUSH32 0x5DB9EE0A495BF2E6FF9C91A7834C1BA4FDD244A5E8AA4E537BD38AEAE4B073AA PUSH1 0x20 PUSH1 0x40 MLOAD CALLER DUP2 MSTORE LOG1 STOP JUMPDEST PUSH1 0x40 MLOAD PUSH3 0x461BCD PUSH1 0xE5 SHL DUP2 MSTORE PUSH1 0x20 PUSH1 0x4 DUP3 ADD MSTORE PUSH1 0x14 PUSH1 0x24 DUP3 ADD MSTORE PUSH20 0x14185D5CD8589B194E881B9BDD081C185D5CD959 PUSH1 0x62 SHL PUSH1 0x44 DUP3 ADD MSTORE PUSH1 0x64 SWAP1 REVERT JUMPDEST CALLVALUE PUSH2 0x277 JUMPI PUSH1 0x0 CALLDATASIZE PUSH1 0x3 NOT ADD SLT PUSH2 0x277 JUMPI PUSH1 0x2 SLOAD PUSH1 0x40 MLOAD PUSH1 0x8 SWAP2 SWAP1 SWAP2 SHR PUSH1 0x1 PUSH1 0x1 PUSH1 0xA0 SHL SUB AND DUP2 MSTORE PUSH1 0x20 SWAP1 RETURN JUMPDEST CALLVALUE PUSH2 0x277 JUMPI PUSH2 0x120 CALLDATASIZE PUSH1 0x3 NOT ADD SLT PUSH2 0x277 JUMPI PUSH1 0x4 CALLDATALOAD PUSH1 0x1 PUSH1 0x1 PUSH1 0x40 SHL SUB DUP2 GT PUSH2 0x277 JUMPI PUSH2 0x20BE SWAP1 CALLDATASIZE SWAP1 PUSH1 0x4 ADD PUSH2 0x4201 JUMP JUMPDEST PUSH1 0x24 CALLDATALOAD PUSH1 0x1 PUSH1 0x1 PUSH1 0x40 SHL SUB DUP2 GT PUSH2 0x277 JUMPI PUSH2 0x20DD SWAP1 CALLDATASIZE SWAP1 PUSH1 0x4 ADD PUSH2 0x4201 JUMP JUMPDEST PUSH1 0x44 CALLDATALOAD PUSH1 0x1 PUSH1 0x1 PUSH1 0x40 SHL SUB DUP2 GT PUSH2 0x277 JUMPI PUSH2 0x20FC SWAP1 CALLDATASIZE SWAP1 PUSH1 0x4 ADD PUSH2 0x4201 JUMP JUMPDEST PUSH1 0x64 CALLDATALOAD PUSH1 0x1 PUSH1 0x1 PUSH1 0x40 SHL SUB DUP2 GT PUSH2 0x277 JUMPI PUSH2 0x211B SWAP1 CALLDATASIZE SWAP1 PUSH1 0x4 ADD PUSH2 0x4201 JUMP JUMPDEST PUSH1 0x84 CALLDATALOAD PUSH1 0x1 PUSH1 0x1 PUSH1 0x40 SHL SUB DUP2 GT PUSH2 0x277 JUMPI PUSH2 0x213A SWAP1 CALLDATASIZE SWAP1 PUSH1 0x4 ADD PUSH2 0x4201 JUMP JUMPDEST PUSH1 0xA4 CALLDATALOAD PUSH1 0x1 PUSH1 0x1 PUSH1 0x40 SHL SUB DUP2 GT PUSH2 0x277 JUMPI PUSH2 0x2159 SWAP1 CALLDATASIZE SWAP1 PUSH1 0x4 ADD PUSH2 0x4201 JUMP JUMPDEST SWAP2 PUSH1 0xC4 CALLDATALOAD PUSH1 0x1 PUSH1 0x1 PUSH1 0x40 SHL SUB DUP2 GT PUSH2 0x277 JUMPI PUSH2 0x2179 SWAP1 CALLDATASIZE SWAP1 PUSH1 0x4 ADD PUSH2 0x4201 JUMP JUMPDEST SWAP4 PUSH1 0xE4 CALLDATALOAD PUSH1 0x1 PUSH1 0x1 PUSH1 0x40 SHL SUB DUP2 GT PUSH2 0x277 JUMPI PUSH2 0x2199 SWAP1 CALLDATASIZE SWAP1 PUSH1 0x4 ADD PUSH2 0x4201 JUMP JUMPDEST SWAP6 PUSH1 0x3 PUSH2 0x104 CALLDATALOAD LT ISZERO PUSH2 0x277 JUMPI DUP8 MLOAD ISZERO PUSH2 0x2BCD JUMPI PUSH1 0x2 PUSH2 0x104 CALLDATALOAD GT PUSH2 0x2B99 JUMPI CALLER PUSH1 0x0 MSTORE PUSH1 0xB PUSH1 0x20 MSTORE PUSH1 0xFF PUSH1 0x9 PUSH1 0x40 PUSH1 0x0 KECCAK256 ADD SLOAD PUSH1 0x8 SHR AND PUSH2 0x2B54 JUMPI PUSH1 0x40 MLOAD SWAP8 PUSH2 0x21E1 DUP10 PUSH2 0x418E JUMP JUMPDEST CALLER DUP10 MSTORE PUSH1 0x20 DUP10 ADD MSTORE PUSH1 0x40 DUP9 ADD MSTORE PUSH1 0x60 DUP8 ADD MSTORE PUSH1 0x80 DUP7 ADD MSTORE PUSH1 0xA0 DUP6 ADD MSTORE PUSH1 0xC0 DUP5 ADD MSTORE PUSH1 0xE0 DUP4 ADD MSTORE PUSH2 0x100 DUP3 ADD MSTORE PUSH2 0x221E PUSH2 0x104 CALLDATALOAD PUSH2 0x120 DUP4 ADD PUSH2 0x4622 JUMP JUMPDEST PUSH1 0x1 PUSH2 0x140 DUP3 ADD MSTORE TIMESTAMP PUSH2 0x160 DUP3 ADD MSTORE TIMESTAMP PUSH2 0x180 DUP3 ADD MSTORE CALLER PUSH1 0x0 MSTORE PUSH1 0xB PUSH1 0x20 MSTORE PUSH1 0x40 PUSH1 0x0 KECCAK256 SWAP1 PUSH1 0x1 DUP1 PUSH1 0xA0 SHL SUB DUP2 MLOAD AND PUSH1 0x1 PUSH1 0x1 PUSH1 0x60 SHL SUB PUSH1 0xA0 SHL DUP4 SLOAD AND OR DUP3 SSTORE PUSH1 0x20 DUP2 ADD MLOAD SWAP2 DUP3 MLOAD PUSH1 0x1 PUSH1 0x1 PUSH1 0x40 SHL SUB DUP2 GT PUSH2 0x616 JUMPI PUSH2 0x2281 PUSH1 0x1 DUP4 ADD SLOAD PUSH2 0x4436 JUMP JUMPDEST PUSH1 0x1F DUP2 GT PUSH2 0x2B1F JUMPI JUMPDEST POP PUSH1 0x20 PUSH1 0x1F DUP3 GT PUSH1 0x1 EQ PUSH2 0x2AB1 JUMPI DUP2 SWAP3 SWAP4 SWAP5 PUSH1 0x0 SWAP3 PUSH2 0x2AA6 JUMPI JUMPDEST POP POP DUP2 PUSH1 0x1 SHL SWAP2 PUSH1 0x0 NOT SWAP1 PUSH1 0x3 SHL SHR NOT AND OR PUSH1 0x1 DUP3 ADD SSTORE JUMPDEST PUSH1 0x40 DUP3 ADD MLOAD SWAP2 DUP3 MLOAD PUSH1 0x1 PUSH1 0x1 PUSH1 0x40 SHL SUB DUP2 GT PUSH2 0x616 JUMPI PUSH2 0x22DF PUSH1 0x2 DUP5 ADD SLOAD PUSH2 0x4436 JUMP JUMPDEST PUSH1 0x1F DUP2 GT PUSH2 0x2A71 JUMPI JUMPDEST POP PUSH1 0x20 PUSH1 0x1F DUP3 GT PUSH1 0x1 EQ PUSH2 0x2A03 JUMPI DUP2 SWAP3 SWAP4 SWAP5 PUSH1 0x0 SWAP3 PUSH2 0x29F8 JUMPI JUMPDEST POP POP DUP2 PUSH1 0x1 SHL SWAP2 PUSH1 0x0 NOT SWAP1 PUSH1 0x3 SHL SHR NOT AND OR PUSH1 0x2 DUP4 ADD SSTORE JUMPDEST PUSH1 0x60 DUP2 ADD MLOAD SWAP2 DUP3 MLOAD PUSH1 0x1 PUSH1 0x1 PUSH1 0x40 SHL SUB DUP2 GT PUSH2 0x616 JUMPI PUSH2 0x233D PUSH1 0x3 DUP4 ADD SLOAD PUSH2 0x4436 JUMP JUMPDEST PUSH1 0x1F DUP2 GT PUSH2 0x29C3 JUMPI JUMPDEST POP PUSH1 0x20 PUSH1 0x1F DUP3 GT PUSH1 0x1 EQ PUSH2 0x2955 JUMPI DUP2 SWAP3 SWAP4 SWAP5 PUSH1 0x0 SWAP3 PUSH2 0x294A JUMPI JUMPDEST POP POP DUP2 PUSH1 0x1 SHL SWAP2 PUSH1 0x0 NOT SWAP1 PUSH1 0x3 SHL SHR NOT AND OR PUSH1 0x3 DUP3 ADD SSTORE JUMPDEST PUSH1 0x80 DUP3 ADD MLOAD SWAP2 DUP3 MLOAD PUSH1 0x1 PUSH1 0x1 PUSH1 0x40 SHL SUB DUP2 GT PUSH2 0x616 JUMPI PUSH2 0x239B PUSH1 0x4 DUP5 ADD SLOAD PUSH2 0x4436 JUMP JUMPDEST PUSH1 0x1F DUP2 GT PUSH2 0x2915 JUMPI JUMPDEST POP PUSH1 0x20 PUSH1 0x1F DUP3 GT PUSH1 0x1 EQ PUSH2 0x28A7 JUMPI DUP2 SWAP3 SWAP4 SWAP5 PUSH1 0x0 SWAP3 PUSH2 0x289C JUMPI JUMPDEST POP POP DUP2 PUSH1 0x1 SHL SWAP2 PUSH1 0x0 NOT SWAP1 PUSH1 0x3 SHL SHR NOT AND OR PUSH1 0x4 DUP4 ADD SSTORE JUMPDEST PUSH1 0xA0 DUP2 ADD MLOAD SWAP2 DUP3 MLOAD PUSH1 0x1 PUSH1 0x1 PUSH1 0x40 SHL SUB DUP2 GT PUSH2 0x616 JUMPI PUSH2 0x23F9 PUSH1 0x5 DUP4 ADD SLOAD PUSH2 0x4436 JUMP JUMPDEST PUSH1 0x1F DUP2 GT PUSH2 0x2867 JUMPI JUMPDEST POP PUSH1 0x20 PUSH1 0x1F DUP3 GT PUSH1 0x1 EQ PUSH2 0x27F9 JUMPI DUP2 SWAP3 SWAP4 SWAP5 PUSH1 0x0 SWAP3 PUSH2 0x27EE JUMPI JUMPDEST POP POP DUP2 PUSH1 0x1 SHL SWAP2 PUSH1 0x0 NOT SWAP1 PUSH1 0x3 SHL SHR NOT AND OR PUSH1 0x5 DUP3 ADD SSTORE JUMPDEST PUSH1 0xC0 DUP3 ADD MLOAD SWAP2 DUP3 MLOAD PUSH1 0x1 PUSH1 0x1 PUSH1 0x40 SHL SUB DUP2 GT PUSH2 0x616 JUMPI PUSH2 0x2457 PUSH1 0x6 DUP5 ADD SLOAD PUSH2 0x4436 JUMP JUMPDEST PUSH1 0x1F DUP2 GT PUSH2 0x27B9 JUMPI JUMPDEST POP PUSH1 0x20 PUSH1 0x1F DUP3 GT PUSH1 0x1 EQ PUSH2 0x274B JUMPI DUP2 SWAP3 SWAP4 SWAP5 PUSH1 0x0 SWAP3 PUSH2 0x2740 JUMPI JUMPDEST POP POP DUP2 PUSH1 0x1 SHL SWAP2 PUSH1 0x0 NOT SWAP1 PUSH1 0x3 SHL SHR NOT AND OR PUSH1 0x6 DUP4 ADD SSTORE JUMPDEST PUSH1 0xE0 DUP2 ADD MLOAD SWAP2 DUP3 MLOAD PUSH1 0x1 PUSH1 0x1 PUSH1 0x40 SHL SUB DUP2 GT PUSH2 0x616 JUMPI PUSH2 0x24B5 PUSH1 0x7 DUP4 ADD SLOAD PUSH2 0x4436 JUMP JUMPDEST PUSH1 0x1F DUP2 GT PUSH2 0x270B JUMPI JUMPDEST POP PUSH1 0x20 PUSH1 0x1F DUP3 GT PUSH1 0x1 EQ PUSH2 0x269D JUMPI DUP2 SWAP3 SWAP4 SWAP5 PUSH1 0x0 SWAP3 PUSH2 0x2692 JUMPI JUMPDEST POP POP DUP2 PUSH1 0x1 SHL SWAP2 PUSH1 0x0 NOT SWAP1 PUSH1 0x3 SHL SHR NOT AND OR PUSH1 0x7 DUP3 ADD SSTORE JUMPDEST PUSH2 0x100 DUP3 ADD MLOAD SWAP2 DUP3 MLOAD PUSH1 0x1 PUSH1 0x1 PUSH1 0x40 SHL SUB DUP2 GT PUSH2 0x616 JUMPI PUSH1 0x8 DUP4 ADD SWAP1 PUSH2 0x2516 DUP3 SLOAD PUSH2 0x4436 JUMP JUMPDEST PUSH1 0x1F DUP2 GT PUSH2 0x2660 JUMPI JUMPDEST POP PUSH1 0x20 SWAP5 PUSH1 0x1F DUP3 GT PUSH1 0x1 EQ PUSH2 0x25FA JUMPI SWAP5 DUP2 SWAP3 SWAP4 SWAP5 SWAP6 PUSH1 0x0 SWAP3 PUSH2 0x25EF JUMPI JUMPDEST POP POP DUP2 PUSH1 0x1 SHL SWAP2 PUSH1 0x0 NOT SWAP1 PUSH1 0x3 SHL SHR NOT AND OR SWAP1 SSTORE JUMPDEST PUSH2 0x120 DUP2 ADD MLOAD PUSH1 0x9 DUP4 ADD SWAP2 PUSH1 0x3 DUP3 LT ISZERO PUSH2 0x25D9 JUMPI DUP3 PUSH2 0x180 SWAP3 PUSH1 0xB SWAP5 SLOAD PUSH1 0xFF PUSH2 0xFF00 PUSH2 0x140 DUP7 ADD MLOAD ISZERO ISZERO PUSH1 0x8 SHL AND SWAP3 AND SWAP1 PUSH2 0xFFFF NOT AND OR OR SWAP1 SSTORE PUSH2 0x160 DUP2 ADD MLOAD PUSH1 0xA DUP6 ADD SSTORE ADD MLOAD SWAP2 ADD SSTORE PUSH1 0x40 MLOAD PUSH2 0x25AB DUP2 PUSH2 0x104 CALLDATALOAD PUSH2 0x4429 JUMP JUMPDEST TIMESTAMP PUSH1 0x20 DUP3 ADD MSTORE PUSH32 0xEEA238307E4577EC1B8645D63505C2D57767CFC074BB5AB579A615525F07A257 PUSH1 0x40 CALLER SWAP3 LOG2 STOP JUMPDEST PUSH4 0x4E487B71 PUSH1 0xE0 SHL PUSH1 0x0 MSTORE PUSH1 0x21 PUSH1 0x4 MSTORE PUSH1 0x24 PUSH1 0x0 REVERT JUMPDEST ADD MLOAD SWAP1 POP DUP6 DUP1 PUSH2 0x253C JUMP JUMPDEST PUSH1 0x1F NOT DUP3 AND SWAP6 DUP4 PUSH1 0x0 MSTORE PUSH1 0x20 PUSH1 0x0 KECCAK256 SWAP2 PUSH1 0x0 JUMPDEST DUP9 DUP2 LT PUSH2 0x2648 JUMPI POP DUP4 PUSH1 0x1 SWAP6 SWAP7 SWAP8 SWAP9 LT PUSH2 0x262F JUMPI JUMPDEST POP POP POP DUP2 SHL ADD SWAP1 SSTORE PUSH2 0x2551 JUMP JUMPDEST ADD MLOAD PUSH1 0x0 NOT PUSH1 0xF8 DUP5 PUSH1 0x3 SHL AND SHR NOT AND SWAP1 SSTORE DUP6 DUP1 DUP1 PUSH2 0x2622 JUMP JUMPDEST SWAP2 SWAP3 PUSH1 0x20 PUSH1 0x1 DUP2 SWAP3 DUP7 DUP6 ADD MLOAD DUP2 SSTORE ADD SWAP5 ADD SWAP3 ADD PUSH2 0x260D JUMP JUMPDEST PUSH2 0x268C SWAP1 DUP4 PUSH1 0x0 MSTORE PUSH1 0x20 PUSH1 0x0 KECCAK256 PUSH1 0x1F DUP5 ADD PUSH1 0x5 SHR DUP2 ADD SWAP2 PUSH1 0x20 DUP6 LT PUSH2 0x60C JUMPI PUSH1 0x1F ADD PUSH1 0x5 SHR ADD SWAP1 PUSH2 0x462E JUMP JUMPDEST DUP6 PUSH2 0x251F JUMP JUMPDEST ADD MLOAD SWAP1 POP DUP5 DUP1 PUSH2 0x24D8 JUMP JUMPDEST PUSH1 0x7 DUP4 ADD PUSH1 0x0 MSTORE PUSH1 0x20 PUSH1 0x0 KECCAK256 SWAP1 PUSH1 0x0 JUMPDEST PUSH1 0x1F NOT DUP5 AND DUP2 LT PUSH2 0x26F3 JUMPI POP PUSH1 0x1 SWAP4 SWAP5 SWAP6 DUP4 PUSH1 0x1F NOT DUP2 AND LT PUSH2 0x26DA JUMPI JUMPDEST POP POP POP DUP2 SHL ADD PUSH1 0x7 DUP3 ADD SSTORE PUSH2 0x24F0 JUMP JUMPDEST ADD MLOAD PUSH1 0x0 NOT PUSH1 0xF8 DUP5 PUSH1 0x3 SHL AND SHR NOT AND SWAP1 SSTORE DUP5 DUP1 DUP1 PUSH2 0x26CA JUMP JUMPDEST SWAP1 SWAP2 PUSH1 0x20 PUSH1 0x1 DUP2 SWAP3 DUP6 DUP11 ADD MLOAD DUP2 SSTORE ADD SWAP4 ADD SWAP2 ADD PUSH2 0x26AD JUMP JUMPDEST PUSH2 0x273A SWAP1 PUSH1 0x7 DUP5 ADD PUSH1 0x0 MSTORE PUSH1 0x20 PUSH1 0x0 KECCAK256 PUSH1 0x1F DUP5 ADD PUSH1 0x5 SHR DUP2 ADD SWAP2 PUSH1 0x20 DUP6 LT PUSH2 0x60C JUMPI PUSH1 0x1F ADD PUSH1 0x5 SHR ADD SWAP1 PUSH2 0x462E JUMP JUMPDEST DUP5 PUSH2 0x24BE JUMP JUMPDEST ADD MLOAD SWAP1 POP DUP5 DUP1 PUSH2 0x247A JUMP JUMPDEST PUSH1 0x6 DUP5 ADD PUSH1 0x0 MSTORE PUSH1 0x20 PUSH1 0x0 KECCAK256 SWAP1 PUSH1 0x0 JUMPDEST PUSH1 0x1F NOT DUP5 AND DUP2 LT PUSH2 0x27A1 JUMPI POP PUSH1 0x1 SWAP4 SWAP5 SWAP6 DUP4 PUSH1 0x1F NOT DUP2 AND LT PUSH2 0x2788 JUMPI JUMPDEST POP POP POP DUP2 SHL ADD PUSH1 0x6 DUP4 ADD SSTORE PUSH2 0x2492 JUMP JUMPDEST ADD MLOAD PUSH1 0x0 NOT PUSH1 0xF8 DUP5 PUSH1 0x3 SHL AND SHR NOT AND SWAP1 SSTORE DUP5 DUP1 DUP1 PUSH2 0x2778 JUMP JUMPDEST SWAP1 SWAP2 PUSH1 0x20 PUSH1 0x1 DUP2 SWAP3 DUP6 DUP11 ADD MLOAD DUP2 SSTORE ADD SWAP4 ADD SWAP2 ADD PUSH2 0x275B JUMP JUMPDEST PUSH2 0x27E8 SWAP1 PUSH1 0x6 DUP6 ADD PUSH1 0x0 MSTORE PUSH1 0x20 PUSH1 0x0 KECCAK256 PUSH1 0x1F DUP5 ADD PUSH1 0x5 SHR DUP2 ADD SWAP2 PUSH1 0x20 DUP6 LT PUSH2 0x60C JUMPI PUSH1 0x1F ADD PUSH1 0x5 SHR ADD SWAP1 PUSH2 0x462E JUMP JUMPDEST DUP5 PUSH2 0x2460 JUMP JUMPDEST ADD MLOAD SWAP1 POP DUP5 DUP1 PUSH2 0x241C JUMP JUMPDEST PUSH1 0x5 DUP4 ADD PUSH1 0x0 MSTORE PUSH1 0x20 PUSH1 0x0 KECCAK256 SWAP1 PUSH1 0x0 JUMPDEST PUSH1 0x1F NOT DUP5 AND DUP2 LT PUSH2 0x284F JUMPI POP PUSH1 0x1 SWAP4 SWAP5 SWAP6 DUP4 PUSH1 0x1F NOT DUP2 AND LT PUSH2 0x2836 JUMPI JUMPDEST POP POP POP DUP2 SHL ADD PUSH1 0x5 DUP3 ADD SSTORE PUSH2 0x2434 JUMP JUMPDEST ADD MLOAD PUSH1 0x0 NOT PUSH1 0xF8 DUP5 PUSH1 0x3 SHL AND SHR NOT AND SWAP1 SSTORE DUP5 DUP1 DUP1 PUSH2 0x2826 JUMP JUMPDEST SWAP1 SWAP2 PUSH1 0x20 PUSH1 0x1 DUP2 SWAP3 DUP6 DUP11 ADD MLOAD DUP2 SSTORE ADD SWAP4 ADD SWAP2 ADD PUSH2 0x2809 JUMP JUMPDEST PUSH2 0x2896 SWAP1 PUSH1 0x5 DUP5 ADD PUSH1 0x0 MSTORE PUSH1 0x20 PUSH1 0x0 KECCAK256 PUSH1 0x1F DUP5 ADD PUSH1 0x5 SHR DUP2 ADD SWAP2 PUSH1 0x20 DUP6 LT PUSH2 0x60C JUMPI PUSH1 0x1F ADD PUSH1 0x5 SHR ADD SWAP1 PUSH2 0x462E JUMP JUMPDEST DUP5 PUSH2 0x2402 JUMP JUMPDEST ADD MLOAD SWAP1 POP DUP5 DUP1 PUSH2 0x23BE JUMP JUMPDEST PUSH1 0x4 DUP5 ADD PUSH1 0x0 MSTORE PUSH1 0x20 PUSH1 0x0 KECCAK256 SWAP1 PUSH1 0x0 JUMPDEST PUSH1 0x1F NOT DUP5 AND DUP2 LT PUSH2 0x28FD JUMPI POP PUSH1 0x1 SWAP4 SWAP5 SWAP6 DUP4 PUSH1 0x1F NOT DUP2 AND LT PUSH2 0x28E4 JUMPI JUMPDEST POP POP POP DUP2 SHL ADD PUSH1 0x4 DUP4 ADD SSTORE PUSH2 0x23D6 JUMP JUMPDEST ADD MLOAD PUSH1 0x0 NOT PUSH1 0xF8 DUP5 PUSH1 0x3 SHL AND SHR NOT AND SWAP1 SSTORE DUP5 DUP1 DUP1 PUSH2 0x28D4 JUMP JUMPDEST SWAP1 SWAP2 PUSH1 0x20 PUSH1 0x1 DUP2 SWAP3 DUP6 DUP11 ADD MLOAD DUP2 SSTORE ADD SWAP4 ADD SWAP2 ADD PUSH2 0x28B7 JUMP JUMPDEST PUSH2 0x2944 SWAP1 PUSH1 0x4 DUP6 ADD PUSH1 0x0 MSTORE PUSH1 0x20 PUSH1 0x0 KECCAK256 PUSH1 0x1F DUP5 ADD PUSH1 0x5 SHR DUP2 ADD SWAP2 PUSH1 0x20 DUP6 LT PUSH2 0x60C JUMPI PUSH1 0x1F ADD PUSH1 0x5 SHR ADD SWAP1 PUSH2 0x462E JUMP JUMPDEST DUP5 PUSH2 0x23A4 JUMP JUMPDEST ADD MLOAD SWAP1 POP DUP5 DUP1 PUSH2 0x2360 JUMP JUMPDEST PUSH1 0x3 DUP4 ADD PUSH1 0x0 MSTORE PUSH1 0x20 PUSH1 0x0 KECCAK256 SWAP1 PUSH1 0x0 JUMPDEST PUSH1 0x1F NOT DUP5 AND DUP2 LT PUSH2 0x29AB JUMPI POP PUSH1 0x1 SWAP4 SWAP5 SWAP6 DUP4 PUSH1 0x1F NOT DUP2 AND LT PUSH2 0x2992 JUMPI JUMPDEST POP POP POP DUP2 SHL ADD PUSH1 0x3 DUP3 ADD SSTORE PUSH2 0x2378 JUMP JUMPDEST ADD MLOAD PUSH1 0x0 NOT PUSH1 0xF8 DUP5 PUSH1 0x3 SHL AND SHR NOT AND SWAP1 SSTORE DUP5 DUP1 DUP1 PUSH2 0x2982 JUMP JUMPDEST SWAP1 SWAP2 PUSH1 0x20 PUSH1 0x1 DUP2 SWAP3 DUP6 DUP11 ADD MLOAD DUP2 SSTORE ADD SWAP4 ADD SWAP2 ADD PUSH2 0x2965 JUMP JUMPDEST PUSH2 0x29F2 SWAP1 PUSH1 0x3 DUP5 ADD PUSH1 0x0 MSTORE PUSH1 0x20 PUSH1 0x0 KECCAK256 PUSH1 0x1F DUP5 ADD PUSH1 0x5 SHR DUP2 ADD SWAP2 PUSH1 0x20 DUP6 LT PUSH2 0x60C JUMPI PUSH1 0x1F ADD PUSH1 0x5 SHR ADD SWAP1 PUSH2 0x462E JUMP JUMPDEST DUP5 PUSH2 0x2346 JUMP JUMPDEST ADD MLOAD SWAP1 POP DUP5 DUP1 PUSH2 0x2302 JUMP JUMPDEST PUSH1 0x2 DUP5 ADD PUSH1 0x0 MSTORE PUSH1 0x20 PUSH1 0x0 KECCAK256 SWAP1 PUSH1 0x0 JUMPDEST PUSH1 0x1F NOT DUP5 AND DUP2 LT PUSH2 0x2A59 JUMPI POP PUSH1 0x1 SWAP4 SWAP5 SWAP6 DUP4 PUSH1 0x1F NOT DUP2 AND LT PUSH2 0x2A40 JUMPI JUMPDEST POP POP POP DUP2 SHL ADD PUSH1 0x2 DUP4 ADD SSTORE PUSH2 0x231A JUMP JUMPDEST ADD MLOAD PUSH1 0x0 NOT PUSH1 0xF8 DUP5 PUSH1 0x3 SHL AND SHR NOT AND SWAP1 SSTORE DUP5 DUP1 DUP1 PUSH2 0x2A30 JUMP JUMPDEST SWAP1 SWAP2 PUSH1 0x20 PUSH1 0x1 DUP2 SWAP3 DUP6 DUP11 ADD MLOAD DUP2 SSTORE ADD SWAP4 ADD SWAP2 ADD PUSH2 0x2A13 JUMP JUMPDEST PUSH2 0x2AA0 SWAP1 PUSH1 0x2 DUP6 ADD PUSH1 0x0 MSTORE PUSH1 0x20 PUSH1 0x0 KECCAK256 PUSH1 0x1F DUP5 ADD PUSH1 0x5 SHR DUP2 ADD SWAP2 PUSH1 0x20 DUP6 LT PUSH2 0x60C JUMPI PUSH1 0x1F ADD PUSH1 0x5 SHR ADD SWAP1 PUSH2 0x462E JUMP JUMPDEST DUP5 PUSH2 0x22E8 JUMP JUMPDEST ADD MLOAD SWAP1 POP DUP5 DUP1 PUSH2 0x22A4 JUMP JUMPDEST PUSH1 0x1 DUP4 ADD PUSH1 0x0 MSTORE PUSH1 0x20 PUSH1 0x0 KECCAK256 SWAP1 PUSH1 0x0 JUMPDEST PUSH1 0x1F NOT DUP5 AND DUP2 LT PUSH2 0x2B07 JUMPI POP PUSH1 0x1 SWAP4 SWAP5 SWAP6 DUP4 PUSH1 0x1F NOT DUP2 AND LT PUSH2 0x2AEE JUMPI JUMPDEST POP POP POP DUP2 SHL ADD PUSH1 0x1 DUP3 ADD SSTORE PUSH2 0x22BC JUMP JUMPDEST ADD MLOAD PUSH1 0x0 NOT PUSH1 0xF8 DUP5 PUSH1 0x3 SHL AND SHR NOT AND SWAP1 SSTORE DUP5 DUP1 DUP1 PUSH2 0x2ADE JUMP JUMPDEST SWAP1 SWAP2 PUSH1 0x20 PUSH1 0x1 DUP2 SWAP3 DUP6 DUP11 ADD MLOAD DUP2 SSTORE ADD SWAP4 ADD SWAP2 ADD PUSH2 0x2AC1 JUMP JUMPDEST PUSH2 0x2B4E SWAP1 PUSH1 0x1 DUP5 ADD PUSH1 0x0 MSTORE PUSH1 0x20 PUSH1 0x0 KECCAK256 PUSH1 0x1F DUP5 ADD PUSH1 0x5 SHR DUP2 ADD SWAP2 PUSH1 0x20 DUP6 LT PUSH2 0x60C JUMPI PUSH1 0x1F ADD PUSH1 0x5 SHR ADD SWAP1 PUSH2 0x462E JUMP JUMPDEST DUP5 PUSH2 0x228A JUMP JUMPDEST PUSH1 0x40 MLOAD PUSH3 0x461BCD PUSH1 0xE5 SHL DUP2 MSTORE PUSH1 0x20 PUSH1 0x4 DUP3 ADD MSTORE PUSH1 0x17 PUSH1 0x24 DUP3 ADD MSTORE PUSH32 0x5573657220616C72656164792072656769737465726564000000000000000000 PUSH1 0x44 DUP3 ADD MSTORE PUSH1 0x64 SWAP1 REVERT JUMPDEST PUSH1 0x40 MLOAD PUSH3 0x461BCD PUSH1 0xE5 SHL DUP2 MSTORE PUSH1 0x20 PUSH1 0x4 DUP3 ADD MSTORE PUSH1 0xC PUSH1 0x24 DUP3 ADD MSTORE PUSH12 0x496E76616C696420726F6C65 PUSH1 0xA0 SHL PUSH1 0x44 DUP3 ADD MSTORE PUSH1 0x64 SWAP1 REVERT JUMPDEST PUSH1 0x40 MLOAD PUSH3 0x461BCD PUSH1 0xE5 SHL DUP2 MSTORE PUSH1 0x20 PUSH1 0x4 DUP3 ADD MSTORE PUSH1 0x14 PUSH1 0x24 DUP3 ADD MSTORE PUSH20 0x4E616D652063616E6E6F7420626520656D707479 PUSH1 0x60 SHL PUSH1 0x44 DUP3 ADD MSTORE PUSH1 0x64 SWAP1 REVERT JUMPDEST CALLVALUE PUSH2 0x277 JUMPI PUSH1 0x0 CALLDATASIZE PUSH1 0x3 NOT ADD SLT PUSH2 0x277 JUMPI PUSH1 0x20 PUSH1 0x3 SLOAD PUSH1 0x40 MLOAD SWAP1 DUP2 MSTORE RETURN JUMPDEST CALLVALUE PUSH2 0x277 JUMPI PUSH1 0x20 DUP1 PUSH1 0x3 NOT CALLDATASIZE ADD SLT PUSH2 0x277 JUMPI PUSH1 0x4 CALLDATALOAD PUSH1 0x0 MSTORE PUSH1 0x10 DUP2 MSTORE PUSH1 0x40 PUSH1 0x0 KECCAK256 SWAP1 PUSH1 0x40 MLOAD SWAP1 DUP2 DUP2 DUP5 SLOAD SWAP2 DUP3 DUP2 MSTORE ADD SWAP4 PUSH1 0x0 MSTORE DUP2 PUSH1 0x0 KECCAK256 SWAP2 PUSH1 0x0 SWAP1 JUMPDEST DUP3 DUP3 LT PUSH2 0x2C7A JUMPI PUSH2 0x14A9 DUP6 PUSH2 0x149D DUP2 DUP10 SUB DUP3 PUSH2 0x41E0 JUMP JUMPDEST DUP4 SLOAD DUP7 MSTORE SWAP5 DUP6 ADD SWAP5 PUSH1 0x1 SWAP4 DUP5 ADD SWAP4 SWAP1 SWAP2 ADD SWAP1 PUSH2 0x2C63 JUMP JUMPDEST CALLVALUE PUSH2 0x277 JUMPI PUSH1 0x40 CALLDATASIZE PUSH1 0x3 NOT ADD SLT PUSH2 0x277 JUMPI PUSH2 0x2CAA PUSH2 0x434C JUMP JUMPDEST PUSH1 0x1 PUSH1 0x1 PUSH1 0xA0 SHL SUB AND PUSH1 0x0 SWAP1 DUP2 MSTORE PUSH1 0xF PUSH1 0x20 MSTORE PUSH1 0x40 SWAP1 KECCAK256 DUP1 SLOAD PUSH1 0x24 CALLDATALOAD SWAP2 SWAP1 DUP3 LT ISZERO PUSH2 0x277 JUMPI PUSH1 0x20 SWAP2 PUSH2 0xD91 SWAP2 PUSH2 0x4362 JUMP JUMPDEST CALLVALUE PUSH2 0x277 JUMPI PUSH1 0x0 CALLDATASIZE PUSH1 0x3 NOT ADD SLT PUSH2 0x277 JUMPI PUSH1 0x20 PUSH1 0x9 SLOAD PUSH1 0x40 MLOAD SWAP1 DUP2 MSTORE RETURN JUMPDEST CALLVALUE PUSH2 0x277 JUMPI PUSH1 0x0 CALLDATASIZE PUSH1 0x3 NOT ADD SLT PUSH2 0x277 JUMPI PUSH1 0x20 PUSH1 0x4 SLOAD PUSH1 0x40 MLOAD SWAP1 DUP2 MSTORE RETURN JUMPDEST CALLVALUE PUSH2 0x277 JUMPI PUSH1 0x0 CALLDATASIZE PUSH1 0x3 NOT ADD SLT PUSH2 0x277 JUMPI PUSH1 0x20 PUSH1 0x7 SLOAD PUSH1 0x40 MLOAD SWAP1 DUP2 MSTORE RETURN JUMPDEST CALLVALUE PUSH2 0x277 JUMPI PUSH1 0x0 CALLDATASIZE PUSH1 0x3 NOT ADD SLT PUSH2 0x277 JUMPI PUSH1 0x8 SLOAD PUSH1 0x40 MLOAD PUSH1 0x1 PUSH1 0x1 PUSH1 0xA0 SHL SUB SWAP1 SWAP2 AND DUP2 MSTORE PUSH1 0x20 SWAP1 RETURN JUMPDEST CALLVALUE PUSH2 0x277 JUMPI PUSH1 0x20 CALLDATASIZE PUSH1 0x3 NOT ADD SLT PUSH2 0x277 JUMPI PUSH2 0x2D77 PUSH2 0x45CA JUMP JUMPDEST PUSH1 0x4 DUP1 CALLDATALOAD SWAP1 SSTORE STOP JUMPDEST CALLVALUE PUSH2 0x277 JUMPI PUSH2 0x140 CALLDATASIZE PUSH1 0x3 NOT ADD SLT PUSH2 0x277 JUMPI PUSH1 0x24 CALLDATALOAD PUSH1 0x1 PUSH1 0x1 PUSH1 0x40 SHL SUB DUP2 GT PUSH2 0x277 JUMPI PUSH2 0x2DB0 SWAP1 CALLDATASIZE SWAP1 PUSH1 0x4 ADD PUSH2 0x4201 JUMP JUMPDEST PUSH1 0x44 CALLDATALOAD PUSH1 0x1 PUSH1 0x1 PUSH1 0x40 SHL SUB DUP2 GT PUSH2 0x277 JUMPI PUSH2 0x2DCF SWAP1 CALLDATASIZE SWAP1 PUSH1 0x4 ADD PUSH2 0x4201 JUMP JUMPDEST SWAP1 PUSH1 0x64 CALLDATALOAD PUSH1 0x1 PUSH1 0x1 PUSH1 0x40 SHL SUB DUP2 GT PUSH2 0x277 JUMPI PUSH2 0x2DEF SWAP1 CALLDATASIZE SWAP1 PUSH1 0x4 ADD PUSH2 0x426E JUMP JUMPDEST PUSH1 0x84 CALLDATALOAD PUSH1 0x1 PUSH1 0x1 PUSH1 0x40 SHL SUB DUP2 GT PUSH2 0x277 JUMPI PUSH2 0x2E0E SWAP1 CALLDATASIZE SWAP1 PUSH1 0x4 ADD PUSH2 0x426E JUMP JUMPDEST PUSH1 0xA4 CALLDATALOAD PUSH1 0x1 PUSH1 0x1 PUSH1 0x40 SHL SUB DUP2 GT PUSH2 0x277 JUMPI PUSH2 0x2E2D SWAP1 CALLDATASIZE SWAP1 PUSH1 0x4 ADD PUSH2 0x42EE JUMP JUMPDEST PUSH1 0xC4 CALLDATALOAD PUSH1 0x1 PUSH1 0x1 PUSH1 0x40 SHL SUB DUP2 GT PUSH2 0x277 JUMPI PUSH2 0x2E4C SWAP1 CALLDATASIZE SWAP1 PUSH1 0x4 ADD PUSH2 0x42EE JUMP JUMPDEST PUSH2 0x124 CALLDATALOAD PUSH1 0x1 PUSH1 0x1 PUSH1 0x40 SHL SUB DUP2 GT PUSH2 0x277 JUMPI PUSH2 0x2E6C SWAP1 CALLDATASIZE SWAP1 PUSH1 0x4 ADD PUSH2 0x4201 JUMP JUMPDEST SWAP5 CALLER PUSH1 0x0 MSTORE PUSH1 0xB PUSH1 0x20 MSTORE PUSH2 0x2E8D PUSH1 0xFF PUSH1 0x9 PUSH1 0x40 PUSH1 0x0 KECCAK256 ADD SLOAD PUSH1 0x8 SHR AND PUSH2 0x4645 JUMP JUMPDEST CALLER PUSH1 0x0 MSTORE PUSH1 0xB PUSH1 0x20 MSTORE PUSH1 0xFF PUSH1 0x9 PUSH1 0x40 PUSH1 0x0 KECCAK256 ADD SLOAD AND PUSH1 0x3 DUP2 LT ISZERO PUSH2 0x25D9 JUMPI PUSH1 0x1 SUB PUSH2 0x411C JUMPI PUSH1 0x2 PUSH1 0x1 SLOAD EQ PUSH2 0x40D7 JUMPI PUSH1 0x2 PUSH1 0x1 SSTORE PUSH1 0x8 SLOAD PUSH1 0xFF DUP2 PUSH1 0xA0 SHR AND ISZERO PUSH2 0x4092 JUMPI PUSH2 0x2EE4 SWAP1 PUSH1 0x1 PUSH1 0x1 PUSH1 0xA0 SHL SUB AND ISZERO ISZERO PUSH2 0x4687 JUMP JUMPDEST PUSH1 0x2 SLOAD PUSH1 0x40 MLOAD PUSH4 0x31A9108F PUSH1 0xE1 SHL DUP2 MSTORE PUSH1 0x4 DUP1 CALLDATALOAD SWAP1 DUP3 ADD MSTORE SWAP1 PUSH1 0x20 SWAP1 DUP3 SWAP1 PUSH1 0x24 SWAP1 DUP3 SWAP1 PUSH1 0x8 SHR PUSH1 0x1 PUSH1 0x1 PUSH1 0xA0 SHL SUB AND GAS STATICCALL SWAP1 DUP2 ISZERO PUSH2 0x1F56 JUMPI PUSH1 0x0 SWAP2 PUSH2 0x4073 JUMPI JUMPDEST POP PUSH1 0x1 PUSH1 0x1 PUSH1 0xA0 SHL SUB AND ISZERO PUSH2 0x402E JUMPI DUP5 MLOAD ISZERO PUSH2 0x3FE9 JUMPI PUSH1 0x5F PUSH2 0x104 CALLDATALOAD GT PUSH2 0x3FA4 JUMPI PUSH1 0x1 PUSH1 0x9 SLOAD ADD SWAP1 DUP2 PUSH1 0x9 SSTORE DUP6 MLOAD SWAP7 PUSH2 0x2F5C DUP9 PUSH2 0x4257 JUMP JUMPDEST SWAP8 PUSH2 0x2F6A PUSH1 0x40 MLOAD SWAP10 DUP11 PUSH2 0x41E0 JUMP JUMPDEST DUP1 DUP10 MSTORE PUSH2 0x2F79 PUSH1 0x1F NOT SWAP2 PUSH2 0x4257 JUMP JUMPDEST ADD PUSH1 0x0 JUMPDEST DUP2 DUP2 LT PUSH2 0x3F66 JUMPI POP POP PUSH1 0x0 JUMPDEST DUP8 MLOAD DUP2 LT ISZERO PUSH2 0x33FC JUMPI PUSH1 0xA PUSH1 0x1 DUP2 SLOAD ADD DUP1 SWAP2 SSTORE PUSH2 0x2FA6 DUP3 DUP11 PUSH2 0x46E7 JUMP JUMPDEST MLOAD PUSH2 0x2FB1 DUP4 DUP11 PUSH2 0x46E7 JUMP JUMPDEST MLOAD PUSH2 0x2FBC DUP5 DUP11 PUSH2 0x46E7 JUMP JUMPDEST MLOAD PUSH2 0x2FC7 DUP6 DUP11 PUSH2 0x46E7 JUMP JUMPDEST MLOAD SWAP1 PUSH1 0x40 MLOAD SWAP3 DUP4 PUSH1 0x20 DUP2 ADD LT PUSH1 0x1 PUSH1 0x1 PUSH1 0x40 SHL SUB PUSH1 0x20 DUP7 ADD GT OR PUSH2 0x616 JUMPI PUSH1 0x20 DUP5 ADD PUSH1 0x40 MSTORE PUSH1 0x0 DUP5 MSTORE PUSH1 0x40 MLOAD SWAP5 PUSH2 0x2FFD DUP7 PUSH2 0x4157 JUMP JUMPDEST DUP6 MSTORE PUSH1 0x20 DUP6 ADD MSTORE PUSH1 0x40 DUP5 ADD MSTORE PUSH1 0x60 DUP4 ADD MSTORE PUSH1 0x80 DUP3 ADD MSTORE PUSH1 0x0 PUSH1 0xA0 DUP3 ADD MSTORE DUP2 PUSH1 0x0 MSTORE PUSH1 0xE PUSH1 0x20 MSTORE PUSH1 0x40 PUSH1 0x0 KECCAK256 DUP2 MLOAD DUP1 MLOAD SWAP1 PUSH1 0x1 PUSH1 0x1 PUSH1 0x40 SHL SUB DUP3 GT PUSH2 0x616 JUMPI DUP2 SWAP1 PUSH2 0x3047 DUP5 SLOAD PUSH2 0x4436 JUMP JUMPDEST PUSH1 0x1F DUP2 GT PUSH2 0x33CA JUMPI JUMPDEST POP PUSH1 0x20 SWAP1 PUSH1 0x1F DUP4 GT PUSH1 0x1 EQ PUSH2 0x335E JUMPI PUSH1 0x0 SWAP3 PUSH2 0x3353 JUMPI JUMPDEST POP POP DUP2 PUSH1 0x1 SHL SWAP2 PUSH1 0x0 NOT SWAP1 PUSH1 0x3 SHL SHR NOT AND OR DUP2 SSTORE JUMPDEST PUSH1 0x20 DUP3 ADD MLOAD DUP1 MLOAD SWAP1 PUSH1 0x1 PUSH1 0x1 PUSH1 0x40 SHL SUB DUP3 GT PUSH2 0x616 JUMPI DUP2 SWAP1 PUSH2 0x30A1 PUSH1 0x1 DUP6 ADD SLOAD PUSH2 0x4436 JUMP JUMPDEST PUSH1 0x1F DUP2 GT PUSH2 0x331E JUMPI JUMPDEST POP PUSH1 0x20 SWAP1 PUSH1 0x1F DUP4 GT PUSH1 0x1 EQ PUSH2 0x32AC JUMPI PUSH1 0x0 SWAP3 PUSH2 0x32A1 JUMPI JUMPDEST POP POP DUP2 PUSH1 0x1 SHL SWAP2 PUSH1 0x0 NOT SWAP1 PUSH1 0x3 SHL SHR NOT AND OR PUSH1 0x1 DUP3 ADD SSTORE JUMPDEST PUSH1 0x40 DUP3 ADD MLOAD PUSH1 0x2 DUP3 ADD SSTORE PUSH1 0x60 DUP3 ADD MLOAD PUSH1 0x3 DUP3 ADD SSTORE PUSH1 0x4 DUP2 ADD PUSH1 0x80 DUP4 ADD MLOAD PUSH1 0x20 DUP2 MLOAD SWAP2 PUSH2 0x3105 DUP4 DUP6 PUSH2 0x4744 JUMP JUMPDEST ADD SWAP2 PUSH1 0x0 MSTORE PUSH1 0x20 PUSH1 0x0 KECCAK256 PUSH1 0x0 SWAP3 JUMPDEST DUP3 DUP5 LT PUSH2 0x3181 JUMPI POP POP POP POP PUSH1 0x5 PUSH1 0xA0 SWAP2 ADD SWAP2 ADD MLOAD PUSH2 0x3130 DUP2 PUSH2 0x45C0 JUMP JUMPDEST PUSH2 0x3139 DUP2 PUSH2 0x45C0 JUMP JUMPDEST PUSH1 0xFF DUP1 NOT DUP4 SLOAD AND SWAP2 AND OR SWAP1 SSTORE PUSH1 0x0 MSTORE PUSH1 0xE PUSH1 0x20 MSTORE PUSH2 0x315A PUSH1 0x40 PUSH1 0x0 KECCAK256 PUSH2 0x478D JUMP JUMPDEST PUSH2 0x3164 DUP3 DUP12 PUSH2 0x46E7 JUMP JUMPDEST MSTORE PUSH2 0x316F DUP2 DUP11 PUSH2 0x46E7 JUMP JUMPDEST POP PUSH1 0x0 NOT DUP2 EQ PUSH2 0x1B38 JUMPI PUSH1 0x1 ADD PUSH2 0x2F89 JUMP JUMPDEST DUP1 MLOAD DUP1 MLOAD SWAP1 PUSH1 0x1 PUSH1 0x1 PUSH1 0x40 SHL SUB DUP3 GT PUSH2 0x616 JUMPI PUSH2 0x319E DUP5 SLOAD PUSH2 0x4436 JUMP JUMPDEST PUSH1 0x1F DUP2 GT PUSH2 0x3264 JUMPI JUMPDEST POP PUSH1 0x20 SWAP1 PUSH1 0x1F DUP4 GT PUSH1 0x1 EQ PUSH2 0x31F4 JUMPI SWAP3 DUP3 PUSH1 0x1 SWAP5 SWAP4 PUSH1 0x20 SWAP4 DUP7 SWAP6 PUSH1 0x0 SWAP3 PUSH2 0x31E9 JUMPI JUMPDEST POP POP PUSH1 0x0 NOT PUSH1 0x3 DUP4 SWAP1 SHL SHR NOT AND SWAP1 DUP5 SHL OR DUP6 SSTORE JUMPDEST ADD SWAP3 ADD SWAP4 ADD SWAP3 SWAP1 PUSH2 0x3113 JUMP JUMPDEST ADD MLOAD SWAP1 POP CODESIZE DUP1 PUSH2 0x31C9 JUMP JUMPDEST SWAP1 DUP5 PUSH1 0x0 MSTORE PUSH1 0x20 PUSH1 0x0 KECCAK256 SWAP2 PUSH1 0x0 JUMPDEST PUSH1 0x1F NOT DUP6 AND DUP2 LT PUSH2 0x324C JUMPI POP DUP4 PUSH1 0x20 SWAP4 PUSH1 0x1 SWAP7 SWAP4 DUP8 SWAP7 SWAP4 DUP8 SWAP5 PUSH1 0x1F NOT DUP2 AND LT PUSH2 0x3233 JUMPI JUMPDEST POP POP POP DUP2 SHL ADD DUP6 SSTORE PUSH2 0x31DD JUMP JUMPDEST ADD MLOAD PUSH1 0x0 NOT PUSH1 0xF8 DUP5 PUSH1 0x3 SHL AND SHR NOT AND SWAP1 SSTORE CODESIZE DUP1 DUP1 PUSH2 0x3226 JUMP JUMPDEST SWAP2 SWAP3 PUSH1 0x20 PUSH1 0x1 DUP2 SWAP3 DUP7 DUP6 ADD MLOAD DUP2 SSTORE ADD SWAP5 ADD SWAP3 ADD PUSH2 0x3202 JUMP JUMPDEST PUSH2 0x3291 SWAP1 DUP6 PUSH1 0x0 MSTORE PUSH1 0x20 PUSH1 0x0 KECCAK256 PUSH1 0x5 PUSH1 0x1F DUP7 ADD DUP2 SHR DUP3 ADD SWAP3 PUSH1 0x20 DUP8 LT PUSH2 0x3297 JUMPI JUMPDEST PUSH1 0x1F ADD SWAP1 SHR ADD SWAP1 PUSH2 0x462E JUMP JUMPDEST CODESIZE PUSH2 0x31A7 JUMP JUMPDEST SWAP2 SWAP3 POP DUP3 SWAP2 PUSH2 0x3285 JUMP JUMPDEST ADD MLOAD SWAP1 POP DUP16 DUP1 PUSH2 0x30C1 JUMP JUMPDEST SWAP3 POP PUSH1 0x1 DUP5 ADD PUSH1 0x0 MSTORE PUSH1 0x20 PUSH1 0x0 KECCAK256 SWAP1 PUSH1 0x0 SWAP4 JUMPDEST PUSH1 0x1F NOT DUP5 AND DUP6 LT PUSH2 0x3303 JUMPI PUSH1 0x1 SWAP5 POP DUP4 PUSH1 0x1F NOT DUP2 AND LT PUSH2 0x32EA JUMPI JUMPDEST POP POP POP DUP2 SHL ADD PUSH1 0x1 DUP3 ADD SSTORE PUSH2 0x30D9 JUMP JUMPDEST ADD MLOAD PUSH1 0x0 NOT PUSH1 0xF8 DUP5 PUSH1 0x3 SHL AND SHR NOT AND SWAP1 SSTORE DUP16 DUP1 DUP1 PUSH2 0x32DA JUMP JUMPDEST DUP2 DUP2 ADD MLOAD DUP4 SSTORE PUSH1 0x20 SWAP5 DUP6 ADD SWAP5 PUSH1 0x1 SWAP1 SWAP4 ADD SWAP3 SWAP1 SWAP2 ADD SWAP1 PUSH2 0x32BF JUMP JUMPDEST PUSH2 0x334D SWAP1 PUSH1 0x1 DUP7 ADD PUSH1 0x0 MSTORE PUSH1 0x20 PUSH1 0x0 KECCAK256 PUSH1 0x5 PUSH1 0x1F DUP7 ADD DUP2 SHR DUP3 ADD SWAP3 PUSH1 0x20 DUP8 LT PUSH2 0x3297 JUMPI PUSH1 0x1F ADD SWAP1 SHR ADD SWAP1 PUSH2 0x462E JUMP JUMPDEST CODESIZE PUSH2 0x30AA JUMP JUMPDEST ADD MLOAD SWAP1 POP DUP16 DUP1 PUSH2 0x3067 JUMP JUMPDEST SWAP3 POP DUP4 PUSH1 0x0 MSTORE PUSH1 0x20 PUSH1 0x0 KECCAK256 SWAP1 PUSH1 0x0 SWAP4 JUMPDEST PUSH1 0x1F NOT DUP5 AND DUP6 LT PUSH2 0x33AF JUMPI PUSH1 0x1 SWAP5 POP DUP4 PUSH1 0x1F NOT DUP2 AND LT PUSH2 0x3396 JUMPI JUMPDEST POP POP POP DUP2 SHL ADD DUP2 SSTORE PUSH2 0x307C JUMP JUMPDEST ADD MLOAD PUSH1 0x0 NOT PUSH1 0xF8 DUP5 PUSH1 0x3 SHL AND SHR NOT AND SWAP1 SSTORE DUP16 DUP1 DUP1 PUSH2 0x3389 JUMP JUMPDEST DUP2 DUP2 ADD MLOAD DUP4 SSTORE PUSH1 0x20 SWAP5 DUP6 ADD SWAP5 PUSH1 0x1 SWAP1 SWAP4 ADD SWAP3 SWAP1 SWAP2 ADD SWAP1 PUSH2 0x336E JUMP JUMPDEST PUSH2 0x33F6 SWAP1 DUP6 PUSH1 0x0 MSTORE PUSH1 0x20 PUSH1 0x0 KECCAK256 PUSH1 0x5 PUSH1 0x1F DUP7 ADD DUP2 SHR DUP3 ADD SWAP3 PUSH1 0x20 DUP8 LT PUSH2 0x3297 JUMPI PUSH1 0x1F ADD SWAP1 SHR ADD SWAP1 PUSH2 0x462E JUMP JUMPDEST CODESIZE PUSH2 0x3050 JUMP JUMPDEST POP SWAP1 PUSH1 0x24 SWAP2 DUP9 DUP11 PUSH1 0x20 PUSH1 0x1 DUP1 PUSH1 0xA0 SHL SUB PUSH1 0x2 SLOAD PUSH1 0x8 SHR AND PUSH1 0x40 MLOAD SWAP7 DUP8 DUP1 SWAP3 PUSH4 0x31A9108F PUSH1 0xE1 SHL DUP3 MSTORE PUSH1 0x4 CALLDATALOAD PUSH1 0x4 DUP4 ADD MSTORE GAS STATICCALL SWAP5 DUP6 ISZERO PUSH2 0x1F56 JUMPI PUSH1 0x0 SWAP6 PUSH2 0x3F35 JUMPI JUMPDEST POP PUSH1 0x3 SLOAD SWAP4 PUSH1 0x40 MLOAD SWAP6 PUSH2 0x344F DUP8 PUSH2 0x4172 JUMP JUMPDEST DUP8 DUP8 MSTORE PUSH1 0x4 CALLDATALOAD PUSH1 0x20 DUP9 ADD MSTORE CALLER PUSH1 0x40 DUP9 ADD MSTORE PUSH1 0x1 DUP1 PUSH1 0xA0 SHL SUB AND PUSH1 0x60 DUP8 ADD MSTORE PUSH1 0x80 DUP7 ADD MSTORE PUSH1 0xA0 DUP6 ADD MSTORE PUSH1 0xC0 DUP5 ADD MSTORE PUSH1 0xE4 CALLDATALOAD PUSH1 0xE0 DUP5 ADD MSTORE PUSH2 0x104 CALLDATALOAD PUSH2 0x100 DUP5 ADD MSTORE PUSH2 0x120 DUP4 ADD MSTORE PUSH1 0x0 PUSH2 0x140 DUP4 ADD MSTORE PUSH2 0x160 DUP3 ADD MSTORE TIMESTAMP PUSH2 0x180 DUP3 ADD MSTORE TIMESTAMP PUSH2 0x1A0 DUP3 ADD MSTORE DUP2 PUSH1 0x0 MSTORE PUSH1 0xC PUSH1 0x20 MSTORE PUSH1 0x40 PUSH1 0x0 KECCAK256 SWAP2 DUP2 MLOAD DUP4 SSTORE PUSH1 0x20 DUP3 ADD MLOAD PUSH1 0x1 DUP5 ADD SSTORE PUSH1 0x2 DUP4 ADD PUSH1 0x1 DUP1 PUSH1 0xA0 SHL SUB PUSH1 0x40 DUP5 ADD MLOAD AND SWAP1 PUSH1 0x1 PUSH1 0x1 PUSH1 0x60 SHL SUB PUSH1 0xA0 SHL SWAP2 DUP3 DUP3 SLOAD AND OR SWAP1 SSTORE PUSH1 0x3 DUP5 ADD SWAP1 PUSH1 0x1 DUP1 PUSH1 0xA0 SHL SUB PUSH1 0x60 DUP6 ADD MLOAD AND SWAP1 DUP3 SLOAD AND OR SWAP1 SSTORE PUSH1 0x80 DUP3 ADD MLOAD SWAP3 DUP4 MLOAD PUSH1 0x1 PUSH1 0x1 PUSH1 0x40 SHL SUB DUP2 GT PUSH2 0x616 JUMPI PUSH2 0x352E PUSH1 0x4 DUP4 ADD SLOAD PUSH2 0x4436 JUMP JUMPDEST PUSH1 0x1F DUP2 GT PUSH2 0x3F00 JUMPI JUMPDEST POP PUSH1 0x20 PUSH1 0x1F DUP3 GT PUSH1 0x1 EQ PUSH2 0x3E91 JUMPI DUP2 SWAP3 SWAP4 SWAP5 SWAP6 PUSH1 0x0 SWAP3 PUSH2 0x3E86 JUMPI JUMPDEST POP POP DUP2 PUSH1 0x1 SHL SWAP2 PUSH1 0x0 NOT SWAP1 PUSH1 0x3 SHL SHR NOT AND OR PUSH1 0x4 DUP3 ADD SSTORE JUMPDEST PUSH1 0xA0 DUP4 ADD MLOAD SWAP3 DUP4 MLOAD PUSH1 0x1 PUSH1 0x1 PUSH1 0x40 SHL SUB DUP2 GT PUSH2 0x616 JUMPI PUSH2 0x358D PUSH1 0x5 DUP5 ADD SLOAD PUSH2 0x4436 JUMP JUMPDEST PUSH1 0x1F DUP2 GT PUSH2 0x3E51 JUMPI JUMPDEST POP PUSH1 0x20 PUSH1 0x1F DUP3 GT PUSH1 0x1 EQ PUSH2 0x3DE2 JUMPI DUP2 SWAP3 SWAP4 SWAP5 SWAP6 PUSH1 0x0 SWAP3 PUSH2 0x3DD7 JUMPI JUMPDEST POP POP DUP2 PUSH1 0x1 SHL SWAP2 PUSH1 0x0 NOT SWAP1 PUSH1 0x3 SHL SHR NOT AND OR PUSH1 0x5 DUP4 ADD SSTORE JUMPDEST PUSH1 0xC0 DUP2 ADD MLOAD DUP1 MLOAD SWAP1 PUSH1 0x1 PUSH1 0x40 SHL DUP3 GT PUSH2 0x616 JUMPI PUSH1 0x6 DUP5 ADD SLOAD DUP3 PUSH1 0x6 DUP7 ADD SSTORE DUP1 DUP4 LT PUSH2 0x3D24 JUMPI JUMPDEST POP PUSH1 0x20 ADD SWAP1 PUSH1 0x6 DUP5 ADD PUSH1 0x0 MSTORE PUSH1 0x20 PUSH1 0x0 KECCAK256 PUSH1 0x0 SWAP3 JUMPDEST DUP3 DUP5 LT PUSH2 0x3981 JUMPI POP POP POP POP PUSH1 0xE0 DUP2 ADD MLOAD PUSH1 0x7 DUP4 ADD SSTORE PUSH2 0x100 DUP2 ADD MLOAD PUSH1 0x8 DUP4 ADD SSTORE PUSH2 0x120 DUP2 ADD MLOAD DUP1 MLOAD SWAP1 PUSH1 0x1 PUSH1 0x1 PUSH1 0x40 SHL SUB DUP3 GT PUSH2 0x616 JUMPI PUSH2 0x3648 PUSH1 0x9 DUP6 ADD SLOAD PUSH2 0x4436 JUMP JUMPDEST PUSH1 0x1F DUP2 GT PUSH2 0x394C JUMPI JUMPDEST POP PUSH1 0x20 SWAP1 PUSH1 0x1F DUP4 GT PUSH1 0x1 EQ PUSH2 0x38D6 JUMPI SWAP2 DUP1 PUSH1 0xD SWAP5 SWAP3 PUSH2 0x1A0 SWAP5 PUSH1 0x0 SWAP3 PUSH2 0x38CB JUMPI JUMPDEST POP POP DUP2 PUSH1 0x1 SHL SWAP2 PUSH1 0x0 NOT SWAP1 PUSH1 0x3 SHL SHR NOT AND OR PUSH1 0x9 DUP6 ADD SSTORE JUMPDEST PUSH2 0x36A5 PUSH2 0x140 DUP3 ADD MLOAD PUSH2 0x369C DUP2 PUSH2 0x45C0 JUMP JUMPDEST PUSH1 0xA DUP7 ADD PUSH2 0x47F4 JUMP JUMPDEST PUSH2 0x160 DUP2 ADD MLOAD PUSH1 0xB DUP6 ADD SSTORE PUSH2 0x180 DUP2 ADD MLOAD PUSH1 0xC DUP6 ADD SSTORE ADD MLOAD SWAP2 ADD SSTORE CALLER PUSH1 0x0 MSTORE PUSH1 0xF PUSH1 0x20 MSTORE PUSH2 0x36D7 DUP2 PUSH1 0x40 PUSH1 0x0 KECCAK256 PUSH2 0x480C JUMP JUMPDEST PUSH1 0x4 CALLDATALOAD PUSH1 0x0 MSTORE PUSH1 0x10 PUSH1 0x20 MSTORE PUSH2 0x36F0 DUP2 PUSH1 0x40 PUSH1 0x0 KECCAK256 PUSH2 0x480C JUMP JUMPDEST PUSH1 0x3 SLOAD PUSH1 0x40 MLOAD PUSH2 0x36FF DUP2 PUSH2 0x41C5 JUMP JUMPDEST PUSH1 0x11 DUP2 MSTORE PUSH17 0x195E1958DD5D1BDC97DC1C9BDC1BDCD85B PUSH1 0x7A SHL PUSH1 0x20 DUP1 DUP4 ADD DUP3 DUP2 MSTORE PUSH1 0x8 SLOAD PUSH1 0x40 MLOAD PUSH4 0x23B872DD PUSH1 0xE0 SHL DUP2 MSTORE CALLER PUSH1 0x4 DUP3 ADD MSTORE ADDRESS PUSH1 0x24 DUP3 ADD MSTORE PUSH1 0x44 DUP2 ADD DUP8 SWAP1 MSTORE SWAP2 SWAP5 SWAP3 SWAP1 DUP3 SWAP1 PUSH1 0x64 SWAP1 DUP3 SWAP1 PUSH1 0x0 SWAP1 PUSH1 0x1 PUSH1 0x1 PUSH1 0xA0 SHL SUB AND GAS CALL DUP1 ISZERO PUSH2 0x1F56 JUMPI PUSH2 0x38AC JUMPI JUMPDEST POP PUSH1 0x5 SLOAD DUP1 DUP6 MUL SWAP1 DUP6 DUP3 DIV EQ DUP6 ISZERO OR ISZERO PUSH2 0x1B38 JUMPI PUSH2 0x2710 DUP6 SWAP2 DIV DUP2 SUB GT PUSH2 0x1B38 JUMPI PUSH32 0x66AECC579AA1EF463C0ED1547C2CB6163370E6311A60CBA815252ACBB398F213 SWAP3 PUSH2 0x3812 SWAP3 PUSH1 0x40 MLOAD PUSH1 0x20 DUP2 ADD SWAP1 PUSH2 0x37D6 PUSH1 0x20 DUP3 DUP8 MLOAD PUSH2 0x37C9 DUP2 DUP8 DUP11 PUSH2 0x43E1 JUMP JUMPDEST DUP2 ADD SUB DUP1 DUP5 MSTORE ADD DUP3 PUSH2 0x41E0 JUMP JUMPDEST MLOAD SWAP1 KECCAK256 SWAP1 PUSH1 0x40 MLOAD PUSH1 0x20 DUP2 ADD SWAP2 DUP3 MSTORE PUSH1 0x11 DUP2 MSTORE PUSH2 0x37F1 DUP2 PUSH2 0x41C5 JUMP JUMPDEST MLOAD SWAP1 KECCAK256 SUB PUSH2 0x3855 JUMPI JUMPDEST POP PUSH1 0x40 MLOAD SWAP4 DUP5 MSTORE PUSH1 0x60 PUSH1 0x20 DUP6 ADD MSTORE PUSH1 0x60 DUP5 ADD SWAP1 PUSH2 0x4404 JUMP JUMPDEST SWAP2 TIMESTAMP PUSH1 0x40 DUP3 ADD MSTORE DUP1 CALLER SWAP4 SUB SWAP1 LOG2 PUSH1 0x40 MLOAD TIMESTAMP DUP2 MSTORE CALLER SWAP2 PUSH32 0x58641F9822B0DE362383333AEC34DF2AC6A1D31EE8840147E7CDADF01446330A PUSH1 0x20 PUSH1 0x4 CALLDATALOAD SWAP4 LOG4 PUSH1 0x1 DUP1 SSTORE STOP JUMPDEST PUSH2 0x387D SWAP1 PUSH1 0x20 PUSH1 0x40 MLOAD DUP1 SWAP3 PUSH2 0x3870 DUP7 MLOAD DUP1 SWAP3 DUP6 DUP6 ADD SWAP1 PUSH2 0x43E1 JUMP JUMPDEST DUP2 ADD SUB DUP1 DUP4 MSTORE ADD SWAP1 PUSH2 0x41E0 JUMP JUMPDEST PUSH2 0x38A6 PUSH1 0x40 MLOAD PUSH17 0x1A5B9D995CDD1BDC97DC1C9BDC1BDCD85B PUSH1 0x7A SHL PUSH1 0x20 DUP3 ADD MSTORE PUSH1 0x11 DUP2 MSTORE PUSH2 0x41C5 JUMP JUMPDEST DUP6 PUSH2 0x37FA JUMP JUMPDEST PUSH2 0x38C4 SWAP1 PUSH1 0x20 RETURNDATASIZE PUSH1 0x20 GT PUSH2 0x1F4F JUMPI PUSH2 0x1F45 DUP2 DUP4 PUSH2 0x41E0 JUMP JUMPDEST POP DUP6 PUSH2 0x3767 JUMP JUMPDEST ADD MLOAD SWAP1 POP DUP8 DUP1 PUSH2 0x3672 JUMP JUMPDEST SWAP1 PUSH1 0x9 DUP6 ADD PUSH1 0x0 MSTORE PUSH1 0x20 PUSH1 0x0 KECCAK256 SWAP2 PUSH1 0x0 JUMPDEST PUSH1 0x1F NOT DUP6 AND DUP2 LT PUSH2 0x3934 JUMPI POP SWAP3 PUSH1 0xD SWAP5 SWAP3 PUSH1 0x1 SWAP3 PUSH2 0x1A0 SWAP6 DUP4 PUSH1 0x1F NOT DUP2 AND LT PUSH2 0x391B JUMPI JUMPDEST POP POP POP DUP2 SHL ADD PUSH1 0x9 DUP6 ADD SSTORE PUSH2 0x368A JUMP JUMPDEST ADD MLOAD PUSH1 0x0 NOT PUSH1 0xF8 DUP5 PUSH1 0x3 SHL AND SHR NOT AND SWAP1 SSTORE DUP8 DUP1 DUP1 PUSH2 0x390B JUMP JUMPDEST SWAP2 SWAP3 PUSH1 0x20 PUSH1 0x1 DUP2 SWAP3 DUP7 DUP6 ADD MLOAD DUP2 SSTORE ADD SWAP5 ADD SWAP3 ADD PUSH2 0x38E7 JUMP JUMPDEST PUSH2 0x397B SWAP1 PUSH1 0x9 DUP7 ADD PUSH1 0x0 MSTORE PUSH1 0x20 PUSH1 0x0 KECCAK256 PUSH1 0x1F DUP6 ADD PUSH1 0x5 SHR DUP2 ADD SWAP2 PUSH1 0x20 DUP7 LT PUSH2 0x60C JUMPI PUSH1 0x1F ADD PUSH1 0x5 SHR ADD SWAP1 PUSH2 0x462E JUMP JUMPDEST DUP6 PUSH2 0x3651 JUMP JUMPDEST DUP1 MLOAD DUP1 MLOAD DUP1 MLOAD SWAP1 PUSH1 0x1 PUSH1 0x1 PUSH1 0x40 SHL SUB DUP3 GT PUSH2 0x616 JUMPI DUP2 SWAP1 PUSH2 0x39A2 DUP7 SLOAD PUSH2 0x4436 JUMP JUMPDEST PUSH1 0x1F DUP2 GT PUSH2 0x3CF2 JUMPI JUMPDEST POP PUSH1 0x20 SWAP1 PUSH1 0x1F DUP4 GT PUSH1 0x1 EQ PUSH2 0x3C86 JUMPI PUSH1 0x0 SWAP3 PUSH2 0x3C7B JUMPI JUMPDEST POP POP DUP2 PUSH1 0x1 SHL SWAP2 PUSH1 0x0 NOT SWAP1 PUSH1 0x3 SHL SHR NOT AND OR DUP4 SSTORE JUMPDEST PUSH1 0x20 DUP2 ADD MLOAD DUP1 MLOAD SWAP1 PUSH1 0x1 PUSH1 0x1 PUSH1 0x40 SHL SUB DUP3 GT PUSH2 0x616 JUMPI DUP2 SWAP1 PUSH2 0x39FC PUSH1 0x1 DUP8 ADD SLOAD PUSH2 0x4436 JUMP JUMPDEST PUSH1 0x1F DUP2 GT PUSH2 0x3C46 JUMPI JUMPDEST POP PUSH1 0x20 SWAP1 PUSH1 0x1F DUP4 GT PUSH1 0x1 EQ PUSH2 0x3BD4 JUMPI PUSH1 0x0 SWAP3 PUSH2 0x3BC9 JUMPI JUMPDEST POP POP DUP2 PUSH1 0x1 SHL SWAP2 PUSH1 0x0 NOT SWAP1 PUSH1 0x3 SHL SHR NOT AND OR PUSH1 0x1 DUP5 ADD SSTORE JUMPDEST PUSH1 0x40 DUP2 ADD MLOAD PUSH1 0x2 DUP5 ADD SSTORE PUSH1 0x60 DUP2 ADD MLOAD PUSH1 0x3 DUP5 ADD SSTORE PUSH1 0x4 DUP4 ADD PUSH1 0x80 DUP3 ADD MLOAD PUSH1 0x20 DUP2 MLOAD SWAP2 PUSH2 0x3A60 DUP4 DUP6 PUSH2 0x4744 JUMP JUMPDEST ADD SWAP2 PUSH1 0x0 MSTORE PUSH1 0x20 PUSH1 0x0 KECCAK256 PUSH1 0x0 SWAP3 JUMPDEST DUP3 DUP5 LT PUSH2 0x3AB4 JUMPI POP POP POP POP PUSH1 0x20 PUSH1 0x1 SWAP3 PUSH1 0x6 SWAP3 PUSH1 0xA0 PUSH1 0x5 DUP8 ADD SWAP2 ADD MLOAD PUSH2 0x3A93 DUP2 PUSH2 0x45C0 JUMP JUMPDEST PUSH2 0x3A9C DUP2 PUSH2 0x45C0 JUMP JUMPDEST PUSH1 0xFF DUP1 NOT DUP4 SLOAD AND SWAP2 AND OR SWAP1 SSTORE ADD SWAP3 ADD SWAP4 ADD SWAP3 SWAP1 PUSH2 0x3604 JUMP JUMPDEST DUP1 MLOAD DUP1 MLOAD SWAP1 PUSH1 0x1 PUSH1 0x1 PUSH1 0x40 SHL SUB DUP3 GT PUSH2 0x616 JUMPI PUSH2 0x3AD1 DUP5 SLOAD PUSH2 0x4436 JUMP JUMPDEST PUSH1 0x1F DUP2 GT PUSH2 0x3B97 JUMPI JUMPDEST POP PUSH1 0x20 SWAP1 PUSH1 0x1F DUP4 GT PUSH1 0x1 EQ PUSH2 0x3B27 JUMPI SWAP3 DUP3 PUSH1 0x1 SWAP5 SWAP4 PUSH1 0x20 SWAP4 DUP7 SWAP6 PUSH1 0x0 SWAP3 PUSH2 0x3B1C JUMPI JUMPDEST POP POP PUSH1 0x0 NOT PUSH1 0x3 DUP4 SWAP1 SHL SHR NOT AND SWAP1 DUP5 SHL OR DUP6 SSTORE JUMPDEST ADD SWAP3 ADD SWAP4 ADD SWAP3 SWAP1 PUSH2 0x3A6E JUMP JUMPDEST ADD MLOAD SWAP1 POP CODESIZE DUP1 PUSH2 0x3AFC JUMP JUMPDEST SWAP1 DUP5 PUSH1 0x0 MSTORE PUSH1 0x20 PUSH1 0x0 KECCAK256 SWAP2 PUSH1 0x0 JUMPDEST PUSH1 0x1F NOT DUP6 AND DUP2 LT PUSH2 0x3B7F JUMPI POP DUP4 PUSH1 0x20 SWAP4 PUSH1 0x1 SWAP7 SWAP4 DUP8 SWAP7 SWAP4 DUP8 SWAP5 PUSH1 0x1F NOT DUP2 AND LT PUSH2 0x3B66 JUMPI JUMPDEST POP POP POP DUP2 SHL ADD DUP6 SSTORE PUSH2 0x3B10 JUMP JUMPDEST ADD MLOAD PUSH1 0x0 NOT PUSH1 0xF8 DUP5 PUSH1 0x3 SHL AND SHR NOT AND SWAP1 SSTORE CODESIZE DUP1 DUP1 PUSH2 0x3B59 JUMP JUMPDEST SWAP2 SWAP3 PUSH1 0x20 PUSH1 0x1 DUP2 SWAP3 DUP7 DUP6 ADD MLOAD DUP2 SSTORE ADD SWAP5 ADD SWAP3 ADD PUSH2 0x3B35 JUMP JUMPDEST PUSH2 0x3BC3 SWAP1 DUP6 PUSH1 0x0 MSTORE PUSH1 0x20 PUSH1 0x0 KECCAK256 PUSH1 0x1F DUP6 ADD PUSH1 0x5 SHR DUP2 ADD SWAP2 PUSH1 0x20 DUP7 LT PUSH2 0x60C JUMPI PUSH1 0x1F ADD PUSH1 0x5 SHR ADD SWAP1 PUSH2 0x462E JUMP JUMPDEST DUP15 PUSH2 0x3ADA JUMP JUMPDEST ADD MLOAD SWAP1 POP DUP11 DUP1 PUSH2 0x3A1C JUMP JUMPDEST SWAP3 POP PUSH1 0x1 DUP7 ADD PUSH1 0x0 MSTORE PUSH1 0x20 PUSH1 0x0 KECCAK256 SWAP1 PUSH1 0x0 SWAP4 JUMPDEST PUSH1 0x1F NOT DUP5 AND DUP6 LT PUSH2 0x3C2B JUMPI PUSH1 0x1 SWAP5 POP DUP4 PUSH1 0x1F NOT DUP2 AND LT PUSH2 0x3C12 JUMPI JUMPDEST POP POP POP DUP2 SHL ADD PUSH1 0x1 DUP5 ADD SSTORE PUSH2 0x3A34 JUMP JUMPDEST ADD MLOAD PUSH1 0x0 NOT PUSH1 0xF8 DUP5 PUSH1 0x3 SHL AND SHR NOT AND SWAP1 SSTORE DUP11 DUP1 DUP1 PUSH2 0x3C02 JUMP JUMPDEST DUP2 DUP2 ADD MLOAD DUP4 SSTORE PUSH1 0x20 SWAP5 DUP6 ADD SWAP5 PUSH1 0x1 SWAP1 SWAP4 ADD SWAP3 SWAP1 SWAP2 ADD SWAP1 PUSH2 0x3BE7 JUMP JUMPDEST PUSH2 0x3C75 SWAP1 PUSH1 0x1 DUP9 ADD PUSH1 0x0 MSTORE PUSH1 0x20 PUSH1 0x0 KECCAK256 PUSH1 0x1F DUP6 ADD PUSH1 0x5 SHR DUP2 ADD SWAP2 PUSH1 0x20 DUP7 LT PUSH2 0x60C JUMPI PUSH1 0x1F ADD PUSH1 0x5 SHR ADD SWAP1 PUSH2 0x462E JUMP JUMPDEST DUP12 PUSH2 0x3A05 JUMP JUMPDEST ADD MLOAD SWAP1 POP DUP11 DUP1 PUSH2 0x39C2 JUMP JUMPDEST SWAP3 POP DUP6 PUSH1 0x0 MSTORE PUSH1 0x20 PUSH1 0x0 KECCAK256 SWAP1 PUSH1 0x0 SWAP4 JUMPDEST PUSH1 0x1F NOT DUP5 AND DUP6 LT PUSH2 0x3CD7 JUMPI PUSH1 0x1 SWAP5 POP DUP4 PUSH1 0x1F NOT DUP2 AND LT PUSH2 0x3CBE JUMPI JUMPDEST POP POP POP DUP2 SHL ADD DUP4 SSTORE PUSH2 0x39D7 JUMP JUMPDEST ADD MLOAD PUSH1 0x0 NOT PUSH1 0xF8 DUP5 PUSH1 0x3 SHL AND SHR NOT AND SWAP1 SSTORE DUP11 DUP1 DUP1 PUSH2 0x3CB1 JUMP JUMPDEST DUP2 DUP2 ADD MLOAD DUP4 SSTORE PUSH1 0x20 SWAP5 DUP6 ADD SWAP5 PUSH1 0x1 SWAP1 SWAP4 ADD SWAP3 SWAP1 SWAP2 ADD SWAP1 PUSH2 0x3C96 JUMP JUMPDEST PUSH2 0x3D1E SWAP1 DUP8 PUSH1 0x0 MSTORE PUSH1 0x20 PUSH1 0x0 KECCAK256 PUSH1 0x1F DUP6 ADD PUSH1 0x5 SHR DUP2 ADD SWAP2 PUSH1 0x20 DUP7 LT PUSH2 0x60C JUMPI PUSH1 0x1F ADD PUSH1 0x5 SHR ADD SWAP1 PUSH2 0x462E JUMP JUMPDEST DUP12 PUSH2 0x39AB JUMP JUMPDEST PUSH1 0x6 DUP2 DUP2 MUL DIV DUP2 SUB PUSH2 0x1B38 JUMPI PUSH1 0x6 DUP4 DUP2 MUL DIV DUP4 SUB PUSH2 0x1B38 JUMPI PUSH1 0x6 DUP6 ADD PUSH1 0x0 MSTORE PUSH1 0x20 PUSH1 0x0 KECCAK256 DUP4 PUSH1 0x6 MUL DUP2 ADD JUMPDEST DUP3 PUSH1 0x6 MUL DUP3 ADD DUP2 LT PUSH2 0x3D62 JUMPI POP POP PUSH2 0x35EF JUMP JUMPDEST PUSH2 0x3D6B DUP2 PUSH2 0x46FB JUMP JUMPDEST PUSH2 0x3D77 PUSH1 0x1 DUP3 ADD PUSH2 0x46FB JUMP JUMPDEST PUSH1 0x0 PUSH1 0x2 DUP3 ADD SSTORE PUSH1 0x0 PUSH1 0x3 DUP3 ADD SSTORE PUSH1 0x4 DUP2 ADD SLOAD PUSH1 0x0 PUSH1 0x4 DUP4 ADD SSTORE DUP1 PUSH2 0x3DA7 JUMPI JUMPDEST POP PUSH1 0x0 PUSH1 0x5 DUP3 ADD SSTORE PUSH1 0x6 ADD PUSH2 0x3D4F JUMP JUMPDEST PUSH1 0x4 DUP3 ADD PUSH1 0x0 MSTORE PUSH1 0x20 PUSH1 0x0 KECCAK256 SWAP1 DUP2 ADD SWAP1 JUMPDEST DUP2 DUP2 LT PUSH2 0x3DC5 JUMPI POP PUSH2 0x3D97 JUMP JUMPDEST DUP1 PUSH2 0x3DD1 PUSH1 0x1 SWAP3 PUSH2 0x46FB JUMP JUMPDEST ADD PUSH2 0x3DB8 JUMP JUMPDEST ADD MLOAD SWAP1 POP DUP6 DUP1 PUSH2 0x35B1 JUMP JUMPDEST PUSH1 0x5 DUP5 ADD PUSH1 0x0 MSTORE PUSH1 0x20 PUSH1 0x0 KECCAK256 SWAP1 PUSH1 0x0 JUMPDEST PUSH1 0x1F NOT DUP5 AND DUP2 LT PUSH2 0x3E39 JUMPI POP PUSH1 0x1 SWAP4 SWAP5 SWAP6 SWAP7 DUP4 PUSH1 0x1F NOT DUP2 AND LT PUSH2 0x3E20 JUMPI JUMPDEST POP POP POP DUP2 SHL ADD PUSH1 0x5 DUP4 ADD SSTORE PUSH2 0x35C9 JUMP JUMPDEST ADD MLOAD PUSH1 0x0 NOT PUSH1 0xF8 DUP5 PUSH1 0x3 SHL AND SHR NOT AND SWAP1 SSTORE DUP6 DUP1 DUP1 PUSH2 0x3E10 JUMP JUMPDEST SWAP1 SWAP2 PUSH1 0x20 PUSH1 0x1 DUP2 SWAP3 DUP6 DUP12 ADD MLOAD DUP2 SSTORE ADD SWAP4 ADD SWAP2 ADD PUSH2 0x3DF2 JUMP JUMPDEST PUSH2 0x3E80 SWAP1 PUSH1 0x5 DUP6 ADD PUSH1 0x0 MSTORE PUSH1 0x20 PUSH1 0x0 KECCAK256 PUSH1 0x1F DUP5 ADD PUSH1 0x5 SHR DUP2 ADD SWAP2 PUSH1 0x20 DUP6 LT PUSH2 0x60C JUMPI PUSH1 0x1F ADD PUSH1 0x5 SHR ADD SWAP1 PUSH2 0x462E JUMP JUMPDEST DUP6 PUSH2 0x3596 JUMP JUMPDEST ADD MLOAD SWAP1 POP DUP6 DUP1 PUSH2 0x3552 JUMP JUMPDEST PUSH1 0x4 DUP4 ADD PUSH1 0x0 MSTORE PUSH1 0x20 PUSH1 0x0 KECCAK256 SWAP1 PUSH1 0x0 JUMPDEST PUSH1 0x1F NOT DUP5 AND DUP2 LT PUSH2 0x3EE8 JUMPI POP PUSH1 0x1 SWAP4 SWAP5 SWAP6 SWAP7 DUP4 PUSH1 0x1F NOT DUP2 AND LT PUSH2 0x3ECF JUMPI JUMPDEST POP POP POP DUP2 SHL ADD PUSH1 0x4 DUP3 ADD SSTORE PUSH2 0x356A JUMP JUMPDEST ADD MLOAD PUSH1 0x0 NOT PUSH1 0xF8 DUP5 PUSH1 0x3 SHL AND SHR NOT AND SWAP1 SSTORE DUP6 DUP1 DUP1 PUSH2 0x3EBF JUMP JUMPDEST SWAP1 SWAP2 PUSH1 0x20 PUSH1 0x1 DUP2 SWAP3 DUP6 DUP12 ADD MLOAD DUP2 SSTORE ADD SWAP4 ADD SWAP2 ADD PUSH2 0x3EA1 JUMP JUMPDEST PUSH2 0x3F2F SWAP1 PUSH1 0x4 DUP5 ADD PUSH1 0x0 MSTORE PUSH1 0x20 PUSH1 0x0 KECCAK256 PUSH1 0x1F DUP5 ADD PUSH1 0x5 SHR DUP2 ADD SWAP2 PUSH1 0x20 DUP6 LT PUSH2 0x60C JUMPI PUSH1 0x1F ADD PUSH1 0x5 SHR ADD SWAP1 PUSH2 0x462E JUMP JUMPDEST DUP6 PUSH2 0x3537 JUMP JUMPDEST PUSH2 0x3F58 SWAP2 SWAP6 POP PUSH1 0x20 RETURNDATASIZE PUSH1 0x20 GT PUSH2 0x3F5F JUMPI JUMPDEST PUSH2 0x3F50 DUP2 DUP4 PUSH2 0x41E0 JUMP JUMPDEST DUP2 ADD SWAP1 PUSH2 0x46C8 JUMP JUMPDEST SWAP4 DUP7 PUSH2 0x343D JUMP JUMPDEST POP RETURNDATASIZE PUSH2 0x3F46 JUMP JUMPDEST PUSH1 0x20 SWAP1 PUSH1 0x40 MLOAD PUSH2 0x3F75 DUP2 PUSH2 0x4157 JUMP JUMPDEST PUSH1 0x60 DUP1 DUP3 MSTORE DUP1 DUP5 DUP4 ADD MSTORE PUSH1 0x0 PUSH1 0x40 DUP4 ADD MSTORE PUSH1 0x0 DUP2 DUP4 ADD MSTORE PUSH1 0x80 DUP3 ADD MSTORE PUSH1 0x0 PUSH1 0xA0 DUP3 ADD MSTORE DUP3 DUP3 DUP14 ADD ADD MSTORE ADD PUSH2 0x2F7D JUMP JUMPDEST PUSH1 0x40 MLOAD PUSH3 0x461BCD PUSH1 0xE5 SHL DUP2 MSTORE PUSH1 0x20 PUSH1 0x4 DUP3 ADD MSTORE PUSH1 0x18 PUSH1 0x24 DUP3 ADD MSTORE PUSH32 0x4571756974792063616E6E6F7420657863656564203935250000000000000000 PUSH1 0x44 DUP3 ADD MSTORE PUSH1 0x64 SWAP1 REVERT JUMPDEST PUSH1 0x40 MLOAD PUSH3 0x461BCD PUSH1 0xE5 SHL DUP2 MSTORE PUSH1 0x20 PUSH1 0x4 DUP3 ADD MSTORE PUSH1 0x1F PUSH1 0x24 DUP3 ADD MSTORE PUSH32 0x4174206C65617374206F6E65206D696C6573746F6E6520726571756972656400 PUSH1 0x44 DUP3 ADD MSTORE PUSH1 0x64 SWAP1 REVERT JUMPDEST PUSH1 0x40 MLOAD PUSH3 0x461BCD PUSH1 0xE5 SHL DUP2 MSTORE PUSH1 0x20 PUSH1 0x4 DUP3 ADD MSTORE PUSH1 0x17 PUSH1 0x24 DUP3 ADD MSTORE PUSH32 0x49646561204E465420646F6573206E6F74206578697374000000000000000000 PUSH1 0x44 DUP3 ADD MSTORE PUSH1 0x64 SWAP1 REVERT JUMPDEST PUSH2 0x408C SWAP2 POP PUSH1 0x20 RETURNDATASIZE PUSH1 0x20 GT PUSH2 0x3F5F JUMPI PUSH2 0x3F50 DUP2 DUP4 PUSH2 0x41E0 JUMP JUMPDEST DUP9 PUSH2 0x2F24 JUMP JUMPDEST PUSH1 0x40 MLOAD PUSH3 0x461BCD PUSH1 0xE5 SHL DUP2 MSTORE PUSH1 0x20 PUSH1 0x4 DUP3 ADD MSTORE PUSH1 0x1B PUSH1 0x24 DUP3 ADD MSTORE PUSH32 0x46656573206172652063757272656E746C792064697361626C65640000000000 PUSH1 0x44 DUP3 ADD MSTORE PUSH1 0x64 SWAP1 REVERT JUMPDEST PUSH1 0x40 MLOAD PUSH3 0x461BCD PUSH1 0xE5 SHL DUP2 MSTORE PUSH1 0x20 PUSH1 0x4 DUP3 ADD MSTORE PUSH1 0x1F PUSH1 0x24 DUP3 ADD MSTORE PUSH32 0x5265656E7472616E637947756172643A207265656E7472616E742063616C6C00 PUSH1 0x44 DUP3 ADD MSTORE PUSH1 0x64 SWAP1 REVERT JUMPDEST PUSH1 0x40 MLOAD PUSH3 0x461BCD PUSH1 0xE5 SHL DUP2 MSTORE PUSH1 0x20 PUSH1 0x4 DUP3 ADD MSTORE PUSH1 0x13 PUSH1 0x24 DUP3 ADD MSTORE PUSH19 0x496E636F7272656374207573657220726F6C65 PUSH1 0x68 SHL PUSH1 0x44 DUP3 ADD MSTORE PUSH1 0x64 SWAP1 REVERT JUMPDEST PUSH1 0xC0 DUP2 ADD SWAP1 DUP2 LT PUSH1 0x1 PUSH1 0x1 PUSH1 0x40 SHL SUB DUP3 GT OR PUSH2 0x616 JUMPI PUSH1 0x40 MSTORE JUMP JUMPDEST PUSH2 0x1C0 DUP2 ADD SWAP1 DUP2 LT PUSH1 0x1 PUSH1 0x1 PUSH1 0x40 SHL SUB DUP3 GT OR PUSH2 0x616 JUMPI PUSH1 0x40 MSTORE JUMP JUMPDEST PUSH2 0x1A0 DUP2 ADD SWAP1 DUP2 LT PUSH1 0x1 PUSH1 0x1 PUSH1 0x40 SHL SUB DUP3 GT OR PUSH2 0x616 JUMPI PUSH1 0x40 MSTORE JUMP JUMPDEST PUSH1 0x80 DUP2 ADD SWAP1 DUP2 LT PUSH1 0x1 PUSH1 0x1 PUSH1 0x40 SHL SUB DUP3 GT OR PUSH2 0x616 JUMPI PUSH1 0x40 MSTORE JUMP JUMPDEST PUSH1 0x40 DUP2 ADD SWAP1 DUP2 LT PUSH1 0x1 PUSH1 0x1 PUSH1 0x40 SHL SUB DUP3 GT OR PUSH2 0x616 JUMPI PUSH1 0x40 MSTORE JUMP JUMPDEST SWAP1 PUSH1 0x1F DUP1 NOT SWAP2 ADD AND DUP2 ADD SWAP1 DUP2 LT PUSH1 0x1 PUSH1 0x1 PUSH1 0x40 SHL SUB DUP3 GT OR PUSH2 0x616 JUMPI PUSH1 0x40 MSTORE JUMP JUMPDEST DUP2 PUSH1 0x1F DUP3 ADD SLT ISZERO PUSH2 0x277 JUMPI DUP1 CALLDATALOAD SWAP1 PUSH1 0x1 PUSH1 0x1 PUSH1 0x40 SHL SUB DUP3 GT PUSH2 0x616 JUMPI PUSH1 0x40 MLOAD SWAP3 PUSH2 0x4235 PUSH1 0x1F DUP5 ADD PUSH1 0x1F NOT AND PUSH1 0x20 ADD DUP6 PUSH2 0x41E0 JUMP JUMPDEST DUP3 DUP5 MSTORE PUSH1 0x20 DUP4 DUP4 ADD ADD GT PUSH2 0x277 JUMPI DUP2 PUSH1 0x0 SWAP3 PUSH1 0x20 DUP1 SWAP4 ADD DUP4 DUP7 ADD CALLDATACOPY DUP4 ADD ADD MSTORE SWAP1 JUMP JUMPDEST PUSH1 0x1 PUSH1 0x1 PUSH1 0x40 SHL SUB DUP2 GT PUSH2 0x616 JUMPI PUSH1 0x5 SHL PUSH1 0x20 ADD SWAP1 JUMP JUMPDEST SWAP1 DUP1 PUSH1 0x1F DUP4 ADD SLT ISZERO PUSH2 0x277 JUMPI DUP2 CALLDATALOAD SWAP1 PUSH2 0x4286 DUP3 PUSH2 0x4257 JUMP JUMPDEST SWAP3 PUSH2 0x4294 PUSH1 0x40 MLOAD SWAP5 DUP6 PUSH2 0x41E0 JUMP JUMPDEST DUP3 DUP5 MSTORE PUSH1 0x20 SWAP3 DUP4 DUP1 DUP7 ADD SWAP2 PUSH1 0x5 SHL DUP4 ADD ADD SWAP3 DUP1 DUP5 GT PUSH2 0x277 JUMPI DUP5 DUP4 ADD SWAP2 JUMPDEST DUP5 DUP4 LT PUSH2 0x42C2 JUMPI POP POP POP POP POP POP SWAP1 JUMP JUMPDEST DUP3 CALLDATALOAD PUSH1 0x1 PUSH1 0x1 PUSH1 0x40 SHL SUB DUP2 GT PUSH2 0x277 JUMPI DUP7 SWAP2 PUSH2 0x42E3 DUP5 DUP5 DUP1 SWAP5 DUP10 ADD ADD PUSH2 0x4201 JUMP JUMPDEST DUP2 MSTORE ADD SWAP3 ADD SWAP2 PUSH2 0x42B2 JUMP JUMPDEST DUP2 PUSH1 0x1F DUP3 ADD SLT ISZERO PUSH2 0x277 JUMPI DUP1 CALLDATALOAD SWAP2 PUSH2 0x4305 DUP4 PUSH2 0x4257 JUMP JUMPDEST SWAP3 PUSH2 0x4313 PUSH1 0x40 MLOAD SWAP5 DUP6 PUSH2 0x41E0 JUMP JUMPDEST DUP1 DUP5 MSTORE PUSH1 0x20 SWAP3 DUP4 DUP1 DUP7 ADD SWAP3 PUSH1 0x5 SHL DUP3 ADD ADD SWAP3 DUP4 GT PUSH2 0x277 JUMPI DUP4 ADD SWAP1 JUMPDEST DUP3 DUP3 LT PUSH2 0x433D JUMPI POP POP POP POP SWAP1 JUMP JUMPDEST DUP2 CALLDATALOAD DUP2 MSTORE SWAP1 DUP4 ADD SWAP1 DUP4 ADD PUSH2 0x432F JUMP JUMPDEST PUSH1 0x4 CALLDATALOAD SWAP1 PUSH1 0x1 PUSH1 0x1 PUSH1 0xA0 SHL SUB DUP3 AND DUP3 SUB PUSH2 0x277 JUMPI JUMP JUMPDEST DUP1 SLOAD DUP3 LT ISZERO PUSH2 0x437A JUMPI PUSH1 0x0 MSTORE PUSH1 0x20 PUSH1 0x0 KECCAK256 ADD SWAP1 PUSH1 0x0 SWAP1 JUMP JUMPDEST PUSH4 0x4E487B71 PUSH1 0xE0 SHL PUSH1 0x0 MSTORE PUSH1 0x32 PUSH1 0x4 MSTORE PUSH1 0x24 PUSH1 0x0 REVERT JUMPDEST PUSH1 0x20 SWAP1 DUP2 PUSH1 0x40 DUP2 DUP4 ADD SWAP3 DUP3 DUP2 MSTORE DUP6 MLOAD DUP1 SWAP5 MSTORE ADD SWAP4 ADD SWAP2 PUSH1 0x0 JUMPDEST DUP3 DUP2 LT PUSH2 0x43B7 JUMPI POP POP POP POP SWAP1 JUMP JUMPDEST DUP4 MLOAD DUP6 MSTORE SWAP4 DUP2 ADD SWAP4 SWAP3 DUP2 ADD SWAP3 PUSH1 0x1 ADD PUSH2 0x43A9 JUMP JUMPDEST PUSH1 0x40 SWAP1 PUSH1 0x3 NOT ADD SLT PUSH2 0x277 JUMPI PUSH1 0x4 CALLDATALOAD SWAP1 PUSH1 0x24 CALLDATALOAD SWAP1 JUMP JUMPDEST PUSH1 0x0 JUMPDEST DUP4 DUP2 LT PUSH2 0x43F4 JUMPI POP POP PUSH1 0x0 SWAP2 ADD MSTORE JUMP JUMPDEST DUP2 DUP2 ADD MLOAD DUP4 DUP3 ADD MSTORE PUSH1 0x20 ADD PUSH2 0x43E4 JUMP JUMPDEST SWAP1 PUSH1 0x20 SWAP2 PUSH2 0x441D DUP2 MLOAD DUP1 SWAP3 DUP2 DUP6 MSTORE DUP6 DUP1 DUP7 ADD SWAP2 ADD PUSH2 0x43E1 JUMP JUMPDEST PUSH1 0x1F ADD PUSH1 0x1F NOT AND ADD ADD SWAP1 JUMP JUMPDEST SWAP1 PUSH1 0x3 DUP3 LT ISZERO PUSH2 0x25D9 JUMPI MSTORE JUMP JUMPDEST SWAP1 PUSH1 0x1 DUP3 DUP2 SHR SWAP3 AND DUP1 ISZERO PUSH2 0x4466 JUMPI JUMPDEST PUSH1 0x20 DUP4 LT EQ PUSH2 0x4450 JUMPI JUMP JUMPDEST PUSH4 0x4E487B71 PUSH1 0xE0 SHL PUSH1 0x0 MSTORE PUSH1 0x22 PUSH1 0x4 MSTORE PUSH1 0x24 PUSH1 0x0 REVERT JUMPDEST SWAP2 PUSH1 0x7F AND SWAP2 PUSH2 0x4445 JUMP JUMPDEST SWAP1 PUSH1 0x40 MLOAD SWAP2 DUP3 PUSH1 0x0 DUP3 SLOAD SWAP3 PUSH2 0x4484 DUP5 PUSH2 0x4436 JUMP JUMPDEST SWAP1 DUP2 DUP5 MSTORE PUSH1 0x1 SWAP5 DUP6 DUP2 AND SWAP1 DUP2 PUSH1 0x0 EQ PUSH2 0x44F3 JUMPI POP PUSH1 0x1 EQ PUSH2 0x44B0 JUMPI JUMPDEST POP POP PUSH2 0x44AE SWAP3 POP SUB DUP4 PUSH2 0x41E0 JUMP JUMPDEST JUMP JUMPDEST SWAP1 SWAP4 SWAP2 POP PUSH1 0x0 MSTORE PUSH1 0x20 SWAP1 DUP2 PUSH1 0x0 KECCAK256 SWAP4 PUSH1 0x0 SWAP2 JUMPDEST DUP2 DUP4 LT PUSH2 0x44DB JUMPI POP POP PUSH2 0x44AE SWAP4 POP DUP3 ADD ADD CODESIZE DUP1 PUSH2 0x44A0 JUMP JUMPDEST DUP6 SLOAD DUP9 DUP5 ADD DUP6 ADD MSTORE SWAP5 DUP6 ADD SWAP5 DUP8 SWAP5 POP SWAP2 DUP4 ADD SWAP2 PUSH2 0x44C3 JUMP JUMPDEST SWAP2 POP POP PUSH2 0x44AE SWAP5 POP PUSH1 0x20 SWAP3 POP PUSH1 0xFF NOT AND DUP3 DUP5 ADD MSTORE ISZERO ISZERO PUSH1 0x5 SHL DUP3 ADD ADD CODESIZE DUP1 PUSH2 0x44A0 JUMP JUMPDEST SWAP1 DUP2 SLOAD PUSH2 0x4522 DUP2 PUSH2 0x4257 JUMP JUMPDEST SWAP3 PUSH2 0x4530 PUSH1 0x40 MLOAD SWAP5 DUP6 PUSH2 0x41E0 JUMP JUMPDEST DUP2 DUP5 MSTORE PUSH1 0x0 SWAP1 DUP2 MSTORE PUSH1 0x20 DUP1 DUP3 KECCAK256 DUP2 DUP7 ADD JUMPDEST DUP5 DUP5 LT PUSH2 0x454F JUMPI POP POP POP POP POP JUMP JUMPDEST PUSH1 0x1 DUP4 DUP2 SWAP3 PUSH2 0x455D DUP6 PUSH2 0x4470 JUMP JUMPDEST DUP2 MSTORE ADD SWAP3 ADD SWAP4 ADD SWAP3 SWAP1 PUSH2 0x4541 JUMP JUMPDEST SWAP1 DUP2 MLOAD DUP1 DUP3 MSTORE PUSH1 0x20 DUP1 SWAP3 ADD SWAP2 DUP3 DUP2 DUP4 PUSH1 0x5 SHL DUP6 ADD SWAP6 ADD SWAP4 PUSH1 0x0 SWAP2 JUMPDEST DUP5 DUP4 LT PUSH2 0x4596 JUMPI POP POP POP POP POP POP SWAP1 JUMP JUMPDEST SWAP1 SWAP2 SWAP3 SWAP4 SWAP5 SWAP6 DUP5 DUP1 PUSH2 0x45B0 DUP4 DUP6 PUSH1 0x1 SWAP6 SUB DUP8 MSTORE DUP11 MLOAD PUSH2 0x4404 JUMP JUMPDEST SWAP9 ADD SWAP4 ADD SWAP4 ADD SWAP2 SWAP5 SWAP4 SWAP3 SWAP1 PUSH2 0x4586 JUMP JUMPDEST PUSH1 0x4 GT ISZERO PUSH2 0x25D9 JUMPI JUMP JUMPDEST PUSH1 0x0 SLOAD PUSH1 0x1 PUSH1 0x1 PUSH1 0xA0 SHL SUB AND CALLER SUB PUSH2 0x45DE JUMPI JUMP JUMPDEST PUSH1 0x64 PUSH1 0x40 MLOAD PUSH3 0x461BCD PUSH1 0xE5 SHL DUP2 MSTORE PUSH1 0x20 PUSH1 0x4 DUP3 ADD MSTORE PUSH1 0x20 PUSH1 0x24 DUP3 ADD MSTORE PUSH32 0x4F776E61626C653A2063616C6C6572206973206E6F7420746865206F776E6572 PUSH1 0x44 DUP3 ADD MSTORE REVERT JUMPDEST PUSH1 0x3 DUP3 LT ISZERO PUSH2 0x25D9 JUMPI MSTORE JUMP JUMPDEST DUP2 DUP2 LT PUSH2 0x4639 JUMPI POP POP JUMP JUMPDEST PUSH1 0x0 DUP2 SSTORE PUSH1 0x1 ADD PUSH2 0x462E JUMP JUMPDEST ISZERO PUSH2 0x464C JUMPI JUMP JUMPDEST PUSH1 0x40 MLOAD PUSH3 0x461BCD PUSH1 0xE5 SHL DUP2 MSTORE PUSH1 0x20 PUSH1 0x4 DUP3 ADD MSTORE PUSH1 0x13 PUSH1 0x24 DUP3 ADD MSTORE PUSH19 0x155CD95C881B9BDD081C9959DA5CDD195C9959 PUSH1 0x6A SHL PUSH1 0x44 DUP3 ADD MSTORE PUSH1 0x64 SWAP1 REVERT JUMPDEST ISZERO PUSH2 0x468E JUMPI JUMP JUMPDEST PUSH1 0x40 MLOAD PUSH3 0x461BCD PUSH1 0xE5 SHL DUP2 MSTORE PUSH1 0x20 PUSH1 0x4 DUP3 ADD MSTORE PUSH1 0x12 PUSH1 0x24 DUP3 ADD MSTORE PUSH18 0x1554D110C81D1BDAD95B881B9BDD081CD95D PUSH1 0x72 SHL PUSH1 0x44 DUP3 ADD MSTORE PUSH1 0x64 SWAP1 REVERT JUMPDEST SWAP1 DUP2 PUSH1 0x20 SWAP2 SUB SLT PUSH2 0x277 JUMPI MLOAD PUSH1 0x1 PUSH1 0x1 PUSH1 0xA0 SHL SUB DUP2 AND DUP2 SUB PUSH2 0x277 JUMPI SWAP1 JUMP JUMPDEST DUP1 MLOAD DUP3 LT ISZERO PUSH2 0x437A JUMPI PUSH1 0x20 SWAP2 PUSH1 0x5 SHL ADD ADD SWAP1 JUMP JUMPDEST PUSH2 0x4705 DUP2 SLOAD PUSH2 0x4436 JUMP JUMPDEST SWAP1 DUP2 PUSH2 0x470F JUMPI POP POP JUMP JUMPDEST DUP2 PUSH1 0x1F PUSH1 0x0 SWAP4 GT PUSH1 0x1 EQ PUSH2 0x4721 JUMPI POP SSTORE JUMP JUMPDEST SWAP1 DUP1 DUP4 SWAP2 DUP3 MSTORE PUSH2 0x4740 PUSH1 0x1F PUSH1 0x20 DUP5 KECCAK256 SWAP5 ADD PUSH1 0x5 SHR DUP5 ADD PUSH1 0x1 DUP6 ADD PUSH2 0x462E JUMP JUMPDEST SSTORE SSTORE JUMP JUMPDEST SWAP1 PUSH1 0x1 PUSH1 0x40 SHL DUP2 GT PUSH2 0x616 JUMPI DUP2 SLOAD SWAP2 DUP2 DUP2 SSTORE DUP3 DUP3 LT PUSH2 0x4762 JUMPI POP POP POP JUMP JUMPDEST PUSH1 0x0 MSTORE PUSH1 0x20 PUSH1 0x0 KECCAK256 SWAP2 DUP3 ADD SWAP2 ADD JUMPDEST DUP2 DUP2 LT PUSH2 0x477B JUMPI POP POP JUMP JUMPDEST DUP1 PUSH2 0x4787 PUSH1 0x1 SWAP3 PUSH2 0x46FB JUMP JUMPDEST ADD PUSH2 0x4770 JUMP JUMPDEST SWAP1 PUSH1 0x40 MLOAD PUSH2 0x479A DUP2 PUSH2 0x4157 JUMP JUMPDEST PUSH1 0xA0 PUSH1 0xFF PUSH1 0x5 DUP4 SWAP6 PUSH2 0x47AB DUP2 PUSH2 0x4470 JUMP JUMPDEST DUP6 MSTORE PUSH2 0x47B9 PUSH1 0x1 DUP3 ADD PUSH2 0x4470 JUMP JUMPDEST PUSH1 0x20 DUP7 ADD MSTORE PUSH1 0x2 DUP2 ADD SLOAD PUSH1 0x40 DUP7 ADD MSTORE PUSH1 0x3 DUP2 ADD SLOAD PUSH1 0x60 DUP7 ADD MSTORE PUSH2 0x47DE PUSH1 0x4 DUP3 ADD PUSH2 0x4516 JUMP JUMPDEST PUSH1 0x80 DUP7 ADD MSTORE ADD SLOAD AND SWAP2 PUSH2 0x47F0 DUP4 PUSH2 0x45C0 JUMP JUMPDEST ADD MSTORE JUMP JUMPDEST SWAP1 PUSH2 0x47FE DUP2 PUSH2 0x45C0 JUMP JUMPDEST PUSH1 0xFF DUP1 NOT DUP4 SLOAD AND SWAP2 AND OR SWAP1 SSTORE JUMP JUMPDEST DUP1 SLOAD PUSH1 0x1 PUSH1 0x40 SHL DUP2 LT ISZERO PUSH2 0x616 JUMPI PUSH2 0x4829 SWAP2 PUSH1 0x1 DUP3 ADD DUP2 SSTORE PUSH2 0x4362 JUMP JUMPDEST DUP2 SWAP3 SWAP2 SLOAD SWAP1 PUSH1 0x3 SHL SWAP2 DUP3 SHL SWAP2 PUSH1 0x0 NOT SWAP1 SHL NOT AND OR SWAP1 SSTORE JUMP JUMPDEST SWAP1 DUP2 PUSH1 0x20 SWAP2 SUB SLT PUSH2 0x277 JUMPI MLOAD DUP1 ISZERO ISZERO DUP2 SUB PUSH2 0x277 JUMPI SWAP1 JUMP INVALID LOG2 PUSH5 0x6970667358 0x22 SLT KECCAK256 PUSH14 0x825C0A57491BA494D9F4472847E3 DUP10 PUSH1 0xF7 0xC0 0xC PUSH22 0x65AD0C078A22BD75294BA064736F6C63430008140033 "},"methodIdentifiers":{"executorProposalFee()":"27e41481","executorProposals(uint256)":"adbe8e33","executorRewardPercentage()":"130721b6","feesEnabled()":"a64e4f8a","getExecutorProposal(uint256)":"8f6f78f3","getProposalsForIdea(uint256)":"23e746d7","getTotalMilestones()":"5a7da884","getTotalProposals()":"1a5007dd","getUser(address)":"6f77926b","getUserProposals(address)":"78ef1138","ideaNFT()":"3f344a1e","ideaProposals(uint256,uint256)":"bd68aa7c","innovatorRewardPercentage()":"4ad43228","investorProposalFee()":"18a118d8","investorProposals(uint256)":"6fa9095b","milestones(uint256)":"e89e4ed6","owner()":"8da5cb5b","pause()":"8456cb59","paused()":"5c975abb","platformFeePercentage()":"cdd78cfc","registerUser(string,string,string,string,string,string,string,string,uint8)":"39197b21","renounceOwnership()":"715018a6","setExecutorProposalFee(uint256)":"748a5f54","setFeeDistribution(uint256,uint256)":"60d458ed","setInvestorProposalFee(uint256)":"07a29984","setUsdcToken(address)":"5d886f22","submitExecutorProposal(uint256,string,string,string[],string[],uint256[],uint256[],uint256,uint256,string)":"06b46258","toggleFees()":"ddf54512","transferOwnership(address)":"f2fde38b","unpause()":"3f4ba83a","updateExecutorProposalStatus(uint256,uint8)":"4a1081a8","updateIdeaNFT(address)":"650bd736","updateUser(string,string,string,string,string,string,string,string)":"d7d91fe4","usdcToken()":"11eac855","userProposals(address,uint256)":"1b31527f","users(address)":"a87430ba","withdrawFees()":"476343ee"}}}}}